:020000040800F2
:1000000090060020FD3600082102000823020008A7
:10001000270200082B0200082F0200080000000041
:100020000000000000000000000000003302000893
:1000300035020008000000003702000839020008FD
:100040001737000817370008173700081737000858
:100050001737000817370008173700081737000848
:100060001737000817370008173700081737000838
:100070001737000817370008173700081737000828
:100080001737000817370008173700081737000818
:100090001737000817370008173700081737000808
:1000A00017370008173700081737000817370008F8
:1000B00017370008173700081737000817370008E8
:1000C00017370008173700081737000817370008D8
:1000D00017370008173700081737000817370008C8
:1000E00017370008173700081737000817370008B8
:1000F00017370008173700081737000817370008A8
:100100001737000817370008173700081737000897
:1001100017370008013300081737000817370008A1
:100120001737000817370008173700081737000877
:1001300000F002F800F03AF80AA090E8000C8244BF
:100140008344AAF10107DA4501D100F02FF8AFF29C
:10015000090EBAE80F0013F0010F18BFFB1A43F0A5
:10016000010318472842000048420000103A24BF0B
:1001700078C878C1FAD8520724BF30C830C144BF0C
:1001800004680C607047000000230024002500264E
:10019000103A28BF78C1FBD8520728BF30C148BFEA
:1001A0000B6070471FB51FBD10B510BD04F0BBF844
:1001B0001146FFF7F7FF00F009F804F0D9F803B48F
:1001C000FFF7F2FF03BC03F041F80000092002F042
:1001D000EEFF482002F04AFF104803F04AF800F012
:1001E0001DF940F2FF3200210A2003F094F840F29A
:1001F000FF3200210C2003F08EF80DE04FF47A70EE
:1002000002F074FF00F030F94FF4FA7002F06EFF64
:1002100002F0DAF800BFFEE7F0E7000020A10700D7
:10022000704700BFFEE700BFFEE700BFFEE700BF6C
:10023000FEE7704770477047704700000CB500201C
:10024000019000906C48006840F480306A49086072
:1002500000BF6948006800F4003000900198401C1D
:100260000190009818B90198B0F5A06FF1D16248DB
:10027000006800F4003010B10120009001E000207F
:1002800000900098012843D15C48006840F01000BD
:100290005A4908600846006820F0030008600846D4
:1002A000006840F0020008605348406852494860C6
:1002B0000846406848600846406840F480604860EE
:1002C0000846406820F47C1048600846406840F4C6
:1002D000E81048600846006840F08070086000BF81
:1002E0004548006800F000700028F9D04248406896
:1002F00020F00300404948600846406840F0020092
:10030000486000BF3C48406800F00C000828F9D164
:100310000CBD10B5FFF792FF10BD10B53648006850
:1003200040F00100344908600846406834490840FC
:100330003149486008460068324908402E49086043
:100340000846006820F4802008600846406820F4D1
:10035000FE0048604FF41F008860FFF7DAFF4FF09F
:1003600000602949086010BD10B50021002000225E
:10037000214B5B6803F00C0121B1042906D0082948
:1003800028D107E0214B224C236027E01F4B204C53
:10039000236023E0184B5B6803F47010164B5B6816
:1003A00003F48032022303EB904022B9194B4343FC
:1003B000174C23600DE0104B5B6803F4003323B14E
:1003C000144B4343124C236003E0104B4343104C47
:1003D000236003E00D4B0E4C236000BF00BF064BB3
:1003E0005B68C3F303130C4CE15C094B1B68CB4007
:1003F000074C236010BD00000010024000200240A6
:100400000000FFF8FFFFF6FE08ED00E000127A00A2
:100410000000002000093D000400002008B5012173
:10042000482003F015FD2020ADF8000010208DF8C5
:10043000030003208DF802006946094803F04CFAD6
:100440002021074803F0F5FA2020ADF800006946A6
:10045000044803F041FA2021024803F0EAFA08BDFB
:10046000000C01400018014010B54FF4967240F2A4
:10047000C711012003F0A0F84FF49672DF2102208B
:1004800003F09AF84FF4967240F2C121032003F072
:1004900093F84FF4967240F23121042003F08CF867
:1004A0004FF4967240F2E511052003F085F84FF401
:1004B000967240F2E511062003F07EF84FF4967232
:1004C00040F2F111072003F077F84FF496724FF4E1
:1004D0005671082003F070F84FF496724FF4E971EA
:1004E000092003F069F84FF496724FF4FA710A206C
:1004F00003F062F803F0BAF810BD10B54FF496722D
:1005000040F21511062002F064FF4FF4FA7002F079
:10051000EDFD4FF496724FF4F871062002F059FF8A
:100520004FF4FA7002F0E2FD10BD10B54FF4967270
:100530004FF4FD71012003F03FF84FF4FA7240F2DE
:100540007D21022003F038F803F090F84FF42F706B
:1005500002F0CCFD4FF4FA7240F2E721012003F0E3
:100560002BF8C82240F2B721022003F025F803F04F
:100570007DF84FF4FA7002F0B9FD4FF4FA72911D54
:10058000012003F019F8C82240F27D21022003F077
:1005900013F803F06BF84FF4FA7002F0A7FD4FF474
:1005A000FA7240F2E721012003F006F8C82240F277
:1005B0007D21022003F000F803F058F84FF4FA70A0
:1005C00002F094FD4FF4967240F2C711012002F040
:1005D000F3FF4FF4FA72DF21022002F0EDFF03F087
:1005E00045F84FF47A7002F081FD4FF47A7002F012
:1005F0007DFD4FF4967002F079FD10BD10B54FF4FB
:10060000C8724FF4F571012002F0D6FF4FF4E17289
:10061000F721022002F0D0FF4FF4967240F28A21B7
:10062000032002F0C9FF4FF4AF724FF40A710420A7
:1006300002F0C2FF4FF4167240F25331052002F06F
:10064000BBFF4FF4FA72F021062002F0B5FF03F071
:100650000DF84FF4487002F049FD4FF496724FF4D4
:10066000C871022002F0A8FF4FF496724FF4F471A3
:10067000032002F0A1FF4FF49672FD21062002F044
:100680009BFF02F0F3FF4FF4FA7002F02FFD4FF4DE
:10069000967240F29321012002F08EFF4FF4967281
:1006A00040F2B711022002F087FF4FF496724FF428
:1006B000E771032002F080FF4FF4967240F283113D
:1006C000042002F079FF4FF496724FF4A0710520D8
:1006D00002F072FF4FF49672AA21062002F06CFF1E
:1006E00002F0C4FF4FF4487002F000FD4FF47A703E
:1006F00002F0FCFC4FF4FA72D221082002F05CFFF9
:1007000002F0B4FF4FF47A7002F0F0FCC82002F05F
:10071000EDFCC8224FF4F371052002F04DFF4FF4B9
:10072000967240F24711092002F046FF02F09EFF48
:100730004FF47A7002F0DAFC4FF4AF7240F2E51138
:10074000072002F039FF4FF496724FF4057108202C
:1007500002F032FF4FF496724FF4E971092002F073
:100760002BFF4FF496724FF44D710A2002F024FFD4
:1007700002F07CFF4FF47A7002F0B8FC4FF49672EE
:1007800040F2E511062002F017FF02F06FFF4FF470
:100790007A7002F0ABFC4FF4967240F2F111072030
:1007A00002F00AFF4FF496724FF45671082002F0DF
:1007B00003FF4FF496724FF4FA710A2002F0FCFE28
:1007C00002F054FF4FF47A7002F090FC4FF4167070
:1007D00002F08CFCC82240F21E31062002F0ECFE32
:1007E00002F044FF4FF4487002F080FC4FF4967220
:1007F00040F29321012002F0DFFE4FF4967240F2A6
:10080000B711022002F0D8FE4FF496724FF4E77150
:10081000032002F0D1FE4FF4967240F283110420BF
:1008200002F0CAFE4B224FF42371052002F0C4FEF1
:1008300002F01CFF4FF47A7002F058FC4FF4FA708B
:1008400002F054FC4FF4967240F22E21012002F087
:10085000B3FEC8224FF4CE71022002F0ADFEC822D2
:100860004FF4F671032002F0A7FE4FF4967240F2A7
:10087000E511042002F0A0FE4FF496727B210520C2
:1008800002F09AFE02F0F2FE4FF47A7002F02EFCB3
:100890004FF4FA7002F02AFC4FF4967240F21F21D6
:1008A000012002F089FE4FF49672A821022002F086
:1008B00083FE4FF496724FF43271032002F07CFEF7
:1008C0004FF4967240F20E21042002F075FE4FF4B0
:1008D0009672AA21052002F06FFE4FF4967240F244
:1008E0001331062002F068FE02F0C0FE4FF47A7069
:1008F00002F0FCFB4FF4967240F2C711012002F0A7
:100900005BFE4FF49672DF21022002F055FE4FF499
:10091000967240F2C121032002F04EFE4FF496720F
:1009200040F23121042002F047FE4FF4967240F26B
:10093000E511052002F040FEC82240F2E511062034
:1009400002F03AFE02F092FE4FF47A7002F0CEFB13
:100950004FF47A7002F0CAFB4FF47A7002F0C6FBD3
:1009600010BD10B54FF4967240F2C911012002F08B
:1009700023FE4FF49672E021022002F01DFE4FF498
:10098000967240F2C121032002F016FE4FF4AF72BE
:1009900040F22E21042002F00FFE4FF49672A321A4
:1009A000052002F009FE4FF4967240F2D221062093
:1009B00002F002FE02F05AFE4FF47A7002F096FB4B
:1009C0004FF4967002F092FB4FF4967240F2AF1122
:1009D000022002F0F1FD4FF496724FF4FF710320F4
:1009E00002F0EAFD4FF496729D21052002F0E4FD2D
:1009F0004FF496724FF43171062002F0DDFD02F0E3
:100A000035FE4FF47A7002F071FB4FF4967240F2AB
:100A10009321012002F0D0FD4FF4967240F2B711FD
:100A2000022002F0C9FD4FF496724FF4E7710320E3
:100A300002F0C2FD4FF4967240F28311042002F0DE
:100A4000BBFD4FF496724FF41D71052002F0B4FD0A
:100A50004FF4967240F21731062002F0ADFD02F01D
:100A600005FE4FF47A7002F041FB4FF47A7002F009
:100A70003DFB4FF4FA72D221082002F09DFD02F0F6
:100A8000F5FD4FF47A7002F031FB4FF4967002F0EE
:100A90002DFB4FF4967240F24711092002F08CFDB5
:100AA00096224FF4F371052002F086FD02F0DEFD80
:100AB0004FF47A7002F01AFB4FF4AF7240F2E51176
:100AC000072002F079FD4FF496724FF4057108206B
:100AD00002F072FD4FF496724FF4E971092002F0B2
:100AE0006BFD4FF496724FF44D710A2002F064FDD5
:100AF00002F0BCFD4FF47A7002F0F8FA4FF49672EF
:100B000040F2E511062002F057FD02F0AFFD4FF470
:100B10007A7002F0EBFA4FF4967240F2F11107206E
:100B200002F04AFD4FF496724FF45671082002F01D
:100B300043FD4FF496724FF4E971092002F03CFD39
:100B40004FF496724FF4FA710A2002F035FD02F06C
:100B50008DFD4FF47A7002F0C9FA4FF4167002F06E
:100B6000C5FAC822A821062002F026FD02F07EFD6B
:100B70004FF47A7002F0BAFA4B224FF49F710520BD
:100B800002F01AFD02F072FD4FF47A7002F0AEFA34
:100B90004FF4967240F21F21012002F00DFD4FF438
:100BA00096724FF4CC71022002F006FD4FF496725B
:100BB00040F2E911032002F0FFFC4FF4967240F27C
:100BC0000E21042002F0F8FC4FF4967240F29B21B3
:100BD000052002F0F1FC02F049FD4FF4487002F0EC
:100BE00085FA4FF49672A821022002F0E5FC4FF43A
:100BF00096724FF43271032002F0DEFC4FF49672CD
:100C00004FF44871052002F0D7FC4FF49672B721DB
:100C1000062002F0D1FC4FF4967240F2EF1107204B
:100C200002F0CAFC02F022FD4FF47A7002F05EFA84
:100C30004FF4967240F2C711012002F0BDFC4FF450
:100C40009672DF21022002F0B7FC4FF4967240F258
:100C5000C121032002F0B0FC4FF4967240F2312122
:100C6000042002F0A9FC4FF4967240F2E511052031
:100C700002F0A2FC4FF4967240F2E511062002F059
:100C80009BFC4FF4967240F2EF11072002F094FCA7
:100C900002F0ECFC4FF47A7002F028FA4FF47A700C
:100CA00002F024FA4FF47A7002F020FA10BD10B569
:100CB0004FF4C8724FF4F571012002F07DFC4FF43F
:100CC000E172F721022002F077FC4FF4967240F2B5
:100CD0008A21032002F070FC4FF4AF724FF40A71C6
:100CE000042002F069FC4FF4167240F253310520E3
:100CF00002F062FC4FF4FA72F021062002F05CFC74
:100D000002F0B4FC4FF47A7002F0F0F9C82002F05F
:100D1000EDF94FF4967240F26F11012002F04CFC95
:100D2000FA22A921022002F047FCFA2240F2BB215C
:100D3000032002F041FC4FF496724FF4FF7104203F
:100D400002F03AFC4FF4967240F2CD21052002F0F9
:100D500033FC4FF4967240F2AF11062002F02CFCE7
:100D60004FF496724FF4F871072002F025FC4FF40F
:100D700096724FF45671082002F01EFC4FF49672E2
:100D800040F2D911092002F017FC4FF4967240F29C
:100D9000DD110A2002F010FC02F068FC4FF47A70BA
:100DA00002F0A4F9C82002F0A1F94FF49672FE21D6
:100DB000032002F001FC4FF4FA7240F20D110420FE
:100DC00002F0FAFB02F052FC4FF47A7002F08EF956
:100DD0004FF4167002F08AF94FF4C872B72101205F
:100DE00002F0EAFBC82240F21711022002F0E4FBF5
:100DF00002F03CFC4FF4167002F078F94FF4C87220
:100E000040F26F11012002F0D7FBC822A921022075
:100E100002F0D2FB02F02AFC4FF4167002F066F9E1
:100E20004FF4C872B721012002F0C6FBC82240F27D
:100E30001711022002F0C0FB02F018FC4FF41670EC
:100E400002F054F94FF4C87240F26F11012002F021
:100E5000B3FBC822A921022002F0AEFB02F006FC7F
:100E60004FF4167002F042F94FF4FA7240F2BB21CF
:100E7000032002F0A1FB4FF4AF724FF40471042081
:100E800002F09AFB02F0F2FB4FF47A7002F02EF9B6
:100E90004FF4967240F2F111012002F08DFBFA221C
:100EA000EA21022002F088FB4FF496724FF424717D
:100EB000032002F081FBFA224FF40971042002F0B2
:100EC0007BFB4FF4C87240F23E31052002F074FB08
:100ED0004FF4C8729521062002F06EFB4FF4C872E1
:100EE00040F2DD11072002F067FB4FF4E17240F29F
:100EF0004131082002F060FB4FF4C8724FF4EA71F0
:100F0000092002F059FB4FF4C87240F2DD110A20AB
:100F100002F052FB02F0AAFB4FF47A7002F0E6F8FE
:100F20004FF496724FF4E471012002F045FB4FF448
:100F30009672D821022002F03FFB4FF496724FF4D4
:100F40003071032002F038FB4FF4967240F23121E9
:100F5000042002F031FB4FF4AF7240F2E91105209A
:100F600002F02AFB4FF4AF7240F2E711062002F0C4
:100F700023FB02F07BFB4FF47A7002F0B7F84FF4DA
:100F80007A7002F0B3F84FF4967002F0AFF810BD2B
:100F900010B54FF496724FF4F571012002F00CFB7E
:100FA0004FF49672F721022002F006FB4FF496727E
:100FB00040F28A21032002F0FFFA4FF496724FF4B8
:100FC0000A71042002F0F8FA4FF4167240F253311D
:100FD000052002F0F1FA4FF4FA72F021062002F037
:100FE000EBFA02F043FB4FF47A7002F07FF8C8206E
:100FF00002F07CF84FF487724FF4F371012002F095
:10100000DBFA4FF48772D221022002F0D5FA4FF4B6
:10101000AF7240F2E121032002F0CEFA4FF4AF723A
:1010200040F2B121042002F0C7FA4FF4967240F268
:10103000CF21052002F0C0FA4FF4967240F2ED1174
:10104000062002F0B9FA4FF4967240F2E711072039
:1010500002F0B2FA4FF4967240F25131082002F0D9
:10106000ABFA4FF496724FF4E971092002F0A4FA3A
:101070004FF4967240F2DD110A2002F09DFA02F060
:10108000F5FA4FF47A7002F031F8C82002F02EF829
:10109000FA2240F24731012002F08EFAFA224FF490
:1010A0002471022002F088FA02F0E0FA4FF47A701C
:1010B00002F01CF84FF4167002F018F8C82240F243
:1010C0008221032002F078FA4FF4C87240F25B31BB
:1010D000042002F071FA02F0C9FA4FF4167002F01F
:1010E00005F8C82240F2E121032002F065FA4FF42E
:1010F000C87240F2B121042002F05EFA02F0B6FAA2
:101100004FF4167001F0F2FFC82240F28221032052
:1011100002F052FA4FF4C87240F25B31042002F040
:101120004BFA02F0A3FA4FF4167001F0DFFFC82269
:1011300040F2E121032002F03FFA4FF4C87240F27E
:10114000B121042002F038FA02F090FA4FF4167040
:1011500001F0CCFF4FF496724FF4F371012002F0CE
:101160002BFA4FF49672D421022002F025FA4FF4A4
:10117000AF7240F2E121032002F01EFA4FF4AF7289
:1011800040F2B121042002F017FA4FF4967240F2B7
:10119000CF21052002F010FA4FF4967240F2ED11C3
:1011A000062002F009FA4FF4967240F2E711072088
:1011B00002F002FA4FF4967240F25131082002F028
:1011C000FBF94FF496724FF4E971092002F0F4F93B
:1011D0004FF4967240F2DD110A2002F0EDF902F0B0
:1011E00045FA4FF47A7001F081FFC82001F07EFFCC
:1011F0004FF4967240F2C711012002F0DDF94FF46E
:101200008772DF21022002F0D7F94FF4967240F284
:10121000B221032002F0D0F94FF4967240F231214E
:10122000042002F0C9F94FF496724FF4487105207A
:1012300002F0C2F94FF49672B721062002F0BCF911
:1012400002F014FA4FF47A7001F050FFC82001F058
:101250004DFF4FF4967240F2C711012002F0ACF935
:101260004FF49672DF21022002F0A6F94FF4967235
:1012700040F2B721032002F09FF94FF4967240F23A
:101280003121042002F098F94FF4967240F2E511F2
:10129000052002F091F94FF4967240F2E511062014
:1012A00002F08AF902F0E2F94FF47A7001F01EFFC1
:1012B0004FF47A7001F01AFF4FF47A7001F016FFC4
:1012C00010BD10B54FF4C8724FF4F571012002F053
:1012D00073F94FF4E172F721022002F06DF94FF437
:1012E000967240F28A21032002F066F94FF4AF7241
:1012F0004FF40A71042002F05FF94FF4167240F2C5
:101300005331052002F058F94FF4FA72F02106200B
:1013100002F052F902F0AAF94FF47A7001F0E6FEF9
:10132000C82001F0E3FE4FF4967240F2D51101207F
:1013300002F042F94FF496729F21022002F03CF92C
:101340004FF4967240F2CB21032002F035F94FF4AE
:10135000967240F24721042002F02EF94FF4967263
:1013600040F2BE21052002F027F94FF4FA7240F254
:10137000DB11062002F020F902F078F94FF47A70C0
:1013800001F0B4FEC82001F0B1FE4FF4C872EC21A8
:10139000012002F011F94FF4C8724FF4BF7102201E
:1013A00002F00AF94FF4C8724FF4FA71032002F008
:1013B00003F94FF4C87240F23531042002F0FCF812
:1013C0004FF4FA724FF43C71052002F0F5F802F088
:1013D0004DF94FF42F7001F089FE4FF4967240F2F0
:1013E000D511012002F0E8F84FF496729F210220F7
:1013F00002F0E2F84FF4967240F2CB21032002F0A3
:10140000DBF84FF4967240F24721042002F0D4F842
:101410004FF4967240F2BE21052002F0CDF84FF451
:10142000967240F2DB11062002F0C6F802F01EF9B7
:101430004FF42F7001F05AFE4FF4C872EC210120D6
:1014400002F0BAF84FF4C8724FF4BF71022002F0F4
:10145000B3F84FF4C8724FF4FA71032002F0ACF8FD
:101460004FF4C87240F23531042002F0A5F84FF471
:10147000FA724FF43C71052002F09EF802F0F6F883
:101480004FF42F7001F032FE4FF4967240F2D511F6
:10149000012002F091F84FF496729F21022002F091
:1014A0008BF84FF4967240F2CB21032002F084F8BF
:1014B0004FF4967240F24721042002F07DF84FF479
:1014C000967240F2BE21052002F076F84FF4967233
:1014D00040F2DB11062002F06FF802F0C7F84FF47B
:1014E000487001F003FEC8224FF4F571012002F0AC
:1014F00063F8C822A821022002F05EF8C8224FF447
:101500003271032002F058F8C8224FF40A71042007
:1015100002F052F84FF496724FF44871052002F031
:101520004BF84FF4C872B721062002F045F802F0DC
:101530009DF84FF4487001F0D9FD4FF4967240F2D7
:10154000C711012002F038F84FF49672DF21022013
:1015500002F032F84FF4967240F2C121032002F0FB
:101560002BF84FF4967240F23121042002F024F857
:101570004FF4967240F2E511052002F01DF84FF489
:10158000967240F2E511062002F016F802F06EF8AD
:101590004FF47A7001F0AAFD4FF47A7001F0A6FDC5
:1015A0004FF47A7001F0A2FD10BD10B54FF49672A1
:1015B00040F2F121012001F0FFFF4FF4C87240F228
:1015C0009721022001F0F8FF4FF4AF724FF4DB7166
:1015D000032001F0F1FF4FF4AF7240F22F210420FD
:1015E00001F0EAFF4FF4967240F2E511052001F098
:1015F000E3FF642240F2E711062001F0DDFFC8227C
:1016000040F25B21072001F0D7FFC8224FF465713B
:10161000082001F0D1FF962240F2E311092001F0E9
:10162000CBFFC8224FF402710A2001F0C5FF02F07F
:101630001DF84FF47A7001F059FDB42240F24A21AE
:10164000082001F0B9FF462240F2F911072001F00D
:10165000B3FF02F00BF84FF47A7001F047FD4FF43E
:10166000487001F043FD4FF4E17240F24D3101202A
:1016700001F0A2FF4FF4967240F2A921022001F07E
:101680009BFFC82240F20F11032001F095FF4FF499
:10169000C872B321042001F08FFF4FF496724FF40B
:1016A000F371072001F088FF4FF4967240F2811128
:1016B000082001F081FF01F0D9FF4FF47A7001F0AA
:1016C00015FD4FF4967240F2B621022001F074FF2E
:1016D0004FF4967240F21111032001F06DFF4FF4A8
:1016E0009672B621042001F067FF4FF4967240F223
:1016F000A911092001F060FF4FF42F7240F2A231CE
:101700000A2001F059FF4FF48C724FF4C571072085
:1017100001F052FF4FF496724FF4C871082001F0A7
:101720004BFF01F0A3FF4FF47A7001F0DFFC4FF4A0
:101730008C724FF4F071012001F03EFF4FF48C7277
:101740004FF4D771022001F037FF4FF4967240F248
:10175000F111032001F030FF4FF4967240F23A216C
:10176000042001F029FF4FF4967240F2E5110720A2
:1017700001F022FFC82240F24621082001F01CFFA0
:101780004FF4967240F2DF11092001F015FF4FF47B
:10179000967240F201310A2001F00EFF01F066FF5F
:1017A0004FF4AF6001F0A2FC4FF4967240F2C71103
:1017B000012001F001FFC822DF21022001F0FCFE20
:1017C0004FF4167240F2C121032001F0F5FE4FF4F0
:1017D000967240F23121042001F0EEFE4FF4967231
:1017E00040F2F111072001F0E7FE4FF4C8724FF408
:1017F0005671082001F0E0FE642240F2DF1109205A
:1018000001F0DAFE78224FF4FA710A2001F0D4FEDA
:1018100001F02CFF4FF4FA7001F068FC4FF4AF7246
:101820004FF4FA710A2001F0C7FE01F01FFF4FF4D8
:10183000487001F05BFC4FF47A7001F057FC4FF4F4
:101840007A7001F053FC4FF47A7001F04FFC10BD38
:1018500010B54FF4967240F21B21012001F0ACFE4E
:101860004FF4C87240F29F11022001F0A5FE4FF420
:10187000AF7240F20F11032001F09EFE4FF4AF72E1
:10188000F021042001F098FE4FF496724FF4EF71AE
:10189000072001F091FE64224FF45171082001F0FD
:1018A0008BFE962240F28711092001F085FE4FF44D
:1018B000967240F2C1110A2001F07EFE01F0D6FEC0
:1018C0004FF47A7001F012FC82224FF439710A2031
:1018D00001F072FE01F0CAFE4FF4487001F006FC00
:1018E000502240F2A511092001F066FE4FF4487025
:1018F00001F0FCFB4FF496724FF44671012001F0A9
:101900005BFE4FF4967240F29E21022001F054FEDD
:101910004FF4967240F21511032001F04DFE4FF482
:101920009672D621042001F047FE4FF4967240F2E1
:10193000FD11092001F040FE4FF496724FF47571CD
:101940000A2001F039FE01F091FE4FF47A7001F0A7
:10195000CDFB4FF4967240F20321072001F02CFEDC
:101960004FF42F724FF4C771082001F025FE4FF499
:10197000AF7240F29221092001F01EFE01F076FEC6
:101980004FF47A7001F0B2FB4FF4967240F2B51149
:10199000022001F011FE4FF4967240F2F71103207D
:1019A00001F00AFE4FF496724FF40071042001F02A
:1019B00003FE4FF4967240F2F111072001F0FCFD96
:1019C0004FF4967240F22E21082001F0F5FD4FF4FD
:1019D000967240F21321092001F0EEFD4FF4AF7230
:1019E00040F22A310A2001F0E7FD01F03FFE4FF4FA
:1019F000617001F07BFB4FF4967240F2C711012039
:101A000001F0DAFD4FF41672DF21022001F0D4FD5F
:101A1000C82240F2C121032001F0CEFD4FF496729E
:101A200040F23121042001F0C7FD4FF4967240F2DC
:101A3000E511052001F0C0FD4FF4967240F2E5116A
:101A4000062001F0B9FD4FF48C7240F2F11107202D
:101A500001F0B2FD8C224FF45671082001F0ACFD6C
:101A60004FF4AF724FF4E971092001F0A5FD4FF476
:101A700048724FF4F5710A2001F09EFD01F0F6FD69
:101A80004FF47A7001F032FB4FF47A7001F02EFBC4
:101A90004FF47A7001F02AFB10BD10B54FF4967226
:101AA00040F21B21012001F087FD4FF4C87240F283
:101AB0009F11022001F080FD4FF4AF7240F20F1130
:101AC000032001F079FD4FF4AF72F021042001F002
:101AD00073FD4FF496724FF4EF71072001F06CFD27
:101AE00064224FF45171082001F066FD962240F205
:101AF0008711092001F060FD4FF4967240F2C11188
:101B00000A2001F059FD01F0B1FD4FF47A7001F0A7
:101B1000EDFA82224FF439710A2001F04DFD502276
:101B200040F2C311092001F047FD01F09FFD4FF481
:101B30007A7001F0DBFA4FF4487001F0D7FA4FF4F5
:101B400096724FF44671012001F036FD4FF4967203
:101B500040F29E21022001F02FFD4FF4967240F2D8
:101B60001511032001F028FD4FF49672D6210420B0
:101B700001F022FD4FF4967240F2FD11092001F0B0
:101B80001BFD4FF496724FF475710A2001F014FD9D
:101B900001F06CFD4FF47A7001F0A8FA4FF49672E0
:101BA00040F20321072001F007FD4FF42F724FF49C
:101BB000C771082001F000FD4FF4AF7240F292218E
:101BC000092001F0F9FC01F051FD4FF47A7001F0A9
:101BD0008DFA01F04BFD4FF47A7001F087FA4FF463
:101BE0007A7001F083FA4FF47A7001F07FFA10BD39
:101BF00010B54FF4C8724FF4F571012001F0DCFC10
:101C00004FF4E172F721022001F0D6FC4FF49672F6
:101C100040F28A21032001F0CFFC4FF4AF724FF461
:101C20000A71042001F0C8FC4FF4167240F25331DF
:101C3000052001F0C1FC4FF4FA72F021062001F0FA
:101C4000BBFC01F013FD4FF4487001F04FFA4FF464
:101C500096724FF4C871022001F0AEFC4FF49672F8
:101C60004FF4F471032001F0A7FC4FF49672FD21AC
:101C7000062001F0A1FC01F0F9FC4FF4FA7001F02C
:101C800035FA4FF4967240F29321012001F094FC52
:101C90004FF4967240F2B711022001F08DFC4FF420
:101CA00096724FF4E771032001F086FC4FF49672B0
:101CB00040F28311042001F07FFC4FF496724FF440
:101CC000A071052001F078FC4FF49672AA2106203D
:101CD00001F072FC01F0CAFC4FF4487001F006FA02
:101CE0004FF47A7001F002FA4FF4FA72D221082010
:101CF00001F062FC01F0BAFC4FF47A7001F0F6F9E1
:101D0000C82001F0F3F9C8224FF4F371052001F067
:101D100053FC4FF4967240F24711092001F04CFC3D
:101D200001F0A4FC4FF47A7001F0E0F94FF4AF72C7
:101D300040F2E511072001F03FFC4FF496724FF49A
:101D40000571082001F038FC4FF496724FF4E971E8
:101D5000092001F031FC4FF496724FF44D710A20C6
:101D600001F02AFC01F082FC4FF47A7001F0BEF918
:101D70004FF4967240F2E511062001F01DFC01F0CF
:101D800075FC4FF47A7001F0B1F94FF4967240F29D
:101D9000F111072001F010FC4FF496724FF45671C8
:101DA000082001F009FC4FF496724FF4FA710A20F2
:101DB00001F002FC01F05AFC4FF47A7001F096F940
:101DC0004FF4167001F092F94FF4AF7240F2012116
:101DD000012001F0F1FB4FF4AF7240F277210220B5
:101DE00001F0EAFB4FF4AF7240F22311032001F03F
:101DF000E3FB4FF4AF724FF40271042001F0DCFBFF
:101E000001F034FC4FF47A7001F070F94FF47A70FD
:101E100001F06CF9FA2240F20531012001F0CCFB0F
:101E2000FA224FF4BD71022001F0C6FBFA224FF4F2
:101E3000FF71032001F0C0FBFA224FF491710420DE
:101E400001F0BAFB01F012FC4FF47A7001F04EF988
:101E5000C82001F04BF9C822A821062001F0ACFBF4
:101E600001F004FC4FF47A7001F040F94B224FF47A
:101E70009F71052001F0A0FB01F0F8FB4FF47A7090
:101E800001F034F94FF4967240F21F21012001F065
:101E900093FB4FF496724FF4CC71022001F08CFB4F
:101EA0004FF4967240F2E911032001F085FB4FF4E4
:101EB000967240F20E21042001F07EFB4FF49672E0
:101EC00040F29B21052001F077FB01F0CFFB4FF49E
:101ED000487001F00BF94FF49672A821022001F02E
:101EE0006BFB4FF496724FF43271032001F064FBE8
:101EF0004FF496724FF44871052001F05DFB4FF4EA
:101F00009672B721062001F057FB4FF4967240F20B
:101F1000EF11072001F050FB01F0A8FB4FF47A709D
:101F200001F0E4F84FF4967240F2C711012001F07D
:101F300043FB4FF49672DF21022001F03DFB4FF48A
:101F4000967240F2C121032001F036FB4FF49672E5
:101F500040F23121042001F02FFB4FF4967240F241
:101F6000E511052001F028FB4FF4967240F2E511CF
:101F7000062001F021FB4FF4967240F2EF1107208A
:101F800001F01AFB01F072FB4FF47A7001F0AEF829
:101F90004FF47A7001F0AAF84FF47A7001F0A6F8C5
:101FA00010BD10B54FF4C8724FF4F571012001F067
:101FB00003FB4FF4E172F721022001F0FDFA4FF428
:101FC000967240F28A21032001F0F6FA4FF4AF72C4
:101FD0004FF40A71042001F0EFFA4FF4167240F248
:101FE0005331052001F0E8FA4FF4FA72F02106208F
:101FF00001F0E2FA01F03AFB4FF4487001F076F894
:102000004FF496724FF4C871022001F0D5FA4FF4E4
:1020100096724FF4F471032001F0CEFA4FF49672E9
:10202000FD21062001F0C8FA01F020FB4FF4FA7000
:1020300001F05CF84FF4967240F29321012001F018
:10204000BBFA4FF4967240F2B711022001F0B4FAD5
:102050004FF496724FF4E771032001F0ADFA4FF49C
:10206000967240F28311042001F0A6FA4FF49672A2
:102070004FF4A071052001F09FFA4FF49672AA2147
:10208000062001F099FA01F0F1FA4FF4487001F0DE
:102090002DF84FF47A7001F029F84FF4FA72D2213A
:1020A000082001F089FA01F0E1FA4FF47A7001F0AA
:1020B0001DF8C82001F01AF8C8224FF4F37105206A
:1020C00001F07AFA4FF4967240F24711092001F0BC
:1020D00073FA01F0CBFA4FF47A7001F007F84FF47D
:1020E000AF7240F2E511072001F066FA4FF49672E4
:1020F0004FF40571082001F05FFA4FF496724FF427
:102100004D710A2001F058FA01F0B0FA4FF47A70DC
:1021100000F0ECFF4FF4967240F2E511062001F05A
:102120004BFA01F0A3FA4FF47A7000F0DFFF4FF49E
:10213000967240F2F111072001F03EFA4FF49672C8
:102140004FF45671082001F037FA4FF496724FF4AD
:10215000E971092001F030FA4FF496724FF4FA71E8
:102160000A2001F029FA01F081FA4FF47A7000F0A8
:10217000BDFF4FF4167000F0B9FF4FF4AF7240F29C
:102180000121012001F018FA4FF4AF7240F27721DB
:10219000022001F011FA4FF4AF7240F22311032034
:1021A00001F00AFA4FF4AF724FF40271042001F00B
:1021B00003FA01F05BFA4FF47A7000F097FF4FF4E6
:1021C0007A7000F093FF4FF4AF724FF4067108205D
:1021D00001F0F2F94FF4AF724FF44D710A2001F0A3
:1021E000EBF901F043FA4FF47A7000F07FFF4FF4FF
:1021F000FA7000F07BFF4FF4967240F2F111072065
:1022000001F0DAF94FF496724FF45671082001F09C
:10221000D3F94FF496724FF4E971092001F0CCF92B
:102220004FF496724FF4FA710A2001F0C5F901F0EB
:102230001DFA4FF47A7000F059FFFA2240F205318E
:10224000012001F0B9F9FA224FF4BD71022001F02A
:10225000B3F9FA224FF4FF71032001F0ADF9FA222D
:102260004FF49171042001F0A7F901F0FFF94FF448
:102270007A7000F03BFFC82000F038FFC822A82188
:10228000062001F099F901F0F1F94FF47A7000F0AD
:102290002DFF4B224FF49F71052001F08DF901F0C5
:1022A000E5F94FF47A7000F021FF4FF4967240F296
:1022B0001F21012001F080F94FF496724FF4CC7188
:1022C000022001F079F94FF4967240F2E9110320EF
:1022D00001F072F94FF4967240F20E21042001F0E1
:1022E0006BF94FF4967240F29B21052001F064F9DE
:1022F00001F0BCF94FF4487000F0F8FE4FF496720C
:10230000A821022001F058F94FF496724FF432716F
:10231000032001F051F94FF496724FF448710520F3
:1023200001F04AF94FF49672B721062001F044F902
:102330004FF4967240F2EF11072001F03DF901F0E1
:1023400095F94FF47A7000F0D1FE4FF4967240F296
:10235000C711012001F030F94FF49672DF210220FD
:1023600001F02AF94FF4967240F2C121032001F0E6
:1023700023F94FF4967240F23121042001F01CF948
:102380004FF4967240F2E511052001F015F94FF473
:10239000967240F2E511062001F00EF94FF49672A4
:1023A00040F2EF11072001F007F901F05FF94FF457
:1023B0007A7000F09BFE4FF47A7000F097FE4FF4B5
:1023C0007A7000F093FE10BD10B54FF4967240F293
:1023D000F121012001F0F0F84FF4C87240F297218A
:1023E000022001F0E9F84FF4AF724FF4DB710320E3
:1023F00001F0E2F84FF4AF7240F22F21042001F017
:10240000DBF84FF4967240F2E511052001F0D4F8A4
:10241000642240F2E711062001F0CEF8C82240F213
:102420005B21072001F0C8F8C8224FF4657108202D
:1024300001F0C2F8962240F2E311092001F0BCF845
:10244000C82240F216210A2001F0B6F801F00EF978
:102450004FF47A7000F04AFE962240F24A2108209A
:1024600001F0AAF8322240F2F911072001F0A4F895
:1024700001F0FCF84FF47A7000F038FE4FF4487029
:1024800000F034FE4FF4967240F22E21012001F04C
:1024900093F84FF4967240F20721022001F08CF875
:1024A0004FF49672511D032001F086F84FF4967296
:1024B0004FF48671042001F07FF84FF496724FF4C8
:1024C000CD71082001F078F801F0D0F84FF47A705F
:1024D00000F00CFE4FF4967240F22721022001F02A
:1024E0006BF84FF49672D121032001F065F84FF498
:1024F000AF72F021042001F05FF8FA224FF4C871A6
:10250000072001F059F84FF4C8724FF45D710A20AA
:1025100001F052F801F0AAF84FF42F7000F0E6FD38
:10252000C82240F2F111072001F046F8C8224FF40A
:102530005671082001F040F801F098F84FF49670B9
:1025400000F0D4FDC82240F2C711012001F034F898
:10255000C822DF21022001F02FF8C82240F2F11139
:10256000072001F029F8C8224FF45671082001F025
:1025700023F8C8224FF4E971092001F01DF8C822A0
:102580004FF4FA710A2001F017F801F06FF84FF4D8
:102590007A7000F0ABFD4FF47A7000F0A7FD4FF4B5
:1025A0007A7000F0A3FDC8224FF4A271022001F05E
:1025B00003F8C82240F2D321082000F0FDFFC82212
:1025C00040F262210A2000F0F7FF01F04FF84FF4CB
:1025D0007A7000F08BFDC822DF21022000F0ECFFB2
:1025E000C8224FF45671082000F0E6FFC8224FF4CD
:1025F000FA710A2000F0E0FF01F038F84FF47A7029
:1026000000F074FD4FF47A7000F070FD4FF47A70B2
:1026100000F06CFD4FF47A7000F068FD10BD10B54D
:102620004FF496724FF4E471012000F0C5FF4FF4AF
:10263000967240F2C121022000F0BEFF4FF4967264
:1026400040F24D11032000F0B7FF4FF4967240F2B4
:102650002221072000F0B0FF4FF4967240F285313E
:10266000082000F0A9FF4FF4967240F20F210920D4
:1026700000F0A2FF4FF4967240F211210A2000F000
:102680009BFF00F0F3FF4FF47A7000F02FFDA022C3
:102690004FF41671072000F08FFFA0224FF46571F0
:1026A000082000F089FF4FF47A7000F01FFDC82069
:1026B00000F01CFD50224FF4E571092000F07CFF72
:1026C000A02240F2FA310A2000F076FF00F0CEFF9F
:1026D0004FF47A7000F00AFD4FF47A7000F006FDB6
:1026E000FA2240F25F21012000F066FFFA2240F258
:1026F0009F21042000F060FFC8224FF4E5710920FB
:1027000000F05AFF00F0B2FF4FF4487000F0EEFC0A
:10271000FA2240F28B11012000F04EFF4FF4AF720D
:1027200040F22B11042000F047FFC82240F2822122
:10273000092000F041FF00F099FF4FF4487000F0CD
:10274000D5FCFA2240F25F21012000F035FFFA2289
:1027500040F29F21042000F02FFFC8224FF4E571C2
:10276000092000F029FF00F081FF4FF4487000F0CD
:10277000BDFCFA2240F28B11012000F01DFF4FF446
:10278000AF7240F22B11042000F016FFC82240F275
:102790008221092000F010FF00F068FF4FF47A70EA
:1027A00000F0A4FC4FF4C87000F0A0FCFA224FF433
:1027B000E271012000F000FFFA22DB21022000F08C
:1027C000FBFEFA2240F2C521032000F0F5FEFA22BA
:1027D0004FF40171042000F0EFFEC8224FF4EA71BB
:1027E000092000F0E9FEC8224FF4FA710A2000F037
:1027F000E3FE00F03BFF4FF47A7000F077FC4FF4FB
:10280000487000F073FCC8224FF4F971072000F003
:10281000D3FEC82240F25A31082000F0CDFE00F06D
:1028200025FF4FF47A7000F061FCFA2240F2E511C6
:10283000052000F0C1FEFA2240F2E711062000F068
:10284000BBFE00F013FF4FF47A7000F04FFC4FF422
:1028500096724FF4FF71012000F0AEFE4FF49672B5
:102860004FF4D671022000F0A7FE4FF4967240F2AA
:10287000FD11032000F0A0FE4FF4967240F22121DA
:10288000042000F099FE4FF4967240F209310520C1
:1028900000F092FEC822D621062000F08DFE4FF4F3
:1028A00096724FF4EE71072000F086FE642240F22B
:1028B0000E31082000F080FE4FF4967240F2811134
:1028C000092000F079FE4FF496724FF4D7710A2078
:1028D00000F072FE00F0CAFE4FF47A7000F006FCC1
:1028E0009622F021082000F067FE4FF496724FF414
:1028F000FA71072000F060FE00F0B8FE4FF47A7025
:1029000000F0F4FB4FF47A7000F0F0FB4FF47A70B3
:1029100000F0ECFB4FF496724FF4AD71012000F023
:102920004BFE4FF4967240F23E21022000F044FE2E
:102930004FF496724FF49B71032000F03DFE4FF46C
:10294000967240F2EB21042000F036FE00F08EFE7D
:102950004FF42F7000F0CAFB4FF496724FF42F71B2
:10296000012000F029FE4FF4967240F20B11022074
:1029700000F022FE4FF4967240F2A221032000F0F4
:102980001BFE4FF49672DA21042000F015FE00F0D1
:102990006DFE4FF47A7000F0A9FB4FF496724FF47D
:1029A000AD71012000F008FE4FF4967240F23E2116
:1029B000022000F001FE4FF496724FF49B71032049
:1029C00000F0FAFD4FF4967240F2EB21042000F083
:1029D000F3FD00F04BFE4FF47A7000F087FB4FF4EC
:1029E00096724FF42F71012000F0E6FD4FF49672BD
:1029F00040F20B11022000F0DFFD4FF4967240F21E
:102A0000A221032000F0D8FD4FF49672DA210420B1
:102A100000F0D2FD00F02AFE4FF42F7000F066FBAC
:102A20004FF496724FF4FF71012000F0C5FD4FF492
:102A300096724FF4D671022000F0BEFD4FF49672EC
:102A400040F2FD11032000F0B7FD4FF4967240F202
:102A50002121042000F0B0FD00F008FE4FF47A7050
:102A600000F044FB962240F2BE21022000F0A4FDBB
:102A70009622FE21032000F09FFD4FF4967240F253
:102A80003E31052000F098FDC82240F221110620B9
:102A900000F092FDC8229F21082000F08DFD00F07B
:102AA000E5FD4FF47A7000F021FBC82000F01EFB1A
:102AB0004FF496724FF41171012000F07DFD4FF438
:102AC00096724FF4C071042000F076FD00F0CEFD48
:102AD0004FF47A7000F00AFB4FF4967000F006FB9A
:102AE0004FF496724FF4FF71012000F065FD4FF432
:102AF00096724FF4D671022000F05EFD4FF496728C
:102B000040F2FD11032000F057FD4FF4967240F2A1
:102B10002121042000F050FD00F0A8FD4FF47A7050
:102B200000F0E4FA4FF4967240F2EB11072000F047
:102B300043FDC82240F22931082000F03DFD4FF44A
:102B400096724FF4C271092000F036FD4FF4967270
:102B50004FF4D7710A2000F02FFD00F087FD4FF4ED
:102B60007A7000F0C3FA4FF47A7000F0BFFA4FF4B5
:102B70007A7000F0BBFA4FF4967240F2E51105202E
:102B800000F01AFD4FF4967240F2E511062000F0B5
:102B900013FD4FF4967240F2F111072000F00CFD86
:102BA0004FF496724FF45671082000F005FD4FF473
:102BB00096724FF4E971092000F0FEFC4FF4967212
:102BC0004FF4FA710A2000F0F7FC00F04FFD4FF4CB
:102BD000487000F08BFA4FF4967240F2C711012052
:102BE00000F0EAFC4FF49672DF21022000F0E4FCD2
:102BF0004FF4967240F2C121032000F0DDFC4FF447
:102C0000967240F23121042000F0D6FC00F02EFD37
:102C10004FF47A7000F06AFA4FF47A7000F066FAB6
:102C200010BD10B564224FF4E171092000F0C4FC1E
:102C300000F01CFD4FF4FA7000F058FA4FF4967251
:102C40004FF42F71012000F0B7FC4FF496724FF44F
:102C50002A71022000F0B0FC4FF496724FF400711C
:102C6000032000F0A9FC4FF496724FF40071042089
:102C700000F0A2FCC8224FF4B971072000F09CFCC0
:102C8000C8224FF4B971092000F096FC00F0EEFC68
:102C900041F2883000F02AFA4FF42F7240F2C71147
:102CA000012000F089FC4FF42F72DF21022000F098
:102CB00083FC4FF461724FF49671072000F07CFCA6
:102CC00000F0D4FC4FF47A7000F010FA4FF42F7239
:102CD0001146082000F070FC4FF42F724FF4E171A0
:102CE000072000F069FC00F0C1FC4FF4FA6000F02E
:102CF000FDF94FF496724FF44371082000F05CFC2C
:102D00004FF4967251000A2000F056FC00F0AEFC21
:102D10004FF47A7000F0EAF996224FF456710820C9
:102D200000F04AFC4FF4967240F2F111072000F0D7
:102D300043FC4FF4967240F226210A2000F03CFC3E
:102D40004FF4967240F22621092000F035FC00F085
:102D50008DFC4FF47A7000F0C9F964224FF4FA71D7
:102D60000A2000F029FC64224FF4E171092000F0F0
:102D700023FC00F07BFC4FF47A7000F0B7F94FF4BD
:102D800096724FF42F71012000F016FC4FF49672EA
:102D90004FF42A71022000F00FFC4FF496724FF4AA
:102DA0000071032000F008FC4FF496724FF400719C
:102DB000042000F001FCC8224FF4B971072000F094
:102DC000FBFBC8224FF4B971092000F0F5FB00F0BD
:102DD0004DFC41F2883000F089F94FF42F7240F237
:102DE000C711012000F0E8FB4FF42F72DF21022011
:102DF00000F0E2FB4FF461724FF49671072000F08F
:102E0000DBFB00F033FC4FF47A7000F06FF94FF405
:102E10002F721146082000F0CFFB4FF42F724FF4B1
:102E2000E171072000F0C8FB00F020FC4FF4FA60CD
:102E300000F05CF94FF496724FF44371082000F0F3
:102E4000BBFB4FF4967251000A2000F0B5FB00F076
:102E50000DFC4FF47A7000F049F996224FF4567148
:102E6000082000F0A9FB4FF4967240F2F111072000
:102E700000F0A2FB4FF4967240F226210A2000F0E7
:102E80009BFB4FF4967240F22621092000F094FB40
:102E900000F0ECFB4FF47A7000F028F9FDF7E4FA4B
:102EA0004FF4965000F022F9FEF7F7FD10BD10B573
:102EB0004FF4C8724FF4F571012000F07DFB4FF420
:102EC000E172F721022000F077FB4FF4967240F296
:102ED0008A21032000F070FB4FF4AF724FF40A71A7
:102EE000042000F069FB4FF4167240F253310520C4
:102EF00000F062FB4FF4FA72F021062000F05CFB58
:102F000000F0B4FB4FF47A7000F0F0F8C82000F045
:102F1000EDF84FF4967240F20531012000F04CFBC1
:102F20004FF496724FF4BD71022000F045FB4FF450
:102F300096724FF4FF71032000F03EFB4FF496723F
:102F40004FF49171042000F037FB4FF496724FF468
:102F5000A071052000F030FB4FF49672AA210620E4
:102F600000F02AFB00F082FB4FF4487000F0BEF83E
:102F70004FF47A7000F0BAF84FF4FA72D2210820B8
:102F800000F01AFB00F072FB4FF47A7000F0AEF81C
:102F9000C82000F0ABF84FF496724FF4F57103209F
:102FA00000F00AFB4FF496724FF49B71042000F07E
:102FB00003FB00F05BFBC82000F098F84FF4487268
:102FC0005110092000F0F8FA962240F20321052062
:102FD00000F0F2FA00F04AFB4FF47A7000F086F845
:102FE0004FF4967240F21E21082000F0E5FA4FF4EB
:102FF00096724FF4E971092000F0DEFA4FF4A572E1
:103000004FF44D710A2000F0D7FA00F02FFB4FF477
:10301000487000F06BF84FF496724FF45671082028
:1030200000F0CAFA4FF496724FF4EB71062000F0EC
:10303000C3FA4FF4967240F2F111072000F0BCFA87
:103040004FF496724FF4E971092000F0B5FAFA22B4
:1030500051000A2000F0B0FA00F008FB4FF47A703B
:1030600000F044F8C82000F041F810BD4FF0E02116
:10307000096921F004014FF0E0221161C21700EB51
:103080005272C2F3C7022B4B1A701946097801EB32
:103090004102C2EBC1114FF6FF7202EAC101264A9A
:1030A000118070470146234A12784A434FF0E023CB
:1030B0005A6100229A611A46126942F001021A61AD
:1030C00000BF4FF0E022106900F001021AB100F4D5
:1030D0008032002AF5D04FF0E022126922F001027E
:1030E0004FF0E0231A6100229A6170470146124AAC
:1030F00012884A434FF0E0235A6100229A611A462F
:10310000126942F001021A6100BF4FF0E02210691B
:1031100000F001021AB100F48032002AF5D04FF01D
:10312000E022126922F001024FF0E0231A6100222E
:103130009A617047140000201600002010B54FF46B
:10314000A06000F0FBFA10BD3A4A0A4002433A4B35
:103150001A60704700B5002038490861C860142023
:10316000486100208861C8610846006840F001009D
:1031700008600846406832490840304948600846BF
:103180000068304908402D4908600846006820F46E
:10319000802008600846406820F4FE004860002057
:1031A000886000214FF00060FFF7CEFF00BD30B512
:1031B00004460025FFF7CEFF2048006840F4803029
:1031C0001E49086000BF1D480068400C0028FAD066
:1031D0004FF4806019494860A01EC4B20846406898
:1031E00040EA844048600846406840F480304860C7
:1031F0001548006840F03200134908600F48006825
:1032000040F080700D49086000BF0C480068400E17
:103210000028FAD00948406840F002000749486099
:1032200005E006484068C0F3870505F00305022D58
:10323000F7D130BD80FFFF1F08ED00E00010024015
:103240000000FFF8FFFFF6FE00200240014600BF2D
:10325000704770B504460D4600BF4021FE4801F09E
:1032600005F80028F9D0E1B2FB4800F091FF2046B4
:1032700070BD10B586B004460121080500F0F5FDCB
:103280000121102000F0E4FD0121202000F0E0FDEC
:103290004FF48050ADF8140003208DF8160018206C
:1032A0008DF8170005A9ED4800F016FB4FF480508B
:1032B000ADF8140010208DF8170003208DF81600CB
:1032C00005A9E74800F008FB4FF48051E44800F0FE
:1032D000B0FB01940020ADF80800ADF80A00ADF88D
:1032E0000C00ADF810000C20ADF80E0001A9DA4872
:1032F00000F055FE0121D84800F0DDFE06B010BDFB
:103300007047D549888000BFD349098801F0400142
:103310000029F9D070472DE9FC5F06460C4615469A
:103320000027B846B946BA46BB4600200190009037
:10333000B5F5806F02DB40F2FF3700E02F46B4F5B1
:10334000806F02DB40F2FF3800E0A0464FEA2729F9
:1033500007F0FF0A4FEA282B08F0FF000190FF203A
:10336000FFF7CFFFFF20FFF7CCFF3046FFF7C9FF85
:103370000720FFF7C6FF0320FFF7C3FF0620FFF774
:10338000C0FF0198FFF7BDFF5846FFF7BAFF504650
:10339000FFF7B7FF4846FFF7B4FF06F110000199A9
:1033A0000844584450444844C0B200900098C04378
:1033B000C0B200900098FFF7A4FF00BFA6480088A5
:1033C00000F040000028F9D00220FFF78FFEBDE892
:1033D000FC9F2DE9FC5F06460C4615460027B846C3
:1033E000B946BA46BB46002001900090B5F5806F03
:1033F00002DB40F2FF3700E02F46B4F5806F02DBBE
:1034000040F2FF3800E0A0464FEA272907F0FF0A04
:103410004FEA282B08F0FF000190FF20FFF771FF13
:10342000FF20FFF76EFF3046FFF76BFF0720FFF727
:1034300068FF0320FFF765FF1E20FFF762FF01987A
:10344000FFF75FFF5846FFF75CFF5046FFF759FF55
:103450004846FFF756FF06F12800019908445844F2
:1034600050444844C0B200900098C043C0B200909D
:103470000098FFF746FF00BF7748008800F0400043
:103480000028F9D00220FFF731FEBDE8FC9F2DE9AE
:10349000F04F8BB081460C4615461E46DDE9147888
:1034A0004FF0000AD34600200A9009900890079038
:1034B0000690059004900390029001900090A3461E
:1034C000AA460597CDF818804FEA2A200A900AF0FC
:1034D000FF0009904FEA2B2008900BF0FF000790A7
:1034E000DDF818804FEA28200490DDF8188008F0F5
:1034F000FF000390059F38120290059FF8B20190DB
:10350000FF20FFF7FEFEFF20FFF7FBFEFE20FFF788
:10351000F8FE0E20FFF7F5FE8320FFF7F2FE1E20D7
:10352000FFF7EFFE0420FFF7ECFE4846FFF7E9FE49
:103530000798FFF7E6FE0898FFF7E3FE0998FFF704
:10354000E0FE0A98FFF7DDFE3046FFF7DAFE01984D
:10355000FFF7D7FE0298FFF7D4FE0398FFF7D1FEDE
:103560000498FFF7CEFE09F2B110811907980144C3
:1035700008980144099801440A98014401980144BB
:10358000029801440398014404980844C0B2009092
:103590000098C043C0B200900098FFF7B2FE00BF91
:1035A0002D48008800F040000028F9D00220FFF7E5
:1035B0009DFD0BB0BDE8F08F2DE9FC5F06460C4683
:1035C00015460027B846B946BA46BB4600200190CA
:1035D00000902F46A0464FEA272907F0FF0A4FEA3E
:1035E000282B08F0FF000190FF20FFF78AFEFF2044
:1035F000FFF787FE3046FFF784FE0720FFF781FEC6
:103600000420FFF77EFE1E20FFF77BFE0198FFF7E8
:1036100078FE5846FFF775FE5046FFF772FE4846A3
:10362000FFF76FFE06F12900019908445844504401
:103630004844C0B200900098C043C0B200900098C7
:10364000FFF75FFE00BF0448008800F0400000283C
:10365000F9D0022006E000000050004000100140B8
:1036600000140140FFF742FDBDE8FC9F10B50024A7
:10367000FF20FFF746FEFF20FFF743FEFE20FFF787
:1036800040FE0220FFF73DFE0520FFF73AFE05242D
:10369000E043C4B22046FFF734FE00BF164800885E
:1036A00000F040000028F9D00220FFF71FFD10BDF8
:1036B00070B504460025FF20FFF723FEFF20FFF72B
:1036C00020FE2046FFF71DFE0220FFF71AFE012014
:1036D000FFF717FEE01CC5B2E843C5B22846FFF766
:1036E00010FE00BF0448008800F040000028F9D018
:1036F0000220FFF7FBFC70BD0050004009488047E6
:1037000009480047FEE7FEE7FEE7FEE7FEE7FEE7C3
:10371000FEE7FEE7FEE7FEE704480549054A064BDB
:10372000704700001B0300083101000890000020D2
:1037300090060020900200209002002031490143B1
:10374000314A1160704770B5002100230F22C47800
:1037500004B32D4C246804F4E064C4F5E064210A49
:10376000C1F10403CA40447804FA03F18478144098
:1037700021430901254C0678A155047804F01F0562
:103780000124AC4005786D11AD0005F1E025C5F8C8
:10379000004109E0047804F01F050124AC401C4DF1
:1037A0000678761145F8264070BD1A4A0A40024351
:1037B000154B1B1F1A60704739B1134A121D12684E
:1037C0000243114B1B1D1A6006E00F4A121D1268BE
:1037D00082430D4B1B1D1A607047042808D14FF01F
:1037E000E021096941F004014FF0E022116107E096
:1037F0004FF0E021096921F004014FF0E02211614E
:10380000704700000000FA050CED00E000E400E065
:1038100080E100E080FFFF1F10B50446CC488442E1
:1038200008D10121042000F02DFB0021042000F02C
:1038300029FB46E0C748844208D10121082000F056
:1038400021FB0021082000F01DFB3AE0C248844221
:1038500008D10121102000F015FB0021102000F0FC
:1038600011FB2EE0BD48844208D10121202000F048
:1038700009FB0021202000F005FB22E0B84884422B
:1038800008D10121402000F0FDFA0021402000F085
:10389000F9FA16E0B348844208D10121802000F0F3
:1038A000F1FA0021802000F0EDFA0AE0AE488442EF
:1038B00007D10121801500F0E5FA0021A01500F0E4
:1038C000E1FA10BD10B50121084600F0DBFA002135
:1038D000012000F0D7FA10BD2DE9F0410246002585
:1038E0000026002000230024002791F803C00CF0DC
:1038F0000F0591F803C00CF0100CBCF1000F03D0C1
:1039000091F802C04CEA050591F800C0BCF1000F27
:1039100031D0146800202BE04FF0010C0CFA00F3BA
:10392000B1F800C00CEA03069E4220D183004FF09C
:103930000F0C0CFA03F7BC4305FA03FC4CEA040431
:1039400091F803C0BCF1280F06D14FF0010C0CFA1E
:1039500000FCC2F814C00AE091F803C0BCF1480FA3
:1039600005D14FF0010C0CFA00FCC2F810C0401C4D
:103970000828D1D31460B1F800C0BCF1FF0F34DDCA
:10398000546800202EE000F1080C4FF0010808FAFE
:103990000CF3B1F800C00CEA03069E4221D183006B
:1039A0004FF00F0C0CFA03F7BC4305FA03FC4CEA8A
:1039B000040491F803C0BCF1280F05D100F1080CF4
:1039C00008FA0CF8C2F8148091F803C0BCF1480F53
:1039D00007D100F1080C4FF0010808FA0CF8C2F802
:1039E0001080401C0828CED35460BDE8F0814FF60B
:1039F000FF710180022181700421C170704702466D
:103A0000002093680B400BB1012000E000207047BC
:103A10000146886880B2704702460020D3680B4098
:103A20000BB1012000E0002070470146C86880B259
:103A3000704701617047416170470AB1016100E060
:103A400041617047C16070474FF480320A43826120
:103A50008161826182698269704702460020434B1E
:103A600018684FF68073184040EA021008433F4B35
:103A7000186070473E49C8617047F0B50A46002398
:103A800000240021002500F00046B6F1004F02D1CD
:103A9000364EF16901E0354E7168C0F3034583B2DB
:103AA00000F44016B6F5401F08D121F070612F4E8A
:103AB000766826F070662D4F7E6012E000F4801666
:103AC000B6F5801F06D1032606FA05F4A14341F09E
:103AD000706106E0460D360103FA06F6B14341F087
:103AE000706122B1460D360103FA06F6314300F04B
:103AF0000046B6F1004F02D11C4EF16101E01B4EB1
:103B00007160F0BD30B500228B071C0F0F2303FA44
:103B100004F2164B08338C1053F824309343134CA3
:103B200008348D1044F8253023468C1053F8243087
:103B30008C07240F00FA04F423430C4C08348D1036
:103B400044F8253030BD0A49DC3108607047000078
:103B500000080140000C0140001001400014014029
:103B600000180140001C01400020014000000140FD
:103B700000002042DF48006840F00100DD49086095
:103B800008464068DC490840DA4948600846006851
:103B9000DA490840D74908600846006820F48020C8
:103BA00008600846406820F4FE0048604FF41F009B
:103BB00088607047CF49096821F48031CD4A11608F
:103BC0001146096821F480211160B0F5803F03D0CF
:103BD000B0F5802F0ED106E0C649096841F4803166
:103BE000C44A116007E0C349096841F4A021C14AF1
:103BF000116000E000BF00BF704710B50146002211
:103C0000002300204A11012A02D1BA4C236806E0A1
:103C1000022A02D1B74C236A01E0B64C636A01F074
:103C20001F02012494401C400CB1012000E0002040
:103C300010BD38B5002000900024002500BF3120C1
:103C4000FFF7DBFF05460098401C00900098B0F598
:103C5000A06F01D0002DF2D03120FFF7CEFF08B1C8
:103C6000012400E00024204638BD01460020A14A7E
:103C7000106820F0F80040EAC10010607047A049C9
:103C800008607047024600209A4B586820F47C1068
:103C900042EA01031843974B5860704798490866F9
:103CA000704701460020934A506820F00300084303
:103CB000506070478F48406800F00C007047014624
:103CC00000208C4A506820F0F00008435060704794
:103CD00001460020874A506820F4E06008435060A5
:103CE000704701460020834A506820F4605040EA43
:103CF000C1005060704729B17E4A527A02437D4B21
:103D00005A7204E07B4A527A82437A4B5A72704765
:103D10007B49D8310860704701460020754A5068D9
:103D200020F440400843506070470021714A20321F
:103D30001170704A82F82010012802D004280AD19C
:103D400004E001216B4A2032117005E00521694A27
:103D50002032117000E000BF00BF70476949086061
:103D600070476449096A0143624A116270476549B4
:103D700044390860704730B5002100220024002338
:103D80005C4D6D6805F00C0121B1042905D00829AE
:103D900023D105E05C4D056022E05B4D05601FE02E
:103DA000544D6D6805F47012524D6D6805F4803401
:103DB000022505EB92421CB9544D554305600BE0BA
:103DC0004C4D6D6805F400351DB1504D55430560EF
:103DD00002E04D4D5543056002E04B4D056000BFCC
:103DE00000BF444D6D6805F0F0010909484D6B5C5A
:103DF0000568DD4045603F4D6D6805F4E061090AE6
:103E0000434D6B5C4568DD4085603A4D6D6805F457
:103E10006051C90A3E4D6B5C4568DD40C560354D5B
:103E20006D6805F44041890B3A4D6B5CC568B5FB84
:103E3000F3F5056130BD29B12E4A526902432D4B7D
:103E40005A6104E02B4A526982432A4B5A617047F7
:103E500029B1284A92690243264B9A6104E0254A17
:103E600092698243234B9A61704729B1214AD269F2
:103E70000243204BDA6104E01E4AD26982431D4BA3
:103E8000DA61704729B11B4AD2680243194BDA60E4
:103E900004E0184AD2688243164BDA60704729B1B1
:103EA000144A12690243134B1A6104E0114A126961
:103EB0008243104B1A6170471249403908607047BD
:103EC0000F49C86470470B49C87170470948406A78
:103ED00040F0807007494862704701460020054A5B
:103EE00092680A400AB1012000E0002070470149B1
:103EF00088727047001002400000FFF8FFFFF6FED6
:103F0000000042428004424200127A0000093D0053
:103F1000180000202800002010B50446FB48844209
:103F200009D101218803FFF7ADFF00214FF4804044
:103F3000FFF7A8FF32E0F648844209D10121480486
:103F4000FFF7ADFF00214FF40030FFF7A8FF25E099
:103F5000F048844209D101218804FFF7A0FF002125
:103F60004FF48020FFF79BFF18E0EB48844209D113
:103F70000121C804FFF793FF00214FF40020FFF751
:103F80008EFF0BE0E548844208D101210805FFF7C8
:103F900086FF00214FF48010FFF781FF10BD2DE94F
:103FA000F04786B005460E460024A24600BFA14653
:103FB0000027B08900B100BF2F462C8A4CF6FF7055
:103FC0000440F08804432C82AC894EF6F310044080
:103FD000B08831890843718908430443AC81AC8AB5
:103FE0004FF6FF400440B0890443AC8201A8FFF7BC
:103FF000C2FEC648874202D1DDF810A001E0DDF81C
:104000000CA0A88900F4004040B10AEBCA0000EB04
:104010000A1031684900B0FBF1F807E00AEBCA006A
:1040200000EB0A1031688900B0FBF1F86420B8FB9E
:10403000F0F004012009642101FB1089A88900F433
:10404000004040B1322000EBC900B0FBF1F000F0BD
:104050000700044308E0322000EB09106421B0FBA4
:10406000F1F000F00F0004432C8106B0BDE8F087AA
:104070004FF41651016000218180C18001810C2123
:10408000418100218181704710B502460020108ACD
:104090004FF2FF0318400B884C8823438C8823433E
:1040A000CC8823431843108210BD00210180418039
:1040B0008180C180704721B1828942F4005282819F
:1040C00004E082894DF6FF731A4082817047F0B593
:1040D0000346002400260025002040F66A17B94256
:1040E00000D100BF1846C1F3421401F01F0601279A
:1040F00007FA06F5012C01D10C3004E0022C01D1A5
:10410000103000E014301AB107682F43076002E056
:104110000768AF430760F0BD1AB1838A0B438382FF
:1041200002E0838A8B4383827047028A4FF6F073E2
:104130001A400282028A0A430282704782894FF241
:10414000FF731A40828182890A438281704721B1BC
:10415000828942F00202828104E082894FF6FD7377
:104160001A4082817047028A4FF6DF731A4002823A
:10417000028A0A430282704721B1028A42F48042D5
:10418000028204E0028A4BF6FF731A4002827047F3
:10419000C1F308028280704701468888C0F3080096
:1041A0007047818941F0010181817047028BD2B251
:1041B0000283028B42EA012202837047028B02F4DF
:1041C0007F420283028B0A430283704721B1828AB5
:1041D00042F02002828204E0828A4FF6DF731A40A6
:1041E0008282704721B1828A42F01002828204E00A
:1041F000828A4FF6EF731A408282704721B1828A19
:1042000042F00802828204E0828A4FF6F7731A4075
:104210008282704721B1828942F40042828103E0A8
:104220008289C2F30E028281704721B1828A42F4F0
:104230000062828204E0828A4FF2FF731A40828217
:104240007047828A4FF6FB731A408282828A0A4341
:104250008282704721B1828A42F00202828204E0A7
:10426000828A4FF6FD731A40828270470246002010
:10427000B1F5007F00D100BF13880B400BB10120C6
:1042800000E00020704701F40072B2F5007F00D119
:1042900000BFCA430280704770B502460024002365
:1042A0000025002040F66A16B14200D100BFC1F3DC
:1042B000421501F01F03012606FA03F3012D02D176
:1042C0009689334006E0022D02D1168A334001E080
:1042D000968A33400C12012606FA04F416883440FC
:1042E00013B10CB1012000E0002070BD10B5002218
:1042F000002340F66A14A14200D100BF0A12012433
:104300009440A3B2DC43048010BD0000003801409B
:104310000044004000480040004C00400050004075
:10432000704770477047754600F02CF8AE460500A0
:104330006946534620F00700854618B020B5FFF7C0
:10434000EBF9BDE820404FF000064FF000074FF0BA
:1043500000084FF0000B21F00701AC46ACE8C009A3
:10436000ACE8C009ACE8C009ACE8C0098D467047AC
:1043700010B50446AFF300802046BDE81040FBF7BF
:104380001EBF0000004870472C000020AC4300080E
:10439000000000202C0000006C010008D843000839
:1043A0002C000020640600008801000800A24A04D6
:1043B00000000000000000000102030406070809D5
:1043C00000000000000000000102030401020304D9
:0843D0000607080902040608B3
:0400000508000131BD
:00000001FF
