:020000040800F2
:10000000900600205D370008210200082302000846
:10001000270200082B0200082F0200080000000041
:100020000000000000000000000000003302000893
:1000300035020008000000003702000839020008FD
:1000400077370008773700087737000877370008D8
:1000500077370008773700087737000877370008C8
:1000600077370008773700087737000877370008B8
:1000700077370008773700087737000877370008A8
:100080007737000877370008773700087737000898
:100090007737000877370008773700087737000888
:1000A0007737000877370008773700087737000878
:1000B0007737000877370008773700087737000868
:1000C0007737000877370008773700087737000858
:1000D0007737000877370008773700087737000848
:1000E0007737000877370008773700087737000838
:1000F0007737000877370008773700087737000828
:100100007737000877370008773700087737000817
:100110007737000861330008773700087737000821
:1001200077370008773700087737000877370008F7
:1001300000F002F800F03AF80AA090E8000C8244BF
:100140008344AAF10107DA4501D100F02FF8AFF29C
:10015000090EBAE80F0013F0010F18BFFB1A43F0A5
:100160000103184788420000A8420000103A24BF4B
:1001700078C878C1FAD8520724BF30C830C144BF0C
:1001800004680C607047000000230024002500264E
:10019000103A28BF78C1FBD8520728BF30C148BFEA
:1001A0000B6070471FB51FBD10B510BD04F0EBF814
:1001B0001146FFF7F7FF00F009F804F009F903B45E
:1001C000FFF7F2FF03BC03F071F80000092003F011
:1001D0001EF8482002F07AFF104803F07AF800F089
:1001E0001DF940F2FF3200210A2003F0C4F840F26A
:1001F000FF3200210C2003F0BEF80DE04FF47A70BE
:1002000002F0A4FF00F030F94FF4FA7002F09EFF04
:1002100002F0DAF800BFFEE7F0E7000020A10700D7
:10022000704700BFFEE700BFFEE700BFFEE700BF6C
:10023000FEE7704770477047704700000CB500201C
:10024000019000906C48006840F480306A49086072
:1002500000BF6948006800F4003000900198401C1D
:100260000190009818B90198B0F5A06FF1D16248DB
:10027000006800F4003010B10120009001E000207F
:1002800000900098012843D15C48006840F01000BD
:100290005A4908600846006820F0030008600846D4
:1002A000006840F0020008605348406852494860C6
:1002B0000846406848600846406840F480604860EE
:1002C0000846406820F47C1048600846406840F4C6
:1002D000E81048600846006840F08070086000BF81
:1002E0004548006800F000700028F9D04248406896
:1002F00020F00300404948600846406840F0020092
:10030000486000BF3C48406800F00C000828F9D164
:100310000CBD10B5FFF792FF10BD10B53648006850
:1003200040F00100344908600846406834490840FC
:100330003149486008460068324908402E49086043
:100340000846006820F4802008600846406820F4D1
:10035000FE0048604FF41F008860FFF7DAFF4FF09F
:1003600000602949086010BD10B50021002000225E
:10037000214B5B6803F00C0121B1042906D0082948
:1003800028D107E0214B224C236027E01F4B204C53
:10039000236023E0184B5B6803F47010164B5B6816
:1003A00003F48032022303EB904022B9194B4343FC
:1003B000174C23600DE0104B5B6803F4003323B14E
:1003C000144B4343124C236003E0104B4343104C47
:1003D000236003E00D4B0E4C236000BF00BF064BB3
:1003E0005B68C3F303130C4CE15C094B1B68CB4007
:1003F000074C236010BD00000010024000200240A6
:100400000000FFF8FFFFF6FE08ED00E000127A00A2
:100410000000002000093D000400002008B5012173
:10042000482003F045FD2020ADF8000010208DF895
:10043000030003208DF802006946094803F07CFAA6
:100440002021074803F025FB2020ADF80000694675
:10045000044803F071FA2021024803F01AFB08BD9A
:10046000000C01400018014010B54FF4967240F2A4
:10047000C711012003F0D0F84FF49672DF2102205B
:1004800003F0CAF84FF4967240F2C121032003F042
:10049000C3F84FF4967240F23121042003F0BCF807
:1004A0004FF4967240F2E511052003F0B5F84FF4D1
:1004B000967240F2E511062003F0AEF84FF4967202
:1004C00040F2F111072003F0A7F84FF496724FF4B1
:1004D0005671082003F0A0F84FF496724FF4E971BA
:1004E000092003F099F84FF496724FF4FA710A203C
:1004F00003F092F803F0EAF810BD10B54FF49672CD
:1005000040F21511062002F094FF4FF4FA7002F049
:100510001DFE4FF496724FF4F871062002F089FF29
:100520004FF4FA7002F012FE10BD10B54FF496723F
:100530004FF4FD71012003F06FF84FF4FA7240F2AE
:100540007D21022003F068F803F0C0F84FF42F700B
:1005500002F0FCFD4FF4FA7240F2E721012003F0B3
:100560005BF8C82240F2B721022003F055F803F0EF
:10057000ADF84FF4FA7002F0E9FD4FF4FA72911DF4
:10058000012003F049F8C82240F27D21022003F047
:1005900043F803F09BF84FF4FA7002F0D7FD4FF4E4
:1005A000FA7240F2E721012003F036F8C82240F247
:1005B0007D21022003F030F803F088F84FF4FA7040
:1005C00002F0C4FD4FF4967240F2C711012003F00F
:1005D00023F84FF4FA72DF21022003F01DF803F034
:1005E00075F84FF47A7002F0B1FD4FF47A7002F0B2
:1005F000ADFD4FF4967002F0A9FD10BD10B54FF49B
:10060000C8724FF4F571012003F006F84FF4E1725F
:10061000F721022003F000F84FF4967240F28A218D
:10062000032002F0F9FF4FF4AF724FF40A71042077
:1006300002F0F2FF4FF4167240F25331052002F03F
:10064000EBFF4FF4FA72F021062002F0E5FF03F011
:100650003DF84FF4487002F079FD4FF496724FF474
:10066000C871022002F0D8FF4FF496724FF4F47173
:10067000032002F0D1FF4FF49672FD21062002F014
:10068000CBFF03F023F84FF4FA7002F05FFD4FF454
:10069000967240F29321012002F0BEFF4FF4967251
:1006A00040F2B711022002F0B7FF4FF496724FF4F8
:1006B000E771032002F0B0FF4FF4967240F283110D
:1006C000042002F0A9FF4FF496724FF4A0710520A8
:1006D00002F0A2FF4FF49672AA21062002F09CFFBE
:1006E00002F0F4FF4FF4487002F030FD4FF47A70DE
:1006F00002F02CFD4FF4FA72D221082002F08CFF98
:1007000002F0E4FF4FF47A7002F020FDC82002F0FE
:100710001DFDC8224FF4F371052002F07DFF4FF458
:10072000967240F24711092002F076FF02F0CEFFE8
:100730004FF47A7002F00AFD4FF4AF7240F2E51107
:10074000072002F069FF4FF496724FF405710820FC
:1007500002F062FF4FF496724FF4E971092002F043
:100760005BFF4FF496724FF44D710A2002F054FF74
:1007700002F0ACFF4FF47A7002F0E8FC4FF496728E
:1007800040F2E511062002F047FF02F09FFF4FF410
:100790007A7002F0DBFC4FF4967240F2F111072000
:1007A00002F03AFF4FF496724FF45671082002F0AF
:1007B00033FF4FF496724FF4FA710A2002F02CFFC7
:1007C00002F084FF4FF47A7002F0C0FC4FF4167010
:1007D00002F0BCFCC82240F21E31062002F01CFFD1
:1007E00002F074FF4FF4487002F0B0FC4FF49672C0
:1007F00040F29321012002F00FFF4FF4967240F275
:10080000B711022002F008FF4FF496724FF4E7711F
:10081000032002F001FF4FF4967240F2831104208E
:1008200002F0FAFE4B224FF42371052002F0F4FE91
:1008300002F04CFF4FF47A7002F088FC4FF4FA702B
:1008400002F084FC4FF4967240F22E21012002F057
:10085000E3FEC8224FF4CE71022002F0DDFEC82272
:100860004FF4F671032002F0D7FE4FF4967240F277
:10087000E511042002F0D0FE4FF496727B21052092
:1008800002F0CAFE02F022FF4FF47A7002F05EFC22
:100890004FF4FA7002F05AFC4FF4967240F21F21A6
:1008A000012002F0B9FE4FF49672A821022002F056
:1008B000B3FE4FF496724FF43271032002F0ACFE97
:1008C0004FF4967240F20E21042002F0A5FE4FF480
:1008D0009672AA21052002F09FFE4FF4967240F214
:1008E0001331062002F098FE02F0F0FE4FF47A7009
:1008F00002F02CFC4FF4967240F2C711012002F076
:100900008BFE4FF49672DF21022002F085FE4FF439
:10091000967240F2C121032002F07EFE4FF49672DF
:1009200040F23121042002F077FE4FF4967240F23B
:10093000E511052002F070FEC82240F2E511062004
:1009400002F06AFE02F0C2FE4FF47A7002F0FEFB83
:100950004FF47A7002F0FAFB4FF47A7002F0F6FB73
:1009600010BD10B54FF4967240F2C911012002F08B
:1009700053FE4FF49672E021022002F04DFE4FF438
:10098000967240F2C121032002F046FE4FF4AF728E
:1009900040F22E21042002F03FFE4FF49672A32174
:1009A000052002F039FE4FF4967240F2D221062063
:1009B00002F032FE02F08AFE4FF47A7002F0C6FBBB
:1009C0004FF4967002F0C2FB4FF4967240F2AF11F2
:1009D000022002F021FE4FF496724FF4FF710320C3
:1009E00002F01AFE4FF496729D21052002F014FECB
:1009F0004FF496724FF43171062002F00DFE02F0B2
:100A000065FE4FF47A7002F0A1FB4FF4967240F24B
:100A10009321012002F000FE4FF4967240F2B711CC
:100A2000022002F0F9FD4FF496724FF4E7710320B3
:100A300002F0F2FD4FF4967240F28311042002F0AE
:100A4000EBFD4FF496724FF41D71052002F0E4FDAA
:100A50004FF4967240F21731062002F0DDFD02F0ED
:100A600035FE4FF47A7002F071FB4FF47A7002F0A9
:100A70006DFB4FF4FA72D221082002F0CDFD02F096
:100A800025FE4FF47A7002F061FB4FF4967002F08D
:100A90005DFB4FF4967240F24711092002F0BCFD55
:100AA00096224FF4F371052002F0B6FD02F00EFE1F
:100AB0004FF47A7002F04AFB4FF4AF7240F2E51146
:100AC000072002F0A9FD4FF496724FF4057108203B
:100AD00002F0A2FD4FF496724FF4E971092002F082
:100AE0009BFD4FF496724FF44D710A2002F094FD75
:100AF00002F0ECFD4FF47A7002F028FB4FF496728E
:100B000040F2E511062002F087FD02F0DFFD4FF410
:100B10007A7002F01BFB4FF4967240F2F11107203D
:100B200002F07AFD4FF496724FF45671082002F0ED
:100B300073FD4FF496724FF4E971092002F06CFDD9
:100B40004FF496724FF4FA710A2002F065FD02F03C
:100B5000BDFD4FF47A7002F0F9FA4FF4167002F00E
:100B6000F5FAC822A821062002F056FD02F0AEFDDB
:100B70004FF47A7002F0EAFA4B224FF49F7105208D
:100B800002F04AFD02F0A2FD4FF47A7002F0DEFAA4
:100B90004FF4967240F21F21012002F03DFD4FF408
:100BA00096724FF4CC71022002F036FD4FF496722B
:100BB00040F2E911032002F02FFD4FF4967240F24B
:100BC0000E21042002F028FD4FF4967240F29B2182
:100BD000052002F021FD02F079FD4FF4487002F08B
:100BE000B5FA4FF49672A821022002F015FD4FF4D9
:100BF00096724FF43271032002F00EFD4FF496729C
:100C00004FF44871052002F007FD4FF49672B721AA
:100C1000062002F001FD4FF4967240F2EF1107201A
:100C200002F0FAFC02F052FD4FF47A7002F08EFAF4
:100C30004FF4967240F2C711012002F0EDFC4FF420
:100C40009672DF21022002F0E7FC4FF4967240F228
:100C5000C121032002F0E0FC4FF4967240F23121F2
:100C6000042002F0D9FC4FF4967240F2E511052001
:100C700002F0D2FC4FF4967240F2E511062002F029
:100C8000CBFC4FF4967240F2EF11072002F0C4FC47
:100C900002F01CFD4FF47A7002F058FA4FF47A70AB
:100CA00002F054FA4FF47A7002F050FA10BD10B509
:100CB0004FF4C8724FF4F571012002F0ADFC4FF40F
:100CC000E172F721022002F0A7FC4FF4967240F285
:100CD0008A21032002F0A0FC4FF4AF724FF40A7196
:100CE000042002F099FC4FF4167240F253310520B3
:100CF00002F092FC4FF4FA72F021062002F08CFC14
:100D000002F0E4FC4FF47A7002F020FAC82002F0FE
:100D10001DFA4FF4967240F26F11012002F07CFC34
:100D2000FA22A921022002F077FCFA2240F2BB212C
:100D3000032002F071FC4FF496724FF4FF7104200F
:100D400002F06AFC4FF4967240F2CD21052002F0C9
:100D500063FC4FF4967240F2AF11062002F05CFC87
:100D60004FF496724FF4F871072002F055FC4FF4DF
:100D700096724FF45671082002F04EFC4FF49672B2
:100D800040F2D911092002F047FC4FF4967240F26C
:100D9000DD110A2002F040FC02F098FC4FF47A705A
:100DA00002F0D4F9C82002F0D1F94FF49672FE2176
:100DB000032002F031FC4FF4FA7240F20D110420CE
:100DC00002F02AFC02F082FC4FF47A7002F0BEF9C5
:100DD0004FF4167002F0BAF94FF4C872B72101202F
:100DE00002F01AFCC82240F21711022002F014FC93
:100DF00002F06CFC4FF4167002F0A8F94FF4C872C0
:100E000040F26F11012002F007FCC822A921022044
:100E100002F002FC02F05AFC4FF4167002F096F950
:100E20004FF4C872B721012002F0F6FBC82240F24D
:100E30001711022002F0F0FB02F048FC4FF416708C
:100E400002F084F94FF4C87240F26F11012002F0F1
:100E5000E3FBC822A921022002F0DEFB02F036FCEF
:100E60004FF4167002F072F94FF4FA7240F2BB219F
:100E7000032002F0D1FB4FF4AF724FF40471042051
:100E800002F0CAFB02F022FC4FF47A7002F05EF925
:100E90004FF4967240F2F111012002F0BDFBFA22EC
:100EA000EA21022002F0B8FB4FF496724FF424714D
:100EB000032002F0B1FBFA224FF40971042002F082
:100EC000ABFB4FF4C87240F23E31052002F0A4FBA8
:100ED0004FF4C8729521062002F09EFB4FF4C872B1
:100EE00040F2DD11072002F097FB4FF4E17240F26F
:100EF0004131082002F090FB4FF4C8724FF4EA71C0
:100F0000092002F089FB4FF4C87240F2DD110A207B
:100F100002F082FB02F0DAFB4FF47A7002F016F96D
:100F20004FF496724FF4E471012002F075FB4FF418
:100F30009672D821022002F06FFB4FF496724FF4A4
:100F40003071032002F068FB4FF4967240F23121B9
:100F5000042002F061FB4FF4AF7240F2E91105206A
:100F600002F05AFB4FF4AF7240F2E711062002F094
:100F700053FB02F0ABFB4FF47A7002F0E7F84FF44A
:100F80007A7002F0E3F84FF4967002F0DFF810BDCB
:100F900010B54FF496724FF4F571012002F03CFB4E
:100FA0004FF49672F721022002F036FB4FF496724E
:100FB00040F28A21032002F02FFB4FF496724FF487
:100FC0000A71042002F028FB4FF4167240F25331EC
:100FD000052002F021FB4FF4FA72F021062002F006
:100FE0001BFB02F073FB4FF47A7002F0AFF8C820DD
:100FF00002F0ACF84FF487724FF4F371012002F065
:101000000BFB4FF48772D221022002F005FB4FF454
:10101000AF7240F2E121032002F0FEFA4FF4AF720A
:1010200040F2B121042002F0F7FA4FF4967240F238
:10103000CF21052002F0F0FA4FF4967240F2ED1144
:10104000062002F0E9FA4FF4967240F2E711072009
:1010500002F0E2FA4FF4967240F25131082002F0A9
:10106000DBFA4FF496724FF4E971092002F0D4FADA
:101070004FF4967240F2DD110A2002F0CDFA02F030
:1010800025FB4FF47A7002F061F8C82002F05EF898
:10109000FA2240F24731012002F0BEFAFA224FF460
:1010A0002471022002F0B8FA02F010FB4FF47A70BB
:1010B00002F04CF84FF4167002F048F8C82240F2E3
:1010C0008221032002F0A8FA4FF4C87240F25B318B
:1010D000042002F0A1FA02F0F9FA4FF4167002F0BF
:1010E00035F8C82240F2E121032002F095FA4FF4CE
:1010F000C87240F2B121042002F08EFA02F0E6FA42
:101100004FF4167002F022F8C82240F28221032028
:1011100002F082FA4FF4C87240F25B31042002F010
:101120007BFA02F0D3FA4FF4167002F00FF8C822DF
:1011300040F2E121032002F06FFA4FF4C87240F24E
:10114000B121042002F068FA02F0C0FA4FF41670E0
:1011500001F0FCFF4FF496724FF4F371012002F09E
:101160005BFA4FF49672D421022002F055FA4FF444
:10117000AF7240F2E121032002F04EFA4FF4AF7259
:1011800040F2B121042002F047FA4FF4967240F287
:10119000CF21052002F040FA4FF4967240F2ED1193
:1011A000062002F039FA4FF4967240F2E711072058
:1011B00002F032FA4FF4967240F25131082002F0F8
:1011C0002BFA4FF496724FF4E971092002F024FAD9
:1011D0004FF4967240F2DD110A2002F01DFA02F07F
:1011E00075FA4FF47A7001F0B1FFC82001F0AEFF3C
:1011F0004FF4967240F2C711012002F00DFA4FF43D
:101200008772DF21022002F007FA4FF4967240F253
:10121000B221032002F000FA4FF4967240F231211D
:10122000042002F0F9F94FF496724FF4487105204A
:1012300002F0F2F94FF49672B721062002F0ECF9B1
:1012400002F044FA4FF47A7001F080FFC82001F0F8
:101250007DFF4FF4967240F2C711012002F0DCF9D5
:101260004FF49672DF21022002F0D6F94FF4967205
:1012700040F2B721032002F0CFF94FF4967240F20A
:101280003121042002F0C8F94FF4967240F2E511C2
:10129000052002F0C1F94FF4967240F2E5110620E4
:1012A00002F0BAF902F012FA4FF47A7001F04EFF30
:1012B0004FF47A7001F04AFF4FF47A7001F046FF64
:1012C00010BD10B54FF4C8724FF4F571012002F053
:1012D000A3F94FF4E172F721022002F09DF94FF4D7
:1012E000967240F28A21032002F096F94FF4AF7211
:1012F0004FF40A71042002F08FF94FF4167240F295
:101300005331052002F088F94FF4FA72F0210620DB
:1013100002F082F902F0DAF94FF47A7001F016FF68
:10132000C82001F013FF4FF4967240F2D51101204E
:1013300002F072F94FF496729F21022002F06CF9CC
:101340004FF4967240F2CB21032002F065F94FF47E
:10135000967240F24721042002F05EF94FF4967233
:1013600040F2BE21052002F057F94FF4FA7240F224
:10137000DB11062002F050F902F0A8F94FF47A7060
:1013800001F0E4FEC82001F0E1FE4FF4C872EC2148
:10139000012002F041F94FF4C8724FF4BF710220EE
:1013A00002F03AF94FF4C8724FF4FA71032002F0D8
:1013B00033F94FF4C87240F23531042002F02CF9B1
:1013C0004FF4FA724FF43C71052002F025F902F057
:1013D0007DF94FF42F7001F0B9FE4FF4967240F290
:1013E000D511012002F018F94FF496729F210220C6
:1013F00002F012F94FF4967240F2CB21032002F072
:101400000BF94FF4967240F24721042002F004F9E0
:101410004FF4967240F2BE21052002F0FDF84FF421
:10142000967240F2DB11062002F0F6F802F04EF957
:101430004FF42F7001F08AFE4FF4C872EC210120A6
:1014400002F0EAF84FF4C8724FF4BF71022002F0C4
:10145000E3F84FF4C8724FF4FA71032002F0DCF89D
:101460004FF4C87240F23531042002F0D5F84FF441
:10147000FA724FF43C71052002F0CEF802F026F922
:101480004FF42F7001F062FE4FF4967240F2D511C6
:10149000012002F0C1F84FF496729F21022002F061
:1014A000BBF84FF4967240F2CB21032002F0B4F85F
:1014B0004FF4967240F24721042002F0ADF84FF449
:1014C000967240F2BE21052002F0A6F84FF4967203
:1014D00040F2DB11062002F09FF802F0F7F84FF41B
:1014E000487001F033FEC8224FF4F571012002F07C
:1014F00093F8C822A821022002F08EF8C8224FF4E7
:101500003271032002F088F8C8224FF40A710420D7
:1015100002F082F84FF496724FF44871052002F001
:101520007BF84FF4C872B721062002F075F802F07C
:10153000CDF84FF4487001F009FE4FF4967240F276
:10154000C711012002F068F84FF49672DF210220E3
:1015500002F062F84FF4967240F2C121032002F0CB
:101560005BF84FF4967240F23121042002F054F8F7
:101570004FF4967240F2E511052002F04DF84FF459
:10158000967240F2E511062002F046F802F09EF84D
:101590004FF47A7001F0DAFD4FF47A7001F0D6FD65
:1015A0004FF47A7001F0D2FD10BD10B54FF4967271
:1015B00040F2F121012002F02FF84FF4C87240F2FE
:1015C0009721022002F028F84FF4AF724FF4DB713C
:1015D000032002F021F84FF4AF7240F22F210420D3
:1015E00002F01AF84FF4967240F2E511052002F06D
:1015F00013F8642240F2E711062002F00DF8C82229
:1016000040F25B21072002F007F8C8224FF4657111
:10161000082002F001F8962240F2E311092001F0BF
:10162000FBFFC8224FF402710A2001F0F5FF02F01F
:101630004DF84FF47A7001F089FDB42240F24A214E
:10164000082001F0E9FF462240F2F911072001F0DD
:10165000E3FF02F03BF84FF47A7001F077FD4FF4AE
:10166000487001F073FD4FF4E17240F24D310120FA
:1016700001F0D2FF4FF4967240F2A921022001F04E
:10168000CBFFC82240F20F11032001F0C5FF4FF439
:10169000C872B321042001F0BFFF4FF496724FF4DB
:1016A000F371072001F0B8FF4FF4967240F28111F8
:1016B000082001F0B1FF02F009F84FF47A7001F050
:1016C00045FD4FF4967240F2B621022001F0A4FFCE
:1016D0004FF4967240F21111032001F09DFF4FF478
:1016E0009672B621042001F097FF4FF4967240F2F3
:1016F000A911092001F090FF4FF42F7240F2A2319E
:101700000A2001F089FF4FF48C724FF4C571072055
:1017100001F082FF4FF496724FF4C871082001F077
:101720007BFF01F0D3FF4FF47A7001F00FFD4FF40F
:101730008C724FF4F071012001F06EFF4FF48C7247
:101740004FF4D771022001F067FF4FF4967240F218
:10175000F111032001F060FF4FF4967240F23A213C
:10176000042001F059FF4FF4967240F2E511072072
:1017700001F052FFC82240F24621082001F04CFF40
:101780004FF4967240F2DF11092001F045FF4FF44B
:10179000967240F201310A2001F03EFF01F096FFFF
:1017A0004FF4AF6001F0D2FC4FF4967240F2C711D3
:1017B000012001F031FFC822DF21022001F02CFFBF
:1017C0004FF4167240F2C121032001F025FF4FF4BF
:1017D000967240F23121042001F01EFF4FF4967200
:1017E00040F2F111072001F017FF4FF4C8724FF4D7
:1017F0005671082001F010FF642240F2DF11092029
:1018000001F00AFF78224FF4FA710A2001F004FF78
:1018100001F05CFF4FF4FA7001F098FC4FF4AF72E6
:101820004FF4FA710A2001F0F7FE01F04FFF4FF478
:10183000487001F08BFC4FF47A7001F087FC4FF494
:101840007A7001F083FC4FF47A7001F07FFC10BDD8
:1018500010B54FF4967240F21B21012001F0DCFE1E
:101860004FF4C87240F29F11022001F0D5FE4FF4F0
:10187000AF7240F20F11032001F0CEFE4FF4AF72B1
:10188000F021042001F0C8FE4FF496724FF4EF717E
:10189000072001F0C1FE64224FF45171082001F0CD
:1018A000BBFE962240F28711092001F0B5FE4FF4ED
:1018B000967240F2C1110A2001F0AEFE01F006FF5F
:1018C0004FF47A7001F042FC82224FF439710A2001
:1018D00001F0A2FE01F0FAFE4FF4487001F036FC70
:1018E000502240F2A511092001F096FE4FF44870F5
:1018F00001F02CFC4FF496724FF44671012001F078
:101900008BFE4FF4967240F29E21022001F084FE7D
:101910004FF4967240F21511032001F07DFE4FF452
:101920009672D621042001F077FE4FF4967240F2B1
:10193000FD11092001F070FE4FF496724FF475719D
:101940000A2001F069FE01F0C1FE4FF47A7001F047
:10195000FDFB4FF4967240F20321072001F05CFE7C
:101960004FF42F724FF4C771082001F055FE4FF469
:10197000AF7240F29221092001F04EFE01F0A6FE66
:101980004FF47A7001F0E2FB4FF4967240F2B51119
:10199000022001F041FE4FF4967240F2F71103204D
:1019A00001F03AFE4FF496724FF40071042001F0FA
:1019B00033FE4FF4967240F2F111072001F02CFE35
:1019C0004FF4967240F22E21082001F025FE4FF4CC
:1019D000967240F21321092001F01EFE4FF4AF72FF
:1019E00040F22A310A2001F017FE01F06FFE4FF499
:1019F000617001F0ABFB4FF4967240F2C711012009
:101A000001F00AFE4FF41672DF21022001F004FEFD
:101A1000C82240F2C121032001F0FEFD4FF496726E
:101A200040F23121042001F0F7FD4FF4967240F2AC
:101A3000E511052001F0F0FD4FF4967240F2E5113A
:101A4000062001F0E9FD4FF48C7240F2F1110720FD
:101A500001F0E2FD8C224FF45671082001F0DCFD0C
:101A60004FF4AF724FF4E971092001F0D5FD4FF446
:101A700048724FF4F5710A2001F0CEFD01F026FE08
:101A80004FF47A7001F062FB4FF47A7001F05EFB64
:101A90004FF47A7001F05AFB10BD10B54FF49672F6
:101AA00040F21B21012001F0B7FD4FF4C87240F253
:101AB0009F11022001F0B0FD4FF4AF7240F20F1100
:101AC000032001F0A9FD4FF4AF72F021042001F0D2
:101AD000A3FD4FF496724FF4EF71072001F09CFDC7
:101AE00064224FF45171082001F096FD962240F2D5
:101AF0008711092001F090FD4FF4967240F2C11158
:101B00000A2001F089FD01F0E1FD4FF47A7001F047
:101B10001DFB82224FF439710A2001F07DFD502215
:101B200040F2C311092001F077FD01F0CFFD4FF421
:101B30007A7001F00BFB4FF4487001F007FB4FF493
:101B400096724FF44671012001F066FD4FF49672D3
:101B500040F29E21022001F05FFD4FF4967240F2A8
:101B60001511032001F058FD4FF49672D621042080
:101B700001F052FD4FF4967240F2FD11092001F080
:101B80004BFD4FF496724FF475710A2001F044FD3D
:101B900001F09CFD4FF47A7001F0D8FA4FF4967280
:101BA00040F20321072001F037FD4FF42F724FF46C
:101BB000C771082001F030FD4FF4AF7240F292215E
:101BC000092001F029FD01F081FD4FF47A7001F048
:101BD000BDFA01F07BFD4FF47A7001F0B7FA4FF4D3
:101BE0007A7001F0B3FA4FF47A7001F0AFFA10BDD9
:101BF00010B54FF4C8724FF4F571012001F00CFDDF
:101C00004FF4E172F721022001F006FD4FF49672C5
:101C100040F28A21032001F0FFFC4FF4AF724FF431
:101C20000A71042001F0F8FC4FF4167240F25331AF
:101C3000052001F0F1FC4FF4FA72F021062001F0CA
:101C4000EBFC01F043FD4FF4487001F07FFA4FF4D4
:101C500096724FF4C871022001F0DEFC4FF49672C8
:101C60004FF4F471032001F0D7FC4FF49672FD217C
:101C7000062001F0D1FC01F029FD4FF4FA7001F0CB
:101C800065FA4FF4967240F29321012001F0C4FCF2
:101C90004FF4967240F2B711022001F0BDFC4FF4F0
:101CA00096724FF4E771032001F0B6FC4FF4967280
:101CB00040F28311042001F0AFFC4FF496724FF410
:101CC000A071052001F0A8FC4FF49672AA2106200D
:101CD00001F0A2FC01F0FAFC4FF4487001F036FA72
:101CE0004FF47A7001F032FA4FF4FA72D2210820E0
:101CF00001F092FC01F0EAFC4FF47A7001F026FA50
:101D0000C82001F023FAC8224FF4F371052001F036
:101D100083FC4FF4967240F24711092001F07CFCDD
:101D200001F0D4FC4FF47A7001F010FA4FF4AF7266
:101D300040F2E511072001F06FFC4FF496724FF46A
:101D40000571082001F068FC4FF496724FF4E971B8
:101D5000092001F061FC4FF496724FF44D710A2096
:101D600001F05AFC01F0B2FC4FF47A7001F0EEF988
:101D70004FF4967240F2E511062001F04DFC01F09F
:101D8000A5FC4FF47A7001F0E1F94FF4967240F23D
:101D9000F111072001F040FC4FF496724FF4567198
:101DA000082001F039FC4FF496724FF4FA710A20C2
:101DB00001F032FC01F08AFC4FF47A7001F0C6F9B0
:101DC0004FF4167001F0C2F94FF4AF7240F20121E6
:101DD000012001F021FC4FF4AF7240F27721022084
:101DE00001F01AFC4FF4AF7240F22311032001F00E
:101DF00013FC4FF4AF724FF40271042001F00CFC9D
:101E000001F064FC4FF47A7001F0A0F94FF47A709D
:101E100001F09CF9FA2240F20531012001F0FCFBAF
:101E2000FA224FF4BD71022001F0F6FBFA224FF4C2
:101E3000FF71032001F0F0FBFA224FF491710420AE
:101E400001F0EAFB01F042FC4FF47A7001F07EF9F8
:101E5000C82001F07BF9C822A821062001F0DCFB94
:101E600001F034FC4FF47A7001F070F94B224FF41A
:101E70009F71052001F0D0FB01F028FC4FF47A702F
:101E800001F064F94FF4967240F21F21012001F035
:101E9000C3FB4FF496724FF4CC71022001F0BCFBEF
:101EA0004FF4967240F2E911032001F0B5FB4FF4B4
:101EB000967240F20E21042001F0AEFB4FF49672B0
:101EC00040F29B21052001F0A7FB01F0FFFB4FF43E
:101ED000487001F03BF94FF49672A821022001F0FE
:101EE0009BFB4FF496724FF43271032001F094FB88
:101EF0004FF496724FF44871052001F08DFB4FF4BA
:101F00009672B721062001F087FB4FF4967240F2DB
:101F1000EF11072001F080FB01F0D8FB4FF47A703D
:101F200001F014F94FF4967240F2C711012001F04C
:101F300073FB4FF49672DF21022001F06DFB4FF42A
:101F4000967240F2C121032001F066FB4FF49672B5
:101F500040F23121042001F05FFB4FF4967240F211
:101F6000E511052001F058FB4FF4967240F2E5119F
:101F7000062001F051FB4FF4967240F2EF1107205A
:101F800001F04AFB01F0A2FB4FF47A7001F0DEF899
:101F90004FF47A7001F0DAF84FF47A7001F0D6F865
:101FA00010BD10B54FF4C8724FF4F571012001F067
:101FB00033FB4FF4E172F721022001F02DFB4FF4C7
:101FC000967240F28A21032001F026FB4FF4AF7293
:101FD0004FF40A71042001F01FFB4FF4167240F217
:101FE0005331052001F018FB4FF4FA72F02106205E
:101FF00001F012FB01F06AFB4FF4487001F0A6F803
:102000004FF496724FF4C871022001F005FB4FF4B3
:1020100096724FF4F471032001F0FEFA4FF49672B9
:10202000FD21062001F0F8FA01F050FB4FF4FA70A0
:1020300001F08CF84FF4967240F29321012001F0E8
:10204000EBFA4FF4967240F2B711022001F0E4FA75
:102050004FF496724FF4E771032001F0DDFA4FF46C
:10206000967240F28311042001F0D6FA4FF4967272
:102070004FF4A071052001F0CFFA4FF49672AA2117
:10208000062001F0C9FA01F021FB4FF4487001F07D
:102090005DF84FF47A7001F059F84FF4FA72D221DA
:1020A000082001F0B9FA01F011FB4FF47A7001F049
:1020B0004DF8C82001F04AF8C8224FF4F37105200A
:1020C00001F0AAFA4FF4967240F24711092001F08C
:1020D000A3FA01F0FBFA4FF47A7001F037F84FF4ED
:1020E000AF7240F2E511072001F096FA4FF49672B4
:1020F0004FF40571082001F08FFA4FF496724FF4F7
:102100004D710A2001F088FA01F0E0FA4FF47A707C
:1021100001F01CF84FF4967240F2E511062001F030
:102120007BFA01F0D3FA4FF47A7001F00FF84FF414
:10213000967240F2F111072001F06EFA4FF4967298
:102140004FF45671082001F067FA4FF496724FF47D
:10215000E971092001F060FA4FF496724FF4FA71B8
:102160000A2001F059FA01F0B1FA4FF47A7000F048
:10217000EDFF4FF4167000F0E9FF4FF4AF7240F23C
:102180000121012001F048FA4FF4AF7240F27721AB
:10219000022001F041FA4FF4AF7240F22311032004
:1021A00001F03AFA4FF4AF724FF40271042001F0DB
:1021B00033FA01F08BFA4FF47A7000F0C7FF4FF456
:1021C0007A7000F0C3FF4FF4AF724FF4067108202D
:1021D00001F022FA4FF4AF724FF44D710A2001F072
:1021E0001BFA01F073FA4FF47A7000F0AFFF4FF46E
:1021F000FA7000F0ABFF4FF4967240F2F111072035
:1022000001F00AFA4FF496724FF45671082001F06B
:1022100003FA4FF496724FF4E971092001F0FCF9CA
:102220004FF496724FF4FA710A2001F0F5F901F0BB
:102230004DFA4FF47A7000F089FFFA2240F205312E
:10224000012001F0E9F9FA224FF4BD71022001F0FA
:10225000E3F9FA224FF4FF71032001F0DDF9FA22CD
:102260004FF49171042001F0D7F901F02FFA4FF4E7
:102270007A7000F06BFFC82000F068FFC822A82128
:10228000062001F0C9F901F021FA4FF47A7000F04C
:102290005DFF4B224FF49F71052001F0BDF901F065
:1022A00015FA4FF47A7000F051FF4FF4967240F235
:1022B0001F21012001F0B0F94FF496724FF4CC7158
:1022C000022001F0A9F94FF4967240F2E9110320BF
:1022D00001F0A2F94FF4967240F20E21042001F0B1
:1022E0009BF94FF4967240F29B21052001F094F97E
:1022F00001F0ECF94FF4487000F028FF4FF49672AB
:10230000A821022001F088F94FF496724FF432713F
:10231000032001F081F94FF496724FF448710520C3
:1023200001F07AF94FF49672B721062001F074F9A2
:102330004FF4967240F2EF11072001F06DF901F0B1
:10234000C5F94FF47A7000F001FF4FF4967240F235
:10235000C711012001F060F94FF49672DF210220CD
:1023600001F05AF94FF4967240F2C121032001F0B6
:1023700053F94FF4967240F23121042001F04CF9E8
:102380004FF4967240F2E511052001F045F94FF443
:10239000967240F2E511062001F03EF94FF4967274
:1023A00040F2EF11072001F037F901F08FF94FF4F7
:1023B0007A7000F0CBFE4FF47A7000F0C7FE4FF455
:1023C0007A7000F0C3FE10BD10B54FF4967240F263
:1023D000F121012001F020F94FF4C87240F2972159
:1023E000022001F019F94FF4AF724FF4DB710320B2
:1023F00001F012F94FF4AF7240F22F21042001F0E6
:102400000BF94FF4967240F2E511052001F004F942
:10241000642240F2E711062001F0FEF8C82240F2E3
:102420005B21072001F0F8F8C8224FF465710820FD
:1024300001F0F2F8962240F2E311092001F0ECF8E5
:10244000C82240F216210A2001F0E6F801F03EF918
:102450004FF47A7000F07AFE962240F24A2108206A
:1024600001F0DAF8322240F2F911072001F0D4F835
:1024700001F02CF94FF47A7000F068FE4FF44870C8
:1024800000F064FE4FF4967240F22E21012001F01C
:10249000C3F84FF4967240F20721022001F0BCF815
:1024A0004FF49672511D032001F0B6F84FF4967266
:1024B0004FF48671042001F0AFF84FF496724FF498
:1024C000CD71082001F0A8F801F000F94FF47A70FE
:1024D00000F03CFE4FF4967240F22721022001F0FA
:1024E0009BF84FF49672D121032001F095F84FF438
:1024F000AF72F021042001F08FF8C8224FF4B871B8
:10250000072001F089F84FF4C8724FF45D710A207A
:1025100001F082F801F0DAF84FF42F7000F016FEA7
:10252000C82240F2F111072001F076F8C8224FF4DA
:102530005671082001F070F801F0C8F84FF4967059
:1025400000F004FEC82240F2C711012001F064F837
:10255000C822DF21022001F05FF8C82240F2F11109
:10256000072001F059F8C8224FF45671082001F0F5
:1025700053F8C8224FF4E971092001F04DF8C82240
:102580004FF4FA710A2001F047F801F09FF84FF478
:102590007A7000F0DBFD4FF47A7000F0D7FD4FF455
:1025A0007A7000F0D3FDC8224FF4A271022001F02E
:1025B00033F8C82240F2D321082001F02DF8C822B8
:1025C00040F262210A2001F027F801F07FF84FF471
:1025D0007A7000F0BBFDC822DF21022001F01CF858
:1025E000C8224FF45671082001F016F8C8224FF4A3
:1025F000FA710A2001F010F801F068F84FF47A70CF
:1026000000F0A4FDC8224FF4A271022001F004F8EA
:10261000C82240F2D321082000F0FEFFC82240F279
:1026200061210A2000F0F8FF01F050F84FF47A70B1
:1026300000F08CFDC822DF21022000F0EDFFC8224F
:102640004FF45671082000F0E7FFC8224FF4FA71EA
:102650000A2000F0E1FF01F039F84FF47A7000F041
:1026600075FD4FF47A7000F071FD4FF47A7000F050
:102670006DFD4FF47A7000F069FD10BD10B54FF498
:1026800096724FF4E471012000F0C6FF4FF4967289
:1026900040F2C121022000F0BFFF4FF4967240F2D9
:1026A0004D11032000F0B8FF4FF4967240F2222142
:1026B000072000F0B1FF4FF4967240F285310820F8
:1026C00000F0AAFF4FF4967240F20F21092000F0AB
:1026D000A3FF4FF4967240F211210A2000F09CFFF4
:1026E00000F0F4FF4FF47A7000F030FDA0224FF4B8
:1026F0001671072000F090FFA0224FF465710820AA
:1027000000F08AFF4FF47A7000F020FDC82000F03E
:102710001DFD50224FF4E571092000F07DFFA0223D
:1027200040F2FA310A2000F077FF00F0CFFF4FF4BB
:102730007A7000F00BFD4FF47A7000F007FDFA227A
:1027400040F25F21012000F067FFFA2240F29F2152
:10275000042000F061FFC8224FF4E571092000F069
:102760005BFF00F0B3FF4FF4487000F0EFFCFA227B
:1027700040F28B11012000F04FFF4FF4AF7240F296
:102780002B11042000F048FFC82240F282210920CA
:1027900000F042FF00F09AFF4FF4487000F0D6FCC2
:1027A000FA2240F25F21012000F036FFFA2240F2C7
:1027B0009F21042000F030FFC8224FF4E57109206A
:1027C00000F02AFF00F082FF4FF4487000F0BEFCDA
:1027D000FA2240F28B11012000F01EFF4FF4AF727D
:1027E00040F22B11042000F017FFC82240F2822192
:1027F000092000F011FF00F069FF4FF47A7000F03B
:10280000A5FC4FF4C87000F0A1FCFA224FF4E2716D
:10281000012000F001FFFA22DB21022000F0FCFE83
:10282000FA2240F2C521032000F0F6FEFA224FF40E
:102830000171042000F0F0FEC8224FF4EA71092073
:1028400000F0EAFEC8224FF4FA710A2000F0E4FE1C
:1028500000F03CFF4FF47A7000F078FC4FF44870C1
:1028600000F074FCC8224FF4F971072000F0D4FE88
:10287000C82240F25A31082000F0CEFE00F026FFB8
:102880004FF47A7000F062FCFA2240F2E511052064
:1028900000F0C2FEFA2240F2E711062000F0BCFE72
:1028A00000F014FF4FF47A7000F050FC4FF4967271
:1028B0004FF4FF71012000F0AFFE4FF496724FF419
:1028C000D671022000F0A8FE4FF4967240F2FD117E
:1028D000032000F0A1FE4FF4967240F22121042063
:1028E00000F09AFE4FF4967240F20931052000F094
:1028F00093FEC822D621062000F08EFE4FF4967279
:102900004FF4EE71072000F087FE642240F20E3192
:10291000082000F081FE4FF4967240F281110920E8
:1029200000F07AFE4FF496724FF4D7710A2000F04F
:1029300073FE00F0CBFE4FF47A7000F007FC962295
:10294000F021082000F068FE4FF496724FF4FA71FF
:10295000072000F061FE00F0B9FE4FF47A7000F03D
:10296000F5FB4FF47A7000F0F1FB4FF47A7000F051
:10297000EDFB4FF496724FF4AD71012000F04CFE68
:102980004FF4967240F23E21022000F045FE4FF4D3
:1029900096724FF49B71032000F03EFE4FF4967246
:1029A00040F2EB21042000F037FE00F08FFE4FF4E0
:1029B0002F7000F0CBFB4FF496724FF42F71012073
:1029C00000F02AFE4FF4967240F20B11022000F044
:1029D00023FE4FF4967240F2A221032000F01CFE69
:1029E0004FF49672DA21042000F016FE00F06EFE1D
:1029F0004FF47A7000F0AAFB4FF496724FF4AD7169
:102A0000012000F009FE4FF4967240F23E210220B0
:102A100000F002FE4FF496724FF49B71032000F019
:102A2000FBFD4FF4967240F2EB21042000F0F4FD20
:102A300000F04CFE4FF47A7000F088FB4FF4967271
:102A40004FF42F71012000F0E7FD4FF4967240F231
:102A50000B11022000F0E0FD4FF4967240F2A2212B
:102A6000032000F0D9FD4FF49672DA21042000F023
:102A7000D3FD00F02BFE4FF42F7000F067FB4FF4F6
:102A800096724FF4FF71012000F0C6FD4FF496726C
:102A90004FF4D671022000F0BFFD4FF4967240F261
:102AA000FD11032000F0B8FD4FF4967240F2212191
:102AB000042000F0B1FD00F009FE4FF47A7000F040
:102AC00045FB962240F2BE21022000F0A5FD962291
:102AD000FE21032000F0A0FD4FF4967240F23E313B
:102AE000052000F099FDC82240F22111062000F0D7
:102AF00093FDC8229F21082000F08EFD00F0E6FD26
:102B00004FF47A7000F022FBC82000F01FFB4FF456
:102B100096724FF41171012000F07EFD4FF4967211
:102B20004FF4C071042000F077FD00F0CFFD4FF4AA
:102B30007A7000F00BFB4FF4967000F007FB4FF437
:102B400096724FF4FF71012000F066FD4FF496720B
:102B50004FF4D671022000F05FFD4FF4967240F200
:102B6000FD11032000F058FD4FF4967240F2212130
:102B7000042000F051FD00F0A9FD4FF47A7000F040
:102B8000E5FA4FF4967240F2EB11072000F044FD95
:102B9000C82240F22931082000F03EFD4FF4967221
:102BA0004FF4C271092000F037FD4FF496724FF4D4
:102BB000D7710A2000F030FD00F088FD4FF47A70E4
:102BC00000F0C4FA4FF47A7000F0C0FA4FF47A7053
:102BD00000F0BCFA4FF4967240F2E511052000F0C7
:102BE0001BFD4FF4967240F2E511062000F014FD33
:102BF0004FF4967240F2F111072000F00DFD4FF4F2
:102C000096724FF45671082000F006FD4FF496724C
:102C10004FF4E971092000F0FFFC4FF496724FF475
:102C2000FA710A2000F0F8FC00F050FD4FF44870F3
:102C300000F08CFA4FF4967240F2C711012000F0B8
:102C4000EBFC4FF49672DF21022000F0E5FC4FF41C
:102C5000967240F2C121032000F0DEFC4FF4967220
:102C600040F23121042000F0D7FC00F02FFD4FF49A
:102C70007A7000F06BFA4FF47A7000F067FA10BDCA
:102C800010B564224FF4E171092000F0C5FC00F09A
:102C90001DFD4FF4FA7000F059FA4FF496724FF49C
:102CA0002F71012000F0B8FC4FF496724FF42A7196
:102CB000022000F0B1FC4FF496724FF40071032033
:102CC00000F0AAFC4FF496724FF40071042000F05B
:102CD000A3FCC8224FF4B971072000F09DFCC82264
:102CE0004FF4B971092000F097FC00F0EFFC41F2BD
:102CF000883000F02BFA4FF42F7240F2C7110120F8
:102D000000F08AFC4FF42F72DF21022000F084FCD7
:102D10004FF461724FF49671072000F07DFC00F0D3
:102D2000D5FC4FF47A7000F011FA4FF42F7211466F
:102D3000082000F071FC4FF42F724FF4E17107206E
:102D400000F06AFC00F0C2FC4FF4FA6000F0FEF9FB
:102D50004FF496724FF44371082000F05DFC4FF47D
:102D6000967251000A2000F057FC00F0AFFC4FF4BF
:102D70007A7000F0EBF996224FF45671082000F0BB
:102D80004BFC4FF4967240F2F111072000F044FC26
:102D90004FF4967240F226210A2000F03DFC4FF4D9
:102DA000967240F22621092000F036FC00F08EFCDD
:102DB0004FF47A7000F0CAF964224FF4FA710A20D5
:102DC00000F02AFC64224FF4E171092000F024FC99
:102DD00000F07CFC4FF47A7000F0B8F94FF4967272
:102DE0004FF42F71012000F017FC4FF496724FF44E
:102DF0002A71022000F010FC4FF496724FF400711B
:102E0000032000F009FC4FF496724FF40071042087
:102E100000F002FCC8224FF4B971072000F0FCFB5F
:102E2000C8224FF4B971092000F0F6FB00F04EFC07
:102E300041F2883000F08AF94FF42F7240F2C71146
:102E4000012000F0E9FB4FF42F72DF21022000F097
:102E5000E3FB4FF461724FF49671072000F0DCFB46
:102E600000F034FC4FF47A7000F070F94FF42F72D8
:102E70001146082000F0D0FB4FF42F724FF4E1719F
:102E8000072000F0C9FB00F021FC4FF4FA6000F0CD
:102E90005DF94FF496724FF44371082000F0BCFBCB
:102EA0004FF4967251000A2000F0B6FB00F00EFCC1
:102EB0004FF47A7000F04AF996224FF456710820C8
:102EC00000F0AAFB4FF4967240F2F111072000F0D7
:102ED000A3FB4FF4967240F226210A2000F09CFBDF
:102EE0004FF4967240F22621092000F095FB00F085
:102EF000EDFB4FF47A7000F029F9FDF7B5FA4FF4C5
:102F0000965000F023F9FEF7C8FD10BD10B54FF440
:102F1000C8724FF4F571012000F07EFB4FF4E172AE
:102F2000F721022000F078FB4FF4967240F28A21DC
:102F3000032000F071FB4FF4AF724FF40A710420CC
:102F400000F06AFB4FF4167240F25331052000F096
:102F500063FB4FF4FA72F021062000F05DFB00F0F5
:102F6000B5FB4FF47A7000F0F1F8C82000F0EEF8ED
:102F70004FF4967240F20531012000F04DFB4FF402
:102F800096724FF4BD71022000F046FB4FF496722A
:102F90004FF4FF71032000F03FFB4FF496724FF4A3
:102FA0009171042000F038FB4FF496724FF4A07139
:102FB000052000F031FB4FF49672AA21062000F0A4
:102FC0002BFB00F083FB4FF4487000F0BFF84FF488
:102FD0007A7000F0BBF84FF4FA72D221082000F0AA
:102FE0001BFB00F073FB4FF47A7000F0AFF8C820C1
:102FF00000F0ACF84FF496724FF4F571032000F036
:103000000BFB4FF496724FF49B71042000F004FB0D
:1030100000F05CFBC82000F099F84FF448725110A2
:10302000092000F0F9FA962240F20321052000F071
:10303000F3FA00F04BFB4FF47A7000F087F84FF48E
:10304000967240F21E21082000F0E6FA4FF49672C4
:103050004FF4E971092000F0DFFA4FF4A5724FF444
:103060004D710A2000F0D8FA00F030FB4FF44870A0
:1030700000F06CF84FF496724FF45671082000F08F
:10308000CBFA4FF496724FF4EB71062000F0C4FABD
:103090004FF4967240F2F111072000F0BDFA4FF4A0
:1030A00096724FF4E971092000F0B6FAFA22510045
:1030B0000A2000F0B1FA00F009FB4FF47A7000F03A
:1030C00045F8C82000F042F810BD00004FF0E021A4
:1030D000096921F004014FF0E0221161C21700EBF1
:1030E0005272C2F3C7022B4B1A701946097801EBD2
:1030F0004102C2EBC1114FF6FF7202EAC101264A3A
:10310000118070470146234A12784A434FF0E0236A
:103110005A6100229A611A46126942F001021A614C
:1031200000BF4FF0E022106900F001021AB100F474
:103130008032002AF5D04FF0E022126922F001021D
:103140004FF0E0231A6100229A6170470146124A4B
:1031500012884A434FF0E0235A6100229A611A46CE
:10316000126942F001021A6100BF4FF0E0221069BB
:1031700000F001021AB100F48032002AF5D04FF0BD
:10318000E022126922F001024FF0E0231A610022CE
:103190009A617047140000201600002010B54FF40B
:1031A000A06000F0FBFA10BD3A4A0A4002433A4BD5
:1031B0001A60704700B5002038490861C8601420C3
:1031C000486100208861C8610846006840F001003D
:1031D000086008464068324908403049486008465F
:1031E0000068304908402D4908600846006820F40E
:1031F000802008600846406820F4FE0048600020F7
:10320000886000214FF00060FFF7CEFF00BD30B5B1
:1032100004460025FFF7CEFF2048006840F48030C8
:103220001E49086000BF1D480068400C0028FAD005
:103230004FF4806019494860A01EC4B20846406837
:1032400040EA844048600846406840F48030486066
:103250001548006840F03200134908600F480068C4
:1032600040F080700D49086000BF0C480068400EB7
:103270000028FAD00948406840F002000749486039
:1032800005E006484068C0F3870505F00305022DF8
:10329000F7D130BD80FFFF1F08ED00E000100240B5
:1032A0000000FFF8FFFFF6FE00200240014600BFCD
:1032B000704770B504460D4600BF4021FE4801F03E
:1032C00005F80028F9D0E1B2FB4800F091FF204654
:1032D00070BD10B586B004460121080500F0F5FD6B
:1032E0000121102000F0E4FD0121202000F0E0FD8C
:1032F0004FF48050ADF8140003208DF8160018200C
:103300008DF8170005A9ED4800F016FB4FF480502A
:10331000ADF8140010208DF8170003208DF816006A
:1033200005A9E74800F008FB4FF48051E44800F09D
:10333000B0FB01940020ADF80800ADF80A00ADF82C
:103340000C00ADF810000C20ADF80E0001A9DA4811
:1033500000F055FE0121D84800F0DDFE06B010BD9A
:103360007047D549888000BFD349098801F04001E2
:103370000029F9D070472DE9FC5F06460C4615463A
:103380000027B846B946BA46BB46002001900090D7
:10339000B5F5806F02DB40F2FF3700E02F46B4F551
:1033A000806F02DB40F2FF3800E0A0464FEA272999
:1033B00007F0FF0A4FEA282B08F0FF000190FF20DA
:1033C000FFF7CFFFFF20FFF7CCFF3046FFF7C9FF25
:1033D0000720FFF7C6FF0320FFF7C3FF0620FFF714
:1033E000C0FF0198FFF7BDFF5846FFF7BAFF5046F0
:1033F000FFF7B7FF4846FFF7B4FF06F11000019949
:103400000844584450444844C0B200900098C04317
:10341000C0B200900098FFF7A4FF00BFA648008844
:1034200000F040000028F9D00220FFF78FFEBDE831
:10343000FC9F2DE9FC5F06460C4615460027B84662
:10344000B946BA46BB46002001900090B5F5806FA2
:1034500002DB40F2FF3700E02F46B4F5806F02DB5D
:1034600040F2FF3800E0A0464FEA272907F0FF0AA4
:103470004FEA282B08F0FF000190FF20FFF771FFB3
:10348000FF20FFF76EFF3046FFF76BFF0720FFF7C7
:1034900068FF0320FFF765FF1E20FFF762FF01981A
:1034A000FFF75FFF5846FFF75CFF5046FFF759FFF5
:1034B0004846FFF756FF06F1280001990844584492
:1034C00050444844C0B200900098C043C0B200903D
:1034D0000098FFF746FF00BF7748008800F04000E3
:1034E0000028F9D00220FFF731FEBDE8FC9F2DE94E
:1034F000F04F8BB081460C4615461E46DDE9147828
:103500004FF0000AD34600200A90099008900790D7
:103510000690059004900390029001900090A346BD
:10352000AA460597CDF818804FEA2A200A900AF09B
:10353000FF0009904FEA2B2008900BF0FF00079046
:10354000DDF818804FEA28200490DDF8188008F094
:10355000FF000390059F38120290059FF8B201907A
:10356000FF20FFF7FEFEFF20FFF7FBFEFE20FFF728
:10357000F8FE0E20FFF7F5FE8320FFF7F2FE1E2077
:10358000FFF7EFFE0420FFF7ECFE4846FFF7E9FEE9
:103590000798FFF7E6FE0898FFF7E3FE0998FFF7A4
:1035A000E0FE0A98FFF7DDFE3046FFF7DAFE0198ED
:1035B000FFF7D7FE0298FFF7D4FE0398FFF7D1FE7E
:1035C0000498FFF7CEFE09F2B11081190798014463
:1035D00008980144099801440A980144019801445B
:1035E000029801440398014404980844C0B2009032
:1035F0000098C043C0B200900098FFF7B2FE00BF31
:103600002D48008800F040000028F9D00220FFF784
:103610009DFD0BB0BDE8F08F2DE9FC5F06460C4622
:1036200015460027B846B946BA46BB460020019069
:1036300000902F46A0464FEA272907F0FF0A4FEADD
:10364000282B08F0FF000190FF20FFF78AFEFF20E3
:10365000FFF787FE3046FFF784FE0720FFF781FE65
:103660000420FFF77EFE1E20FFF77BFE0198FFF788
:1036700078FE5846FFF775FE5046FFF772FE484643
:10368000FFF76FFE06F129000199084458445044A1
:103690004844C0B200900098C043C0B20090009867
:1036A000FFF75FFE00BF0448008800F040000028DC
:1036B000F9D0022006E00000005000400010014058
:1036C00000140140FFF742FDBDE8FC9F10B5002447
:1036D000FF20FFF746FEFF20FFF743FEFE20FFF727
:1036E00040FE0220FFF73DFE0520FFF73AFE0524CD
:1036F000E043C4B22046FFF734FE00BF16480088FE
:1037000000F040000028F9D00220FFF71FFD10BD97
:1037100070B504460025FF20FFF723FEFF20FFF7CA
:1037200020FE2046FFF71DFE0220FFF71AFE0120B3
:10373000FFF717FEE01CC5B2E843C5B22846FFF705
:1037400010FE00BF0448008800F040000028F9D0B7
:103750000220FFF7FBFC70BD005000400948804785
:1037600009480047FEE7FEE7FEE7FEE7FEE7FEE763
:10377000FEE7FEE7FEE7FEE704480549054A064B7B
:10378000704700001B030008310100089000002072
:103790009006002090020020900200203149014351
:1037A000314A1160704770B5002100230F22C478A0
:1037B00004B32D4C246804F4E064C4F5E064210AE9
:1037C000C1F10403CA40447804FA03F18478144038
:1037D00021430901254C0678A155047804F01F0502
:1037E0000124AC4005786D11AD0005F1E025C5F868
:1037F000004109E0047804F01F050124AC401C4D91
:103800000678761145F8264070BD1A4A0A400243F0
:10381000154B1B1F1A60704739B1134A121D1268ED
:103820000243114B1B1D1A6006E00F4A121D12685D
:1038300082430D4B1B1D1A607047042808D14FF0BE
:10384000E021096941F004014FF0E022116107E035
:103850004FF0E021096921F004014FF0E0221161ED
:10386000704700000000FA050CED00E000E400E005
:1038700080E100E080FFFF1F10B50446CC48844281
:1038800008D10121042000F02DFB0021042000F0CC
:1038900029FB46E0C748844208D10121082000F0F6
:1038A00021FB0021082000F01DFB3AE0C2488442C1
:1038B00008D10121102000F015FB0021102000F09C
:1038C00011FB2EE0BD48844208D10121202000F0E8
:1038D00009FB0021202000F005FB22E0B8488442CB
:1038E00008D10121402000F0FDFA0021402000F025
:1038F000F9FA16E0B348844208D10121802000F093
:10390000F1FA0021802000F0EDFA0AE0AE4884428E
:1039100007D10121801500F0E5FA0021A01500F083
:10392000E1FA10BD10B50121084600F0DBFA0021D4
:10393000012000F0D7FA10BD2DE9F0410246002524
:103940000026002000230024002791F803C00CF07B
:103950000F0591F803C00CF0100CBCF1000F03D060
:1039600091F802C04CEA050591F800C0BCF1000FC7
:1039700031D0146800202BE04FF0010C0CFA00F35A
:10398000B1F800C00CEA03069E4220D183004FF03C
:103990000F0C0CFA03F7BC4305FA03FC4CEA0404D1
:1039A00091F803C0BCF1280F06D14FF0010C0CFABE
:1039B00000FCC2F814C00AE091F803C0BCF1480F43
:1039C00005D14FF0010C0CFA00FCC2F810C0401CED
:1039D0000828D1D31460B1F800C0BCF1FF0F34DD6A
:1039E000546800202EE000F1080C4FF0010808FA9E
:1039F0000CF3B1F800C00CEA03069E4221D183000B
:103A00004FF00F0C0CFA03F7BC4305FA03FC4CEA29
:103A1000040491F803C0BCF1280F05D100F1080C93
:103A200008FA0CF8C2F8148091F803C0BCF1480FF2
:103A300007D100F1080C4FF0010808FA0CF8C2F8A1
:103A40001080401C0828CED35460BDE8F0814FF6AA
:103A5000FF710180022181700421C170704702460C
:103A6000002093680B400BB1012000E0002070475C
:103A70000146886880B2704702460020D3680B4038
:103A80000BB1012000E0002070470146C86880B2F9
:103A9000704701617047416170470AB1016100E000
:103AA00041617047C16070474FF480320A438261C0
:103AB0008161826182698269704702460020434BBE
:103AC00018684FF68073184040EA021008433F4BD5
:103AD000186070473E49C8617047F0B50A46002338
:103AE00000240021002500F00046B6F1004F02D16D
:103AF000364EF16901E0354E7168C0F3034583B27B
:103B000000F44016B6F5401F08D121F070612F4E29
:103B1000766826F070662D4F7E6012E000F4801605
:103B2000B6F5801F06D1032606FA05F4A14341F03D
:103B3000706106E0460D360103FA06F6B14341F026
:103B4000706122B1460D360103FA06F6314300F0EA
:103B50000046B6F1004F02D11C4EF16101E01B4E50
:103B60007160F0BD30B500228B071C0F0F2303FAE4
:103B700004F2164B08338C1053F824309343134C43
:103B800008348D1044F8253023468C1053F8243027
:103B90008C07240F00FA04F423430C4C08348D10D6
:103BA00044F8253030BD0A49DC3108607047000018
:103BB00000080140000C01400010014000140140C9
:103BC00000180140001C014000200140000001409D
:103BD00000002042DF48006840F00100DD49086035
:103BE00008464068DC490840DA49486008460068F1
:103BF000DA490840D74908600846006820F4802068
:103C000008600846406820F4FE0048604FF41F003A
:103C100088607047CF49096821F48031CD4A11602E
:103C20001146096821F480211160B0F5803F03D06E
:103C3000B0F5802F0ED106E0C649096841F4803105
:103C4000C44A116007E0C349096841F4A021C14A90
:103C5000116000E000BF00BF704710B501460022B0
:103C6000002300204A11012A02D1BA4C236806E041
:103C7000022A02D1B74C236A01E0B64C636A01F014
:103C80001F02012494401C400CB1012000E00020E0
:103C900010BD38B5002000900024002500BF312061
:103CA000FFF7DBFF05460098401C00900098B0F538
:103CB000A06F01D0002DF2D03120FFF7CEFF08B168
:103CC000012400E00024204638BD01460020A14A1E
:103CD000106820F0F80040EAC10010607047A04969
:103CE00008607047024600209A4B586820F47C1008
:103CF00042EA01031843974B586070479849086699
:103D0000704701460020934A506820F003000843A2
:103D1000506070478F48406800F00C0070470146C3
:103D200000208C4A506820F0F00008435060704733
:103D300001460020874A506820F4E0600843506044
:103D4000704701460020834A506820F4605040EAE2
:103D5000C1005060704729B17E4A527A02437D4BC0
:103D60005A7204E07B4A527A82437A4B5A72704705
:103D70007B49D8310860704701460020754A506879
:103D800020F440400843506070470021714A2032BF
:103D90001170704A82F82010012802D004280AD13C
:103DA00004E001216B4A2032117005E00521694AC7
:103DB0002032117000E000BF00BF70476949086001
:103DC00070476449096A0143624A11627047654954
:103DD00044390860704730B50021002200240023D8
:103DE0005C4D6D6805F00C0121B1042905D008294E
:103DF00023D105E05C4D056022E05B4D05601FE0CE
:103E0000544D6D6805F47012524D6D6805F48034A0
:103E1000022505EB92421CB9544D554305600BE059
:103E20004C4D6D6805F400351DB1504D554305608E
:103E300002E04D4D5543056002E04B4D056000BF6B
:103E400000BF444D6D6805F0F0010909484D6B5CF9
:103E50000568DD4045603F4D6D6805F4E061090A85
:103E6000434D6B5C4568DD4085603A4D6D6805F4F7
:103E70006051C90A3E4D6B5C4568DD40C560354DFB
:103E80006D6805F44041890B3A4D6B5CC568B5FB24
:103E9000F3F5056130BD29B12E4A526902432D4B1D
:103EA0005A6104E02B4A526982432A4B5A61704797
:103EB00029B1284A92690243264B9A6104E0254AB7
:103EC00092698243234B9A61704729B1214AD26992
:103ED0000243204BDA6104E01E4AD26982431D4B43
:103EE000DA61704729B11B4AD2680243194BDA6084
:103EF00004E0184AD2688243164BDA60704729B151
:103F0000144A12690243134B1A6104E0114A126900
:103F10008243104B1A61704712494039086070475C
:103F20000F49C86470470B49C87170470948406A17
:103F300040F0807007494862704701460020054AFA
:103F400092680A400AB1012000E000207047014950
:103F500088727047001002400000FFF8FFFFF6FE75
:103F6000000042428004424200127A0000093D00F3
:103F7000180000202800002010B50446FB488442A9
:103F800009D101218803FFF7ADFF00214FF48040E4
:103F9000FFF7A8FF32E0F648844209D10121480426
:103FA000FFF7ADFF00214FF40030FFF7A8FF25E039
:103FB000F048844209D101218804FFF7A0FF0021C5
:103FC0004FF48020FFF79BFF18E0EB48844209D1B3
:103FD0000121C804FFF793FF00214FF40020FFF7F1
:103FE0008EFF0BE0E548844208D101210805FFF768
:103FF00086FF00214FF48010FFF781FF10BD2DE9EF
:10400000F04786B005460E460024A24600BFA146F2
:104010000027B08900B100BF2F462C8A4CF6FF70F4
:104020000440F08804432C82AC894EF6F31004401F
:10403000B08831890843718908430443AC81AC8A54
:104040004FF6FF400440B0890443AC8201A8FFF75B
:10405000C2FEC648874202D1DDF810A001E0DDF8BB
:104060000CA0A88900F4004040B10AEBCA0000EBA4
:104070000A1031684900B0FBF1F807E00AEBCA000A
:1040800000EB0A1031688900B0FBF1F86420B8FB3E
:10409000F0F004012009642101FB1089A88900F4D3
:1040A000004040B1322000EBC900B0FBF1F000F05D
:1040B0000700044308E0322000EB09106421B0FB44
:1040C000F1F000F00F0004432C8106B0BDE8F0874A
:1040D0004FF41651016000218180C18001810C21C3
:1040E000418100218181704710B502460020108A6D
:1040F0004FF2FF0318400B884C8823438C882343DE
:10410000CC8823431843108210BD002101804180D8
:104110008180C180704721B1828942F4005282813E
:1041200004E082894DF6FF731A4082817047F0B532
:104130000346002400260025002040F66A17B942F5
:1041400000D100BF1846C1F3421401F01F06012739
:1041500007FA06F5012C01D10C3004E0022C01D144
:10416000103000E014301AB107682F43076002E0F6
:104170000768AF430760F0BD1AB1838A0B4383829F
:1041800002E0838A8B4383827047028A4FF6F07382
:104190001A400282028A0A430282704782894FF2E1
:1041A000FF731A40828182890A438281704721B15C
:1041B000828942F00202828104E082894FF6FD7317
:1041C0001A4082817047028A4FF6DF731A400282DA
:1041D000028A0A430282704721B1028A42F4804275
:1041E000028204E0028A4BF6FF731A400282704793
:1041F000C1F308028280704701468888C0F3080036
:104200007047818941F0010181817047028BD2B2F0
:104210000283028B42EA012202837047028B02F47E
:104220007F420283028B0A430283704721B1828A54
:1042300042F02002828204E0828A4FF6DF731A4045
:104240008282704721B1828A42F01002828204E0A9
:10425000828A4FF6EF731A408282704721B1828AB8
:1042600042F00802828204E0828A4FF6F7731A4015
:104270008282704721B1828942F40042828103E048
:104280008289C2F30E028281704721B1828A42F490
:104290000062828204E0828A4FF2FF731A408282B7
:1042A0007047828A4FF6FB731A408282828A0A43E1
:1042B0008282704721B1828A42F00202828204E047
:1042C000828A4FF6FD731A408282704702460020B0
:1042D000B1F5007F00D100BF13880B400BB1012066
:1042E00000E00020704701F40072B2F5007F00D1B9
:1042F00000BFCA430280704770B502460024002305
:104300000025002040F66A16B14200D100BFC1F37B
:10431000421501F01F03012606FA03F3012D02D115
:104320009689334006E0022D02D1168A334001E01F
:10433000968A33400C12012606FA04F4168834409B
:1043400013B10CB1012000E0002070BD10B50022B7
:10435000002340F66A14A14200D100BF0A120124D2
:104360009440A3B2DC43048010BD0000003801403B
:104370000044004000480040004C00400050004015
:10438000704770477047754600F02CF8AE46050040
:104390006946534620F00700854618B020B5FFF760
:1043A000EBF9BDE820404FF000064FF000074FF05A
:1043B00000084FF0000B21F00701AC46ACE8C00943
:1043C000ACE8C009ACE8C009ACE8C0098D4670474C
:1043D00010B50446AFF300802046BDE81040FBF75F
:1043E000EEBE0000004870472C0000200C4400087E
:1043F000000000202C0000006C0100083844000878
:104400002C000020640600008801000800A24A0475
:104410000000000000000000010203040607080974
:104420000000000000000000010203040102030478
:08443000060708090204060852
:0400000508000131BD
:00000001FF
