:020000040800F2
:10000000900600209937000821020008230200080A
:10001000270200082B0200082F0200080000000041
:100020000000000000000000000000003302000893
:1000300035020008000000003702000839020008FD
:10004000B3370008B3370008B3370008B3370008E8
:10005000B3370008B3370008B3370008B3370008D8
:10006000B3370008B3370008B3370008B3370008C8
:10007000B3370008B3370008B3370008B3370008B8
:10008000B3370008B3370008B3370008B3370008A8
:10009000B3370008B3370008B3370008B337000898
:1000A000B3370008B3370008B3370008B337000888
:1000B000B3370008B3370008B3370008B337000878
:1000C000B3370008B3370008B3370008B337000868
:1000D000B3370008B3370008B3370008B337000858
:1000E000B3370008B3370008B3370008B337000848
:1000F000B3370008B3370008B3370008B337000838
:10010000B3370008B3370008B3370008B337000827
:10011000B33700089D330008B3370008B337000831
:10012000B3370008B3370008B3370008B337000807
:1001300000F002F800F03AF80AA090E8000C8244BF
:100140008344AAF10107DA4501D100F02FF8AFF29C
:10015000090EBAE80F0013F0010F18BFFB1A43F0A5
:1001600001031847C4420000E4420000103A24BFD3
:1001700078C878C1FAD8520724BF30C830C144BF0C
:1001800004680C607047000000230024002500264E
:10019000103A28BF78C1FBD8520728BF30C148BFEA
:1001A0000B6070471FB51FBD10B510BD04F009F9F5
:1001B0001146FFF7F7FF00F009F804F027F903B440
:1001C000FFF7F2FF03BC03F08FF80000092003F0F3
:1001D0003CF8482002F098FF104803F098F800F02F
:1001E0001DF940F2FF3200210A2003F0E2F840F24C
:1001F000FF3200210C2003F0DCF80DE04FF47A70A0
:1002000002F0C2FF00F030F94FF4FA7002F0BCFFC8
:1002100002F0DAF800BFFEE7F0E7000020A10700D7
:10022000704700BFFEE700BFFEE700BFFEE700BF6C
:10023000FEE7704770477047704700000CB500201C
:10024000019000906C48006840F480306A49086072
:1002500000BF6948006800F4003000900198401C1D
:100260000190009818B90198B0F5A06FF1D16248DB
:10027000006800F4003010B10120009001E000207F
:1002800000900098012843D15C48006840F01000BD
:100290005A4908600846006820F0030008600846D4
:1002A000006840F0020008605348406852494860C6
:1002B0000846406848600846406840F480604860EE
:1002C0000846406820F47C1048600846406840F4C6
:1002D000E81048600846006840F08070086000BF81
:1002E0004548006800F000700028F9D04248406896
:1002F00020F00300404948600846406840F0020092
:10030000486000BF3C48406800F00C000828F9D164
:100310000CBD10B5FFF792FF10BD10B53648006850
:1003200040F00100344908600846406834490840FC
:100330003149486008460068324908402E49086043
:100340000846006820F4802008600846406820F4D1
:10035000FE0048604FF41F008860FFF7DAFF4FF09F
:1003600000602949086010BD10B50021002000225E
:10037000214B5B6803F00C0121B1042906D0082948
:1003800028D107E0214B224C236027E01F4B204C53
:10039000236023E0184B5B6803F47010164B5B6816
:1003A00003F48032022303EB904022B9194B4343FC
:1003B000174C23600DE0104B5B6803F4003323B14E
:1003C000144B4343124C236003E0104B4343104C47
:1003D000236003E00D4B0E4C236000BF00BF064BB3
:1003E0005B68C3F303130C4CE15C094B1B68CB4007
:1003F000074C236010BD00000010024000200240A6
:100400000000FFF8FFFFF6FE08ED00E000127A00A2
:100410000000002000093D000400002008B5012173
:10042000482003F063FD2020ADF8000010208DF877
:10043000030003208DF802006946094803F09AFA88
:100440002021074803F043FB2020ADF80000694657
:10045000044803F08FFA2021024803F038FB08BD5E
:10046000000C01400018014010B54FF4967240F2A4
:10047000C711012003F0EEF84FF49672DF2102203D
:1004800003F0E8F84FF4967240F2C121032003F024
:10049000E1F84FF4967240F23121042003F0DAF8CB
:1004A0004FF4967240F2E511052003F0D3F84FF4B3
:1004B000967240F2E511062003F0CCF84FF49672E4
:1004C00040F2F111072003F0C5F84FF496724FF493
:1004D0005671082003F0BEF84FF496724FF4E9719C
:1004E000092003F0B7F84FF496724FF4FA710A201E
:1004F00003F0B0F803F008F910BD10B54FF4967290
:1005000040F21511062002F0B2FF4FF4FA7002F02B
:100510003BFE4FF496724FF4F871062002F0A7FFED
:100520004FF4FA7002F030FE10BD10B54FF4967221
:100530004FF4FD71012003F08DF84FF4FA7240F290
:100540007D21022003F086F803F0DEF84FF42F70CF
:1005500002F01AFE4FF4FA7240F2E721012003F094
:1005600079F8C82240F2B721022003F073F803F0B3
:10057000CBF84FF4FA7002F007FE4FF4FA72911DB7
:10058000012003F067F8C82240F27D21022003F029
:1005900061F803F0B9F84FF4FA7002F0F5FD4FF48A
:1005A000FA7240F2E721012003F054F8C82240F229
:1005B0007D21022003F04EF803F0A6F84FF4FA7004
:1005C00002F0E2FD4FF4967240F2C711012003F0F1
:1005D00041F84FF4FA72DF21022003F03BF803F0F8
:1005E00093F84FF47A7002F0CFFD4FF47A7002F076
:1005F000CBFD4FF4967002F0C7FD10BD10B54FF45F
:10060000C8724FF4F571012003F024F84FF4E17241
:10061000F721022003F01EF84FF4967240F28A216F
:10062000032003F017F84FF4AF724FF40A7104205F
:1006300003F010F84FF4167240F25331052003F026
:1006400009F84FF4FA72F021062003F003F803F0E2
:100650005BF84FF4487002F097FD4FF496724FF438
:10066000C871022002F0F6FF4FF496724FF4F47155
:10067000032002F0EFFF4FF49672FD21062002F0F6
:10068000E9FF03F041F84FF4FA7002F07DFD4FF4FA
:10069000967240F29321012002F0DCFF4FF4967233
:1006A00040F2B711022002F0D5FF4FF496724FF4DA
:1006B000E771032002F0CEFF4FF4967240F28311EF
:1006C000042002F0C7FF4FF496724FF4A07105208A
:1006D00002F0C0FF4FF49672AA21062002F0BAFF82
:1006E00003F012F84FF4487002F04EFD4FF47A70A8
:1006F00002F04AFD4FF4FA72D221082002F0AAFF5C
:1007000003F002F84FF47A7002F03EFDC82002F0C8
:100710003BFDC8224FF4F371052002F09BFF4FF41C
:10072000967240F24711092002F094FF02F0ECFFAC
:100730004FF47A7002F028FD4FF4AF7240F2E511E9
:10074000072002F087FF4FF496724FF405710820DE
:1007500002F080FF4FF496724FF4E971092002F025
:1007600079FF4FF496724FF44D710A2002F072FF38
:1007700002F0CAFF4FF47A7002F006FD4FF4967251
:1007800040F2E511062002F065FF02F0BDFF4FF4D4
:100790007A7002F0F9FC4FF4967240F2F1110720E2
:1007A00002F058FF4FF496724FF45671082002F091
:1007B00051FF4FF496724FF4FA710A2002F04AFF8B
:1007C00002F0A2FF4FF47A7002F0DEFC4FF41670D4
:1007D00002F0DAFCC82240F21E31062002F03AFF95
:1007E00002F092FF4FF4487002F0CEFC4FF4967284
:1007F00040F29321012002F02DFF4FF4967240F257
:10080000B711022002F026FF4FF496724FF4E77101
:10081000032002F01FFF4FF4967240F28311042070
:1008200002F018FF4B224FF42371052002F012FF53
:1008300002F06AFF4FF47A7002F0A6FC4FF4FA70EF
:1008400002F0A2FC4FF4967240F22E21012002F039
:1008500001FFC8224FF4CE71022002F0FBFEC82235
:100860004FF4F671032002F0F5FE4FF4967240F259
:10087000E511042002F0EEFE4FF496727B21052074
:1008800002F0E8FE02F040FF4FF47A7002F07CFCC8
:100890004FF4FA7002F078FC4FF4967240F21F2188
:1008A000012002F0D7FE4FF49672A821022002F038
:1008B000D1FE4FF496724FF43271032002F0CAFE5B
:1008C0004FF4967240F20E21042002F0C3FE4FF462
:1008D0009672AA21052002F0BDFE4FF4967240F2F6
:1008E0001331062002F0B6FE02F00EFF4FF47A70CC
:1008F00002F04AFC4FF4967240F2C711012002F058
:10090000A9FE4FF49672DF21022002F0A3FE4FF4FD
:10091000967240F2C121032002F09CFE4FF49672C1
:1009200040F23121042002F095FE4FF4967240F21D
:10093000E511052002F08EFEC82240F2E5110620E6
:1009400002F088FE02F0E0FE4FF47A7002F01CFC28
:100950004FF47A7002F018FC4FF47A7002F014FC35
:1009600010BD10B54FF4967240F2C911012002F08B
:1009700071FE4FF49672E021022002F06BFE4FF4FC
:10098000967240F2C121032002F064FE4FF4AF7270
:1009900040F22E21042002F05DFE4FF49672A32156
:1009A000052002F057FE4FF4967240F2D221062045
:1009B00002F050FE02F0A8FE4FF47A7002F0E4FB61
:1009C0004FF4967002F0E0FB4FF4967240F2AF11D4
:1009D000022002F03FFE4FF496724FF4FF710320A5
:1009E00002F038FE4FF496729D21052002F032FE8F
:1009F0004FF496724FF43171062002F02BFE02F094
:100A000083FE4FF47A7002F0BFFB4FF4967240F20F
:100A10009321012002F01EFE4FF4967240F2B711AE
:100A2000022002F017FE4FF496724FF4E771032094
:100A300002F010FE4FF4967240F28311042002F08F
:100A400009FE4FF496724FF41D71052002F002FE6C
:100A50004FF4967240F21731062002F0FBFD02F0CF
:100A600053FE4FF47A7002F08FFB4FF47A7002F06D
:100A70008BFB4FF4FA72D221082002F0EBFD02F05A
:100A800043FE4FF47A7002F07FFB4FF4967002F051
:100A90007BFB4FF4967240F24711092002F0DAFD19
:100AA00096224FF4F371052002F0D4FD02F02CFEE3
:100AB0004FF47A7002F068FB4FF4AF7240F2E51128
:100AC000072002F0C7FD4FF496724FF4057108201D
:100AD00002F0C0FD4FF496724FF4E971092002F064
:100AE000B9FD4FF496724FF44D710A2002F0B2FD39
:100AF00002F00AFE4FF47A7002F046FB4FF4967251
:100B000040F2E511062002F0A5FD02F0FDFD4FF4D4
:100B10007A7002F039FB4FF4967240F2F11107201F
:100B200002F098FD4FF496724FF45671082002F0CF
:100B300091FD4FF496724FF4E971092002F08AFD9D
:100B40004FF496724FF4FA710A2002F083FD02F01E
:100B5000DBFD4FF47A7002F017FB4FF4167002F0D1
:100B600013FBC822A821062002F074FD02F0CCFD80
:100B70004FF47A7002F008FB4B224FF49F7105206E
:100B800002F068FD02F0C0FD4FF47A7002F0FCFA4A
:100B90004FF4967240F21F21012002F05BFD4FF4EA
:100BA00096724FF4CC71022002F054FD4FF496720D
:100BB00040F2E911032002F04DFD4FF4967240F22D
:100BC0000E21042002F046FD4FF4967240F29B2164
:100BD000052002F03FFD02F097FD4FF4487002F04F
:100BE000D3FA4FF49672A821022002F033FD4FF49D
:100BF00096724FF43271032002F02CFD4FF496727E
:100C00004FF44871052002F025FD4FF49672B7218C
:100C1000062002F01FFD4FF4967240F2EF110720FC
:100C200002F018FD02F070FD4FF47A7002F0ACFA99
:100C30004FF4967240F2C711012002F00BFD4FF401
:100C40009672DF21022002F005FD4FF4967240F209
:100C5000C121032002F0FEFC4FF4967240F23121D4
:100C6000042002F0F7FC4FF4967240F2E5110520E3
:100C700002F0F0FC4FF4967240F2E511062002F00B
:100C8000E9FC4FF4967240F2EF11072002F0E2FC0B
:100C900002F03AFD4FF47A7002F076FA4FF47A706F
:100CA00002F072FA4FF47A7002F06EFA10BD10B5CD
:100CB0004FF4C8724FF4F571012002F0CBFC4FF4F1
:100CC000E172F721022002F0C5FC4FF4967240F267
:100CD0008A21032002F0BEFC4FF4AF724FF40A7178
:100CE000042002F0B7FC4FF4167240F25331052095
:100CF00002F0B0FC4FF4FA72F021062002F0AAFCD8
:100D000002F002FD4FF47A7002F03EFAC82002F0C1
:100D10003BFA4FF4967240F26F11012002F09AFCF8
:100D2000FA22A921022002F095FCFA2240F2BB210E
:100D3000032002F08FFC4FF496724FF4FF710420F1
:100D400002F088FC4FF4967240F2CD21052002F0AB
:100D500081FC4FF4967240F2AF11062002F07AFC4B
:100D60004FF496724FF4F871072002F073FC4FF4C1
:100D700096724FF45671082002F06CFC4FF4967294
:100D800040F2D911092002F065FC4FF4967240F24E
:100D9000DD110A2002F05EFC02F0B6FC4FF47A701E
:100DA00002F0F2F9C82002F0EFF94FF49672FE213A
:100DB000032002F04FFC4FF4FA7240F20D110420B0
:100DC00002F048FC02F0A0FC4FF47A7002F0DCF96B
:100DD0004FF4167002F0D8F94FF4C872B721012011
:100DE00002F038FCC82240F21711022002F032FC57
:100DF00002F08AFC4FF4167002F0C6F94FF4C87284
:100E000040F26F11012002F025FCC822A921022026
:100E100002F020FC02F078FC4FF4167002F0B4F9F6
:100E20004FF4C872B721012002F014FCC82240F22E
:100E30001711022002F00EFC02F066FC4FF416704F
:100E400002F0A2F94FF4C87240F26F11012002F0D3
:100E500001FCC822A921022002F0FCFB02F054FC94
:100E60004FF4167002F090F94FF4FA7240F2BB2181
:100E7000032002F0EFFB4FF4AF724FF40471042033
:100E800002F0E8FB02F040FC4FF47A7002F07CF9CB
:100E90004FF4967240F2F111012002F0DBFBFA22CE
:100EA000EA21022002F0D6FB4FF496724FF424712F
:100EB000032002F0CFFBFA224FF40971042002F064
:100EC000C9FB4FF4C87240F23E31052002F0C2FB6C
:100ED0004FF4C8729521062002F0BCFB4FF4C87293
:100EE00040F2DD11072002F0B5FB4FF4E17240F251
:100EF0004131082002F0AEFB4FF4C8724FF4EA71A2
:100F0000092002F0A7FB4FF4C87240F2DD110A205D
:100F100002F0A0FB02F0F8FB4FF47A7002F034F913
:100F20004FF496724FF4E471012002F093FB4FF4FA
:100F30009672D821022002F08DFB4FF496724FF486
:100F40003071032002F086FB4FF4967240F231219B
:100F5000042002F07FFB4FF4AF7240F2E91105204C
:100F600002F078FB4FF4AF7240F2E711062002F076
:100F700071FB02F0C9FB4FF47A7002F005F94FF4EF
:100F80007A7002F001F94FF4967002F0FDF810BD8E
:100F900010B54FF496724FF4F571012002F05AFB30
:100FA0004FF49672F721022002F054FB4FF4967230
:100FB00040F28A21032002F04DFB4FF496724FF469
:100FC0000A71042002F046FB4FF4167240F25331CE
:100FD000052002F03FFB4FF4FA72F021062002F0E8
:100FE00039FB02F091FB4FF47A7002F0CDF8C82083
:100FF00002F0CAF84FF487724FF4F371012002F047
:1010000029FB4FF48772D221022002F023FB4FF418
:10101000AF7240F2E121032002F01CFB4FF4AF72EB
:1010200040F2B121042002F015FB4FF4967240F219
:10103000CF21052002F00EFB4FF4967240F2ED1125
:10104000062002F007FB4FF4967240F2E7110720EA
:1010500002F000FB4FF4967240F25131082002F08A
:10106000F9FA4FF496724FF4E971092002F0F2FA9E
:101070004FF4967240F2DD110A2002F0EBFA02F012
:1010800043FB4FF47A7002F07FF8C82002F07CF83E
:10109000FA2240F24731012002F0DCFAFA224FF442
:1010A0002471022002F0D6FA02F02EFB4FF47A707F
:1010B00002F06AF84FF4167002F066F8C82240F2A7
:1010C0008221032002F0C6FA4FF4C87240F25B316D
:1010D000042002F0BFFA02F017FB4FF4167002F082
:1010E00053F8C82240F2E121032002F0B3FA4FF492
:1010F000C87240F2B121042002F0ACFA02F004FB05
:101100004FF4167002F040F8C82240F2822103200A
:1011100002F0A0FA4FF4C87240F25B31042002F0F2
:1011200099FA02F0F1FA4FF4167002F02DF8C82285
:1011300040F2E121032002F08DFA4FF4C87240F230
:10114000B121042002F086FA02F0DEFA4FF41670A4
:1011500002F01AF84FF496724FF4F371012002F086
:1011600079FA4FF49672D421022002F073FA4FF408
:10117000AF7240F2E121032002F06CFA4FF4AF723B
:1011800040F2B121042002F065FA4FF4967240F269
:10119000CF21052002F05EFA4FF4967240F2ED1175
:1011A000062002F057FA4FF4967240F2E71107203A
:1011B00002F050FA4FF4967240F25131082002F0DA
:1011C00049FA4FF496724FF4E971092002F042FA9D
:1011D0004FF4967240F2DD110A2002F03BFA02F061
:1011E00093FA4FF47A7001F0CFFFC82001F0CCFFE2
:1011F0004FF4967240F2C711012002F02BFA4FF41F
:101200008772DF21022002F025FA4FF4967240F235
:10121000B221032002F01EFA4FF4967240F23121FF
:10122000042002F017FA4FF496724FF4487105202B
:1012300002F010FA4FF49672B721062002F00AFA73
:1012400002F062FA4FF47A7001F09EFFC82001F0BC
:101250009BFF4FF4967240F2C711012002F0FAF999
:101260004FF49672DF21022002F0F4F94FF49672E7
:1012700040F2B721032002F0EDF94FF4967240F2EC
:101280003121042002F0E6F94FF4967240F2E511A4
:10129000052002F0DFF94FF4967240F2E5110620C6
:1012A00002F0D8F902F030FA4FF47A7001F06CFFD6
:1012B0004FF47A7001F068FF4FF47A7001F064FF28
:1012C00010BD10B54FF4C8724FF4F571012002F053
:1012D000C1F94FF4E172F721022002F0BBF94FF49B
:1012E000967240F28A21032002F0B4F94FF4AF72F3
:1012F0004FF40A71042002F0ADF94FF4167240F277
:101300005331052002F0A6F94FF4FA72F0210620BD
:1013100002F0A0F902F0F8F94FF47A7001F034FF0E
:10132000C82001F031FF4FF4967240F2D511012030
:1013300002F090F94FF496729F21022002F08AF990
:101340004FF4967240F2CB21032002F083F94FF460
:10135000967240F24721042002F07CF94FF4967215
:1013600040F2BE21052002F075F94FF4FA7240F206
:10137000DB11062002F06EF902F0C6F94FF47A7024
:1013800001F002FFC82001F0FFFE4FF4C872EC210B
:10139000012002F05FF94FF4C8724FF4BF710220D0
:1013A00002F058F94FF4C8724FF4FA71032002F0BA
:1013B00051F94FF4C87240F23531042002F04AF975
:1013C0004FF4FA724FF43C71052002F043F902F039
:1013D0009BF94FF42F7001F0D7FE4FF4967240F254
:1013E000D511012002F036F94FF496729F210220A8
:1013F00002F030F94FF4967240F2CB21032002F054
:1014000029F94FF4967240F24721042002F022F9A4
:101410004FF4967240F2BE21052002F01BF94FF402
:10142000967240F2DB11062002F014F902F06CF91A
:101430004FF42F7001F0A8FE4FF4C872EC21012088
:1014400002F008F94FF4C8724FF4BF71022002F0A5
:1014500001F94FF4C8724FF4FA71032002F0FAF860
:101460004FF4C87240F23531042002F0F3F84FF423
:10147000FA724FF43C71052002F0ECF802F044F9E6
:101480004FF42F7001F080FE4FF4967240F2D511A8
:10149000012002F0DFF84FF496729F21022002F043
:1014A000D9F84FF4967240F2CB21032002F0D2F823
:1014B0004FF4967240F24721042002F0CBF84FF42B
:1014C000967240F2BE21052002F0C4F84FF49672E5
:1014D00040F2DB11062002F0BDF802F015F94FF4DE
:1014E000487001F051FEC8224FF4F571012002F05E
:1014F000B1F8C822A821022002F0ACF8C8224FF4AB
:101500003271032002F0A6F8C8224FF40A710420B9
:1015100002F0A0F84FF496724FF44871052002F0E3
:1015200099F84FF4C872B721062002F093F802F040
:10153000EBF84FF4487001F027FE4FF4967240F23A
:10154000C711012002F086F84FF49672DF210220C5
:1015500002F080F84FF4967240F2C121032002F0AD
:1015600079F84FF4967240F23121042002F072F8BB
:101570004FF4967240F2E511052002F06BF84FF43B
:10158000967240F2E511062002F064F802F0BCF811
:101590004FF47A7001F0F8FD4FF47A7001F0F4FD29
:1015A0004FF47A7001F0F0FD10BD10B54FF4967253
:1015B00040F2F121012002F04DF84FF4C87240F2E0
:1015C0009721022002F046F84FF4AF724FF4DB711E
:1015D000032002F03FF84FF4AF7240F22F210420B5
:1015E00002F038F84FF4967240F2E511052002F04F
:1015F00031F8642240F2E711062002F02BF8C822ED
:1016000040F25B21072002F025F8C8224FF46571F3
:10161000082002F01FF8962240F2E311092002F0A0
:1016200019F8C8224FF402710A2002F013F802F0F0
:101630006BF84FF47A7001F0A7FDB42240F24A2112
:10164000082002F007F8462240F2F911072002F0C4
:1016500001F802F059F84FF47A7001F095FD4FF45B
:10166000487001F091FD4FF4E17240F24D310120DC
:1016700001F0F0FF4FF4967240F2A921022001F030
:10168000E9FFC82240F20F11032001F0E3FF4FF4FD
:10169000C872B321042001F0DDFF4FF496724FF4BD
:1016A000F371072001F0D6FF4FF4967240F28111DA
:1016B000082001F0CFFF02F027F84FF47A7001F014
:1016C00063FD4FF4967240F2B621022001F0C2FF92
:1016D0004FF4967240F21111032001F0BBFF4FF45A
:1016E0009672B621042001F0B5FF4FF4967240F2D5
:1016F000A911092001F0AEFF4FF42F7240F2A23180
:101700000A2001F0A7FF4FF48C724FF4C571072037
:1017100001F0A0FF4FF496724FF4C871082001F059
:1017200099FF01F0F1FF4FF47A7001F02DFD4FF4B5
:101730008C724FF4F071012001F08CFF4FF48C7229
:101740004FF4D771022001F085FF4FF4967240F2FA
:10175000F111032001F07EFF4FF4967240F23A211E
:10176000042001F077FF4FF4967240F2E511072054
:1017700001F070FFC82240F24621082001F06AFF04
:101780004FF4967240F2DF11092001F063FF4FF42D
:10179000967240F201310A2001F05CFF01F0B4FFC3
:1017A0004FF4AF6001F0F0FC4FF4967240F2C711B5
:1017B000012001F04FFFC822DF21022001F04AFF83
:1017C0004FF4167240F2C121032001F043FF4FF4A1
:1017D000967240F23121042001F03CFF4FF49672E2
:1017E00040F2F111072001F035FF4FF4C8724FF4B9
:1017F0005671082001F02EFF642240F2DF1109200B
:1018000001F028FF78224FF4FA710A2001F022FF3C
:1018100001F07AFF4FF4FA7001F0B6FC4FF4AF72AA
:101820004FF4FA710A2001F015FF01F06DFF4FF43B
:10183000487001F0A9FC4FF47A7001F0A5FC4FF458
:101840007A7001F0A1FC4FF47A7001F09DFC10BD9C
:1018500010B54FF4967240F21B21012001F0FAFE00
:101860004FF4C87240F29F11022001F0F3FE4FF4D2
:10187000AF7240F20F11032001F0ECFE4FF4AF7293
:10188000F021042001F0E6FE4FF496724FF4EF7160
:10189000072001F0DFFE64224FF45171082001F0AF
:1018A000D9FE962240F28711092001F0D3FE4FF4B1
:1018B000967240F2C1110A2001F0CCFE01F024FF23
:1018C0004FF47A7001F060FC82224FF439710A20E3
:1018D00001F0C0FE01F018FF4FF4487001F054FC15
:1018E000502240F2A511092001F0B4FE4FF44870D7
:1018F00001F04AFC4FF496724FF44671012001F05A
:10190000A9FE4FF4967240F29E21022001F0A2FE41
:101910004FF4967240F21511032001F09BFE4FF434
:101920009672D621042001F095FE4FF4967240F293
:10193000FD11092001F08EFE4FF496724FF475717F
:101940000A2001F087FE01F0DFFE4FF47A7001F00B
:101950001BFC4FF4967240F20321072001F07AFE3F
:101960004FF42F724FF4C771082001F073FE4FF44B
:10197000AF7240F29221092001F06CFE01F0C4FE2A
:101980004FF47A7001F000FC4FF4967240F2B511FA
:10199000022001F05FFE4FF4967240F2F71103202F
:1019A00001F058FE4FF496724FF40071042001F0DC
:1019B00051FE4FF4967240F2F111072001F04AFEF9
:1019C0004FF4967240F22E21082001F043FE4FF4AE
:1019D000967240F21321092001F03CFE4FF4AF72E1
:1019E00040F22A310A2001F035FE01F08DFE4FF45D
:1019F000617001F0C9FB4FF4967240F2C7110120EB
:101A000001F028FE4FF41672DF21022001F022FEC1
:101A1000C82240F2C121032001F01CFE4FF496724F
:101A200040F23121042001F015FE4FF4967240F28D
:101A3000E511052001F00EFE4FF4967240F2E5111B
:101A4000062001F007FE4FF48C7240F2F1110720DE
:101A500001F000FE8C224FF45671082001F0FAFDCF
:101A60004FF4AF724FF4E971092001F0F3FD4FF428
:101A700048724FF4F5710A2001F0ECFD01F044FECC
:101A80004FF47A7001F080FB4FF47A7001F07CFB28
:101A90004FF47A7001F078FB10BD10B54FF49672D8
:101AA00040F21B21012001F0D5FD4FF4C87240F235
:101AB0009F11022001F0CEFD4FF4AF7240F20F11E2
:101AC000032001F0C7FD4FF4AF72F021042001F0B4
:101AD000C1FD4FF496724FF4EF71072001F0BAFD8B
:101AE00064224FF45171082001F0B4FD962240F2B7
:101AF0008711092001F0AEFD4FF4967240F2C1113A
:101B00000A2001F0A7FD01F0FFFD4FF47A7001F00B
:101B10003BFB82224FF439710A2001F09BFD5022D9
:101B200040F2C311092001F095FD01F0EDFD4FF4E5
:101B30007A7001F029FB4FF4487001F025FB4FF457
:101B400096724FF44671012001F084FD4FF49672B5
:101B500040F29E21022001F07DFD4FF4967240F28A
:101B60001511032001F076FD4FF49672D621042062
:101B700001F070FD4FF4967240F2FD11092001F062
:101B800069FD4FF496724FF475710A2001F062FD01
:101B900001F0BAFD4FF47A7001F0F6FA4FF4967244
:101BA00040F20321072001F055FD4FF42F724FF44E
:101BB000C771082001F04EFD4FF4AF7240F2922140
:101BC000092001F047FD01F09FFD4FF47A7001F00C
:101BD000DBFA01F099FD4FF47A7001F0D5FA4FF479
:101BE0007A7001F0D1FA4FF47A7001F0CDFA10BD9D
:101BF00010B54FF4C8724FF4F571012001F02AFDC1
:101C00004FF4E172F721022001F024FD4FF49672A7
:101C100040F28A21032001F01DFD4FF4AF724FF412
:101C20000A71042001F016FD4FF4167240F2533190
:101C3000052001F00FFD4FF4FA72F021062001F0AB
:101C400009FD01F061FD4FF4487001F09DFA4FF479
:101C500096724FF4C871022001F0FCFC4FF49672AA
:101C60004FF4F471032001F0F5FC4FF49672FD215E
:101C7000062001F0EFFC01F047FD4FF4FA7001F08F
:101C800083FA4FF4967240F29321012001F0E2FCB6
:101C90004FF4967240F2B711022001F0DBFC4FF4D2
:101CA00096724FF4E771032001F0D4FC4FF4967262
:101CB00040F28311042001F0CDFC4FF496724FF4F2
:101CC000A071052001F0C6FC4FF49672AA210620EF
:101CD00001F0C0FC01F018FD4FF4487001F054FA17
:101CE0004FF47A7001F050FA4FF4FA72D2210820C2
:101CF00001F0B0FC01F008FD4FF47A7001F044FAF5
:101D0000C82001F041FAC8224FF4F371052001F018
:101D1000A1FC4FF4967240F24711092001F09AFCA1
:101D200001F0F2FC4FF47A7001F02EFA4FF4AF722A
:101D300040F2E511072001F08DFC4FF496724FF44C
:101D40000571082001F086FC4FF496724FF4E9719A
:101D5000092001F07FFC4FF496724FF44D710A2078
:101D600001F078FC01F0D0FC4FF47A7001F00CFA2D
:101D70004FF4967240F2E511062001F06BFC01F081
:101D8000C3FC4FF47A7001F0FFF94FF4967240F201
:101D9000F111072001F05EFC4FF496724FF456717A
:101DA000082001F057FC4FF496724FF4FA710A20A4
:101DB00001F050FC01F0A8FC4FF47A7001F0E4F956
:101DC0004FF4167001F0E0F94FF4AF7240F20121C8
:101DD000012001F03FFC4FF4AF7240F27721022066
:101DE00001F038FC4FF4AF7240F22311032001F0F0
:101DF00031FC4FF4AF724FF40271042001F02AFC61
:101E000001F082FC4FF47A7001F0BEF94FF47A7061
:101E100001F0BAF9FA2240F20531012001F01AFC72
:101E2000FA224FF4BD71022001F014FCFA224FF4A3
:101E3000FF71032001F00EFCFA224FF4917104208F
:101E400001F008FC01F060FC4FF47A7001F09CF99D
:101E5000C82001F099F9C822A821062001F0FAFB58
:101E600001F052FC4FF47A7001F08EF94B224FF4DE
:101E70009F71052001F0EEFB01F046FC4FF47A70F3
:101E800001F082F94FF4967240F21F21012001F017
:101E9000E1FB4FF496724FF4CC71022001F0DAFBB3
:101EA0004FF4967240F2E911032001F0D3FB4FF496
:101EB000967240F20E21042001F0CCFB4FF4967292
:101EC00040F29B21052001F0C5FB01F01DFC4FF401
:101ED000487001F059F94FF49672A821022001F0E0
:101EE000B9FB4FF496724FF43271032001F0B2FB4C
:101EF0004FF496724FF44871052001F0ABFB4FF49C
:101F00009672B721062001F0A5FB4FF4967240F2BD
:101F1000EF11072001F09EFB01F0F6FB4FF47A7001
:101F200001F032F94FF4967240F2C711012001F02E
:101F300091FB4FF49672DF21022001F08BFB4FF4EE
:101F4000967240F2C121032001F084FB4FF4967297
:101F500040F23121042001F07DFB4FF4967240F2F3
:101F6000E511052001F076FB4FF4967240F2E51181
:101F7000062001F06FFB4FF4967240F2EF1107203C
:101F800001F068FB01F0C0FB4FF47A7001F0FCF83F
:101F90004FF47A7001F0F8F84FF47A7001F0F4F829
:101FA00010BD10B54FF4C8724FF4F571012001F067
:101FB00051FB4FF4E172F721022001F04BFB4FF48B
:101FC000967240F28A21032001F044FB4FF4AF7275
:101FD0004FF40A71042001F03DFB4FF4167240F2F9
:101FE0005331052001F036FB4FF4FA72F021062040
:101FF00001F030FB01F088FB4FF4487001F0C4F8A9
:102000004FF496724FF4C871022001F023FB4FF495
:1020100096724FF4F471032001F01CFB4FF496729A
:10202000FD21062001F016FB01F06EFB4FF4FA7063
:1020300001F0AAF84FF4967240F29321012001F0CA
:1020400009FB4FF4967240F2B711022001F002FB37
:102050004FF496724FF4E771032001F0FBFA4FF44E
:10206000967240F28311042001F0F4FA4FF4967254
:102070004FF4A071052001F0EDFA4FF49672AA21F9
:10208000062001F0E7FA01F03FFB4FF4487001F041
:102090007BF84FF47A7001F077F84FF4FA72D2219E
:1020A000082001F0D7FA01F02FFB4FF47A7001F00D
:1020B0006BF8C82001F068F8C8224FF4F3710520CE
:1020C00001F0C8FA4FF4967240F24711092001F06E
:1020D000C1FA01F019FB4FF47A7001F055F84FF492
:1020E000AF7240F2E511072001F0B4FA4FF4967296
:1020F0004FF40571082001F0ADFA4FF496724FF4D9
:102100004D710A2001F0A6FA01F0FEFA4FF47A7040
:1021100001F03AF84FF4967240F2E511062001F012
:1021200099FA01F0F1FA4FF47A7001F02DF84FF4BA
:10213000967240F2F111072001F08CFA4FF496727A
:102140004FF45671082001F085FA4FF496724FF45F
:10215000E971092001F07EFA4FF496724FF4FA719A
:102160000A2001F077FA01F0CFFA4FF47A7001F00B
:102170000BF84FF4167001F007F84FF4AF7240F20D
:102180000121012001F066FA4FF4AF7240F277218D
:10219000022001F05FFA4FF4AF7240F223110320E6
:1021A00001F058FA4FF4AF724FF40271042001F0BD
:1021B00051FA01F0A9FA4FF47A7000F0E5FF4FF4FC
:1021C0007A7000F0E1FF4FF4AF724FF4067108200F
:1021D00001F040FA4FF4AF724FF44D710A2001F054
:1021E00039FA01F091FA4FF47A7000F0CDFF4FF414
:1021F000FA7000F0C9FF4FF4967240F2F111072017
:1022000001F028FA4FF496724FF45671082001F04D
:1022100021FA4FF496724FF4E971092001F01AFA8D
:102220004FF496724FF4FA710A2001F013FA01F09C
:102230006BFA4FF47A7000F0A7FFFA2240F20531F2
:10224000012001F007FAFA224FF4BD71022001F0DB
:1022500001FAFA224FF4FF71032001F0FBF9FA2290
:102260004FF49171042001F0F5F901F04DFA4FF4AB
:102270007A7000F089FFC82000F086FFC822A821EC
:10228000062001F0E7F901F03FFA4FF47A7000F010
:102290007BFF4B224FF49F71052001F0DBF901F029
:1022A00033FA4FF47A7000F06FFF4FF4967240F2F9
:1022B0001F21012001F0CEF94FF496724FF4CC713A
:1022C000022001F0C7F94FF4967240F2E9110320A1
:1022D00001F0C0F94FF4967240F20E21042001F093
:1022E000B9F94FF4967240F29B21052001F0B2F942
:1022F00001F00AFA4FF4487000F046FF4FF496726E
:10230000A821022001F0A6F94FF496724FF4327121
:10231000032001F09FF94FF496724FF448710520A5
:1023200001F098F94FF49672B721062001F092F966
:102330004FF4967240F2EF11072001F08BF901F093
:10234000E3F94FF47A7000F01FFF4FF4967240F2F9
:10235000C711012001F07EF94FF49672DF210220AF
:1023600001F078F94FF4967240F2C121032001F098
:1023700071F94FF4967240F23121042001F06AF9AC
:102380004FF4967240F2E511052001F063F94FF425
:10239000967240F2E511062001F05CF94FF4967256
:1023A00040F2EF11072001F055F901F0ADF94FF4BB
:1023B0007A7000F0E9FE4FF47A7000F0E5FE4FF419
:1023C0007A7000F0E1FE10BD10B54FF4967240F245
:1023D000F121012001F03EF94FF4C87240F297213B
:1023E000022001F037F94FF4AF724FF4DB71032094
:1023F00001F030F94FF4AF7240F22F21042001F0C8
:1024000029F94FF4967240F2E511052001F022F906
:10241000642240F2E711062001F01CF9C82240F2C4
:102420005B21072001F016F9C8224FF465710820DE
:1024300001F010F9962240F2E311092001F00AF9A7
:10244000C82240F216210A2001F004F901F05CF9DB
:102450004FF47A7000F098FE962240F24A2108204C
:1024600001F0F8F8322240F2F911072001F0F2F8F9
:1024700001F04AF94FF47A7000F086FE4FF448708C
:1024800000F082FE4FF4967240F22E21012001F0FE
:10249000E1F84FF4967240F20721022001F0DAF8D9
:1024A0004FF49672511D032001F0D4F84FF4967248
:1024B0004FF48671042001F0CDF84FF496724FF47A
:1024C000CD71082001F0C6F801F01EF94FF47A70C2
:1024D00000F05AFE4FF4967240F22721022001F0DC
:1024E000B9F84FF49672D121032001F0B3F84FF4FC
:1024F0009672F021042001F0ADF84FF4AF724FF462
:10250000B871072001F0A6F84FF4C8724FF45D715E
:102510000A2001F09FF801F0F7F84FF47A7000F00C
:1025200033FE4FF4FA7000F02FFEC82240F2C711BC
:10253000012001F08FF8C822DF21022001F08AF883
:10254000C82240F2F111072001F084F8C8224FF4AC
:102550005671082001F07EF8C8224FF4E971092075
:1025600001F078F8C8224FF4FA710A2001F072F8ED
:1025700001F0CAF84FF47A7000F006FE4FF47A705A
:1025800000F002FE4FF47A7000F0FEFDC8224FF416
:10259000A271022001F05EF8C82240F2D321082087
:1025A00001F058F8C82240F262210A2001F052F8E6
:1025B00001F0AAF84FF47A7000F0E6FDC822DF219E
:1025C000022001F047F8C8224FF45671082001F0AC
:1025D00041F8C8224FF4FA710A2001F03BF801F0EB
:1025E00093F84FF47A7000F0CFFDC8224FF4A27137
:1025F000022001F02FF8C82240F2D321082001F078
:1026000029F8C82240F261210A2001F023F801F0E4
:102610007BF84FF47A7000F0B7FDC822DF2102206A
:1026200001F018F8C8224FF45671082001F012F892
:10263000C8224FF4FA710A2001F00CF801F064F896
:102640004FF47A7000F0A0FDC82240F27F210220F2
:1026500001F000F8C822EC21032000F0FBFF1E224D
:102660004FF4AB71042000F0F5FFC82240F2F311E3
:10267000072000F0EFFFC82240F28D11082000F083
:10268000E9FF01F041F84FF47A7000F07DFD4FF45E
:102690007A7000F079FD4FF4FA7000F075FD4FF498
:1026A0007A7000F071FD4FF47A7000F06DFD4FF418
:1026B0007A7000F069FD10BD10B54FF496724FF4BA
:1026C000E471012000F0C6FF4FF4967240F2C12180
:1026D000022000F0BFFF4FF4967240F24D1103202C
:1026E00000F0B8FF4FF4967240F22221072000F06C
:1026F000B1FF4FF4967240F28531082000F0AAFF36
:102700004FF4967240F20F21092000F0A3FF4FF41E
:10271000967240F211210A2000F09CFF00F0F4FFB5
:102720004FF47A7000F030FDA0224FF416710720AC
:1027300000F090FFA0224FF46571082000F08AFF9E
:102740004FF47A7000F020FDC82000F01DFD5022EB
:102750004FF4E571092000F07DFFA02240F2FA312C
:102760000A2000F077FF00F0CFFF4FF47A7000F0FE
:102770000BFD4FF47A7000F007FDFA2240F25F2162
:10278000012000F067FFFA2240F29F21042000F0B0
:1027900061FFC8224FF4E571092000F05BFF00F0F3
:1027A000B3FF4FF4487000F0EFFCFA2240F28B11B7
:1027B000012000F04FFF4FF4AF7240F22B110420C4
:1027C00000F048FFC82240F28221092000F042FFB9
:1027D00000F09AFF4FF4487000F0D6FCFA2240F265
:1027E0005F21012000F036FFFA2240F29F210420F1
:1027F00000F030FFC8224FF4E571092000F02AFFF5
:1028000000F082FF4FF4487000F0BEFCFA2240F264
:102810008B11012000F01EFF4FF4AF7240F22B111C
:10282000042000F017FFC82240F28221092000F0A6
:1028300011FF00F069FF4FF47A7000F0A5FC4FF42F
:10284000C87000F0A1FCFA224FF4E271012000F000
:1028500001FFFA22DB21022000F0FCFEFA2240F206
:10286000C521032000F0F6FEFA224FF40171042086
:1028700000F0F0FEC8224FF4EA71092000F0EAFEF1
:10288000C8224FF4FA710A2000F0E4FE00F03CFF89
:102890004FF47A7000F078FC4FF4487000F074FC4C
:1028A000C8224FF4F971072000F0D4FEC82240F28C
:1028B0005A31082000F0CEFE00F026FF4FF47A7067
:1028C00000F062FCFA2240F2E511052000F0C2FEA1
:1028D000FA2240F2E711062000F0BCFE00F014FFDF
:1028E0004FF47A7000F050FC4FF496724FF4FF7181
:1028F000012000F0AFFE4FF496724FF4D671022023
:1029000000F0A8FE4FF4967240F2FD11032000F093
:10291000A1FE4FF4967240F22121042000F09AFEAD
:102920004FF4967240F20931052000F093FEC82260
:10293000D621062000F08EFE4FF496724FF4EE7111
:10294000072000F087FE642240F20E31082000F0DC
:1029500081FE4FF4967240F28111092000F07AFE58
:102960004FF496724FF4D7710A2000F073FE00F016
:10297000CBFE4FF47A7000F007FC9622F02108207D
:1029800000F068FE4FF496724FF4FA71072000F0E1
:1029900061FE00F0B9FE4FF47A7000F0F5FB4FF4E1
:1029A0007A7000F0F1FB4FF47A7000F0EDFB4FF419
:1029B00096724FF4AD71012000F04CFE4FF4967208
:1029C00040F23E21022000F045FE4FF496724FF493
:1029D0009B71032000F03EFE4FF4967240F2EB2113
:1029E000042000F037FE00F08FFE4FF42F7000F04F
:1029F000CBFB4FF496724FF42F71012000F02AFEAA
:102A00004FF4967240F20B11022000F023FE4FF4B7
:102A1000967240F2A221032000F01CFE4FF4967241
:102A2000DA21042000F016FE00F06EFE4FF47A70FA
:102A300000F0AAFB4FF496724FF4AD71012000F044
:102A400009FE4FF4967240F23E21022000F002FE91
:102A50004FF496724FF49B71032000F0FBFD4FF48E
:102A6000967240F2EB21042000F0F4FD00F04CFEE1
:102A70004FF47A7000F088FB4FF496724FF42F7188
:102A8000012000F0E7FD4FF4967240F20B11022096
:102A900000F0E0FD4FF4967240F2A221032000F016
:102AA000D9FD4FF49672DA21042000F0D3FD00F036
:102AB0002BFE4FF42F7000F067FB4FF496724FF42B
:102AC000FF71012000F0C6FD4FF496724FF4D671ED
:102AD000022000F0BFFD4FF4967240F2FD1103207A
:102AE00000F0B8FD4FF4967240F22121042000F06E
:102AF000B1FD00F009FE4FF47A7000F045FB96221C
:102B000040F2BE21022000F0A5FD9622FE21032006
:102B100000F0A0FD4FF4967240F23E31052000F027
:102B200099FDC82240F22111062000F093FDC82231
:102B30009F21082000F08EFD00F0E6FD4FF47A7032
:102B400000F022FBC82000F01FFB4FF496724FF4F8
:102B50001171012000F07EFD4FF496724FF4C071A8
:102B6000042000F077FD00F0CFFD4FF47A7000F004
:102B70000BFB4FF4967000F007FB4FF496724FF486
:102B8000FF71012000F066FD4FF496724FF4D6718C
:102B9000022000F05FFD4FF4967240F2FD11032019
:102BA00000F058FD4FF4967240F22121042000F00D
:102BB00051FD00F0A9FD4FF47A7000F0E5FA4FF4F2
:102BC000967240F2EB11072000F044FDC82240F25B
:102BD0002931082000F03EFD4FF496724FF4C27187
:102BE000092000F037FD4FF496724FF4D7710A2098
:102BF00000F030FD00F088FD4FF47A7000F0C4FA68
:102C00004FF47A7000F0C0FA4FF47A7000F0BCFA1A
:102C10004FF4967240F2E511052000F01BFD4FF4D1
:102C2000967240F2E511062000F014FD4FF4967202
:102C300040F2F111072000F00DFD4FF496724FF4B1
:102C40005671082000F006FD4FF496724FF4E971BA
:102C5000092000F0FFFC4FF496724FF4FA710A203D
:102C600000F0F8FC00F050FD4FF4487000F08CFAD2
:102C70004FF4967240F2C711012000F0EBFC4FF4C4
:102C80009672DF21022000F0E5FC4FF4967240F2CC
:102C9000C121032000F0DEFC4FF4967240F2312196
:102CA000042000F0D7FC00F02FFD4FF47A7000F004
:102CB0006BFA4FF47A7000F067FA10BD10B5642219
:102CC0004FF4E171092000F0C5FC00F01DFD4FF448
:102CD000FA7000F059FA4FF496724FF42F710120F8
:102CE00000F0B8FC4FF496724FF42A71022000F005
:102CF000B1FC4FF496724FF40071032000F0AAFC6F
:102D00004FF496724FF40071042000F0A3FCC82227
:102D10004FF4B971072000F09DFCC8224FF4B9713F
:102D2000092000F097FC00F0EFFC41F2883000F041
:102D30002BFA4FF42F7240F2C711012000F08AFCE9
:102D40004FF42F72DF21022000F084FC4FF46172F7
:102D50004FF49671072000F07DFC00F0D5FC4FF495
:102D60007A7000F011FA4FF42F721146082000F02B
:102D700071FC4FF42F724FF4E171072000F06AFCF0
:102D800000F0C2FC4FF4FA6000F0FEF94FF49672C6
:102D90004FF44371082000F05DFC4FF4967251002F
:102DA0000A2000F057FC00F0AFFC4FF47A7000F0FE
:102DB000EBF996224FF45671082000F04BFC4FF4CB
:102DC000967240F2F111072000F044FC4FF4967225
:102DD00040F226210A2000F03DFC4FF4967240F2AA
:102DE0002621092000F036FC00F08EFC4FF47A70AA
:102DF00000F0CAF964224FF4FA710A2000F02AFCAC
:102E000064224FF4E171092000F024FC00F07CFC06
:102E10004FF47A7000F0B8F94FF496724FF42F71B6
:102E2000012000F017FC4FF496724FF42A71022033
:102E300000F010FC4FF496724FF40071032000F084
:102E400009FC4FF496724FF40071042000F002FC6C
:102E5000C8224FF4B971072000F0FCFBC8224FF4E0
:102E6000B971092000F0F6FB00F04EFC41F2883009
:102E700000F08AF94FF42F7240F2C711012000F0E0
:102E8000E9FB4FF42F72DF21022000F0E3FB4FF447
:102E900061724FF49671072000F0DCFB00F034FC07
:102EA0004FF47A7000F070F94FF42F721146082039
:102EB00000F0D0FB4FF42F724FF4E171072000F0C7
:102EC000C9FB00F021FC4FF4FA6000F05DF94FF40B
:102ED00096724FF44371082000F0BCFB4FF49672D9
:102EE00051000A2000F0B6FB00F00EFC4FF47A709F
:102EF00000F04AF996224FF45671082000F0AAFB20
:102F00004FF4967240F2F111072000F0A3FB4FF44A
:102F1000967240F226210A2000F09CFB4FF4967234
:102F200040F22621092000F095FB00F0EDFB4FF464
:102F30007A7000F029F9FDF797FA4FF4965000F0F7
:102F400023F9FEF7AAFD10BD10B54FF4C8724FF477
:102F5000F571012000F07EFB4FF4E172F7210220B1
:102F600000F078FB4FF4967240F28A21032000F0C3
:102F700071FB4FF4AF724FF40A71042000F06AFB4A
:102F80004FF4167240F25331052000F063FB4FF40A
:102F9000FA72F021062000F05DFB00F0B5FB4FF463
:102FA0007A7000F0F1F8C82000F0EEF84FF4967255
:102FB00040F20531012000F04DFB4FF496724FF4C2
:102FC000BD71022000F046FB4FF496724FF4FF7182
:102FD000032000F03FFB4FF496724FF491710420F0
:102FE00000F038FB4FF496724FF4A071052000F00A
:102FF00031FB4FF49672AA21062000F02BFB00F063
:1030000083FB4FF4487000F0BFF84FF47A7000F083
:10301000BBF84FF4FA72D221082000F01BFB00F03D
:1030200073FB4FF47A7000F0AFF8C82000F0ACF8F2
:103030004FF496724FF4F571032000F00BFB4FF440
:1030400096724FF49B71042000F004FB00F05CFBCF
:10305000C82000F099F84FF448725110092000F090
:10306000F9FA962240F20321052000F0F3FA00F06D
:103070004BFB4FF47A7000F087F84FF4967240F2F1
:103080001E21082000F0E6FA4FF496724FF4E97121
:10309000092000F0DFFA4FF4A5724FF44D710A20B9
:1030A00000F0D8FA00F030FB4FF4487000F06CF8F4
:1030B0004FF496724FF45671082000F0CBFA4FF49B
:1030C00096724FF4EB71062000F0C4FA4FF496723A
:1030D00040F2F111072000F0BDFA4FF496724FF460
:1030E000E971092000F0B6FAFA2251000A2000F036
:1030F000B1FA00F009FB4FF47A7000F045F8C820EF
:1031000000F042F810BD00004FF0E021096921F005
:1031100004014FF0E0221161C21700EB5272C2F3BA
:10312000C7022B4B1A701946097801EB4102C2EB1A
:10313000C1114FF6FF7202EAC101264A11807047A1
:103140000146234A12784A434FF0E0235A61002295
:103150009A611A46126942F001021A6100BF4FF0EB
:10316000E022106900F001021AB100F48032002A56
:10317000F5D04FF0E022126922F001024FF0E02377
:103180001A6100229A6170470146124A12884A4326
:103190004FF0E0235A6100229A611A46126942F008
:1031A00001021A6100BF4FF0E022106900F0010235
:1031B0001AB100F48032002AF5D04FF0E0221269F3
:1031C00022F001024FF0E0231A6100229A61704759
:1031D000140000201600002010B54FF4A06000F08D
:1031E000FBFA10BD3A4A0A4002433A4B1A60704754
:1031F00000B5002038490861C860142048610020EB
:103200008861C8610846006840F00100086008460F
:1032100040683249084030494860084600683049F3
:1032200008402D4908600846006820F480200860A6
:103230000846406820F4FE004860002088600021B5
:103240004FF00060FFF7CEFF00BD30B5044600250B
:10325000FFF7CEFF2048006840F480301E49086028
:1032600000BF1D480068400C0028FAD04FF4806071
:1032700019494860A01EC4B20846406840EA84402C
:1032800048600846406840F480304860154800684F
:1032900040F03200134908600F48006840F0807029
:1032A0000D49086000BF0C480068400E0028FAD0A5
:1032B0000948406840F002000749486005E00648B8
:1032C0004068C0F3870505F00305022DF7D130BD36
:1032D00080FFFF1F08ED00E0001002400000FFF833
:1032E000FFFFF6FE00200240014600BF704770B5A8
:1032F00004460D4600BF4021FE4801F005F80028B5
:10330000F9D0E1B2FB4800F091FF204670BD10B546
:1033100086B004460121080500F0F5FD01211020CA
:1033200000F0E4FD0121202000F0E0FD4FF480508A
:10333000ADF8140003208DF8160018208DF8170042
:1033400005A9ED4800F016FB4FF48050ADF81400CD
:1033500010208DF8170003208DF8160005A9E74806
:1033600000F008FB4FF48051E44800F0B0FB0194FA
:103370000020ADF80800ADF80A00ADF80C00ADF87B
:1033800010000C20ADF80E0001A9DA4800F055FE3F
:103390000121D84800F0DDFE06B010BD7047D549C8
:1033A000888000BFD349098801F040010029F9D085
:1033B00070472DE9FC5F06460C4615460027B846C7
:1033C000B946BA46BB46002001900090B5F5806F23
:1033D00002DB40F2FF3700E02F46B4F5806F02DBDE
:1033E00040F2FF3800E0A0464FEA272907F0FF0A25
:1033F0004FEA282B08F0FF000190FF20FFF7CFFFD6
:10340000FF20FFF7CCFF3046FFF7C9FF0720FFF78B
:10341000C6FF0320FFF7C3FF0620FFF7C0FF019898
:10342000FFF7BDFF5846FFF7BAFF5046FFF7B7FF5B
:103430004846FFF7B4FF06F11000019908445844CC
:1034400050444844C0B200900098C043C0B20090BD
:103450000098FFF7A4FF00BFA648008800F04000D6
:103460000028F9D00220FFF78FFEBDE8FC9F2DE970
:10347000FC5F06460C4615460027B846B946BA46D4
:10348000BB46002001900090B5F5806F02DB40F252
:10349000FF3700E02F46B4F5806F02DB40F2FF38C3
:1034A00000E0A0464FEA272907F0FF0A4FEA282B41
:1034B00008F0FF000190FF20FFF771FFFF20FFF7EA
:1034C0006EFF3046FFF76BFF0720FFF768FF032012
:1034D000FFF765FF1E20FFF762FF0198FFF75FFF10
:1034E0005846FFF75CFF5046FFF759FF4846FFF785
:1034F00056FF06F1280001990844584450444844B6
:10350000C0B200900098C043C0B200900098FFF78E
:1035100046FF00BF7748008800F040000028F9D03F
:103520000220FFF731FEBDE8FC9F2DE9F04F8BB084
:1035300081460C4615461E46DDE914784FF0000A18
:10354000D34600200A9009900890079006900590B5
:1035500004900390029001900090A346AA4605971C
:10356000CDF818804FEA2A200A900AF0FF0009904F
:103570004FEA2B2008900BF0FF000790DDF8188031
:103580004FEA28200490DDF8188008F0FF0003902F
:10359000059F38120290059FF8B20190FF20FFF7B7
:1035A000FEFEFF20FFF7FBFEFE20FFF7F8FE0E20D9
:1035B000FFF7F5FE8320FFF7F2FE1E20FFF7EFFE78
:1035C0000420FFF7ECFE4846FFF7E9FE0798FFF7F7
:1035D000E6FE0898FFF7E3FE0998FFF7E0FE0A9879
:1035E000FFF7DDFE3046FFF7DAFE0198FFF7D7FE62
:1035F0000298FFF7D4FE0398FFF7D1FE0498FFF777
:10360000CEFE09F2B11081190798014408980144CF
:10361000099801440A980144019801440298014420
:103620000398014404980844C0B200900098C04335
:10363000C0B200900098FFF7B2FE00BF2D4800888E
:1036400000F040000028F9D00220FFF79DFD0BB0EC
:10365000BDE8F08F2DE9FC5F06460C4615460027B5
:10366000B846B946BA46BB460020019000902F46A6
:10367000A0464FEA272907F0FF0A4FEA282B08F057
:10368000FF000190FF20FFF78AFEFF20FFF787FE73
:103690003046FFF784FE0720FFF781FE0420FFF786
:1036A0007EFE1E20FFF77BFE0198FFF778FE58464E
:1036B000FFF775FE5046FFF772FE4846FFF76FFEB4
:1036C00006F1290001990844584450444844C0B2C6
:1036D00000900098C043C0B200900098FFF75FFED2
:1036E00000BF0448008800F040000028F9D0022004
:1036F00006E00000005000400010014000140140AE
:10370000FFF742FDBDE8FC9F10B50024FF20FFF746
:1037100046FEFF20FFF743FEFE20FFF740FE02209B
:10372000FFF73DFE0520FFF73AFE0524E043C4B253
:103730002046FFF734FE00BF1648008800F0400026
:103740000028F9D00220FFF71FFD10BD70B5044618
:103750000025FF20FFF723FEFF20FFF720FE204675
:10376000FFF71DFE0220FFF71AFE0120FFF717FEEC
:10377000E01CC5B2E843C5B22846FFF710FE00BF03
:103780000448008800F040000028F9D00220FFF72C
:10379000FBFC70BD005000400948804709480047C5
:1037A000FEE7FEE7FEE7FEE7FEE7FEE7FEE7FEE7F1
:1037B000FEE7FEE704480549054A064B704700004E
:1037C0001B03000831010008900000209006002033
:1037D000900200209002002031490143314A1160DB
:1037E000704770B5002100230F22C47804B32D4C1C
:1037F000246804F4E064C4F5E064210AC1F1040320
:10380000CA40447804FA03F1847814402143090142
:10381000254C0678A155047804F01F050124AC401E
:1038200005786D11AD0005F1E025C5F8004109E00E
:10383000047804F01F050124AC401C4D0678761175
:1038400045F8264070BD1A4A0A400243154B1B1F1B
:103850001A60704739B1134A121D12680243114BA6
:103860001B1D1A6006E00F4A121D126882430D4BA1
:103870001B1D1A607047042808D14FF0E021096928
:1038800041F004014FF0E022116107E04FF0E02128
:10389000096921F004014FF0E02211617047000036
:1038A0000000FA050CED00E000E400E080E100E03B
:1038B00080FFFF1F10B50446CC48844208D1012187
:1038C000042000F02DFB0021042000F029FB46E03D
:1038D000C748844208D10121082000F021FB0021C3
:1038E000082000F01DFB3AE0C248844208D10121C3
:1038F000102000F015FB0021102000F011FB2EE03D
:10390000BD48844208D10121202000F009FB00219C
:10391000202000F005FB22E0B848844208D10121B4
:10392000402000F0FDFA0021402000F0F9FA16E0F6
:10393000B348844208D10121802000F0F1FA00212F
:10394000802000F0EDFA0AE0AE48844207D1012160
:10395000801500F0E5FA0021A01500F0E1FA10BD95
:1039600010B50121084600F0DBFA0021012000F02B
:10397000D7FA10BD2DE9F0410246002500260020AF
:1039800000230024002791F803C00CF00F0591F8E4
:1039900003C00CF0100CBCF1000F03D091F802C072
:1039A0004CEA050591F800C0BCF1000F31D0146855
:1039B00000202BE04FF0010C0CFA00F3B1F800C02E
:1039C0000CEA03069E4220D183004FF00F0C0CFA44
:1039D00003F7BC4305FA03FC4CEA040491F803C066
:1039E000BCF1280F06D14FF0010C0CFA00FCC2F814
:1039F00014C00AE091F803C0BCF1480F05D14FF0A4
:103A0000010C0CFA00FCC2F810C0401C0828D1D3ED
:103A10001460B1F800C0BCF1FF0F34DD5468002021
:103A20002EE000F1080C4FF0010808FA0CF3B1F891
:103A300000C00CEA03069E4221D183004FF00F0C18
:103A40000CFA03F7BC4305FA03FC4CEA040491F8B2
:103A500003C0BCF1280F05D100F1080C08FA0CF8DE
:103A6000C2F8148091F803C0BCF1480F07D100F1EF
:103A7000080C4FF0010808FA0CF8C2F81080401C3E
:103A80000828CED35460BDE8F0814FF6FF71018065
:103A9000022181700421C1707047024600209368A2
:103AA0000B400BB1012000E0002070470146886800
:103AB00080B2704702460020D3680B400BB1012052
:103AC00000E0002070470146C86880B2704701617D
:103AD0007047416170470AB1016100E04161704780
:103AE000C16070474FF480320A4382618161826114
:103AF00082698269704702460020434B18684FF67E
:103B00008073184040EA021008433F4B186070472A
:103B10003E49C8617047F0B50A46002300240021E1
:103B2000002500F00046B6F1004F02D1364EF16993
:103B300001E0354E7168C0F3034583B200F44016CE
:103B4000B6F5401F08D121F070612F4E766826F03F
:103B500070662D4F7E6012E000F48016B6F5801F6F
:103B600006D1032606FA05F4A14341F0706106E090
:103B7000460D360103FA06F6B14341F0706122B1F9
:103B8000460D360103FA06F6314300F00046B6F161
:103B9000004F02D11C4EF16101E01B4E7160F0BD7F
:103BA00030B500228B071C0F0F2303FA04F2164BCB
:103BB00008338C1053F824309343134C08348D1081
:103BC00044F8253023468C1053F824308C07240FFA
:103BD00000FA04F423430C4C08348D1044F82530CB
:103BE00030BD0A49DC310860704700000008014020
:103BF000000C014000100140001401400018014079
:103C0000001C014000200140000001400000204253
:103C1000DF48006840F00100DD4908600846406860
:103C2000DC490840DA49486008460068DA4908403B
:103C3000D74908600846006820F4802008600846DC
:103C4000406820F4FE0048604FF41F008860704711
:103C5000CF49096821F48031CD4A116011460968C5
:103C600021F480211160B0F5803F03D0B0F5802FA2
:103C70000ED106E0C649096841F48031C44A11609A
:103C800007E0C349096841F4A021C14A116000E07E
:103C900000BF00BF704710B501460022002300207E
:103CA0004A11012A02D1BA4C236806E0022A02D145
:103CB000B74C236A01E0B64C636A01F01F0201248D
:103CC00094401C400CB1012000E0002010BD38B52C
:103CD000002000900024002500BF3120FFF7DBFF0B
:103CE00005460098401C00900098B0F5A06F01D0E8
:103CF000002DF2D03120FFF7CEFF08B1012400E003
:103D00000024204638BD01460020A14A106820F05A
:103D1000F80040EAC10010607047A0490860704791
:103D2000024600209A4B586820F47C1042EA0103B6
:103D30001843974B5860704798490866704701468A
:103D40000020934A506820F00300084350607047F9
:103D50008F48406800F00C007047014600208C4AF4
:103D6000506820F0F0000843506070470146002082
:103D7000874A506820F4E06008435060704701466D
:103D80000020834A506820F4605040EAC10050602F
:103D9000704729B17E4A527A02437D4B5A7204E041
:103DA0007B4A527A82437A4B5A7270477B49D831A8
:103DB0000860704701460020754A506820F4404072
:103DC0000843506070470021714A20321170704AD8
:103DD00082F82010012802D004280AD104E0012131
:103DE0006B4A2032117005E00521694A20321170BA
:103DF00000E000BF00BF7047694908607047644930
:103E0000096A0143624A1162704765494439086092
:103E1000704730B500210022002400235C4D6D68FE
:103E200005F00C0121B1042905D0082923D105E0B2
:103E30005C4D056022E05B4D05601FE0544D6D68F0
:103E400005F47012524D6D6805F48034022505EBBF
:103E500092421CB9544D554305600BE04C4D6D68C2
:103E600005F400351DB1504D5543056002E04D4D40
:103E70005543056002E04B4D056000BF00BF444D57
:103E80006D6805F0F0010909484D6B5C0568DD407F
:103E900045603F4D6D6805F4E061090A434D6B5C78
:103EA0004568DD4085603A4D6D6805F46051C90A8A
:103EB0003E4D6B5C4568DD40C560354D6D6805F471
:103EC0004041890B3A4D6B5CC568B5FBF3F5056164
:103ED00030BD29B12E4A526902432D4B5A6104E08C
:103EE0002B4A526982432A4B5A61704729B1284AAA
:103EF00092690243264B9A6104E0254A9269824303
:103F0000234B9A61704729B1214AD2690243204B61
:103F1000DA6104E01E4AD26982431D4BDA617047C0
:103F200029B11B4AD2680243194BDA6004E0184AEF
:103F3000D2688243164BDA60704729B1144A12697D
:103F40000243134B1A6104E0114A12698243104B79
:103F50001A61704712494039086070470F49C864B8
:103F600070470B49C87170470948406A40F080703B
:103F700007494862704701460020054A92680A4096
:103F80000AB1012000E000207047014988727047A3
:103F9000001002400000FFF8FFFFF6FE0000424262
:103FA0008004424200127A0000093D0018000020FF
:103FB0002800002010B50446FB48844209D10121A5
:103FC0008803FFF7ADFF00214FF48040FFF7A8FF03
:103FD00032E0F648844209D101214804FFF7ADFFE1
:103FE00000214FF40030FFF7A8FF25E0F04884429D
:103FF00009D101218804FFF7A0FF00214FF48020A0
:10400000FFF79BFF18E0EB48844209D10121C80467
:10401000FFF793FF00214FF40020FFF78EFF0BE026
:10402000E548844208D101210805FFF786FF0021F9
:104030004FF48010FFF781FF10BD2DE9F04786B0E7
:1040400005460E460024A24600BFA1460027B089BF
:1040500000B100BF2F462C8A4CF6FF700440F08858
:1040600004432C82AC894EF6F3100440B0883189A9
:104070000843718908430443AC81AC8A4FF6FF4082
:104080000440B0890443AC8201A8FFF7C2FEC648D1
:10409000874202D1DDF810A001E0DDF80CA0A8896C
:1040A00000F4004040B10AEBCA0000EB0A1031688E
:1040B0004900B0FBF1F807E00AEBCA0000EB0A1078
:1040C00031688900B0FBF1F86420B8FBF0F004011E
:1040D0002009642101FB1089A88900F4004040B147
:1040E000322000EBC900B0FBF1F000F00700044300
:1040F00008E0322000EB09106421B0FBF1F000F081
:104100000F0004432C8106B0BDE8F0874FF4165130
:10411000016000218180C18001810C214181002149
:104120008181704710B502460020108A4FF2FF03CC
:1041300018400B884C8823438C882343CC88234326
:104140001843108210BD0021018041808180C18010
:10415000704721B1828942F40052828104E0828951
:104160004DF6FF731A4082817047F0B50346002474
:1041700000260025002040F66A17B94200D100BF92
:104180001846C1F3421401F01F06012707FA06F58D
:10419000012C01D10C3004E0022C01D1103000E0E0
:1041A00014301AB107682F43076002E00768AF4375
:1041B0000760F0BD1AB1838A0B43838202E0838AD1
:1041C0008B4383827047028A4FF6F0731A40028253
:1041D000028A0A430282704782894FF2FF731A40B3
:1041E000828182890A438281704721B1828942F0AB
:1041F0000202828104E082894FF6FD731A408281B7
:104200007047028A4FF6DF731A400282028A0A431D
:104210000282704721B1028A42F48042028204E0A5
:10422000028A4BF6FF731A4002827047C1F30802FC
:104230008280704701468888C0F3080070478189F2
:1042400041F0010181817047028BD2B20283028B5F
:1042500042EA012202837047028B02F47F4202830A
:10426000028B0A430283704721B1828A42F0200206
:10427000828204E0828A4FF6DF731A40828270479E
:1042800021B1828A42F01002828204E0828A4FF6D3
:10429000EF731A408282704721B1828A42F008028D
:1042A000828204E0828A4FF6F7731A408282704756
:1042B00021B1828942F40042828103E08289C2F303
:1042C0000E028281704721B1828A42F400628282AA
:1042D00004E0828A4FF2FF731A4082827047828A1A
:1042E0004FF6FB731A408282828A0A4382827047A9
:1042F00021B1828A42F00202828204E0828A4FF671
:10430000FD731A408282704702460020B1F5007F9B
:1043100000D100BF13880B400BB1012000E000204A
:10432000704701F40072B2F5007F00D100BFCA43AC
:104330000280704770B5024600240023002500204B
:1043400040F66A16B14200D100BFC1F3421501F038
:104350001F03012606FA03F3012D02D1968933408B
:1043600006E0022D02D1168A334001E0968A3340DE
:104370000C12012606FA04F41688344013B10CB16D
:10438000012000E0002070BD10B50022002340F69F
:104390006A14A14200D100BF0A1201249440A3B2C2
:1043A000DC43048010BD00000038014000440040A0
:1043B00000480040004C00400050004070477047EB
:1043C0007047754600F02CF8AE4605006946534626
:1043D00020F00700854618B020B5FFF7EBF9BDE8DF
:1043E00020404FF000064FF000074FF000084FF05C
:1043F000000B21F00701AC46ACE8C009ACE8C009ED
:10440000ACE8C009ACE8C0098D46704710B5044659
:10441000AFF300802046BDE81040FBF7D0BE00009F
:10442000004870472C00002048440008000000208D
:104430002C0000006C010008744400082C000020CF
:10444000640600008801000800A24A040000000081
:104450000000000001020304060708090000000034
:10446000000000000102030401020304060708091A
:044470000204060834
:0400000508000131BD
:00000001FF
