:020000040800F2
:1000000090060020B93E00082102000823020008E3
:10001000270200082B0200082F0200080000000041
:100020000000000000000000000000003302000893
:1000300035020008000000003702000839020008FD
:10004000D33E0008D33E0008D33E0008D33E00084C
:10005000D33E0008D33E0008D33E0008D33E00083C
:10006000D33E0008D33E0008D33E0008D33E00082C
:10007000D33E0008D33E0008D33E0008D33E00081C
:10008000D33E0008D33E0008D33E0008D33E00080C
:10009000D33E0008D33E0008D33E0008D33E0008FC
:1000A000D33E0008D33E0008D33E0008D33E0008EC
:1000B000D33E0008D33E0008D33E0008D33E0008DC
:1000C000D33E0008D33E0008D33E0008D33E0008CC
:1000D000D33E0008D33E0008D33E0008D33E0008BC
:1000E000D33E0008D33E0008D33E0008D33E0008AC
:1000F000D33E0008D33E0008D33E0008D33E00089C
:10010000D33E0008D33E0008D33E0008D33E00088B
:10011000D33E0008BD3A0008D33E0008D33E000895
:10012000D33E0008D33E0008D33E0008D33E00086B
:1001300000F002F800F03AF80AA090E8000C8244BF
:100140008344AAF10107DA4501D100F02FF8AFF29C
:10015000090EBAE80F0013F0010F18BFFB1A43F0A5
:1001600001031847E4490000044A0000103A24BF84
:1001700078C878C1FAD8520724BF30C830C144BF0C
:1001800004680C607047000000230024002500264E
:10019000103A28BF78C1FBD8520728BF30C148BFEA
:1001A0000B6070471FB51FBD10B510BD04F099FC62
:1001B0001146FFF7F7FF00F009F804F0B7FC03B4AD
:1001C000FFF7F2FF03BC03F01FFC0000092003F05F
:1001D000CCFB482003F028FB104803F028FC00F07B
:1001E0001DF940F2FF3200210A2003F072FC40F2B8
:1001F000FF3200210C2003F06CFC0DE04FF47A700C
:1002000003F052FB00F031F94FF4FA7003F04CFBAD
:1002100000F0D8FB00BFFEE7F0E7000020A10700D8
:10022000704700BFFEE700BFFEE700BFFEE700BF6C
:10023000FEE7704770477047704700000CB500201C
:10024000019000906C48006840F480306A49086072
:1002500000BF6948006800F4003000900198401C1D
:100260000190009818B90198B0F5A06FF1D16248DB
:10027000006800F4003010B10120009001E000207F
:1002800000900098012843D15C48006840F01000BD
:100290005A4908600846006820F0030008600846D4
:1002A000006840F0020008605348406852494860C6
:1002B0000846406848600846406840F480604860EE
:1002C0000846406820F47C1048600846406840F4C6
:1002D000E81048600846006840F08070086000BF81
:1002E0004548006800F000700028F9D04248406896
:1002F00020F00300404948600846406840F0020092
:10030000486000BF3C48406800F00C000828F9D164
:100310000CBD10B5FFF792FF10BD10B53648006850
:1003200040F00100344908600846406834490840FC
:100330003149486008460068324908402E49086043
:100340000846006820F4802008600846406820F4D1
:10035000FE0048604FF41F008860FFF7DAFF4FF09F
:1003600000602949086010BD10B50021002000225E
:10037000214B5B6803F00C0121B1042906D0082948
:1003800028D107E0214B224C236027E01F4B204C53
:10039000236023E0184B5B6803F47010164B5B6816
:1003A00003F48032022303EB904022B9194B4343FC
:1003B000174C23600DE0104B5B6803F4003323B14E
:1003C000144B4343124C236003E0104B4343104C47
:1003D000236003E00D4B0E4C236000BF00BF064BB3
:1003E0005B68C3F303130C4CE15C094B1B68CB4007
:1003F000074C236010BD00000010024000200240A6
:100400000000FFF8FFFFF6FE08ED00E000127A00A2
:100410000000002000093D000400002008B5012173
:10042000482004F0F3F82020ADF8000010208DF8EB
:10043000030003208DF802006946094803F02AFEF4
:100440002021074803F0D3FE2020ADF800006946C4
:10045000044803F01FFE2021024803F0C8FE08BD37
:10046000000C014000180140704710B54FF496721F
:100470004FF4C771012003F07DFC4FF49672DF2129
:10048000022003F077FC4FF4967240F2C121032062
:1004900003F070FC4FF4967240F23121042003F017
:1004A00069FC4FF4967240F2E511052003F062FCFE
:1004B0004FF4967240F2E511062003F05BFC4FF416
:1004C000967240F2F111072003F054FC4FF496723B
:1004D0004FF45671082003F04DFC4FF496724FF420
:1004E000E971092003F046FC4FF496724FF4FA715B
:1004F0000A2003F03FFC03F097FC10BD10B54FF449
:10050000967240F21511062003F041FB4FF4FA7089
:1005100003F0CAF94FF496724FF4F871062003F015
:1005200036FB4FF4FA7003F0BFF910BD10B54FF46D
:10053000967240F2C111012003F01CFC4FF4FA72D4
:1005400040F27D21022003F015FC03F06DFC4FF416
:100550002F7003F0A9F94FF4FA7240F2AE21012096
:1005600003F008FCC82240F2B721022003F002FC8D
:1005700003F05AFC4FF4FA7003F096F94FF4FA7254
:1005800040F2C111012003F0F5FBC82240F27D21A9
:10059000022003F0EFFB03F047FC4FF4FA7003F086
:1005A00083F94FF4FA7240F2AE21012003F0E2FB2E
:1005B000C82240F27D21022003F0DCFB03F034FC72
:1005C0004FF4FA7003F070F94FF496724FF4C7715C
:1005D000012003F0CFFB4FF4FA72DF21022003F079
:1005E000C9FB03F021FC4FF47A7003F05DF94FF47E
:1005F0007A7003F059F94FF4967003F055F910BD75
:1006000010B54FF4C87240F2B111012003F0B2FBF3
:100610004FF4E172F721022003F0ACFB4FF4967225
:1006200040F28A21032003F0A5FB4FF4AF724FF490
:100630000A71042003F09EFB4FF4167240F253310E
:10064000052003F097FB4FF4FA72F021062003F027
:1006500091FB03F0E9FB4FF4487003F025F94FF4E8
:1006600096724FF4C871022003F084FB4FF4967227
:100670004FF4F471032003F07DFB4FF49672FD21DB
:10068000062003F077FB03F0CFFB4FF4FA7003F082
:100690000BF94FF4967240F26E21012003F06AFBD1
:1006A0004FF4967240F2B711022003F063FB4FF44F
:1006B00096724FF4E771032003F05CFB4FF49672DF
:1006C00040F26F11042003F055FB4FF4967211466F
:1006D000052003F04FFB4FF49672AA21062003F089
:1006E00049FB03F0A1FB4FF4487003F0DDF84FF431
:1006F0007A7003F0D9F84FF4FA72D221082003F08F
:1007000039FB03F091FB4FF47A7003F0CDF8C82069
:1007100003F0CAF84FF4967240F24711092003F033
:1007200029FB78224FF4F371052003F023FB03F03B
:100730007BFB4FF47A7003F0B7F84FF4AF7240F2DE
:10074000E511072003F016FB4FF496724FF4057184
:10075000082003F00FFB4FF496724FF4E971092063
:1007600003F008FB4FF496724FF44D710A2003F02A
:1007700001FB03F059FB4FF47A7003F095F84FF446
:10078000967240F2E511062003F0F4FA03F04CFBF8
:100790004FF47A7003F088F84FF4967240F2F1113A
:1007A000072003F0E7FA4FF496724FF456710820D1
:1007B00003F0E0FA4FF496724FF4FA710A2003F056
:1007C000D9FA03F031FB4FF47A7003F06DF84FF46F
:1007D000167003F069F8C82240F21E31062003F0BB
:1007E000C9FA03F021FB4FF4487003F05DF84FF4B1
:1007F000967240F26E21012003F0BCFA4FF496721B
:1008000040F2B711022003F0B5FA4FF496724FF49C
:10081000E771032003F0AEFA4FF4967240F26F11C5
:10082000042003F0A7FA4B224FF42371052003F0B4
:10083000A1FA03F0F9FA4FF47A7003F035F84FF4A7
:10084000FA7003F031F84FF4967240F2F51101207E
:1008500003F090FAC8224FF4CE71022003F08AFA16
:10086000C8224FF4F671032003F084FA4FF4967215
:1008700040F2E511042003F07DFA4FF496727B21DB
:10088000052003F077FA03F0CFFA4FF47A7003F003
:100890000BF84FF4FA7003F007F84FF496724FF428
:1008A000F371012003F066FA4FF49672A82102203A
:1008B00003F060FA4FF496724FF43271032003F0A4
:1008C00059FA4FF4967240F20E21042003F052FAC6
:1008D0004FF49672AA21052003F04CFA4FF4967259
:1008E00040F21331062003F045FA4FF4967240F2BD
:1008F000F111072003F03EFA4FF496724FF456714F
:10090000082003F037FA4FF496724FF4E97109208A
:1009100003F030FA4FF496724FF4FA710A2003F0A4
:1009200029FA03F081FA4FF47A7002F0BDFF4FF418
:1009300096724FF4C771012003F01CFA4FF49672BF
:10094000DF21022003F016FA4FF4967240F2C12123
:10095000032003F00FFA4FF4967240F23121042085
:1009600003F008FAFA224FF4C871052003F002FAE6
:10097000642240F2E511062003F0FCF903F054FA7A
:100980004FF4FA7002F090FFFA2240F2E5110520D0
:1009900003F0F0F9C82240F2E511062003F0EAF96D
:1009A0004FF4AF7240F2F111072003F0E3F903F0C6
:1009B0003BFA4FF47A7002F077FF4FF47A7002F04E
:1009C00073FF10BD10B54FF4967240F2C9110120AB
:1009D00003F0D0F94FF49672E021022003F0CAF937
:1009E0004FF4967240F2C121032003F0C3F94FF493
:1009F000AF7240F22E21042003F0BCF94FF496723E
:100A0000A321052003F0B6F94FF4967240F2D221EB
:100A1000062003F0AFF903F007FA4FF47A7002F002
:100A200043FF4FF4967002F03FFF4FF4967240F28E
:100A3000AF11022003F09EF94FF496724FF4FF714C
:100A4000032003F097F94FF4AF729D21052003F0C6
:100A500091F94FF496724FF43171062003F08AF940
:100A600003F0E2F94FF47A7002F01EFF4FF4967231
:100A700040F29321012003F07DF94FF4967240F289
:100A8000B711022003F076F94FF496724FF4E77134
:100A9000032003F06FF94FF4967240F283110420A3
:100AA00003F068F94FF4967240F2A621052003F096
:100AB00061F94FF4967240F21731062003F05AF9AB
:100AC00003F0B2F94FF47A7002F0EEFE4FF47A7050
:100AD00002F0EAFE4FF4FA72D221082003F04AF93C
:100AE00003F0A2F94FF47A7002F0DEFE4FF4967034
:100AF00002F0DAFE4FF4967240F24711092003F03B
:100B000039F996224FF4F371052003F033F903F01D
:100B10008BF94FF47A7002F0C7FE4FF4AF7240F2D7
:100B2000E511072003F026F94FF496724FF4057192
:100B3000082003F01FF94FF496724FF4E971092071
:100B400003F018F94FF496724FF44D710A2003F038
:100B500011F903F069F94FF47A7002F0A5FE4FF431
:100B6000967240F2E511062003F004F903F05CF9F7
:100B70004FF47A7002F098FE4FF4967240F2F11141
:100B8000072003F0F7F84FF496724FF456710820DF
:100B900003F0F0F84FF496724FF4E971092003F076
:100BA000E9F84FF496724FF4FA710A2003F0E2F874
:100BB0004FF496724FF4FA71052003F0DBF803F05E
:100BC00033F94FF47A7002F06FFE4FF4167002F0B2
:100BD0006BFE4FF4967240F29321012003F0CAF8A5
:100BE0004FF4967240F2B711022003F0C3F84FF4AD
:100BF00096724FF4E771032003F0BCF84FF496723D
:100C000040F28311042003F0B5F89622A8210620B3
:100C100003F0B0F803F008F94FF47A7002F044FEE4
:100C20004FF4967002F040FE4B224FF4AF71052056
:100C300003F0A0F803F0F8F84FF47A7002F034FEF5
:100C40004FF4967240F21F21012003F093F84FF405
:100C500096724FF4CC71022003F08CF84FF4967228
:100C600040F2E911032003F085F84FF4967240F248
:100C70000E21042003F07EF84FF4967240F29B217F
:100C8000052003F077F803F0CFF84FF4487002F036
:100C90000BFE4FF49672A821022003F06BF84FF47C
:100CA00096724FF43271032003F064F84FF4967299
:100CB0004FF44871052003F05DF84FF49672B721A8
:100CC000062003F057F84FF4967240F2EF11072018
:100CD00003F050F803F0A8F84FF47A7002F0E4FD46
:100CE0004FF4967240F2C711012003F043F84FF41D
:100CF0009672DF21022003F03DF84FF4967240F225
:100D0000C121032003F036F84FF4967240F23121EE
:100D1000042003F02FF84FF4967240F2E5110520FD
:100D200003F028F84FF4967240F2E511062003F024
:100D300021F84FF4967240F2EF11072003F01AF8F1
:100D400003F072F84FF47A7002F0AEFD4FF47A704F
:100D500002F0AAFD4FF47A7002F0A6FD10BD10B5A6
:100D60004FF4C87240F2B111012003F003F84FF4C0
:100D7000E172F721022002F0FDFF4FF4967240F27B
:100D80008A21032002F0F6FF4FF4AF724FF40A718C
:100D9000042002F0EFFF4FF4167240F253310520A9
:100DA00002F0E8FF4FF4FA72F021062002F0E2FFB1
:100DB00003F03AF84FF47A7002F076FDC82002F0A2
:100DC00073FD4FF496724FF49B71012002F0D2FF35
:100DD000FA22A921022002F0CDFFFA2240F2BB2123
:100DE000032002F0C7FF4FF496724FF4FF71042006
:100DF00002F0C0FF4FF4967240F2CD21052002F0C0
:100E0000B9FF4FF4967240F2AF11062002F0B2FF24
:100E10004FF496724FF4F871072002F0ABFF4FF4D5
:100E200096724FF45671082002F0A4FF4FF49672A8
:100E300040F2D911092002F09DFF4FF4967240F262
:100E4000DD110A2002F096FF02F0EEFF4FF47A70F7
:100E500002F02AFDC82002F027FD4FF49672FE2111
:100E6000032002F087FF4FF4FA7240F20D110420C4
:100E700002F080FFC82240F2F111072002F07AFF51
:100E8000C8224FF45671082002F074FFC8224FF4B4
:100E9000E971092002F06EFFC8224FF4FA710A20AE
:100EA00002F068FF02F0C0FF4FF47A7002F0FCFC21
:100EB0004FF4167002F0F8FC4FF4C8727E21012046
:100EC00002F058FFC82240F21711022002F052FF30
:100ED00002F0AAFF4FF4167002F0E6FC4FF4C8725D
:100EE0004FF49B71012002F045FFC822A921022086
:100EF00002F040FF02F098FF4FF4167002F0D4FCAD
:100F00004FF4C8727E21012002F034FFC82240F263
:100F10001711022002F02EFF02F086FF4FF4167028
:100F200002F0C2FC4FF4C8724FF49B71012002F032
:100F300021FFC822A921022002F01CFF02F074FF49
:100F40004FF4167002F0B0FC4FF4FA7240F2BB217D
:100F5000032002F00FFF4FF4AF724FF4047104202E
:100F600002F008FF02F060FF4FF47A7002F09CFC80
:100F70004FF4967002F098FC4FF496724FF4DC71C7
:100F8000012002F0F7FEFA22EA21022002F0F2FE2E
:100F90004FF496724FF42471032002F0EBFEFA2214
:100FA0004FF40971042002F0E5FE4FF4C87240F2DC
:100FB0003E31052002F0DEFE4FF4C8729521062076
:100FC00002F0D8FE4FF4C87240F2DD11072002F0A3
:100FD000D1FE4FF4E17240F24131082002F0CAFE26
:100FE0004FF4C8724FF4EA71092002F0C3FE4FF4C7
:100FF000C87240F2DD110A2002F0BCFE02F014FFBC
:101000004FF47A7002F050FC4FF4967002F04CFCF2
:101010004FF4967240F28F11012002F0ABFE4FF4B4
:101020009672D821022002F0A5FE4FF496724FF47A
:101030003071032002F09EFE4FF4967240F231218F
:10104000042002F097FE4FF4AF7240F2E911052040
:1010500002F090FE4FF4AF7240F2E711062002F06A
:1010600089FE02F0E1FE4FF47A7002F01DFC4FF4AD
:101070007A7002F019FC10BD10B54FF496724FF45F
:10108000F571012002F076FE4FF49672F7210220EE
:1010900002F070FE4FF4967240F28A21032002F0B3
:1010A00069FE4FF496724FF40A71042002F062FE5A
:1010B0004FF4167240F25331052002F05BFE4FF4FC
:1010C000FA72F021062002F055FE02F0ADFE4FF458
:1010D0007A7002F0E9FBC82002F0E6FB4FF4877259
:1010E0004FF4F371012002F045FE4FF48772D221D4
:1010F000022002F03FFE4FF4AF7240F2E1210320E4
:1011000002F038FE4FF4AF7240F2B121042002F039
:1011100031FE4FF4967240F2CF21052002F02AFEF4
:101120004FF4967240F2ED11062002F023FE4FF4C8
:10113000967240F2E711072002F01CFE4FF49672FF
:1011400040F25131082002F015FE4FF496724FF430
:10115000E971092002F00EFE4FF4967240F2DD11A3
:101160000A2002F007FE02F05FFE4FF47A7002F0F0
:101170009BFBC82002F098FBFA2240F24731012085
:1011800002F0F8FDFA224FF42471022002F0F2FD81
:1011900002F04AFE4FF47A7002F086FB4FF41670AC
:1011A00002F082FBC82240F28221032002F0E2FD1D
:1011B0004FF4C87240F25B31042002F0DBFD02F014
:1011C00033FE4FF4167002F06FFBC82240F2E121AB
:1011D000032002F0CFFD4FF4C87240F2B121042089
:1011E00002F0C8FD02F020FE4FF4167002F05CFB26
:1011F000C82240F28221032002F0BCFD4FF4C872E5
:1012000040F25B31042002F0B5FD02F00DFE4FF418
:10121000167002F049FBC82240F2E121032002F0DF
:10122000A9FD4FF4C87240F2B121042002F0A2FDE2
:1012300002F0FAFD4FF47A7002F036FB4FF496722A
:101240004FF4F371012002F095FD4FF49672D42112
:10125000022002F08FFD4FF4AF7240F2E121032033
:1012600002F088FD4FF4AF7240F2B121042002F089
:1012700081FD4FF4967240F2CF21052002F07AFDF5
:101280004FF4967240F2ED11062002F073FD4FF418
:10129000967240F2E711072002F06CFD4FF496724F
:1012A00040F25131082002F065FD4FF496724FF480
:1012B000E971092002F05EFD4FF4967240F2DD11F3
:1012C0000A2002F057FD02F0AFFD4FF47A7002F0F1
:1012D000EBFAC82002F0E8FA4FF4967240F2C71118
:1012E000012002F047FD4FF48772DF21022002F057
:1012F00041FD4FF4967240F2B221032002F03AFD14
:101300004FF4967240F23121042002F033FD4FF485
:1013100096724FF44871052002F02CFD4FF496723E
:10132000B721062002F026FD4FF4C87240F2DD110D
:10133000072002F01FFD4FF4E17240F24131082016
:1013400002F018FD4FF4C8724FF4EA71092002F060
:1013500011FD4FF4C87240F2DD110A2002F00AFDBF
:1013600002F062FD4FF47A7002F09EFAC82002F09B
:101370009BFA4FF4967240F2C711012002F0FAFC7A
:101380004FF49672DF21022002F0F4FC4FF49672C3
:1013900040F2B721032002F0EDFC4FF4967240F2C8
:1013A0003121042002F0E6FC4FF4967240F2E51180
:1013B000052002F0DFFC4FF4967240F2E5110620A2
:1013C00002F0D8FC02F030FD4FF47A7002F06CFAB3
:1013D0004FF47A7002F068FA10BD10B54FF4C8727D
:1013E00040F2B111012002F0C5FC4FF4E172F72187
:1013F000022002F0BFFC4FF4967240F28A210320D3
:1014000002F0B8FC4FF4AF724FF40A71042002F0FE
:10141000B1FC4FF4167240F25331052002F0AAFCE1
:101420004FF4FA72F021062002F0A4FC02F0FCFC5A
:101430004FF47A7002F038FAC82002F035FA4FF40F
:1014400096724FF4CE71012002F094FC4FF4967224
:101450009F21022002F08EFC4FF4967240F2CB21C5
:10146000032002F087FC4FF4967240F247210420DB
:1014700002F080FC4FF4967240F2BE21052002F08B
:1014800079FC4FF4FA7240F2DB11062002F072FC94
:1014900002F0CAFC4FF47A7002F006FAC82002F09B
:1014A00003FA4FF4C872B321012002F063FC4FF439
:1014B000C8724FF4BF71022002F05CFC4FF4C87296
:1014C0004FF4FA71032002F055FC4FF4C87240F259
:1014D0003531042002F04EFC4FF4FA724FF43C71A7
:1014E000052002F047FC02F09FFC4FF42F7002F041
:1014F000DBF94FF496724FF4CE71012002F03AFC02
:101500004FF496729F21022002F034FC4FF4967241
:1015100040F2CB21032002F02DFC4FF4967240F2F2
:101520004721042002F026FC4FF4967240F2BE21BF
:10153000052002F01FFC4FF4967240F2DB110620EA
:1015400002F018FC02F070FC4FF42F7002F0ACF9BE
:101550004FF4C872B321012002F00CFC4FF4C872A2
:101560004FF4BF71022002F005FC4FF4C8724FF433
:10157000FA71032002F0FEFB4FF4C87240F23531DD
:10158000042002F0F7FB4FF4FA724FF43C7105208F
:1015900002F0F0FB02F048FC4FF42F7002F084F9E7
:1015A0004FF496724FF4CE71012002F0E3FB4FF43A
:1015B00096729F21022002F0DDFB4FF4967240F2FA
:1015C000CB21032002F0D6FB4FF4967240F2472164
:1015D000042002F0CFFB4FF4967240F2BE210520AA
:1015E00002F0C8FB4FF4967240F2DB11062002F0C5
:1015F000C1FB02F019FC4FF4487002F055F9C82203
:1016000040F2B111012002F0B5FBC822A82102204E
:1016100002F0B0FBC8224FF43271032002F0AAFBA3
:10162000C8224FF40A71042002F0A4FB4FF4967212
:101630004FF44871052002F09DFB4FF4C872B721AA
:10164000062002F097FB02F0EFFB4FF4487002F027
:101650002BF94FF496724FF4C771012002F08AFB08
:101660004FF49672DF21022002F084FB4FF4967251
:1016700040F2C121032002F07DFB4FF4967240F24C
:101680003121042002F076FB4FF4967240F2E5110E
:10169000052002F06FFB4FF4967240F2E511062030
:1016A00002F068FB02F0C0FB4FF47A7002F0FCF825
:1016B0004FF47A7002F0F8F84FF47A7002F0F4F810
:1016C00010BD10B54FF496724FF42E71012002F048
:1016D00051FB4FF4C87240F29721022002F04AFBFE
:1016E0004FF4AF724FF4DB71032002F043FB4FF471
:1016F000AF7240F22F21042002F03CFB4FF49672AF
:1017000040F2E511052002F035FB642240F2E711BA
:10171000062002F02FFBC82240F25B21072002F0D6
:1017200029FBC8224FF46571082002F023FB9622A2
:1017300040F2E311092002F01DFBC8224FF40271B0
:101740000A2002F017FB02F06FFB4FF47A7002F0F0
:10175000ABF8B42240F24A21082002F00BFB4622EB
:1017600040F2F911072002F005FB02F05DFB4FF497
:101770007A7002F099F84FF4487002F095F84FF43F
:10178000E1724FF44571012002F0F4FA4FF49672C1
:1017900040F2A921022002F0EDFAC82240F20F1116
:1017A000032002F0E7FA4FF4C872B321042002F0DC
:1017B000E1FA4FF496724FF4F371072002F0DAFA6F
:1017C0004FF4967240F28111082002F0D3FA02F031
:1017D0002BFB4FF47A7002F067F84FF4967240F2E8
:1017E000B621022002F0C6FA4FF4967240F21111AF
:1017F000032002F0BFFA4FF49672B621042002F0E3
:10180000B9FA4FF4967240F2A911092002F0B2FA27
:101810004FF42F7240F2A2310A2002F0ABFA4FF4DB
:101820008C724FF4C571072002F0A4FA4FF496723F
:101830004FF4C871082002F09DFA02F0F5FA4FF457
:101840007A7002F031F84FF48C7240F2A711012047
:1018500002F090FA4FF48C724FF4D771022002F02C
:1018600089FA4FF4967240F2F111032002F082FAE5
:101870004FF4967240F23A21042002F07BFA4FF4C2
:10188000967240F2E511072002F074FAC82240F285
:101890004621082002F06EFA4FF4967240F2DF11F2
:1018A000092002F067FA4FF4967240F201310A20E3
:1018B00002F060FA02F0B8FA4FF4AF6001F0F4FF02
:1018C0004FF496724FF4C771012002F053FAC82208
:1018D000DF21022002F04EFA4FF4167240F2C121CD
:1018E000032002F047FA4FF4967240F231210420AF
:1018F00002F040FA4FF4967240F2F111072002F024
:1019000039FA4FF4C8724FF45671082002F032FAD7
:10191000642240F2DF11092002F02CFA78224FF401
:10192000FA710A2002F026FA02F07EFA4FF4FA70F9
:1019300001F0BAFF4FF4AF724FF4FA710A2002F0CF
:1019400019FA02F071FA4FF4487001F0ADFF4FF44C
:101950007A7001F0A9FF4FF47A7001F0A5FF10BD75
:1019600010B54FF496724FF4F171012002F002FAB3
:101970004FF4C87240F29F11022002F0FBF94FF4BD
:10198000AF7240F20F11032002F0F4F94FF4AF727E
:10199000F021042002F0EEF94FF496724FF4EF714B
:1019A000072002F0E7F964224FF45171082002F099
:1019B000E1F9962240F28711092002F0DBF94FF499
:1019C000967240F2C1110A2002F0D4F902F02CFA0A
:1019D0004FF47A7001F068FF82224FF439710A20C7
:1019E00002F0C8F902F020FA4FF4487001F05CFFF1
:1019F000502240F2A511092002F0BCF94FF44870C2
:101A000001F052FF4FF4967240F2DF21012002F004
:101A1000B1F94FF4967240F29E21022002F0AAF929
:101A20004FF4967240F21511032002F0A3F94FF41F
:101A30009672D621042002F09DF94FF4967240F27E
:101A4000FD11092002F096F94FF496724FF475716A
:101A50000A2002F08FF902F0E7F94FF47A7001F0F2
:101A600023FF4FF4967240F20321072002F082F91F
:101A70004FF42F724FF4C771082002F07BF94FF436
:101A8000AF7240F29221092002F074F902F0CCF911
:101A90004FF47A7001F008FF4FF4967240F2B511DE
:101AA000022002F067F94FF4967240F2F71103201A
:101AB00002F060F94FF496724FF40071042002F0C6
:101AC00059F94FF4967240F2F111072002F052F9E1
:101AD0004FF4967240F22E21082002F04BF94FF499
:101AE000967240F21321092002F044F94FF4AF72CC
:101AF00040F22A310A2002F03DF902F095F94FF444
:101B0000617001F0D1FE4FF496724FF4C77101205D
:101B100002F030F94FF41672DF21022002F02AF9A8
:101B2000C82240F2C121032002F024F94FF496723A
:101B300040F23121042002F01DF94FF4967240F278
:101B4000E511052002F016F94FF4967240F2E51106
:101B5000062002F00FF94FF48C7240F2F1110720C9
:101B600002F008F98C224FF45671082002F002F9B5
:101B70004FF4AF724FF4E971092002F0FBF84FF413
:101B800048724FF4F5710A2002F0F4F802F04CF9B3
:101B90004FF47A7001F088FE4FF47A7001F084FE01
:101BA0004FF47A7001F080FE10BD10B54FF49672BC
:101BB0004FF4F171012002F0DDF84FF4C87240F2E9
:101BC0009F11022002F0D6F84FF4AF7240F20F11CD
:101BD000032002F0CFF84FF4AF72F021042002F09E
:101BE000C9F84FF496724FF4EF71072002F0C2F873
:101BF00064224FF45171082002F0BCF8962240F2A2
:101C00008711092002F0B6F84FF4967240F2C11124
:101C10000A2002F0AFF802F007F94FF47A7001F0F1
:101C200043FE82224FF439710A2002F0A3F85022B9
:101C300040F2C311092002F09DF802F0F5F84FF4CC
:101C40007A7001F031FE4FF4487001F02DFE4FF430
:101C5000967240F2DF21012002F08CF84FF4967268
:101C600040F29E21022002F085F84FF4967240F275
:101C70001511032002F07EF84FF49672D62104204D
:101C800002F078F84FF4967240F2FD11092002F04C
:101C900071F84FF496724FF475710A2002F06AF8E9
:101CA00002F0C2F84FF47A7001F0FEFD4FF4967224
:101CB00040F20321072002F05DF84FF42F724FF439
:101CC000C771082002F056F84FF4AF7240F292212B
:101CD000092002F04FF802F0A7F84FF47A7001F0F3
:101CE000E3FD02F0A1F84FF47A7001F0DDFD4FF44E
:101CF0007A7001F0D9FD4FF47A7001F0D5FD10BD76
:101D000010B54FF4C87240F2B111012002F032F860
:101D10004FF4E172F721022002F02CF84FF4967292
:101D200040F28A21032002F025F84FF4AF724FF4FD
:101D30000A71042002F01EF84FF4167240F253317B
:101D4000052002F017F84FF4FA72F021062002F095
:101D500011F802F069F84FF4487001F0A5FD4FF456
:101D600096724FF4C871022002F004F84FF4967294
:101D70004FF4F471032001F0FDFF4FF49672FD2142
:101D8000062001F0F7FF02F04FF84FF4FA7001F06F
:101D90008BFD4FF4967240F25A21012001F0EAFFC8
:101DA0004FF4967240F2B711022001F0E3FF4FF4B6
:101DB00096724FF4E771032001F0DCFF4FF4967246
:101DC00040F28311042001F0D5FF4FF496724FF4D6
:101DD000A071052001F0CEFF4FF49672AA210620D3
:101DE00001F0C8FF02F020F84FF4487001F05CFDEC
:101DF0004FF47A7001F058FD4FF4FA72D2210820A6
:101E000001F0B8FF02F010F84FF47A7001F04CFDC9
:101E1000C82001F049FDC8224FF4F371052001F0FC
:101E2000A9FF4FF4967240F24711092001F0A2FF7A
:101E300001F0FAFF4FF47A7001F036FD4FF4AF7203
:101E400040F2E511072001F095FF4FF496724FF430
:101E50000571082001F08EFF4FF496724FF4E9717E
:101E6000092001F087FF4FF496724FF44D710A205C
:101E700001F080FF01F0D8FF4FF47A7001F014FDFB
:101E80004FF4967240F2E511062001F073FF01F065
:101E9000CBFF4FF47A7001F007FD4FF4967240F2D9
:101EA000F111072001F066FF4FF496724FF456715E
:101EB000082001F05FFF4FF496724FF4FA710A2088
:101EC00001F058FF01F0B0FF4FF47A7001F0ECFC24
:101ED0004FF4167001F0E8FC4FF4AF724FF4E47168
:101EE000012001F047FF4FF4AF7240F2772102204A
:101EF00001F040FF4FF4AF7240F22311032001F0D4
:101F000039FF4FF4AF724FF40271042001F032FF39
:101F100001F08AFF4FF47A7001F0C6FC4FF47A703A
:101F200001F0C2FCFA224FF43371012001F022FFCC
:101F3000FA224FF4BD71022001F01CFFFA224FF487
:101F4000FF71032001F016FFFA224FF49171042073
:101F500001F010FF01F068FF4FF47A7001F0A4FC6B
:101F6000C82001F0A1FC9622A821062001F002FF62
:101F700001F05AFF4FF47A7001F096FC40F22620EF
:101F800001F092FC4B224FF49F71052001F0F2FE0C
:101F900001F04AFF4FF47A7001F086FC4FF496721C
:101FA0004FF4F371012001F0E5FE4FF496724FF407
:101FB000CC71022001F0DEFE4FF4967240F2E9117E
:101FC000032001F0D7FE4FF4967240F20E21042058
:101FD00001F0D0FE4FF4967240F29B21052001F0F3
:101FE000C9FE01F021FF4FF4487001F05DFC4FF491
:101FF0009672A821022001F0BDFE4FF496724FF4B4
:102000003271032001F0B6FE4FF496724FF448711E
:10201000052001F0AFFE4FF49672B721062001F0C3
:10202000A9FE4FF4967240F2EF11072001F0A2FED4
:1020300001F0FAFE4FF47A7001F036FC4FF496721C
:102040004FF4C771012001F095FE4FF49672DF2125
:10205000022001F08FFE4FF4967240F2C12103205E
:1020600001F088FE4FF4967240F23121042001F015
:1020700081FE4FF4967240F2E511052001F07AFEE0
:102080004FF4967240F2E511062001F073FE4FF412
:10209000967240F2EF11072001F06CFE01F0C4FED1
:1020A0004FF47A7001F000FC4FF47A7001F0FCFB01
:1020B00010BD10B54FF4C87240F2B111012001F00B
:1020C00059FE4FF4E172F721022001F053FE4FF464
:1020D000967240F28A21032001F04CFE4FF4AF7259
:1020E0004FF40A71042001F045FE4FF4167240F2DD
:1020F0005331052001F03EFE4FF4FA72F021062024
:1021000001F038FE01F090FE4FF4487001F0CCFB76
:102110004FF496724FF4C871022001F02BFE4FF479
:1021200096724FF4F471032001F024FE4FF496727E
:10213000FD21062001F01EFE01F076FE4FF4FA703C
:1021400001F0B2FB4FF4967240F25A21012001F0E7
:1021500011FE4FF4967240F2B711022001F00AFE10
:102160004FF496724FF4E771032001F003FE4FF431
:10217000967240F28311042001F0FCFD4FF4967238
:102180004FF4A071052001F0F5FD4FF49672AA21DD
:10219000062001F0EFFD01F047FE4FF4487001F01A
:1021A00083FB4FF47A7001F07FFB4FF4FA72D22177
:1021B000082001F0DFFD01F037FE4FF47A7001F0E6
:1021C00073FBC82001F070FBC8224FF4F3710520A7
:1021D00001F0D0FD4FF4967240F24711092001F052
:1021E000C9FD01F021FE4FF47A7001F05DFB4FF460
:1021F000AF7240F2E511072001F0BCFD4FF496727A
:102200004FF40571082001F0B5FD4FF496724FF4BC
:10221000E971092001F0AEFD4FF496724FF44D7153
:102220000A2001F0A7FD01F0FFFD4FF47A7001F0E4
:102230003BFB4FF4967240F2E511062001F09AFD47
:1022400001F0F2FD4FF47A7001F02EFB4FF496721C
:1022500040F2F111072001F08DFD4FF496724FF41A
:102260005671082001F086FD4FF496724FF4E97123
:10227000092001F07FFD4FF496724FF4FA710A20A5
:1022800001F078FD01F0D0FD4FF47A7001F00CFB05
:102290004FF4167001F008FB4FF4AF724FF4E47185
:1022A000012001F067FD4FF4AF7240F27721022068
:1022B00001F060FD4FF4AF7240F22311032001F0F2
:1022C00059FD4FF4AF724FF40271042001F052FD3A
:1022D00001F0AAFD4FF47A7001F0E6FA4FF47A703B
:1022E00001F0E2FA4FF4AF724FF40671082001F0EA
:1022F00041FD4FF4AF724FF44D710A2001F03AFDE9
:1023000001F092FD4FF47A7001F0CEFA4FF4FA70BA
:1023100001F0CAFA4FF4967240F2F111072001F071
:1023200029FD4FF496724FF45671082001F022FDFA
:102330004FF496724FF4E971092001F01BFD4FF440
:1023400096724FF4FA710A2001F014FD01F06CFD51
:102350004FF47A7001F0A8FAFA224FF43371012099
:1023600001F008FDFA224FF4BD71022001F002FDD8
:10237000FA224FF4FF71032001F0FCFCFA224FF423
:102380009171042001F0F6FC01F04EFD4FF47A70DB
:1023900001F08AFAC82001F087FA9622A8210620C7
:1023A00001F0E8FC01F040FD4FF47A7001F07CFA96
:1023B00040F2262001F078FA4B224FF49F7105205D
:1023C00001F0D8FC01F030FD4FF47A7001F06CFAA6
:1023D0004FF496724FF4F371012001F0CBFC4FF4EF
:1023E00096724FF4CC71022001F0C4FC4FF4967247
:1023F00040F2E911032001F0BDFC4FF4967240F267
:102400000E21042001F0B6FC4FF4967240F29B219D
:10241000052001F0AFFC01F007FD4FF4487001F01A
:1024200043FA4FF49672A821022001F0A3FC4FF466
:1024300096724FF43271032001F09CFC4FF49672B7
:102440004FF44871052001F095FC4FF49672B721C6
:10245000062001F08FFC4FF4967240F2EF11072036
:1024600001F088FC01F0E0FC4FF47A7001F01CFAF6
:102470004FF496724FF4C771012001F07BFC4FF4CA
:102480009672DF21022001F075FC4FF4967240F243
:10249000C121032001F06EFC4FF4967240F231210D
:1024A000042001F067FC4FF4967240F2E51105201C
:1024B00001F060FC4FF4967240F2E511062001F045
:1024C00059FC4FF4967240F2EF11072001F052FCD4
:1024D00001F0AAFC4FF47A7001F0E6F94FF47A703B
:1024E00001F0E2F94FF47A7001F0DEF910BD10B599
:1024F0004FF496724FF42E71012001F03BFC4FF423
:10250000C87240F29721022001F034FC4FF4AF7200
:102510004FF4DB71032001F02DFC4FF4AF7240F259
:102520002F21042001F026FC4FF4967240F2E511B1
:10253000052001F01FFC642240F2E711062001F0A3
:1025400019FCC82240F25B21072001F013FCC822CD
:102550004FF46571082001F00DFC962240F2E31162
:10256000092001F007FCC82240F216210A2001F0E0
:1025700001FC01F059FC4FF47A7001F095F99622B4
:1025800040F24A21082001F0F5FB322240F2F91115
:10259000072001F0EFFB01F047FC4FF47A7001F0E7
:1025A00083F94FF4487001F07FF94FF4967240F2CE
:1025B000F511012001F0DEFB4FF4967240F2072185
:1025C000022001F0D7FB4FF49672511D032001F059
:1025D000D1FB4FF496724FF48671042001F0CAFBD0
:1025E0004FF496724FF4CD71082001F0C3FB01F057
:1025F0001BFC4FF47A7001F057F94FF49672D12119
:10260000032001F0B7FB4FF4AF72F021042001F07A
:10261000B1FBFA224FF4C871072001F0ABFB4FF475
:1026200096724FF45D710A2001F0A4FB01F0FCFBEF
:102630004FF47A7001F038F9C82240F2F111072006
:1026400001F098FBC8224FF45671082001F092FB6C
:1026500001F0EAFB4FF4967001F026F9C8224FF41E
:10266000C771012001F086FBC822FA21022001F087
:1026700081FBC82240F2F111072001F07BFBC82248
:102680004FF45671082001F075FBC8224FF4E97130
:10269000092001F06FFBC8224FF4FA710A2001F003
:1026A00069FB01F0C1FB4FF47A7001F0FDF84FF4C3
:1026B0007A7001F0F9F8C8224FF4A271022001F0FB
:1026C00059FBC82240F2D321082001F053FBC82255
:1026D00040F262210A2001F04DFB01F0A5FB4FF40E
:1026E0007A7001F0E1F8C822DF21022001F042FBFC
:1026F000C8224FF45671082001F03CFBC8224FF469
:10270000FA710A2001F036FB01F08EFB4FF47A706B
:1027100001F0CAF8C8224FF4A271022001F02AFB8E
:10272000C82240F2D321082001F024FBC82240F245
:1027300061210A2001F01EFB01F076FB4FF47A7054
:1027400001F0B2F8C822DF21022001F013FBC822F9
:102750004FF45671082001F00DFBC8224FF4FA71B6
:102760000A2001F007FB01F05FFB4FF47A7001F0E3
:102770009BF8C82240F27F21022001F0FBFAC82218
:10278000EC21032001F0F6FA1E224FF4AB71042075
:1027900001F0F0FAC82240F2F311072001F0EAFA42
:1027A000C82240F28D11082001F0E4FA01F03CFB50
:1027B0004FF47A7001F078F84FF47A7001F074F801
:1027C0004FF4FA7001F070F84FF4967240F2C511B0
:1027D000012001F0CFFA4FF49672E621022001F0B9
:1027E000C9FA4FF4967240F20B21032001F0C2FAAD
:1027F0004FF4967240F24721042001F0BBFA4FF4E7
:10280000967240F25A21082001F0B4FA4FF4967201
:102810004FF4D7710A2001F0ADFA01F005FB4FF437
:102820007A7001F041F84FF496724FF4C7710120AD
:1028300001F0A0FA4FF49672DF21022001F09AFA1B
:102840004FF4967240F2C121032001F093FA4FF445
:10285000967240F23121042001F08CFA4FF4967206
:1028600040F2E511052001F085FA4FF4967240F22E
:10287000E511062001F07EFA4FF4967240F2F11154
:10288000072001F077FA96224FF45671082001F0E4
:1028900071FA4FF496724FF4E971092001F06AFA67
:1028A0004FF496724FF4FA710A2001F063FA01F0C6
:1028B000BBFA4FF47A7000F0F7FF4FF47A7000F033
:1028C000F3FF10BD10B54FF4967240F28F11012046
:1028D00001F050FA4FF4967240F2C121022001F04B
:1028E00049FA4FF4967240F24D11032001F042FA7A
:1028F0004FF4967240F22221072001F03BFA4FF488
:10290000967240F28531082001F034FA4FF4967245
:1029100040F20F21092001F02DFA4FF4967240F297
:1029200011210A2001F026FA01F07EFA4FF47A70A4
:1029300000F0BAFFA0224FF41671072001F01AFA36
:10294000A0224FF46571082001F014FA4FF47A7058
:1029500000F0AAFFC82000F0A7FF50224FF4E57155
:10296000092001F007FAA02240F2FA310A2001F012
:1029700001FA01F059FA4FF47A7000F095FF4FF424
:102980007A7000F091FFFA2240F22621012001F036
:10299000F1F9FA2240F29F21042001F0EBF9C8225C
:1029A0004FF4E571092001F0E5F901F03DFA4FF42B
:1029B000487000F079FFFA224FF4A971012001F06C
:1029C000D9F94FF4AF7240F22B11042001F0D2F983
:1029D000C82240F28221092001F0CCF901F024FA4A
:1029E0004FF4487000F060FFFA2240F226210120E7
:1029F00001F0C0F9FA2240F29F21042001F0BAF957
:102A0000C8224FF4E571092001F0B4F901F00CFA85
:102A10004FF4487000F048FFFA224FF4A9710120EA
:102A200001F0A8F94FF4AF7240F22B11042001F02D
:102A3000A1F9C82240F28221092001F09BF901F09E
:102A4000F3F94FF47A7000F02FFF4FF4C87000F0E4
:102A50002BFFFA2240F28B11012001F08BF9FA22B0
:102A6000DB21022001F086F9FA2240F2C521032081
:102A700001F080F9FA224FF40171042001F07AF993
:102A8000C8224FF4EA71092001F074F9C8224FF40A
:102A9000FA710A2001F06EF901F0C6F94FF47A706C
:102AA00000F002FF4FF4487000F0FEFEC8224FF421
:102AB000F971072001F05EF9C82240F25A3108206E
:102AC00001F058F901F0B0F94FF47A7000F0ECFE23
:102AD000FA2240F2E511052001F04CF9FA2240F209
:102AE000E711062001F046F901F09EF94FF47A70E3
:102AF00000F0DAFE4FF4967240F2C511012001F0A9
:102B000039F94FF496724FF4D671022001F032F980
:102B10004FF4967240F2FD11032001F02BF94FF4AF
:102B2000967240F22121042001F024F94FF49672AC
:102B300040F20931052001F01DF9C822D6210620F6
:102B400001F018F94FF496724FF4EE71072001F07E
:102B500011F9642240F20E31082001F00BF94FF414
:102B6000967240F28111092001F004F94FF4967237
:102B70004FF4D7710A2001F0FDF801F055F94FF438
:102B80007A7000F091FE9622F021082001F0F2F810
:102B90004FF496724FF4FA71072001F0EBF801F050
:102BA00043F94FF47A7000F07FFE4FF47A7000F032
:102BB0007BFE4FF47A7000F077FE4FF4967240F28D
:102BC0002111012001F0D6F84FF4967240F23E2117
:102BD000022001F0CFF84FF496724FF49B7103205E
:102BE00001F0C8F84FF4967240F2EB21042001F096
:102BF000C1F801F019F94FF42F7000F055FE4FF4B1
:102C0000967240F28321012001F0B4F84FF49672DD
:102C100040F20B11022001F0ADF84FF4967240F231
:102C2000A221032001F0A6F84FF49672DA210420C5
:102C300001F0A0F801F0F8F84FF47A7000F034FEDB
:102C40004FF4967240F22111012001F093F84FF4F5
:102C5000967240F23E21022001F08CF84FF49672F9
:102C60004FF49B71032001F085F84FF4967240F207
:102C7000EB21042001F07EF801F0D6F84FF47A70D1
:102C800000F012FE4FF4967240F28321012001F011
:102C900071F84FF4967240F20B11022001F06AF8BD
:102CA0004FF4967240F2A221032001F063F84FF432
:102CB0009672DA21042001F05DF801F0B5F84FF4C6
:102CC0002F7000F0F1FD4FF4967240F2C511012013
:102CD00001F050F84FF496724FF4D671022001F0D3
:102CE00049F84FF4967240F2FD11032001F042F8CA
:102CF0004FF4967240F22121042001F03BF801F0DC
:102D000093F84FF47A7000F0CFFD962240F2BE2186
:102D1000022001F02FF89622FE21032001F02AF86C
:102D20004FF4967240F23E31052001F023F8C8229C
:102D300040F22111062001F01DF8C8229F21082031
:102D400001F018F801F070F84FF47A7000F0ACFD63
:102D5000C82000F0A9FD4FF4967240F20B2101202B
:102D600001F008F84FF496724FF4C071042001F09E
:102D700001F801F059F84FF47A7000F095FD4FF426
:102D8000967000F091FD4FF4967240F2C51101204B
:102D900000F0F0FF4FF496724FF4D671022000F06D
:102DA000E9FF4FF4967240F2FD11032000F0E2FFBC
:102DB0004FF4967240F22121042000F0DBFF01F075
:102DC00033F84FF47A7000F06FFD4FF4967240F2D2
:102DD000EB11072000F0CEFFC82240F22931082075
:102DE00000F0C8FF4FF496724FF4C271092000F052
:102DF000C1FF4FF496724FF4D7710A2000F0BAFF6A
:102E000001F012F84FF47A7000F04EFD4FF47A7032
:102E100000F04AFD4FF47A7000F046FD4FF49672D0
:102E200040F2E511052000F0A5FF4FF4967240F244
:102E3000E511062000F09EFF4FF4967240F2F1116A
:102E4000072000F097FF4FF496724FF45671082058
:102E500000F090FF4FF496724FF4E971092000F0F2
:102E600089FF4FF496724FF4FA710A2000F082FF46
:102E700000F0DAFF4FF4487000F016FD4FF4967240
:102E80004FF4C771012000F075FF4FF49672DF21F7
:102E9000022000F06FFF4FF4967240F2C121032030
:102EA00000F068FF4FF4967240F23121042000F0E8
:102EB00061FF00F0B9FF4FF47A7000F0F5FC4FF4B9
:102EC0007A7000F0F1FC10BD10B564224FF4E1718E
:102ED000092000F04FFF00F0A7FF4FF4FA7000F058
:102EE000E3FC4FF4967240F28321012000F042FF90
:102EF0004FF496724FF42A71022000F03BFF4FF41A
:102F000096724FF40071032000F034FF4FF4967274
:102F10004FF40071042000F02DFFC8224FF4B97166
:102F2000072000F027FFC8224FF4B971092000F0F4
:102F300021FF00F079FF41F2883000F0B5FC4FF43A
:102F40002F724FF4C771012000F014FF4FF42F725D
:102F5000DF21022000F00EFF4FF461724FF49671F2
:102F6000072000F007FF00F05FFF4FF47A7000F0D9
:102F70009BFC4FF42F721146082000F0FBFE4FF42B
:102F80002F724FF4E171072000F0F4FE00F04CFFC7
:102F90004FF4FA6000F088FC4FF496724FF44371DE
:102FA000082000F0E7FE4FF4967251000A2000F06E
:102FB000E1FE00F039FF4FF47A7000F075FC9622C4
:102FC0004FF45671082000F0D5FE4FF4967240F28F
:102FD000F111072000F0CEFE4FF4967240F2262148
:102FE0000A2000F0C7FE4FF4967240F22621092015
:102FF00000F0C0FE00F018FF4FF47A7000F054FCAF
:1030000064224FF4FA710A2000F0B4FE64224FF4F7
:10301000E171092000F0AEFE00F006FF4FF47A7077
:1030200000F042FC4FF4967240F28321012000F040
:10303000A1FE4FF496724FF42A71022000F09AFE1E
:103040004FF496724FF40071032000F093FE4FF49A
:1030500096724FF40071042000F08CFEC8224FF4E9
:10306000B971072000F086FEC8224FF4B97109201B
:1030700000F080FE00F0D8FE41F2883000F014FC31
:103080004FF42F724FF4C771012000F073FE4FF41C
:103090002F72DF21022000F06DFE4FF461724FF4B9
:1030A0009671072000F066FE00F0BEFE4FF47A70C5
:1030B00000F0FAFB4FF42F721146082000F05AFE80
:1030C0004FF42F724FF4E171072000F053FE00F02F
:1030D000ABFE4FF4FA6000F0E7FB4FF496724FF44A
:1030E0004371082000F046FE4FF4967251000A200A
:1030F00000F040FE00F098FE4FF47A7000F0D4FB30
:1031000096224FF45671082000F034FE4FF4967268
:1031100040F2F111072000F02DFE4FF4967240F2BC
:1031200026210A2000F026FE4FF4967240F2262156
:10313000092000F01FFE00F077FE4FF47A7000F0D7
:10314000B3FBFDF792F94FF4965000F0ADFBFEF79C
:103150002CFD10BD10B54FF4C87240F2B111012022
:1031600000F008FE4FF4E172F721022000F002FEA9
:103170004FF4967240F28A21032000F0FBFD4FF4D9
:10318000AF724FF40A71042000F0F4FD4FF4167290
:1031900040F25331052000F0EDFD4FF4FA72F021BA
:1031A000062000F0E7FD00F03FFE4FF47A7000F0DB
:1031B0007BFBC82000F078FB4FF496724FF433711C
:1031C000012000F0D7FD4FF496724FF4BD7102203C
:1031D00000F0D0FD4FF496724FF4FF71032000F021
:1031E000C9FD4FF496724FF49171042000F0C2FDB6
:1031F0004FF496724FF4A071052000F0BBFD4FF420
:103200009672AA21062000F0B5FD00F00DFE4FF4E5
:10321000487000F049FB4FF47A7000F045FB4FF422
:10322000FA72D221082000F0A5FD00F0FDFD4FF458
:103230007A7000F039FBC82000F036FB4FF496722C
:103240004FF4F571032000F095FD4FF496724FF4A2
:103250009B71042000F08EFD00F0E6FDC82000F018
:1032600023FB4FF448725110092000F083FD962291
:1032700040F20321052000F07DFD00F0D5FD4FF464
:103280007A7000F011FB4FF4967240F21E21082074
:1032900000F070FD4FF496724FF4E971092000F0D0
:1032A00069FD4FF4A5724FF44D710A2000F062FDE4
:1032B00000F0BAFD4FF4487000F0F6FA4FF4967241
:1032C0004FF45671082000F055FD4FF496724FF4FC
:1032D000EB71062000F04EFD4FF4967240F2F111B2
:1032E000072000F047FD4FF496724FF4E971092072
:1032F00000F040FDFA2251000A2000F03BFD00F0F2
:1033000093FD4FF47A7000F0CFFAC82000F0CCFAA9
:1033100010BD10B54FF4C87240F2B111012000F099
:1033200029FD4FF4E172F721022000F023FD4FF454
:10333000967240F28A21032000F01CFD4FF4AF7218
:103340004FF40A71042000F015FD4FF4167240F29C
:103350005331052000F00EFD4FF4FA72F0210620E3
:1033600000F008FD00F060FD4FF4487000F09CFA9A
:103370004FF496724FF4C871022000F0FBFC4FF43A
:1033800096724FF4F471032000F0F4FC4FF496723F
:10339000FD21062000F0EEFC00F046FD4FF4FA702F
:1033A00000F082FA4FF4967240F26E21012000F094
:1033B000E1FC4FF4967240F2B711022000F0DAFC03
:1033C0004FF496724FF4E771032000F0D3FC4FF4F2
:1033D000967240F26F11042000F0CCFC4FF496720C
:1033E0001146052000F0C6FC4FF49672AA21062073
:1033F00000F0C0FC00F018FD4FF4487000F054FAE3
:103400004FF47A7000F050FA4FF4FA72D22108208B
:1034100000F0B0FC00F008FD4FF47A7000F044FAC0
:10342000C82000F041FA78224FF4F371052000F033
:10343000A1FC4FF4967240F24711092000F09AFC6B
:1034400000F0F2FC4FF47A7000F02EFA4FF4AF72F5
:103450004FF40671082000F08DFC4FF4AF724FF46A
:103460004D710A2000F086FC96224FF4E971092084
:1034700000F080FC00F0D8FC4FF47A7000F014FAF1
:10348000FA2240F2E511062000F074FC00F0CCFCBA
:103490004FF4487000F008FA4FF4967240F26F1142
:1034A000072000F067FC4FF4967240F2D721082005
:1034B00000F060FC4FF496724FF41471092000F094
:1034C00059FC4FF4967240F262210A2000F052FC3F
:1034D00000F0AAFC4FF47A7000F0E6F94FF4AF72F6
:1034E0004FF4E471012000F045FC4FF4AF7240F25C
:1034F0007721022000F03EFC4FF4AF7240F223111E
:10350000032000F037FC4FF4AF724FF40271042037
:1035100000F030FC00F088FC4FF47A7000F0C4F941
:103520004FF4967240F22E31062000F023FC4FF447
:1035300096724FF4CB71082000F01CFC4FF4967289
:103540004FF42F710A2000F015FC00F06DFC4FF4D1
:103550007A7000F0A9F94FF4AF729C21062000F0B8
:1035600009FC00F061FC4FF47A7000F09DF94FF413
:10357000487000F099F94FF496724FF42F710820BB
:1035800000F0F8FB4FF4967240F2B6310A2000F0DA
:10359000F1FB00F049FC4FF47A7000F085F94FF42C
:1035A000AF7240F22E31062000F0E4FB00F03CFC4C
:1035B0004FF47A7000F078F94FF496724FF4CB71B3
:1035C000082000F0D7FB4FF496724FF42F710A20B9
:1035D00000F0D0FB00F028FC4FF47A7000F064F9A2
:1035E0004FF4AF729C21062000F0C4FB00F01CFCDD
:1035F0004FF47A7000F058F94FF4487000F054F925
:103600004FF496724FF42F71082000F0B3FB4FF483
:10361000967240F2B6310A2000F0ACFB00F004FCD8
:103620004FF47A7000F040F94FF4AF7240F22E314F
:10363000062000F09FFB00F0F7FB4FF47A7000F0DB
:1036400033F94FF4967240F2E511062000F092FB38
:103650004FF4967240F2F111072000F08BFBFA2232
:103660004FF45671082000F085FB4FF496724FF42A
:10367000E971092000F07EFB4FF4A0724FF4FA715B
:103680000A2000F077FB00F0CFFB4FF47A7000F0D7
:103690000BF94FF47A7000F007F94FF4967240F28C
:1036A0009321012000F066FB4FF4967240F2B711AF
:1036B000022000F05FFB4FF496724FF4E771032095
:1036C00000F058FB4FF4967240F28311042000F092
:1036D00051FB9622A821062000F04CFB00F0A4FB31
:1036E0004FF47A7000F0E0F84FF4967000F0DCF8D8
:1036F0004B224FF4AF71052000F03CFB00F094FB2F
:103700004FF47A7000F0D0F84FF4967240F21F2117
:10371000012000F02FFB4FF496724FF4CC71022081
:1037200000F028FB4FF4967240F2E911032000F0FC
:1037300021FB4FF4967240F20E21042000F01AFB98
:103740004FF4967240F29B21052000F013FB00F02D
:103750006BFB4FF4487000F0A7F84FF49672A82165
:10376000022000F007FB4FF496724FF432710320F1
:1037700000F000FB4FF496724FF44871052000F002
:10378000F9FA4FF49672B721062000F0F3FA4FF4DD
:10379000967240F2EF11072000F0ECFA00F044FBC3
:1037A0004FF47A7000F080F84FF4967240F2C7112F
:1037B000012000F0DFFA4FF49672DF21022000F0C2
:1037C000D9FA4FF4967240F2C121032000F0D2FAE8
:1037D0004FF4967240F23121042000F0CBFA4FF4FE
:1037E000967240F2E511052000F0C4FA4FF496728B
:1037F00040F2E511062000F0BDFA4FF4967240F257
:10380000EF11072000F0B6FA00F00EFB4FF47A70CB
:1038100000F04AF84FF47A7000F046F84FF47A70EE
:1038200000F042F810BD70474FF0E021096921F027
:1038300004014FF0E0221161C21700EB5272C2F393
:10384000C7022B4B1A701946097801EB4102C2EBF3
:10385000C1114FF6FF7202EAC101264A118070477A
:103860000146234A12784A434FF0E0235A6100226E
:103870009A611A46126942F001021A6100BF4FF0C4
:10388000E022106900F001021AB100F48032002A2F
:10389000F5D04FF0E022126922F001024FF0E02350
:1038A0001A6100229A6170470146124A12884A43FF
:1038B0004FF0E0235A6100229A611A46126942F0E1
:1038C00001021A6100BF4FF0E022106900F001020E
:1038D0001AB100F48032002AF5D04FF0E0221269CC
:1038E00022F001024FF0E0231A6100229A61704732
:1038F000140000201600002010B54FF4A06000F066
:10390000FBFA10BD3A4A0A4002433A4B1A6070472C
:1039100000B5002038490861C860142048610020C3
:103920008861C8610846006840F0010008600846E8
:1039300040683249084030494860084600683049CC
:1039400008402D4908600846006820F4802008607F
:103950000846406820F4FE0048600020886000218E
:103960004FF00060FFF7CEFF00BD30B504460025E4
:10397000FFF7CEFF2048006840F480301E49086001
:1039800000BF1D480068400C0028FAD04FF480604A
:1039900019494860A01EC4B20846406840EA844005
:1039A00048600846406840F4803048601548006828
:1039B00040F03200134908600F48006840F0807002
:1039C0000D49086000BF0C480068400E0028FAD07E
:1039D0000948406840F002000749486005E0064891
:1039E0004068C0F3870505F00305022DF7D130BD0F
:1039F00080FFFF1F08ED00E0001002400000FFF80C
:103A0000FFFFF6FE00200240014600BF704770B580
:103A100004460D4600BF4021FE4801F005F800288D
:103A2000F9D0E1B2FB4800F091FF204670BD10B51F
:103A300086B004460121080500F0F5FD01211020A3
:103A400000F0E4FD0121202000F0E0FD4FF4805063
:103A5000ADF8140003208DF8160018208DF817001B
:103A600005A9ED4800F016FB4FF48050ADF81400A6
:103A700010208DF8170003208DF8160005A9E748DF
:103A800000F008FB4FF48051E44800F0B0FB0194D3
:103A90000020ADF80800ADF80A00ADF80C00ADF854
:103AA00010000C20ADF80E0001A9DA4800F055FE18
:103AB0000121D84800F0DDFE06B010BD7047D549A1
:103AC000888000BFD349098801F040010029F9D05E
:103AD00070472DE9FC5F06460C4615460027B846A0
:103AE000B946BA46BB46002001900090B5F5806FFC
:103AF00002DB40F2FF3700E02F46B4F5806F02DBB7
:103B000040F2FF3800E0A0464FEA272907F0FF0AFD
:103B10004FEA282B08F0FF000190FF20FFF7CFFFAE
:103B2000FF20FFF7CCFF3046FFF7C9FF0720FFF764
:103B3000C6FF0320FFF7C3FF0620FFF7C0FF019871
:103B4000FFF7BDFF5846FFF7BAFF5046FFF7B7FF34
:103B50004846FFF7B4FF06F11000019908445844A5
:103B600050444844C0B200900098C043C0B2009096
:103B70000098FFF7A4FF00BFA648008800F04000AF
:103B80000028F9D00220FFF78FFEBDE8FC9F2DE949
:103B9000FC5F06460C4615460027B846B946BA46AD
:103BA000BB46002001900090B5F5806F02DB40F22B
:103BB000FF3700E02F46B4F5806F02DB40F2FF389C
:103BC00000E0A0464FEA272907F0FF0A4FEA282B1A
:103BD00008F0FF000190FF20FFF771FFFF20FFF7C3
:103BE0006EFF3046FFF76BFF0720FFF768FF0320EB
:103BF000FFF765FF1E20FFF762FF0198FFF75FFFE9
:103C00005846FFF75CFF5046FFF759FF4846FFF75D
:103C100056FF06F12800019908445844504448448E
:103C2000C0B200900098C043C0B200900098FFF767
:103C300046FF00BF7748008800F040000028F9D018
:103C40000220FFF731FEBDE8FC9F2DE9F04F8BB05D
:103C500081460C4615461E46DDE914784FF0000AF1
:103C6000D34600200A90099008900790069005908E
:103C700004900390029001900090A346AA460597F5
:103C8000CDF818804FEA2A200A900AF0FF00099028
:103C90004FEA2B2008900BF0FF000790DDF818800A
:103CA0004FEA28200490DDF8188008F0FF00039008
:103CB000059F38120290059FF8B20190FF20FFF790
:103CC000FEFEFF20FFF7FBFEFE20FFF7F8FE0E20B2
:103CD000FFF7F5FE8320FFF7F2FE1E20FFF7EFFE51
:103CE0000420FFF7ECFE4846FFF7E9FE0798FFF7D0
:103CF000E6FE0898FFF7E3FE0998FFF7E0FE0A9852
:103D0000FFF7DDFE3046FFF7DAFE0198FFF7D7FE3A
:103D10000298FFF7D4FE0398FFF7D1FE0498FFF74F
:103D2000CEFE09F2B11081190798014408980144A8
:103D3000099801440A9801440198014402980144F9
:103D40000398014404980844C0B200900098C0430E
:103D5000C0B200900098FFF7B2FE00BF2D48008867
:103D600000F040000028F9D00220FFF79DFD0BB0C5
:103D7000BDE8F08F2DE9FC5F06460C46154600278E
:103D8000B846B946BA46BB460020019000902F467F
:103D9000A0464FEA272907F0FF0A4FEA282B08F030
:103DA000FF000190FF20FFF78AFEFF20FFF787FE4C
:103DB0003046FFF784FE0720FFF781FE0420FFF75F
:103DC0007EFE1E20FFF77BFE0198FFF778FE584627
:103DD000FFF775FE5046FFF772FE4846FFF76FFE8D
:103DE00006F1290001990844584450444844C0B29F
:103DF00000900098C043C0B200900098FFF75FFEAB
:103E000000BF0448008800F040000028F9D00220DC
:103E100006E0000000500040001001400014014086
:103E2000FFF742FDBDE8FC9F10B50024FF20FFF71F
:103E300046FEFF20FFF743FEFE20FFF740FE022074
:103E4000FFF73DFE0520FFF73AFE0524E043C4B22C
:103E50002046FFF734FE00BF1648008800F04000FF
:103E60000028F9D00220FFF71FFD10BD70B50446F1
:103E70000025FF20FFF723FEFF20FFF720FE20464E
:103E8000FFF71DFE0220FFF71AFE0120FFF717FEC5
:103E9000E01CC5B2E843C5B22846FFF710FE00BFDC
:103EA0000448008800F040000028F9D00220FFF705
:103EB000FBFC70BD0050004009488047094800479E
:103EC000FEE7FEE7FEE7FEE7FEE7FEE7FEE7FEE7CA
:103ED000FEE7FEE704480549054A064B7047000027
:103EE0001B0300083101000890000020900600200C
:103EF000900200209002002031490143314A1160B4
:103F0000704770B5002100230F22C47804B32D4CF4
:103F1000246804F4E064C4F5E064210AC1F10403F8
:103F2000CA40447804FA03F184781440214309011B
:103F3000254C0678A155047804F01F050124AC40F7
:103F400005786D11AD0005F1E025C5F8004109E0E7
:103F5000047804F01F050124AC401C4D067876114E
:103F600045F8264070BD1A4A0A400243154B1B1FF4
:103F70001A60704739B1134A121D12680243114B7F
:103F80001B1D1A6006E00F4A121D126882430D4B7A
:103F90001B1D1A607047042808D14FF0E021096901
:103FA00041F004014FF0E022116107E04FF0E02101
:103FB000096921F004014FF0E0221161704700000F
:103FC0000000FA050CED00E000E400E080E100E014
:103FD00080FFFF1F10B50446CC48844208D1012160
:103FE000042000F02DFB0021042000F029FB46E016
:103FF000C748844208D10121082000F021FB00219C
:10400000082000F01DFB3AE0C248844208D101219B
:10401000102000F015FB0021102000F011FB2EE015
:10402000BD48844208D10121202000F009FB002175
:10403000202000F005FB22E0B848844208D101218D
:10404000402000F0FDFA0021402000F0F9FA16E0CF
:10405000B348844208D10121802000F0F1FA002108
:10406000802000F0EDFA0AE0AE48844207D1012139
:10407000801500F0E5FA0021A01500F0E1FA10BD6E
:1040800010B50121084600F0DBFA0021012000F004
:10409000D7FA10BD2DE9F041024600250026002088
:1040A00000230024002791F803C00CF00F0591F8BD
:1040B00003C00CF0100CBCF1000F03D091F802C04B
:1040C0004CEA050591F800C0BCF1000F31D014682E
:1040D00000202BE04FF0010C0CFA00F3B1F800C007
:1040E0000CEA03069E4220D183004FF00F0C0CFA1D
:1040F00003F7BC4305FA03FC4CEA040491F803C03F
:10410000BCF1280F06D14FF0010C0CFA00FCC2F8EC
:1041100014C00AE091F803C0BCF1480F05D14FF07C
:10412000010C0CFA00FCC2F810C0401C0828D1D3C6
:104130001460B1F800C0BCF1FF0F34DD54680020FA
:104140002EE000F1080C4FF0010808FA0CF3B1F86A
:1041500000C00CEA03069E4221D183004FF00F0CF1
:104160000CFA03F7BC4305FA03FC4CEA040491F88B
:1041700003C0BCF1280F05D100F1080C08FA0CF8B7
:10418000C2F8148091F803C0BCF1480F07D100F1C8
:10419000080C4FF0010808FA0CF8C2F81080401C17
:1041A0000828CED35460BDE8F0814FF6FF7101803E
:1041B000022181700421C17070470246002093687B
:1041C0000B400BB1012000E00020704701468868D9
:1041D00080B2704702460020D3680B400BB101202B
:1041E00000E0002070470146C86880B27047016156
:1041F0007047416170470AB1016100E04161704759
:10420000C16070474FF480320A43826181618261EC
:1042100082698269704702460020434B18684FF656
:104220008073184040EA021008433F4B1860704703
:104230003E49C8617047F0B50A46002300240021BA
:10424000002500F00046B6F1004F02D1364EF1696C
:1042500001E0354E7168C0F3034583B200F44016A7
:10426000B6F5401F08D121F070612F4E766826F018
:1042700070662D4F7E6012E000F48016B6F5801F48
:1042800006D1032606FA05F4A14341F0706106E069
:10429000460D360103FA06F6B14341F0706122B1D2
:1042A000460D360103FA06F6314300F00046B6F13A
:1042B000004F02D11C4EF16101E01B4E7160F0BD58
:1042C00030B500228B071C0F0F2303FA04F2164BA4
:1042D00008338C1053F824309343134C08348D105A
:1042E00044F8253023468C1053F824308C07240FD3
:1042F00000FA04F423430C4C08348D1044F82530A4
:1043000030BD0A49DC3108607047000000080140F8
:10431000000C014000100140001401400018014051
:10432000001C01400020014000000140000020422C
:10433000DF48006840F00100DD4908600846406839
:10434000DC490840DA49486008460068DA49084014
:10435000D74908600846006820F4802008600846B5
:10436000406820F4FE0048604FF41F0088607047EA
:10437000CF49096821F48031CD4A1160114609689E
:1043800021F480211160B0F5803F03D0B0F5802F7B
:104390000ED106E0C649096841F48031C44A116073
:1043A00007E0C349096841F4A021C14A116000E057
:1043B00000BF00BF704710B5014600220023002057
:1043C0004A11012A02D1BA4C236806E0022A02D11E
:1043D000B74C236A01E0B64C636A01F01F02012466
:1043E00094401C400CB1012000E0002010BD38B505
:1043F000002000900024002500BF3120FFF7DBFFE4
:1044000005460098401C00900098B0F5A06F01D0C0
:10441000002DF2D03120FFF7CEFF08B1012400E0DB
:104420000024204638BD01460020A14A106820F033
:10443000F80040EAC10010607047A049086070476A
:10444000024600209A4B586820F47C1042EA01038F
:104450001843974B58607047984908667047014663
:104460000020934A506820F00300084350607047D2
:104470008F48406800F00C007047014600208C4ACD
:10448000506820F0F000084350607047014600205B
:10449000874A506820F4E060084350607047014646
:1044A0000020834A506820F4605040EAC100506008
:1044B000704729B17E4A527A02437D4B5A7204E01A
:1044C0007B4A527A82437A4B5A7270477B49D83181
:1044D0000860704701460020754A506820F440404B
:1044E0000843506070470021714A20321170704AB1
:1044F00082F82010012802D004280AD104E001210A
:104500006B4A2032117005E00521694A2032117092
:1045100000E000BF00BF7047694908607047644908
:10452000096A0143624A116270476549443908606B
:10453000704730B500210022002400235C4D6D68D7
:1045400005F00C0121B1042905D0082923D105E08B
:104550005C4D056022E05B4D05601FE0544D6D68C9
:1045600005F47012524D6D6805F48034022505EB98
:1045700092421CB9544D554305600BE04C4D6D689B
:1045800005F400351DB1504D5543056002E04D4D19
:104590005543056002E04B4D056000BF00BF444D30
:1045A0006D6805F0F0010909484D6B5C0568DD4058
:1045B00045603F4D6D6805F4E061090A434D6B5C51
:1045C0004568DD4085603A4D6D6805F46051C90A63
:1045D0003E4D6B5C4568DD40C560354D6D6805F44A
:1045E0004041890B3A4D6B5CC568B5FBF3F505613D
:1045F00030BD29B12E4A526902432D4B5A6104E065
:104600002B4A526982432A4B5A61704729B1284A82
:1046100092690243264B9A6104E0254A92698243DB
:10462000234B9A61704729B1214AD2690243204B3A
:10463000DA6104E01E4AD26982431D4BDA61704799
:1046400029B11B4AD2680243194BDA6004E0184AC8
:10465000D2688243164BDA60704729B1144A126956
:104660000243134B1A6104E0114A12698243104B52
:104670001A61704712494039086070470F49C86491
:1046800070470B49C87170470948406A40F0807014
:1046900007494862704701460020054A92680A406F
:1046A0000AB1012000E0002070470149887270477C
:1046B000001002400000FFF8FFFFF6FE000042423B
:1046C0008004424200127A0000093D0018000020D8
:1046D0002800002010B50446FB48844209D101217E
:1046E0008803FFF7ADFF00214FF48040FFF7A8FFDC
:1046F00032E0F648844209D101214804FFF7ADFFBA
:1047000000214FF40030FFF7A8FF25E0F048844275
:1047100009D101218804FFF7A0FF00214FF4802078
:10472000FFF79BFF18E0EB48844209D10121C80440
:10473000FFF793FF00214FF40020FFF78EFF0BE0FF
:10474000E548844208D101210805FFF786FF0021D2
:104750004FF48010FFF781FF10BD2DE9F04786B0C0
:1047600005460E460024A24600BFA1460027B08998
:1047700000B100BF2F462C8A4CF6FF700440F08831
:1047800004432C82AC894EF6F3100440B088318982
:104790000843718908430443AC81AC8A4FF6FF405B
:1047A0000440B0890443AC8201A8FFF7C2FEC648AA
:1047B000874202D1DDF810A001E0DDF80CA0A88945
:1047C00000F4004040B10AEBCA0000EB0A10316867
:1047D0004900B0FBF1F807E00AEBCA0000EB0A1051
:1047E00031688900B0FBF1F86420B8FBF0F00401F7
:1047F0002009642101FB1089A88900F4004040B120
:10480000322000EBC900B0FBF1F000F007000443D8
:1048100008E0322000EB09106421B0FBF1F000F059
:104820000F0004432C8106B0BDE8F0874FF4165109
:10483000016000218180C18001810C214181002122
:104840008181704710B502460020108A4FF2FF03A5
:1048500018400B884C8823438C882343CC882343FF
:104860001843108210BD0021018041808180C180E9
:10487000704721B1828942F40052828104E082892A
:104880004DF6FF731A4082817047F0B5034600244D
:1048900000260025002040F66A17B94200D100BF6B
:1048A0001846C1F3421401F01F06012707FA06F566
:1048B000012C01D10C3004E0022C01D1103000E0B9
:1048C00014301AB107682F43076002E00768AF434E
:1048D0000760F0BD1AB1838A0B43838202E0838AAA
:1048E0008B4383827047028A4FF6F0731A4002822C
:1048F000028A0A430282704782894FF2FF731A408C
:10490000828182890A438281704721B1828942F083
:104910000202828104E082894FF6FD731A4082818F
:104920007047028A4FF6DF731A400282028A0A43F6
:104930000282704721B1028A42F48042028204E07E
:10494000028A4BF6FF731A4002827047C1F30802D5
:104950008280704701468888C0F3080070478189CB
:1049600041F0010181817047028BD2B20283028B38
:1049700042EA012202837047028B02F47F420283E3
:10498000028B0A430283704721B1828A42F02002DF
:10499000828204E0828A4FF6DF731A408282704777
:1049A00021B1828A42F01002828204E0828A4FF6AC
:1049B000EF731A408282704721B1828A42F0080266
:1049C000828204E0828A4FF6F7731A40828270472F
:1049D00021B1828942F40042828103E08289C2F3DC
:1049E0000E028281704721B1828A42F40062828283
:1049F00004E0828A4FF2FF731A4082827047828AF3
:104A00004FF6FB731A408282828A0A438282704781
:104A100021B1828A42F00202828204E0828A4FF649
:104A2000FD731A408282704702460020B1F5007F74
:104A300000D100BF13880B400BB1012000E0002023
:104A4000704701F40072B2F5007F00D100BFCA4385
:104A50000280704770B50246002400230025002024
:104A600040F66A16B14200D100BFC1F3421501F011
:104A70001F03012606FA03F3012D02D19689334064
:104A800006E0022D02D1168A334001E0968A3340B7
:104A90000C12012606FA04F41688344013B10CB146
:104AA000012000E0002070BD10B50022002340F678
:104AB0006A14A14200D100BF0A1201249440A3B29B
:104AC000DC43048010BD0000003801400044004079
:104AD00000480040004C00400050004070477047C4
:104AE0007047754600F02CF8AE46050069465346FF
:104AF00020F00700854618B020B5FFF7EBF9BDE8B8
:104B000020404FF000064FF000074FF000084FF034
:104B1000000B21F00701AC46ACE8C009ACE8C009C5
:104B2000ACE8C009ACE8C0098D46704710B5044632
:104B3000AFF300802046BDE81040FBF740BB00000B
:104B4000004870472C000020684B0008000000203F
:104B50002C0000006C010008944B00082C00002081
:104B6000640600008801000800A24A04000000005A
:104B7000000000000102030406070809000000000D
:104B800000000000010203040102030406070809F3
:044B9000020406080D
:0400000508000131BD
:00000001FF
