:020000040800F2
:1000000090060020C93E00082502000827020008CB
:100010002B0200082F020008330200080000000035
:10002000000000000000000000000000370200088F
:1000300039020008000000003B0200083D020008F1
:10004000E33E0008E33E0008E33E0008E33E00080C
:10005000E33E0008E33E0008E33E0008E33E0008FC
:10006000E33E0008E33E0008E33E0008E33E0008EC
:10007000E33E0008E33E0008E33E0008E33E0008DC
:10008000E33E0008E33E0008E33E0008E33E0008CC
:10009000E33E0008E33E0008E33E0008E33E0008BC
:1000A000E33E0008E33E0008E33E0008E33E0008AC
:1000B000E33E0008E33E0008E33E0008E33E00089C
:1000C000E33E0008E33E0008E33E0008E33E00088C
:1000D000E33E0008E33E0008E33E0008E33E00087C
:1000E000E33E0008E33E0008E33E0008E33E00086C
:1000F000E33E0008E33E0008E33E0008E33E00085C
:10010000E33E0008E33E0008E33E0008E33E00084B
:10011000E33E0008CD3A0008E33E0008E33E000855
:10012000E33E0008E33E0008E33E0008E33E00082B
:1001300000F002F800F03AF80AA090E8000C8244BF
:100140008344AAF10107DA4501D100F02FF8AFF29C
:10015000090EBAE80F0013F0010F18BFFB1A43F0A5
:1001600001031847F4490000144A0000103A24BF64
:1001700078C878C1FAD8520724BF30C830C144BF0C
:1001800004680C607047000000230024002500264E
:10019000103A28BF78C1FBD8520728BF30C148BFEA
:1001A0000B6070471FB51FBD10B510BD04F0A1FC5A
:1001B0001146FFF7F7FF00F009F804F0BFFC03B4A5
:1001C000FFF7F2FF03BC03F027FC0000092003F057
:1001D000D4FB482003F030FB114803F030FC00F062
:1001E0001FF940F2FF3200210A2003F07AFC40F2AE
:1001F000FF3200210C2003F074FC0FE04FF47A7002
:1002000003F05AFB00F032F94FF4FA7003F054FB9C
:1002100000F02CF901F0DFFE00BFFEE7EEE7000082
:1002200020A10700704700BFFEE700BFFEE700BF48
:10023000FEE700BFFEE77047704770477047000059
:100240000CB50020019000906C48006840F48030AC
:100250006A49086000BF6948006800F400300090F7
:100260000198401C0190009818B90198B0F5A06F52
:10027000F1D16248006800F4003010B10120009014
:1002800001E0002000900098012843D15C480068FC
:1002900040F010005A4908600846006820F003004A
:1002A00008600846006840F0020008605348406853
:1002B000524948600846406848600846406840F433
:1002C000806048600846406820F47C10486008461A
:1002D000406840F4E81048600846006840F08070CC
:1002E000086000BF4548006800F000700028F9D0A1
:1002F0004248406820F00300404948600846406892
:1003000040F00200486000BF3C48406800F00C002C
:100310000828F9D10CBD10B5FFF792FF10BD10B53C
:100320003648006840F001003449086008464068DB
:10033000344908403149486008460068324908405D
:100340002E4908600846006820F4802008600846AE
:10035000406820F4FE0048604FF41F008860FFF7FB
:10036000DAFF4FF000602949086010BD10B5002188
:1003700000200022214B5B6803F00C0121B104290D
:1003800006D0082928D107E0214B224C236027E022
:100390001F4B204C236023E0184B5B6803F4701064
:1003A000164B5B6803F48032022303EB904022B9C2
:1003B000194B4343174C23600DE0104B5B6803F46B
:1003C000003323B1144B4343124C236003E0104B22
:1003D0004343104C236003E00D4B0E4C236000BFE1
:1003E00000BF064B5B68C3F303130C4CE15C094B85
:1003F0001B68CB40074C236010BD0000001002407A
:10040000002002400000FFF8FFFFF6FE08ED00E0CC
:1004100000127A000000002000093D0004000020C6
:1004200008B50121482004F0F9F82020ADF80000BB
:1004300010208DF8030003208DF80200694609485A
:1004400003F030FE2021074803F0D9FE2020ADF84C
:1004500000006946044803F025FE2021024803F00D
:10046000CEFE08BD000C01400018014010B54FF44D
:10047000967240F2C711012003F084FC4FF496728B
:10048000DF21022003F07EFC4FF4967240F2C1217E
:10049000032003F077FC4FF4967240F231210420E0
:1004A00003F070FC4FF4967240F2E511052003F062
:1004B00069FC4FF4967240F2E511062003F062FCED
:1004C0004FF4967240F2F111072003F05BFC4FF4F9
:1004D00096724FF45671082003F054FC4FF4967254
:1004E0004FF4E971092003F04DFC4FF496724FF47C
:1004F000FA710A2003F046FC03F09EFC10BD10B513
:100500004FF4967240F21511062003F048FB4FF4A9
:10051000FA7003F0D1F94FF496724FF4F871062097
:1005200003F03DFB4FF4FA7003F0C6F910BD10B5AF
:100530004FF496724FF4FD71012003F023FC4FF449
:10054000FA7240F27D21022003F01CFC03F074FCDF
:100550004FF42F7003F0B0F94FF4FA7240F2E72134
:10056000012003F00FFCC82240F2B721022003F063
:1005700009FC03F061FC4FF4FA7003F09DF94FF4AD
:10058000FA72911D012003F0FDFBC82240F27D218B
:10059000022003F0F7FB03F04FFC4FF4FA7003F076
:1005A0008BF94FF4FA7240F2E721012003F0EAFBE5
:1005B000C82240F27D21022003F0E4FB03F03CFC62
:1005C0004FF4FA7003F078F94FF4967240F2C711C5
:1005D000012003F0D7FB4FF4FA72DF21022003F071
:1005E000D1FB03F029FC4FF47A7003F065F94FF466
:1005F0007A7003F061F94FF4967003F05DF910BD65
:1006000010B54FF4C8724FF4F571012003F0BAFB36
:100610004FF4E172F721022003F0B4FB4FF496721D
:1006200040F28A21032003F0ADFB4FF4AF724FF488
:100630000A71042003F0A6FB4FF4167240F2533106
:10064000052003F09FFB4FF4FA72F021062003F01F
:1006500099FB03F0F1FB4FF4487003F02DF94FF4D0
:1006600096724FF4C871022003F08CFB4FF496721F
:100670004FF4F471032003F085FB4FF49672FD21D3
:10068000062003F07FFB03F0D7FB4FF4FA7003F072
:1006900013F94FF4967240F29321012003F072FB9C
:1006A0004FF4967240F2B711022003F06BFB4FF447
:1006B00096724FF4E771032003F064FB4FF49672D7
:1006C00040F28311042003F05DFB4FF496724FF467
:1006D000A071052003F056FB4FF49672AA21062064
:1006E00003F050FB03F0A8FB4FF4487003F0E4F86C
:1006F0004FF47A7003F0E0F84FF4FA72D221082038
:1007000003F040FB03F098FB4FF47A7003F0D4F849
:10071000C82003F0D1F8C8224FF4F371052003F08C
:1007200031FB4FF4967240F24711092003F02AFB87
:1007300003F082FB4FF47A7003F0BEF84FF4AF720F
:1007400040F2E511072003F01DFB4FF496724FF4C1
:100750000571082003F016FB4FF496724FF4E9710F
:10076000092003F00FFB4FF496724FF44D710A20ED
:1007700003F008FB03F060FB4FF47A7003F09CF881
:100780004FF4967240F2E511062003F0FBFA03F0F5
:1007900053FB4FF47A7003F08FF84FF4967240F2E7
:1007A000F111072003F0EEFA4FF496724FF45671F0
:1007B000082003F0E7FA4FF496724FF4FA710A201A
:1007C00003F0E0FA03F038FB4FF47A7003F074F8AA
:1007D0004FF4167003F070F8C82240F21E31062064
:1007E00003F0D0FA03F028FB4FF4487003F064F8EC
:1007F0004FF4967240F29321012003F0C3FA4FF4B4
:10080000967240F2B711022003F0BCFA4FF49672D0
:100810004FF4E771032003F0B5FA4FF4967240F2FB
:100820008311042003F0AEFA4B224FF4237105200C
:1008300003F0A8FA03F000FB4FF47A7003F03CF8E1
:100840004FF4FA7003F038F84FF4967240F22E210C
:10085000012003F097FAC8224FF4CE71022003F072
:1008600091FAC8224FF4F671032003F08BFA4FF48B
:10087000967240F2E511042003F084FA4FF4967268
:100880007B21052003F07EFA03F0D6FA4FF47A704C
:1008900003F012F84FF4FA7003F00EF84FF496726A
:1008A00040F21F21012003F06DFA4FF49672A82147
:1008B000022003F067FA4FF496724FF4327103206E
:1008C00003F060FA4FF4967240F20E21042003F018
:1008D00059FA4FF49672AA21052003F053FA4FF407
:1008E000967240F21331062003F04CFA03F0A4FA9A
:1008F0004FF47A7002F0E0FF4FF4967240F2C711A5
:10090000012003F03FFA4FF49672DF21022003F03A
:1009100039FA4FF4967240F2C121032003F032FA03
:100920004FF4967240F23121042003F02BFA4FF479
:10093000967240F2E511052003F024FAC82240F235
:10094000E511062003F01EFA03F076FA4FF47A70F0
:1009500002F0B2FF4FF47A7002F0AEFF4FF47A70FB
:1009600002F0AAFF10BD10B54FF4967240F2C91103
:10097000012003F007FA4FF49672E021022003F001
:1009800001FA4FF4967240F2C121032003F0FAF904
:100990004FF4AF7240F22E21042003F0F3F94FF42C
:1009A0009672A321052003F0EDF94FF4967240F200
:1009B000D221062003F0E6F903F03EFA4FF47A70F4
:1009C00002F07AFF4FF4967002F076FF4FF49672C1
:1009D00040F2AF11022003F0D5F94FF496724FF4B4
:1009E000FF71032003F0CEF94FF496729D2105208C
:1009F00003F0C8F94FF496724FF43171062003F0FA
:100A0000C1F903F019FA4FF47A7002F055FF4FF470
:100A1000967240F29321012003F0B4F94FF49672DC
:100A200040F2B711022003F0ADF94FF496724FF483
:100A3000E771032003F0A6F94FF4967240F2831198
:100A4000042003F09FF94FF496724FF41D710520B6
:100A500003F098F94FF4967240F21731062003F034
:100A600091F903F0E9F94FF47A7002F025FF4FF4A1
:100A70007A7002F021FF4FF4FA72D221082003F0BD
:100A800081F903F0D9F94FF47A7002F015FF4FF4B1
:100A9000967002F011FF4FF4967240F24711092050
:100AA00003F070F996224FF4F371052003F06AF910
:100AB00003F0C2F94FF47A7002F0FEFE4FF4AF7209
:100AC00040F2E511072003F05DF94FF496724FF400
:100AD0000571082003F056F94FF496724FF4E9714E
:100AE000092003F04FF94FF496724FF44D710A202C
:100AF00003F048F903F0A0F94FF47A7002F0DCFE3D
:100B00004FF4967240F2E511062003F03BF903F032
:100B100093F94FF47A7002F0CFFE4FF4967240F2E0
:100B2000F111072003F02EF94FF496724FF456712D
:100B3000082003F027F94FF496724FF4E971092069
:100B400003F020F94FF496724FF4FA710A2003F083
:100B500019F903F071F94FF47A7002F0ADFE4FF419
:100B6000167002F0A9FE9622A821062003F00AF9C9
:100B700003F062F94FF47A7002F09EFE40F22620F4
:100B800002F09AFE4B224FF49F71052003F0FAF811
:100B900003F052F94FF47A7002F08EFE4FF4967221
:100BA00040F21F21012003F0EDF84FF496724FF44C
:100BB000CC71022003F0E6F84FF4967240F2E9118E
:100BC000032003F0DFF84FF4967240F20E21042068
:100BD00003F0D8F84FF4967240F29B21052003F001
:100BE000D1F803F029F94FF4487002F065FE4FF494
:100BF0009672A821022003F0C5F84FF496724FF4C4
:100C00003271032003F0BEF84FF496724FF448712E
:100C1000052003F0B7F84FF49672B721062003F0D1
:100C2000B1F84FF4967240F2EF11072003F0AAF8E2
:100C300003F002F94FF47A7002F03EFE4FF4967220
:100C400040F2C711012003F09DF84FF49672DF21A6
:100C5000022003F097F84FF4967240F2C12103206E
:100C600003F090F84FF4967240F23121042003F023
:100C700089F84FF4967240F2E511052003F082F8EE
:100C80004FF4967240F2E511062003F07BF84FF422
:100C9000967240F2EF11072003F074F803F0CCF8DD
:100CA0004FF47A7002F008FE4FF47A7002F004FEFE
:100CB0004FF47A7002F000FE10BD10B54FF4C87208
:100CC0004FF4F571012003F05DF84FF4E172F72164
:100CD000022003F057F84FF4967240F28A21032065
:100CE00003F050F84FF4AF724FF40A71042003F090
:100CF00049F84FF4167240F25331052003F042F8E0
:100D00004FF4FA72F021062003F03CF803F094F857
:100D10004FF47A7002F0D0FDC82002F0CDFD4FF400
:100D2000967240F26F11012003F02CF8FA22A921EB
:100D3000022003F027F8FA2240F2BB21032003F03F
:100D400021F84FF496724FF4FF71042003F01AF863
:100D50004FF4967240F2CD21052003F013F84FF4C2
:100D6000967240F2AF11062003F00CF84FF4967221
:100D70004FF4F871072003F005F84FF496724FF422
:100D80005671082002F0FEFF4FF4967240F2D9111E
:100D9000092002F0F7FF4FF4967240F2DD110A20AD
:100DA00002F0F0FF03F048F84FF47A7002F084FD8F
:100DB000C82002F081FD4FF49672FE21032002F05C
:100DC000E1FF4FF4FA7240F20D11042002F0DAFF55
:100DD000C82240F2F111072002F0D4FFC8224FF4DC
:100DE0005671082002F0CEFFC8224FF4E9710920A5
:100DF00002F0C8FFC8224FF4FA710A2002F0C2FFC5
:100E000003F01AF84FF47A7002F056FD4FF41670A2
:100E100002F052FD4FF4C872B721012002F0B2FF78
:100E2000C82240F21711022002F0ACFF03F004F8D0
:100E30004FF4167002F040FD4FF4C87240F26F118B
:100E4000012002F09FFFC822A921022002F09AFF90
:100E500002F0F2FF4FF4167002F02EFD4FF4C8724C
:100E6000B721012002F08EFFC82240F217110220A4
:100E700002F088FF02F0E0FF4FF4167002F01CFD54
:100E80004FF4C87240F26F11012002F07BFFC822BC
:100E9000A921022002F076FF02F0CEFF4FF4167077
:100EA00002F00AFD4FF4FA7240F2BB21032002F077
:100EB00069FF4FF4AF724FF40471042002F062FF37
:100EC00002F0BAFF4FF47A7002F0F6FC4FF496721B
:100ED00040F2F111012002F055FFFA22EA2102202E
:100EE00002F050FF4FF496724FF42471032002F089
:100EF00049FFFA224FF40971042002F043FF4FF436
:100F0000C87240F23E31052002F03CFF4FF4C87237
:100F10009521062002F036FF4FF4C87240F2DD1131
:100F2000072002F02FFF4FF4E17240F24131082018
:100F300002F028FF4FF4C8724FF4EA71092002F062
:100F400021FF4FF4C87240F2DD110A2002F01AFFAF
:100F500002F072FF4FF47A7002F0AEFC4FF496721A
:100F60004FF4E471012002F00DFF4FF49672D82186
:100F7000022002F007FF4FF496724FF43071032005
:100F800002F000FF4FF4967240F23121042002F08B
:100F9000F9FE4FF4AF7240F2E911052002F0F2FEC3
:100FA0004FF4AF7240F2E711062002F0EBFE02F0C0
:100FB00043FF4FF47A7002F07FFC4FF47A7002F036
:100FC0007BFC4FF4967002F077FC10BD10B54FF427
:100FD00096724FF4F571012002F0D4FE4FF4967230
:100FE000F721022002F0CEFE4FF4967240F28A21E1
:100FF000032002F0C7FE4FF496724FF40A710420EA
:1010000002F0C0FE4FF4167240F25331052002F098
:10101000B9FE4FF4FA72F021062002F0B3FE02F09E
:101020000BFF4FF47A7002F047FCC82002F044FC3A
:101030004FF487724FF4F371012002F0A3FE4FF4D6
:101040008772D221022002F09DFE4FF4AF7240F26F
:10105000E121032002F096FE4FF4AF7240F2B1217D
:10106000042002F08FFE4FF4967240F2CF2105204B
:1010700002F088FE4FF4967240F2ED11062002F065
:1010800081FE4FF4967240F2E711072002F07AFEDB
:101090004FF4967240F25131082002F073FE4FF483
:1010A00096724FF4E971092002F06CFE4FF49672CB
:1010B00040F2DD110A2002F065FE02F0BDFE4FF4A1
:1010C0007A7002F0F9FBC82002F0F6FBFA2240F237
:1010D0004731012002F056FEFA224FF4247102201B
:1010E00002F050FE02F0A8FE4FF47A7002F0E4FB2A
:1010F0004FF4167002F0E0FBC82240F28221032078
:1011000002F040FE4FF4C87240F25B31042002F05E
:1011100039FE02F091FE4FF4167002F0CDFBC822AA
:1011200040F2E121032002F02DFE4FF4C87240F29C
:10113000B121042002F026FE02F07EFE4FF416706C
:1011400002F0BAFBC82240F28221032002F01AFE0C
:101150004FF4C87240F25B31042002F013FE02F03B
:101160006BFE4FF4167002F0A7FBC82240F2E1219B
:10117000032002F007FE4FF4C87240F2B1210420B0
:1011800002F000FE02F058FE4FF4167002F094FBDD
:101190004FF496724FF4F371012002F0F3FD4FF417
:1011A0009672D421022002F0EDFD4FF4AF7240F2AE
:1011B000E121032002F0E6FD4FF4AF7240F2B121CD
:1011C000042002F0DFFD4FF4967240F2CF2105209B
:1011D00002F0D8FD4FF4967240F2ED11062002F0B5
:1011E000D1FD4FF4967240F2E711072002F0CAFDDC
:1011F0004FF4967240F25131082002F0C3FD4FF4D3
:1012000096724FF4E971092002F0BCFD4FF496721A
:1012100040F2DD110A2002F0B5FD02F00DFE4FF4A0
:101220007A7002F049FBC82002F046FB4FF4967238
:1012300040F2C711012002F0A5FD4FF48772DF21B3
:10124000022002F09FFD4FF4967240F2B22103207B
:1012500002F098FD4FF4967240F23121042002F022
:1012600091FD4FF496724FF44871052002F08AFD0B
:101270004FF49672B721062002F084FD02F0DCFDE7
:101280004FF47A7002F018FBC82002F015FB4FF4FF
:10129000967240F2C711012002F074FD4FF496726D
:1012A000DF21022002F06EFD4FF4967240F2B7216A
:1012B000032002F067FD4FF4967240F231210420C2
:1012C00002F060FD4FF4967240F2E511052002F045
:1012D00059FD4FF4967240F2E511062002F052FDDE
:1012E00002F0AAFD4FF47A7002F0E6FA4FF47A7039
:1012F00002F0E2FA4FF47A7002F0DEFA10BD10B597
:101300004FF4C8724FF4F571012002F03BFD4FF429
:10131000E172F721022002F035FD4FF4967240F29F
:101320008A21032002F02EFD4FF4AF724FF40A71B0
:10133000042002F027FD4FF4167240F253310520CD
:1013400002F020FD4FF4FA72F021062002F01AFD9F
:1013500002F072FD4FF47A7002F0AEFAC82002F08B
:10136000ABFA4FF4967240F2D511012002F00AFD5B
:101370004FF496729F21022002F004FD4FF4967202
:1013800040F2CB21032002F0FDFC4FF4967240F2B4
:101390004721042002F0F6FC4FF4967240F2BE2181
:1013A000052002F0EFFC4FF4FA7240F2DB11062048
:1013B00002F0E8FC02F040FD4FF47A7002F07CFA93
:1013C000C82002F079FA4FF4C872EC21012002F033
:1013D000D9FC4FF4C8724FF4BF71022002F0D2FC66
:1013E0004FF4C8724FF4FA71032002F0CBFC4FF4B3
:1013F000C87240F23531042002F0C4FC4FF4FA7296
:101400004FF43C71052002F0BDFC02F015FD4FF4D5
:101410002F7002F051FA4FF4967240F2D51101206C
:1014200002F0B0FC4FF496729F21022002F0AAFC59
:101430004FF4967240F2CB21032002F0A3FC4FF44C
:10144000967240F24721042002F09CFC4FF4967201
:1014500040F2BE21052002F095FC4FF4967240F256
:10146000DB11062002F08EFC02F0E6FC4FF42F7038
:1014700002F022FA4FF4C872EC21012002F082FC43
:101480004FF4C8724FF4BF71022002F07BFC4FF49E
:10149000C8724FF4FA71032002F074FC4FF4C87262
:1014A00040F23531042002F06DFC4FF4FA724FF433
:1014B0003C71052002F066FC02F0BEFC4FF42F7078
:1014C00002F0FAF94FF4967240F2D511012002F0C1
:1014D00059FC4FF496729F21022002F053FC4FF406
:1014E000967240F2CB21032002F04CFC4FF496722E
:1014F00040F24721042002F045FC4FF4967240F27E
:10150000BE21052002F03EFC4FF4967240F2DB1142
:10151000062002F037FC02F08FFC4FF4487002F016
:10152000CBF9C8224FF4F571012002F02BFCC82240
:10153000A821022002F026FCC8224FF432710320B9
:1015400002F020FCC8224FF40A71042002F01AFCB9
:101550004FF496724FF44871052002F013FC4FF4DB
:10156000C872B721062002F00DFC02F065FC4FF4B2
:10157000487002F0A1F94FF4967240F2C7110120B1
:1015800002F000FC4FF49672DF21022002F0FAFB19
:101590004FF4967240F2C121032002F0F3FB4FF4A6
:1015A000967240F23121042002F0ECFB4FF4967267
:1015B00040F2E511052002F0E5FB4FF4967240F28F
:1015C000E511062002F0DEFB02F036FC4FF47A70E3
:1015D00002F072F94FF47A7002F06EF94FF47A70FB
:1015E00002F06AF910BD10B54FF4967240F2F12185
:1015F000012002F0C7FB4FF4C87240F2972102208D
:1016000002F0C0FB4FF4AF724FF4DB71032002F025
:10161000B9FB4FF4AF7240F22F21042002F0B2FB6D
:101620004FF4967240F2E511052002F0ABFB642204
:1016300040F2E711062002F0A5FBC82240F25B2130
:10164000072002F09FFBC8224FF46571082002F0CA
:1016500099FB962240F2E311092002F093FBC82285
:101660004FF402710A2002F08DFB02F0E5FB4FF40B
:101670007A7002F021F9B42240F24A21082002F0E7
:1016800081FB462240F2F911072002F07BFB02F0B9
:10169000D3FB4FF47A7002F00FF94FF4487002F068
:1016A0000BF94FF4E17240F24D31012002F06AFB78
:1016B0004FF4967240F2A921022002F063FBC82287
:1016C00040F20F11032002F05DFB4FF4C872B3210A
:1016D000042002F057FB4FF496724FF4F371072089
:1016E00002F050FB4FF4967240F28111082002F094
:1016F00049FB02F0A1FB4FF47A7002F0DDF84FF4E1
:10170000967240F2B621022002F03CFB4FF4967232
:1017100040F21111032002F035FB4FF49672B6210E
:10172000042002F02FFB4FF4967240F2A911092019
:1017300002F028FB4FF42F7240F2A2310A2002F08F
:1017400021FB4FF48C724FF4C571072002F01AFB95
:101750004FF496724FF4C871082002F013FB02F0A8
:101760006BFB4FF47A7002F0A7F84FF48C724FF4D1
:10177000F071012002F006FB4FF48C724FF4D77128
:10178000022002F0FFFA4FF4967240F2F1110320AA
:1017900002F0F8FA4FF4967240F23A21042002F077
:1017A000F1FA4FF4967240F2E511072002F0EAFADE
:1017B000C82240F24621082002F0E4FA4FF4967263
:1017C00040F2DF11092002F0DDFA4FF4967240F288
:1017D00001310A2002F0D6FA02F02EFB4FF4AF607E
:1017E00002F06AF84FF4967240F2C711012002F03D
:1017F000C9FAC822DF21022002F0C4FA4FF416729F
:1018000040F2C121032002F0BDFA4FF4967240F27B
:101810003121042002F0B6FA4FF4967240F2F11131
:10182000072002F0AFFA4FF4C8724FF45671082047
:1018300002F0A8FA642240F2DF11092002F0A2FAB5
:1018400078224FF4FA710A2002F09CFA02F0F4FABE
:101850004FF4FA7002F030F84FF4AF724FF4FA71AF
:101860000A2002F08FFA02F0E7FA4FF4487002F013
:1018700023F84FF47A7002F01FF84FF47A7002F0F8
:101880001BF810BD10B54FF4967240F21B210120D9
:1018900002F078FA4FF4C87240F29F11022002F071
:1018A00071FA4FF4AF7240F20F11032002F06AFA9E
:1018B0004FF4AF72F021042002F064FA4FF49672F4
:1018C0004FF4EF71072002F05DFA64224FF451717A
:1018D000082002F057FA962240F28711092002F000
:1018E00051FA4FF4967240F2C1110A2002F04AFAFE
:1018F00002F0A2FA4FF47A7001F0DEFF82224FF478
:1019000039710A2002F03EFA02F096FA4FF448705C
:1019100001F0D2FF502240F2A511092002F032FA64
:101920004FF4487001F0C8FF4FF496724FF44671BF
:10193000012002F027FA4FF4967240F29E21022015
:1019400002F020FA4FF4967240F21511032002F0D3
:1019500019FA4FF49672D621042002F013FA4FF4CC
:10196000967240F2FD11092002F00CFA4FF49672C3
:101970004FF475710A2002F005FA02F05DFA4FF497
:101980007A7001F099FF4FF4967240F2032107201C
:1019900002F0F8F94FF42F724FF4C771082002F0EB
:1019A000F1F94FF4AF7240F29221092002F0EAF906
:1019B00002F042FA4FF47A7001F07EFF4FF4967213
:1019C00040F2B511022002F0DDF94FF4967240F2B8
:1019D000F711032002F0D6F94FF496724FF400711C
:1019E000042002F0CFF94FF4967240F2F111072073
:1019F00002F0C8F94FF4967240F22E21082002F04E
:101A0000C1F94FF4967240F21321092002F0BAF99D
:101A10004FF4AF7240F22A310A2002F0B3F902F01B
:101A20000BFA4FF4617001F047FF4FF4967240F2E9
:101A3000C711012002F0A6F94FF41672DF2102202F
:101A400002F0A0F9C82240F2C121032002F09AF965
:101A50004FF4967240F23121042002F093F94FF4D2
:101A6000967240F2E511052002F08CF94FF496725F
:101A700040F2E511062002F085F94FF48C7240F235
:101A8000F111072002F07EF98C224FF456710820E4
:101A900002F078F94FF4AF724FF4E971092002F0C7
:101AA00071F94FF448724FF4F5710A2002F06AF9A7
:101AB00002F0C2F94FF47A7001F0FEFE4FF47A7032
:101AC00001F0FAFE4FF47A7001F0F6FE10BD10B589
:101AD0004FF4967240F21B21012002F053F94FF4AB
:101AE000C87240F29F11022002F04CF94FF4AF721D
:101AF00040F20F11032002F045F94FF4AF72F021CC
:101B0000042002F03FF94FF496724FF4EF71072072
:101B100002F038F964224FF45171082002F032F9D2
:101B2000962240F28711092002F02CF94FF49672A8
:101B300040F2C1110A2002F025F902F07DF94FF4BC
:101B40007A7001F0B9FE82224FF439710A2002F056
:101B500019F9502240F2C311092002F013F902F0E2
:101B60006BF94FF47A7001F0A7FE4FF4487001F062
:101B7000A3FE4FF496724FF44671012002F002F971
:101B80004FF4967240F29E21022002F0FBF84FF4CF
:101B9000967240F21511032002F0F4F84FF4967299
:101BA000D621042002F0EEF84FF4967240F2FD11B7
:101BB000092002F0E7F84FF496724FF475710A208D
:101BC00002F0E0F802F038F94FF47A7001F074FE98
:101BD0004FF4967240F20321072002F0D3F84FF43D
:101BE0002F724FF4C771082002F0CCF84FF4AF7297
:101BF00040F29221092002F0C5F802F01DF94FF4DD
:101C00007A7001F059FE02F017F94FF47A7001F082
:101C100053FE4FF47A7001F04FFE4FF47A7001F0EA
:101C20004BFE10BD10B54FF4C8724FF4F571012092
:101C300002F0A8F84FF4E172F721022002F0A2F8B6
:101C40004FF4967240F28A21032002F09BF84FF481
:101C5000AF724FF40A71042002F094F84FF4167238
:101C600040F25331052002F08DF84FF4FA72F02162
:101C7000062002F087F802F0DFF84FF4487001F018
:101C80001BFE4FF496724FF4C871022002F07AF8EE
:101C90004FF496724FF4F471032002F073F84FF48E
:101CA0009672FD21062002F06DF802F0C5F84FF49F
:101CB000FA7001F001FE4FF4967240F29321012078
:101CC00002F060F84FF4967240F2B711022002F071
:101CD00059F84FF496724FF4E771032002F052F86E
:101CE0004FF4967240F28311042002F04BF84FF447
:101CF00096724FF4A071052002F044F84FF49672EA
:101D0000AA21062002F03EF802F096F84FF448703F
:101D100001F0D2FD4FF47A7001F0CEFD4FF4FA726B
:101D2000D221082002F02EF802F086F84FF47A70E3
:101D300001F0C2FDC82001F0BFFDC8224FF4F371CD
:101D4000052002F01FF84FF4967240F24711092067
:101D500002F018F802F070F84FF47A7001F0ACFD60
:101D60004FF4AF7240F2E511072002F00BF84FF488
:101D700096724FF40571082002F004F84FF4967241
:101D80004FF4E971092001F0FDFF4FF496724FF412
:101D90004D710A2001F0F6FF02F04EF84FF47A7010
:101DA00001F08AFD4FF4967240F2E511062001F031
:101DB000E9FF02F041F84FF47A7001F07DFD4FF435
:101DC000967240F2F111072001F0DCFF4FF4967299
:101DD0004FF45671082001F0D5FF4FF496724FF47E
:101DE000FA710A2001F0CEFF02F026F84FF47A7063
:101DF00001F062FD4FF4167001F05EFD4FF4AF721A
:101E000040F20121012001F0BDFF4FF4AF7240F21A
:101E10007721022001F0B6FF4FF4AF7240F2231198
:101E2000032001F0AFFF4FF4AF724FF402710420B2
:101E300001F0A8FF02F000F84FF47A7001F03CFDC9
:101E40004FF47A7001F038FDFA2240F2053101209A
:101E500001F098FFFA224FF4BD71022001F092FFC9
:101E6000FA224FF4FF71032001F08CFFFA224FF4A5
:101E70009171042001F086FF01F0DEFF4FF47A70CB
:101E800001F01AFDC82001F017FDC822A821062084
:101E900001F078FF01F0D0FF4FF47A7001F00CFDF3
:101EA0004B224FF49F71052001F06CFF01F0C4FF3D
:101EB0004FF47A7001F000FD4FF4967240F21F214A
:101EC000012001F05FFF4FF496724FF4CC710220B5
:101ED00001F058FF4FF4967240F2E911032001F02F
:101EE00051FF4FF4967240F20E21042001F04AFF98
:101EF0004FF4967240F29B21052001F043FF01F060
:101F00009BFF4FF4487001F0D7FC4FF49672A82164
:101F1000022001F037FF4FF496724FF43271032024
:101F200001F030FF4FF496724FF44871052001F034
:101F300029FF4FF49672B721062001F023FF4FF4DA
:101F4000967240F2EF11072001F01CFF01F074FFC0
:101F50004FF47A7001F0B0FC4FF4967240F2C71162
:101F6000012001F00FFF4FF49672DF21022001F0F3
:101F700009FF4FF4967240F2C121032001F002FFE5
:101F80004FF4967240F23121042001F0FBFE4FF431
:101F9000967240F2E511052001F0F4FE4FF49672BE
:101FA00040F2E511062001F0EDFE4FF4967240F28A
:101FB000EF11072001F0E6FE01F03EFF4FF47A70CA
:101FC00001F07AFC4FF47A7001F076FC4FF47A70ED
:101FD00001F072FC10BD10B54FF4C8724FF4F571EA
:101FE000012001F0CFFE4FF4E172F721022001F051
:101FF000C9FE4FF4967240F28A21032001F0C2FE1E
:102000004FF4AF724FF40A71042001F0BBFE4FF49D
:10201000167240F25331052001F0B4FE4FF4FA720B
:10202000F021062001F0AEFE01F006FF4FF44870EB
:1020300001F042FC4FF496724FF4C871022001F097
:10204000A1FE4FF496724FF4F471032001F09AFE52
:102050004FF49672FD21062001F094FE01F0ECFE93
:102060004FF4FA7001F028FC4FF4967240F293217D
:10207000012001F087FE4FF4967240F2B711022062
:1020800001F080FE4FF496724FF4E771032001F0E7
:1020900079FE4FF4967240F28311042001F072FE33
:1020A0004FF496724FF4A071052001F06BFE4FF4CF
:1020B0009672AA21062001F065FE01F0BDFE4FF4E4
:1020C000487001F0F9FB4FF47A7001F0F5FB4FF422
:1020D000FA72D221082001F055FE01F0ADFE4FF456
:1020E0007A7001F0E9FBC82001F0E6FBC8224FF44A
:1020F000F371052001F046FE4FF4967240F247114D
:10210000092001F03FFE01F097FE4FF47A7001F0D4
:10211000D3FB4FF4AF7240F2E511072001F032FE1D
:102120004FF496724FF40571082001F02BFE4FF426
:1021300096724FF4E971092001F024FE4FF4967273
:102140004FF44D710A2001F01DFE01F075FE4FF4B1
:102150007A7001F0B1FB4FF4967240F2E51106205F
:1021600001F010FE01F068FE4FF47A7001F0A4FB5C
:102170004FF4967240F2F111072001F003FE4FF484
:1021800096724FF45671082001F0FCFD4FF49672E0
:102190004FF4E971092001F0F5FD4FF496724FF408
:1021A000FA710A2001F0EEFD01F046FE4FF47A705C
:1021B00001F082FB4FF4167001F07EFB4FF4AF721A
:1021C00040F20121012001F0DDFD4FF4AF7240F239
:1021D0007721022001F0D6FD4FF4AF7240F22311B7
:1021E000032001F0CFFD4FF4AF724FF402710420D1
:1021F00001F0C8FD01F020FE4FF47A7001F05CFBA5
:102200004FF47A7001F058FB4FF4AF724FF406713F
:10221000082001F0B7FD4FF4AF724FF44D710A2062
:1022200001F0B0FD01F008FE4FF47A7001F044FBBC
:102230004FF4FA7001F040FB4FF4967240F2F11146
:10224000072001F09FFD4FF496724FF4567108205D
:1022500001F098FD4FF496724FF4E971092001F0F6
:1022600091FD4FF496724FF4FA710A2001F08AFD45
:1022700001F0E2FD4FF47A7001F01EFBFA2240F209
:102280000531012001F07EFDFA224FF4BD710220DC
:1022900001F078FDFA224FF4FF71032001F072FD86
:1022A000FA224FF49171042001F06CFD01F0C4FD9D
:1022B0004FF47A7001F000FBC82001F0FDFAC8224B
:1022C000A821062001F05EFD01F0B6FD4FF47A7002
:1022D00001F0F2FA4B224FF49F71052001F052FDFC
:1022E00001F0AAFD4FF47A7001F0E6FA4FF496720D
:1022F00040F21F21012001F045FD4FF496724FF48A
:10230000CC71022001F03EFD4FF4967240F2E911CB
:10231000032001F037FD4FF4967240F20E210420A5
:1023200001F030FD4FF4967240F29B21052001F040
:1023300029FD01F081FD4FF4487001F0BDFA4FF422
:102340009672A821022001F01DFD4FF496724FF401
:102350003271032001F016FD4FF496724FF448716C
:10236000052001F00FFD4FF49672B721062001F011
:1023700009FD4FF4967240F2EF11072001F002FDC3
:1023800001F05AFD4FF47A7001F096FA4FF496720C
:1023900040F2C711012001F0F5FC4FF49672DF21E5
:1023A000022001F0EFFC4FF4967240F2C1210320AD
:1023B00001F0E8FC4FF4967240F23121042001F064
:1023C000E1FC4FF4967240F2E511052001F0DAFCD1
:1023D0004FF4967240F2E511062001F0D3FC4FF461
:1023E000967240F2EF11072001F0CCFC01F024FDC1
:1023F0004FF47A7001F060FA4FF47A7001F05CFAF1
:102400004FF47A7001F058FA10BD10B54FF496727F
:102410004FF4E471012001F0B5FC4FF4967240F2E4
:10242000C121022001F0AEFC4FF4967240F24D1132
:10243000032001F0A7FC4FF4967240F22B210720F5
:1024400001F0A0FC4FF4967240F28531082001F0B3
:1024500099FC4FF4967240F20F21092001F092FC92
:102460004FF4967240F211210A2001F08BFC01F02A
:10247000E3FC4FF47A7001F01FFAA0224FF41671BA
:10248000072001F07FFCA0224FF46571082001F0C5
:1024900079FC4FF47A7001F00FFA4FF4167001F0E6
:1024A0000BFAA0224FF46171082001F06BFC3C2272
:1024B0004FF4E571092001F065FCA02240F2FA31E9
:1024C0000A2001F05FFC01F0B7FC4FF47A7001F0D4
:1024D000F3F94FF47A7001F0EFF9FA2240F25F213C
:1024E000012001F04FFCFA2240F29F21042001F06C
:1024F00049FCC8224FF4E571092001F043FC01F0CA
:102500009BFC4FF4487001F0D7F9FA2240F28B118E
:10251000012001F037FC4FF4AF7240F22B11042080
:1025200001F030FCC82240F28221092001F02AFC8F
:1025300001F082FC4FF4487001F0BEF9FA2240F23B
:102540005F21012001F01EFCFA2240F29F210420AD
:1025500001F018FCC8224FF4E571092001F012FCCB
:1025600001F06AFC4FF4487001F0A6F9FA2240F23B
:102570008B11012001F006FC4FF4AF7240F22B11D9
:10258000042001F0FFFBC82240F28221092001F063
:10259000F9FB01F051FC4FF47A7001F08DF94FF422
:1025A000C87001F089F9FA224FF4E271012001F0BC
:1025B000E9FBFA22DB21022001F0E4FBFA2240F2DF
:1025C000C521032001F0DEFBFA224FF40171042043
:1025D00001F0D8FBC8224FF4EA71092001F0D2FBC8
:1025E000C8224FF4FA710A2001F0CCFB01F024FC60
:1025F0004FF47A7001F060F94FF4487001F05CF923
:10260000C8224FF4F971072001F0BCFBC82240F248
:102610005A31082001F0B6FB01F00EFC4FF47A703D
:1026200001F04AF9FA2240F2E511052001F0AAFB77
:10263000FA2240F2E711062001F0A4FB01F0FCFBB6
:102640004FF47A7001F038F94FF496724FF4FF713D
:10265000012001F097FB4FF496724FF4D6710220DF
:1026600001F090FB4FF4967240F2FD11032001F04F
:1026700089FB4FF4967240F22121042001F082FB85
:102680004FF4967240F20931052001F07BFBC8221D
:10269000D621062001F076FB4FF496724FF4EE71CE
:1026A000072001F06FFB642240F20E31082001F098
:1026B00069FB4FF4967240F28111092001F062FB30
:1026C0004FF496724FF4D7710A2001F05BFB01F0D2
:1026D000B3FB4FF47A7001F0EFF89622F021082056
:1026E00001F050FB4FF496724FF4FA71072001F09D
:1026F00049FB01F0A1FB4FF47A7001F0DDF84FF4D3
:102700007A7001F0D9F84FF47A7001F0D5F84FF4EF
:1027100096724FF4AD71012001F034FB4FF49672C4
:1027200040F23E21022001F02DFB4FF496724FF44F
:102730009B71032001F026FB4FF4967240F2EB21CF
:10274000042001F01FFB01F077FB4FF42F7001F024
:10275000B3F84FF496724FF42F71012001F012FB81
:102760004FF4967240F20B11022001F00BFB4FF474
:10277000967240F2A221032001F004FB4FF49672FE
:10278000DA21042001F0FEFA01F056FB4FF47A70D2
:1027900001F092F84FF496724FF4AD71012001F000
:1027A000F1FA4FF4967240F23E21022001F0EAFA6B
:1027B0004FF496724FF49B71032001F0E3FA4FF44B
:1027C000967240F2EB21042001F0DCFA01F034FBB8
:1027D0004FF47A7001F070F84FF496724FF42F7145
:1027E000012001F0CFFA4FF4967240F20B11022053
:1027F00001F0C8FA4FF4967240F2A221032001F0D2
:10280000C1FA4FF49672DA21042001F0BBFA01F00C
:1028100013FB4FF42F7001F04FF84FF496724FF402
:10282000FF71012001F0AEFA4FF496724FF4D671A9
:10283000022001F0A7FA4FF4967240F2FD11032036
:1028400001F0A0FA4FF4967240F22121042001F029
:1028500099FA01F0F1FA4FF47A7001F02DF896220E
:1028600040F2BE21022001F08DFA9622FE210320C3
:1028700001F088FA4FF4967240F23E31052001F0E3
:1028800081FAC82240F22111062001F07BFAC82209
:102890009F21082001F076FA01F0CEFA4FF47A7009
:1028A00001F00AF8C82001F007F84FF496724FF4CF
:1028B0001171012001F066FA4FF496724FF4C07165
:1028C000042001F05FFA01F0B7FA4FF47A7000F0DB
:1028D000F3FF4FF4967000F0EFFF4FF496724FF451
:1028E000FF71012001F04EFA4FF496724FF4D67149
:1028F000022001F047FA4FF4967240F2FD110320D6
:1029000001F040FA4FF4967240F22121042001F0C8
:1029100039FA01F091FA4FF47A7000F0CDFF4FF4DC
:10292000967240F2EB11072001F02CFAC82240F217
:102930002931082001F026FA4FF496724FF4C27143
:10294000092001F01FFA4FF496724FF4D7710A2054
:1029500001F018FA01F070FA4FF47A7000F0ACFF51
:102960004FF47A7000F0A8FF4FF47A7000F0A4FFE3
:102970004FF4967240F2E511052001F003FA4FF48E
:10298000967240F2E511062001F0FCF94FF49672C0
:1029900040F2F111072001F0F5F94FF496724FF46F
:1029A0005671082001F0EEF94FF496724FF4E97178
:1029B000092001F0E7F94FF496724FF4FA710A20FA
:1029C00001F0E0F901F038FA4FF4487000F074FFBC
:1029D0004FF4967240F2C711012001F0D3F94FF481
:1029E0009672DF21022001F0CDF94FF4967240F289
:1029F000C121032001F0C6F94FF4967240F2312153
:102A0000042001F0BFF901F017FA4FF47A7000F0DA
:102A100053FF4FF47A7000F04FFF4FF4967240F27C
:102A2000F121012001F0AEF94FF4C87240F2972174
:102A3000022001F0A7F94FF4AF724FF4DB710320CD
:102A400001F0A0F94FF4AF7240F22F21042001F001
:102A500099F94FF4967240F2E511052001F092F9D0
:102A6000642240F2E711062001F08CF9C82240F2FE
:102A70005B21072001F086F9C8224FF46571082018
:102A800001F080F9962240F2E311092001F07AF971
:102A9000C82240F216210A2001F074F901F0CCF9A5
:102AA0004FF47A7000F008FF962240F24A21082085
:102AB00001F068F9322240F2F911072001F062F9C1
:102AC00001F0BAF94FF47A7000F0F6FE4FF4487056
:102AD00000F0F2FE4FF4967240F22E21012001F038
:102AE00051F94FF4967240F20721022001F04AF9A1
:102AF0004FF49672511D032001F044F94FF4967281
:102B00004FF48671042001F03DF94FF496724FF4B2
:102B1000CD71082001F036F901F08EF94FF47A708A
:102B200000F0CAFE4FF49672D121032001F02AF979
:102B30004FF4AF72F021042001F024F9FA224FF48F
:102B4000C871072001F01EF94FF496724FF45D71C1
:102B50000A2001F017F901F06FF94FF47A7000F0D4
:102B6000ABFEC82240F2F111072001F00BF9C82298
:102B70004FF45671082001F005F901F05DF94FF4AA
:102B8000967000F099FEC82240F2C711012001F0B2
:102B9000F9F8C822FA21022001F0F4F8C82240F224
:102BA000F111072001F0EEF8C8224FF45671082009
:102BB00001F0E8F8C8224FF4E971092001F0E2F8C9
:102BC000C8224FF4FA710A2001F0DCF801F034F960
:102BD0004FF47A7000F070FE4FF47A7000F06CFEE3
:102BE000C8224FF4A271022001F0CCF8C82240F2B2
:102BF000D321082001F0C6F8C82240F262210A2041
:102C000001F0C0F801F018F94FF47A7000F054FEAA
:102C1000C822DF21022001F0B5F8C8224FF4567116
:102C2000082001F0AFF8C8224FF4FA710A2001F031
:102C3000A9F801F001F94FF47A7000F03DFEC822C6
:102C40004FF4A271022001F09DF8C82240F2D32176
:102C5000082001F097F8C82240F261210A2001F013
:102C600091F801F0E9F84FF47A7000F025FEC822DF
:102C7000DF21022001F086F8C8224FF456710820A7
:102C800001F080F8C8224FF4FA710A2001F07AF8B6
:102C900001F0D2F84FF47A7000F00EFEC82240F234
:102CA0007F21022001F06EF8C822EC21032001F000
:102CB00069F81E224FF4AB71042001F063F8C822BA
:102CC00040F2F311072001F05DF8C82240F28D11A7
:102CD000082001F057F801F0AFF84FF47A7000F0D7
:102CE000EBFD4FF47A7000F0E7FD4FF4FA7000F05E
:102CF000E3FD4FF496724FF4FF71012001F042F8AA
:102D00004FF49672E621022001F03CF84FF49672DF
:102D100040F20B21032001F035F84FF4967241F296
:102D2000CF51042001F02EF84FF4967240F25A2150
:102D3000082001F027F801F07FF84FF47A7000F0D6
:102D4000BBFD4FF4967240F2C711012001F01AF852
:102D50004FF49672DF21022001F014F84FF49672BE
:102D600040F2C121032001F00DF84FF4967240F2B9
:102D70003121042001F006F84FF4967240F2E5117B
:102D8000052000F0FFFF4FF4967240F2E511062097
:102D900000F0F8FF4FF4967240F2F111072000F0B6
:102DA000F1FF96224FF45671082000F0EBFF4FF42C
:102DB00096724FF4E971092000F0E4FF4FF4967227
:102DC0004FF4FA710A2000F0DDFF01F035F84FF4FE
:102DD0007A7000F071FD4FF47A7000F06DFD4FF4E1
:102DE0007A7000F069FD10BD10B54FF496724FF483
:102DF000E471012000F0C6FF4FF4967240F2C12149
:102E0000022000F0BFFF4FF4967240F24D110320F4
:102E100000F0B8FF4FF4967240F22221072000F034
:102E2000B1FF4FF4967240F28531082000F0AAFFFE
:102E30004FF4967240F20F21092000F0A3FF4FF4E7
:102E4000967240F211210A2000F09CFF00F0F4FF7E
:102E50004FF47A7000F030FDA0224FF41671072075
:102E600000F090FFA0224FF46571082000F08AFF67
:102E70004FF47A7000F020FDC82000F01DFD5022B4
:102E80004FF4E571092000F07DFFA02240F2FA31F5
:102E90000A2000F077FF00F0CFFF4FF47A7000F0C7
:102EA0000BFD4FF47A7000F007FDFA2240F25F212B
:102EB000012000F067FFFA2240F29F21042000F079
:102EC00061FFC8224FF4E571092000F05BFF00F0BC
:102ED000B3FF4FF4487000F0EFFCFA2240F28B1180
:102EE000012000F04FFF4FF4AF7240F22B1104208D
:102EF00000F048FFC82240F28221092000F042FF82
:102F000000F09AFF4FF4487000F0D6FCFA2240F22D
:102F10005F21012000F036FFFA2240F29F210420B9
:102F200000F030FFC8224FF4E571092000F02AFFBD
:102F300000F082FF4FF4487000F0BEFCFA2240F22D
:102F40008B11012000F01EFF4FF4AF7240F22B11E5
:102F5000042000F017FFC82240F28221092000F06F
:102F600011FF00F069FF4FF47A7000F0A5FC4FF4F8
:102F7000C87000F0A1FCFA224FF4E271012000F0C9
:102F800001FFFA22DB21022000F0FCFEFA2240F2CF
:102F9000C521032000F0F6FEFA224FF4017104204F
:102FA00000F0F0FEC8224FF4EA71092000F0EAFEBA
:102FB000C8224FF4FA710A2000F0E4FE00F03CFF52
:102FC0004FF47A7000F078FC4FF4487000F074FC15
:102FD000C8224FF4F971072000F0D4FEC82240F255
:102FE0005A31082000F0CEFE00F026FF4FF47A7030
:102FF00000F062FCFA2240F2E511052000F0C2FE6A
:10300000FA2240F2E711062000F0BCFE00F014FFA7
:103010004FF47A7000F050FC4FF496724FF4FF7149
:10302000012000F0AFFE4FF496724FF4D6710220EB
:1030300000F0A8FE4FF4967240F2FD11032000F05C
:10304000A1FE4FF4967240F22121042000F09AFE76
:103050004FF4967240F20931052000F093FEC82229
:10306000D621062000F08EFE4FF496724FF4EE71DA
:10307000072000F087FE642240F20E31082000F0A5
:1030800081FE4FF4967240F28111092000F07AFE21
:103090004FF496724FF4D7710A2000F073FE00F0DF
:1030A000CBFE4FF47A7000F007FC9622F021082046
:1030B00000F068FE4FF496724FF4FA71072000F0AA
:1030C00061FE00F0B9FE4FF47A7000F0F5FB4FF4AA
:1030D0007A7000F0F1FB4FF47A7000F0EDFB4FF4E2
:1030E00096724FF4AD71012000F04CFE4FF49672D1
:1030F00040F23E21022000F045FE4FF496724FF45C
:103100009B71032000F03EFE4FF4967240F2EB21DB
:10311000042000F037FE00F08FFE4FF42F7000F017
:10312000CBFB4FF496724FF42F71012000F02AFE72
:103130004FF4967240F20B11022000F023FE4FF480
:10314000967240F2A221032000F01CFE4FF496720A
:10315000DA21042000F016FE00F06EFE4FF47A70C3
:1031600000F0AAFB4FF496724FF4AD71012000F00D
:1031700009FE4FF4967240F23E21022000F002FE5A
:103180004FF496724FF49B71032000F0FBFD4FF457
:10319000967240F2EB21042000F0F4FD00F04CFEAA
:1031A0004FF47A7000F088FB4FF496724FF42F7151
:1031B000012000F0E7FD4FF4967240F20B1102205F
:1031C00000F0E0FD4FF4967240F2A221032000F0DF
:1031D000D9FD4FF49672DA21042000F0D3FD00F0FF
:1031E0002BFE4FF42F7000F067FB4FF496724FF4F4
:1031F000FF71012000F0C6FD4FF496724FF4D671B6
:10320000022000F0BFFD4FF4967240F2FD11032042
:1032100000F0B8FD4FF4967240F22121042000F036
:10322000B1FD00F009FE4FF47A7000F045FB9622E4
:1032300040F2BE21022000F0A5FD9622FE210320CF
:1032400000F0A0FD4FF4967240F23E31052000F0F0
:1032500099FDC82240F22111062000F093FDC822FA
:103260009F21082000F08EFD00F0E6FD4FF47A70FB
:1032700000F022FBC82000F01FFB4FF496724FF4C1
:103280001171012000F07EFD4FF496724FF4C07171
:10329000042000F077FD00F0CFFD4FF47A7000F0CD
:1032A0000BFB4FF4967000F007FB4FF496724FF44F
:1032B000FF71012000F066FD4FF496724FF4D67155
:1032C000022000F05FFD4FF4967240F2FD110320E2
:1032D00000F058FD4FF4967240F22121042000F0D6
:1032E00051FD00F0A9FD4FF47A7000F0E5FA4FF4BB
:1032F000967240F2EB11072000F044FDC82240F224
:103300002931082000F03EFD4FF496724FF4C2714F
:10331000092000F037FD4FF496724FF4D7710A2060
:1033200000F030FD00F088FD4FF47A7000F0C4FA30
:103330004FF47A7000F0C0FA4FF47A7000F0BCFAE3
:103340004FF4967240F2E511052000F01BFD4FF49A
:10335000967240F2E511062000F014FD4FF49672CB
:1033600040F2F111072000F00DFD4FF496724FF47A
:103370005671082000F006FD4FF496724FF4E97183
:10338000092000F0FFFC4FF496724FF4FA710A2006
:1033900000F0F8FC00F050FD4FF4487000F08CFA9B
:1033A0004FF4967240F2C711012000F0EBFC4FF48D
:1033B0009672DF21022000F0E5FC4FF4967240F295
:1033C000C121032000F0DEFC4FF4967240F231215F
:1033D000042000F0D7FC00F02FFD4FF47A7000F0CD
:1033E0006BFA4FF47A7000F067FA10BD10B56422E2
:1033F0004FF4E171092000F0C5FC00F01DFD4FF411
:10340000FA7000F059FA4FF496724FF42F710120C0
:1034100000F0B8FC4FF496724FF42A71022000F0CD
:10342000B1FC4FF496724FF40071032000F0AAFC37
:103430004FF496724FF40071042000F0A3FCC822F0
:103440004FF4B971072000F09DFCC8224FF4B97108
:10345000092000F097FC00F0EFFC41F2883000F00A
:103460002BFA4FF42F7240F2C711012000F08AFCB2
:103470004FF42F72DF21022000F084FC4FF46172C0
:103480004FF49671072000F07DFC00F0D5FC4FF45E
:103490007A7000F011FA4FF42F721146082000F0F4
:1034A00071FC4FF42F724FF4E171072000F06AFCB9
:1034B00000F0C2FC4FF4FA6000F0FEF94FF496728F
:1034C0004FF44371082000F05DFC4FF496725100F8
:1034D0000A2000F057FC00F0AFFC4FF47A7000F0C7
:1034E000EBF996224FF45671082000F04BFC4FF494
:1034F000967240F2F111072000F044FC4FF49672EE
:1035000040F226210A2000F03DFC4FF4967240F272
:103510002621092000F036FC00F08EFC4FF47A7072
:1035200000F0CAF964224FF4FA710A2000F02AFC74
:1035300064224FF4E171092000F024FC00F07CFCCF
:103540004FF47A7000F0B8F94FF496724FF42F717F
:10355000012000F017FC4FF496724FF42A710220FC
:1035600000F010FC4FF496724FF40071032000F04D
:1035700009FC4FF496724FF40071042000F002FC35
:10358000C8224FF4B971072000F0FCFBC8224FF4A9
:10359000B971092000F0F6FB00F04EFC41F28830D2
:1035A00000F08AF94FF42F7240F2C711012000F0A9
:1035B000E9FB4FF42F72DF21022000F0E3FB4FF410
:1035C00061724FF49671072000F0DCFB00F034FCD0
:1035D0004FF47A7000F070F94FF42F721146082002
:1035E00000F0D0FB4FF42F724FF4E171072000F090
:1035F000C9FB00F021FC4FF4FA6000F05DF94FF4D4
:1036000096724FF44371082000F0BCFB4FF49672A1
:1036100051000A2000F0B6FB00F00EFC4FF47A7067
:1036200000F04AF996224FF45671082000F0AAFBE8
:103630004FF4967240F2F111072000F0A3FB4FF413
:10364000967240F226210A2000F09CFB4FF49672FD
:1036500040F22621092000F095FB00F0EDFB4FF42D
:103660007A7000F029F9FCF701FF4FF4965000F052
:1036700023F9FEF72CFA10BD10B54FF4C8724FF4C1
:10368000F571012000F07EFB4FF4E172F72102207A
:1036900000F078FB4FF4967240F28A21032000F08C
:1036A00071FB4FF4AF724FF40A71042000F06AFB13
:1036B0004FF4167240F25331052000F063FB4FF4D3
:1036C000FA72F021062000F05DFB00F0B5FB4FF42C
:1036D0007A7000F0F1F8C82000F0EEF84FF496721E
:1036E00040F20531012000F04DFB4FF496724FF48B
:1036F000BD71022000F046FB4FF496724FF4FF714B
:10370000032000F03FFB4FF496724FF491710420B8
:1037100000F038FB4FF496724FF4A071052000F0D2
:1037200031FB4FF49672AA21062000F02BFB00F02B
:1037300083FB4FF4487000F0BFF84FF47A7000F04C
:10374000BBF84FF4FA72D221082000F01BFB00F006
:1037500073FB4FF47A7000F0AFF8C82000F0ACF8BB
:103760004FF496724FF4F571032000F00BFB4FF409
:1037700096724FF49B71042000F004FB00F05CFB98
:10378000C82000F099F84FF448725110092000F059
:10379000F9FA962240F20321052000F0F3FA00F036
:1037A0004BFB4FF47A7000F087F84FF4967240F2BA
:1037B0001E21082000F0E6FA4FF496724FF4E971EA
:1037C000092000F0DFFA4FF4A5724FF44D710A2082
:1037D00000F0D8FA00F030FB4FF4487000F06CF8BD
:1037E0004FF496724FF45671082000F0CBFA4FF464
:1037F00096724FF4EB71062000F0C4FA4FF4967203
:1038000040F2F111072000F0BDFA4FF496724FF428
:10381000E971092000F0B6FAFA2251000A2000F0FE
:10382000B1FA00F009FB4FF47A7000F045F8C820B7
:1038300000F042F810BD00004FF0E021096921F0CE
:1038400004014FF0E0221161C21700EB5272C2F383
:10385000C7022B4B1A701946097801EB4102C2EBE3
:10386000C1114FF6FF7202EAC101264A118070476A
:103870000146234A12784A434FF0E0235A6100225E
:103880009A611A46126942F001021A6100BF4FF0B4
:10389000E022106900F001021AB100F48032002A1F
:1038A000F5D04FF0E022126922F001024FF0E02340
:1038B0001A6100229A6170470146124A12884A43EF
:1038C0004FF0E0235A6100229A611A46126942F0D1
:1038D00001021A6100BF4FF0E022106900F00102FE
:1038E0001AB100F48032002AF5D04FF0E0221269BC
:1038F00022F001024FF0E0231A6100229A61704722
:10390000140000201600002010B54FF4A06000F055
:10391000FBFA10BD3A4A0A4002433A4B1A6070471C
:1039200000B5002038490861C860142048610020B3
:103930008861C8610846006840F0010008600846D8
:1039400040683249084030494860084600683049BC
:1039500008402D4908600846006820F4802008606F
:103960000846406820F4FE0048600020886000217E
:103970004FF00060FFF7CEFF00BD30B504460025D4
:10398000FFF7CEFF2048006840F480301E490860F1
:1039900000BF1D480068400C0028FAD04FF480603A
:1039A00019494860A01EC4B20846406840EA8440F5
:1039B00048600846406840F4803048601548006818
:1039C00040F03200134908600F48006840F08070F2
:1039D0000D49086000BF0C480068400E0028FAD06E
:1039E0000948406840F002000749486005E0064881
:1039F0004068C0F3870505F00305022DF7D130BDFF
:103A000080FFFF1F08ED00E0001002400000FFF8FB
:103A1000FFFFF6FE00200240014600BF704770B570
:103A200004460D4600BF4021FE4801F005F800287D
:103A3000F9D0E1B2FB4800F091FF204670BD10B50F
:103A400086B004460121080500F0F5FD0121102093
:103A500000F0E4FD0121202000F0E0FD4FF4805053
:103A6000ADF8140003208DF8160018208DF817000B
:103A700005A9ED4800F016FB4FF48050ADF8140096
:103A800010208DF8170003208DF8160005A9E748CF
:103A900000F008FB4FF48051E44800F0B0FB0194C3
:103AA0000020ADF80800ADF80A00ADF80C00ADF844
:103AB00010000C20ADF80E0001A9DA4800F055FE08
:103AC0000121D84800F0DDFE06B010BD7047D54991
:103AD000888000BFD349098801F040010029F9D04E
:103AE00070472DE9FC5F06460C4615460027B84690
:103AF000B946BA46BB46002001900090B5F5806FEC
:103B000002DB40F2FF3700E02F46B4F5806F02DBA6
:103B100040F2FF3800E0A0464FEA272907F0FF0AED
:103B20004FEA282B08F0FF000190FF20FFF7CFFF9E
:103B3000FF20FFF7CCFF3046FFF7C9FF0720FFF754
:103B4000C6FF0320FFF7C3FF0620FFF7C0FF019861
:103B5000FFF7BDFF5846FFF7BAFF5046FFF7B7FF24
:103B60004846FFF7B4FF06F1100001990844584495
:103B700050444844C0B200900098C043C0B2009086
:103B80000098FFF7A4FF00BFA648008800F040009F
:103B90000028F9D00220FFF78FFEBDE8FC9F2DE939
:103BA000FC5F06460C4615460027B846B946BA469D
:103BB000BB46002001900090B5F5806F02DB40F21B
:103BC000FF3700E02F46B4F5806F02DB40F2FF388C
:103BD00000E0A0464FEA272907F0FF0A4FEA282B0A
:103BE00008F0FF000190FF20FFF771FFFF20FFF7B3
:103BF0006EFF3046FFF76BFF0720FFF768FF0320DB
:103C0000FFF765FF1E20FFF762FF0198FFF75FFFD8
:103C10005846FFF75CFF5046FFF759FF4846FFF74D
:103C200056FF06F12800019908445844504448447E
:103C3000C0B200900098C043C0B200900098FFF757
:103C400046FF00BF7748008800F040000028F9D008
:103C50000220FFF731FEBDE8FC9F2DE9F04F8BB04D
:103C600081460C4615461E46DDE914784FF0000AE1
:103C7000D34600200A90099008900790069005907E
:103C800004900390029001900090A346AA460597E5
:103C9000CDF818804FEA2A200A900AF0FF00099018
:103CA0004FEA2B2008900BF0FF000790DDF81880FA
:103CB0004FEA28200490DDF8188008F0FF000390F8
:103CC000059F38120290059FF8B20190FF20FFF780
:103CD000FEFEFF20FFF7FBFEFE20FFF7F8FE0E20A2
:103CE000FFF7F5FE8320FFF7F2FE1E20FFF7EFFE41
:103CF0000420FFF7ECFE4846FFF7E9FE0798FFF7C0
:103D0000E6FE0898FFF7E3FE0998FFF7E0FE0A9841
:103D1000FFF7DDFE3046FFF7DAFE0198FFF7D7FE2A
:103D20000298FFF7D4FE0398FFF7D1FE0498FFF73F
:103D3000CEFE09F2B1108119079801440898014498
:103D4000099801440A9801440198014402980144E9
:103D50000398014404980844C0B200900098C043FE
:103D6000C0B200900098FFF7B2FE00BF2D48008857
:103D700000F040000028F9D00220FFF79DFD0BB0B5
:103D8000BDE8F08F2DE9FC5F06460C46154600277E
:103D9000B846B946BA46BB460020019000902F466F
:103DA000A0464FEA272907F0FF0A4FEA282B08F020
:103DB000FF000190FF20FFF78AFEFF20FFF787FE3C
:103DC0003046FFF784FE0720FFF781FE0420FFF74F
:103DD0007EFE1E20FFF77BFE0198FFF778FE584617
:103DE000FFF775FE5046FFF772FE4846FFF76FFE7D
:103DF00006F1290001990844584450444844C0B28F
:103E000000900098C043C0B200900098FFF75FFE9A
:103E100000BF0448008800F040000028F9D00220CC
:103E200006E0000000500040001001400014014076
:103E3000FFF742FDBDE8FC9F10B50024FF20FFF70F
:103E400046FEFF20FFF743FEFE20FFF740FE022064
:103E5000FFF73DFE0520FFF73AFE0524E043C4B21C
:103E60002046FFF734FE00BF1648008800F04000EF
:103E70000028F9D00220FFF71FFD10BD70B50446E1
:103E80000025FF20FFF723FEFF20FFF720FE20463E
:103E9000FFF71DFE0220FFF71AFE0120FFF717FEB5
:103EA000E01CC5B2E843C5B22846FFF710FE00BFCC
:103EB0000448008800F040000028F9D00220FFF7F5
:103EC000FBFC70BD0050004009488047094800478E
:103ED000FEE7FEE7FEE7FEE7FEE7FEE7FEE7FEE7BA
:103EE000FEE7FEE704480549054A064B7047000017
:103EF0001F030008310100089000002090060020F8
:103F0000900200209002002031490143314A1160A3
:103F1000704770B5002100230F22C47804B32D4CE4
:103F2000246804F4E064C4F5E064210AC1F10403E8
:103F3000CA40447804FA03F184781440214309010B
:103F4000254C0678A155047804F01F050124AC40E7
:103F500005786D11AD0005F1E025C5F8004109E0D7
:103F6000047804F01F050124AC401C4D067876113E
:103F700045F8264070BD1A4A0A400243154B1B1FE4
:103F80001A60704739B1134A121D12680243114B6F
:103F90001B1D1A6006E00F4A121D126882430D4B6A
:103FA0001B1D1A607047042808D14FF0E0210969F1
:103FB00041F004014FF0E022116107E04FF0E021F1
:103FC000096921F004014FF0E022116170470000FF
:103FD0000000FA050CED00E000E400E080E100E004
:103FE00080FFFF1F10B50446CC48844208D1012150
:103FF000042000F02DFB0021042000F029FB46E006
:10400000C748844208D10121082000F021FB00218B
:10401000082000F01DFB3AE0C248844208D101218B
:10402000102000F015FB0021102000F011FB2EE005
:10403000BD48844208D10121202000F009FB002165
:10404000202000F005FB22E0B848844208D101217D
:10405000402000F0FDFA0021402000F0F9FA16E0BF
:10406000B348844208D10121802000F0F1FA0021F8
:10407000802000F0EDFA0AE0AE48844207D1012129
:10408000801500F0E5FA0021A01500F0E1FA10BD5E
:1040900010B50121084600F0DBFA0021012000F0F4
:1040A000D7FA10BD2DE9F041024600250026002078
:1040B00000230024002791F803C00CF00F0591F8AD
:1040C00003C00CF0100CBCF1000F03D091F802C03B
:1040D0004CEA050591F800C0BCF1000F31D014681E
:1040E00000202BE04FF0010C0CFA00F3B1F800C0F7
:1040F0000CEA03069E4220D183004FF00F0C0CFA0D
:1041000003F7BC4305FA03FC4CEA040491F803C02E
:10411000BCF1280F06D14FF0010C0CFA00FCC2F8DC
:1041200014C00AE091F803C0BCF1480F05D14FF06C
:10413000010C0CFA00FCC2F810C0401C0828D1D3B6
:104140001460B1F800C0BCF1FF0F34DD54680020EA
:104150002EE000F1080C4FF0010808FA0CF3B1F85A
:1041600000C00CEA03069E4221D183004FF00F0CE1
:104170000CFA03F7BC4305FA03FC4CEA040491F87B
:1041800003C0BCF1280F05D100F1080C08FA0CF8A7
:10419000C2F8148091F803C0BCF1480F07D100F1B8
:1041A000080C4FF0010808FA0CF8C2F81080401C07
:1041B0000828CED35460BDE8F0814FF6FF7101802E
:1041C000022181700421C17070470246002093686B
:1041D0000B400BB1012000E00020704701468868C9
:1041E00080B2704702460020D3680B400BB101201B
:1041F00000E0002070470146C86880B27047016146
:104200007047416170470AB1016100E04161704748
:10421000C16070474FF480320A43826181618261DC
:1042200082698269704702460020434B18684FF646
:104230008073184040EA021008433F4B18607047F3
:104240003E49C8617047F0B50A46002300240021AA
:10425000002500F00046B6F1004F02D1364EF1695C
:1042600001E0354E7168C0F3034583B200F4401697
:10427000B6F5401F08D121F070612F4E766826F008
:1042800070662D4F7E6012E000F48016B6F5801F38
:1042900006D1032606FA05F4A14341F0706106E059
:1042A000460D360103FA06F6B14341F0706122B1C2
:1042B000460D360103FA06F6314300F00046B6F12A
:1042C000004F02D11C4EF16101E01B4E7160F0BD48
:1042D00030B500228B071C0F0F2303FA04F2164B94
:1042E00008338C1053F824309343134C08348D104A
:1042F00044F8253023468C1053F824308C07240FC3
:1043000000FA04F423430C4C08348D1044F8253093
:1043100030BD0A49DC3108607047000000080140E8
:10432000000C014000100140001401400018014041
:10433000001C01400020014000000140000020421C
:10434000DF48006840F00100DD4908600846406829
:10435000DC490840DA49486008460068DA49084004
:10436000D74908600846006820F4802008600846A5
:10437000406820F4FE0048604FF41F0088607047DA
:10438000CF49096821F48031CD4A1160114609688E
:1043900021F480211160B0F5803F03D0B0F5802F6B
:1043A0000ED106E0C649096841F48031C44A116063
:1043B00007E0C349096841F4A021C14A116000E047
:1043C00000BF00BF704710B5014600220023002047
:1043D0004A11012A02D1BA4C236806E0022A02D10E
:1043E000B74C236A01E0B64C636A01F01F02012456
:1043F00094401C400CB1012000E0002010BD38B5F5
:10440000002000900024002500BF3120FFF7DBFFD3
:1044100005460098401C00900098B0F5A06F01D0B0
:10442000002DF2D03120FFF7CEFF08B1012400E0CB
:104430000024204638BD01460020A14A106820F023
:10444000F80040EAC10010607047A049086070475A
:10445000024600209A4B586820F47C1042EA01037F
:104460001843974B58607047984908667047014653
:104470000020934A506820F00300084350607047C2
:104480008F48406800F00C007047014600208C4ABD
:10449000506820F0F000084350607047014600204B
:1044A000874A506820F4E060084350607047014636
:1044B0000020834A506820F4605040EAC1005060F8
:1044C000704729B17E4A527A02437D4B5A7204E00A
:1044D0007B4A527A82437A4B5A7270477B49D83171
:1044E0000860704701460020754A506820F440403B
:1044F0000843506070470021714A20321170704AA1
:1045000082F82010012802D004280AD104E00121F9
:104510006B4A2032117005E00521694A2032117082
:1045200000E000BF00BF70476949086070476449F8
:10453000096A0143624A116270476549443908605B
:10454000704730B500210022002400235C4D6D68C7
:1045500005F00C0121B1042905D0082923D105E07B
:104560005C4D056022E05B4D05601FE0544D6D68B9
:1045700005F47012524D6D6805F48034022505EB88
:1045800092421CB9544D554305600BE04C4D6D688B
:1045900005F400351DB1504D5543056002E04D4D09
:1045A0005543056002E04B4D056000BF00BF444D20
:1045B0006D6805F0F0010909484D6B5C0568DD4048
:1045C00045603F4D6D6805F4E061090A434D6B5C41
:1045D0004568DD4085603A4D6D6805F46051C90A53
:1045E0003E4D6B5C4568DD40C560354D6D6805F43A
:1045F0004041890B3A4D6B5CC568B5FBF3F505612D
:1046000030BD29B12E4A526902432D4B5A6104E054
:104610002B4A526982432A4B5A61704729B1284A72
:1046200092690243264B9A6104E0254A92698243CB
:10463000234B9A61704729B1214AD2690243204B2A
:10464000DA6104E01E4AD26982431D4BDA61704789
:1046500029B11B4AD2680243194BDA6004E0184AB8
:10466000D2688243164BDA60704729B1144A126946
:104670000243134B1A6104E0114A12698243104B42
:104680001A61704712494039086070470F49C86481
:1046900070470B49C87170470948406A40F0807004
:1046A00007494862704701460020054A92680A405F
:1046B0000AB1012000E0002070470149887270476C
:1046C000001002400000FFF8FFFFF6FE000042422B
:1046D0008004424200127A0000093D0018000020C8
:1046E0002800002010B50446FB48844209D101216E
:1046F0008803FFF7ADFF00214FF48040FFF7A8FFCC
:1047000032E0F648844209D101214804FFF7ADFFA9
:1047100000214FF40030FFF7A8FF25E0F048844265
:1047200009D101218804FFF7A0FF00214FF4802068
:10473000FFF79BFF18E0EB48844209D10121C80430
:10474000FFF793FF00214FF40020FFF78EFF0BE0EF
:10475000E548844208D101210805FFF786FF0021C2
:104760004FF48010FFF781FF10BD2DE9F04786B0B0
:1047700005460E460024A24600BFA1460027B08988
:1047800000B100BF2F462C8A4CF6FF700440F08821
:1047900004432C82AC894EF6F3100440B088318972
:1047A0000843718908430443AC81AC8A4FF6FF404B
:1047B0000440B0890443AC8201A8FFF7C2FEC6489A
:1047C000874202D1DDF810A001E0DDF80CA0A88935
:1047D00000F4004040B10AEBCA0000EB0A10316857
:1047E0004900B0FBF1F807E00AEBCA0000EB0A1041
:1047F00031688900B0FBF1F86420B8FBF0F00401E7
:104800002009642101FB1089A88900F4004040B10F
:10481000322000EBC900B0FBF1F000F007000443C8
:1048200008E0322000EB09106421B0FBF1F000F049
:104830000F0004432C8106B0BDE8F0874FF41651F9
:10484000016000218180C18001810C214181002112
:104850008181704710B502460020108A4FF2FF0395
:1048600018400B884C8823438C882343CC882343EF
:104870001843108210BD0021018041808180C180D9
:10488000704721B1828942F40052828104E082891A
:104890004DF6FF731A4082817047F0B5034600243D
:1048A00000260025002040F66A17B94200D100BF5B
:1048B0001846C1F3421401F01F06012707FA06F556
:1048C000012C01D10C3004E0022C01D1103000E0A9
:1048D00014301AB107682F43076002E00768AF433E
:1048E0000760F0BD1AB1838A0B43838202E0838A9A
:1048F0008B4383827047028A4FF6F0731A4002821C
:10490000028A0A430282704782894FF2FF731A407B
:10491000828182890A438281704721B1828942F073
:104920000202828104E082894FF6FD731A4082817F
:104930007047028A4FF6DF731A400282028A0A43E6
:104940000282704721B1028A42F48042028204E06E
:10495000028A4BF6FF731A4002827047C1F30802C5
:104960008280704701468888C0F3080070478189BB
:1049700041F0010181817047028BD2B20283028B28
:1049800042EA012202837047028B02F47F420283D3
:10499000028B0A430283704721B1828A42F02002CF
:1049A000828204E0828A4FF6DF731A408282704767
:1049B00021B1828A42F01002828204E0828A4FF69C
:1049C000EF731A408282704721B1828A42F0080256
:1049D000828204E0828A4FF6F7731A40828270471F
:1049E00021B1828942F40042828103E08289C2F3CC
:1049F0000E028281704721B1828A42F40062828273
:104A000004E0828A4FF2FF731A4082827047828AE2
:104A10004FF6FB731A408282828A0A438282704771
:104A200021B1828A42F00202828204E0828A4FF639
:104A3000FD731A408282704702460020B1F5007F64
:104A400000D100BF13880B400BB1012000E0002013
:104A5000704701F40072B2F5007F00D100BFCA4375
:104A60000280704770B50246002400230025002014
:104A700040F66A16B14200D100BFC1F3421501F001
:104A80001F03012606FA03F3012D02D19689334054
:104A900006E0022D02D1168A334001E0968A3340A7
:104AA0000C12012606FA04F41688344013B10CB136
:104AB000012000E0002070BD10B50022002340F668
:104AC0006A14A14200D100BF0A1201249440A3B28B
:104AD000DC43048010BD0000003801400044004069
:104AE00000480040004C00400050004070477047B4
:104AF0007047754600F02CF8AE46050069465346EF
:104B000020F00700854618B020B5FFF7EBF9BDE8A7
:104B100020404FF000064FF000074FF000084FF024
:104B2000000B21F00701AC46ACE8C009ACE8C009B5
:104B3000ACE8C009ACE8C0098D46704710B5044622
:104B4000AFF300802046BDE81040FBF738BB000003
:104B5000004870472C000020784B0008000000201F
:104B60002C0000006C010008A44B00082C00002061
:104B7000640600008801000800A24A04000000004A
:104B800000000000010203040607080900000000FD
:104B900000000000010203040102030406070809E3
:044BA00002040608FD
:0400000508000131BD
:00000001FF
