:020000040800F2
:1000000090060020A13700082502000827020008FA
:100010002B0200082F020008330200080000000035
:10002000000000000000000000000000370200088F
:1000300039020008000000003B0200083D020008F1
:10004000BB370008BB370008BB370008BB370008C8
:10005000BB370008BB370008BB370008BB370008B8
:10006000BB370008BB370008BB370008BB370008A8
:10007000BB370008BB370008BB370008BB37000898
:10008000BB370008BB370008BB370008BB37000888
:10009000BB370008BB370008BB370008BB37000878
:1000A000BB370008BB370008BB370008BB37000868
:1000B000BB370008BB370008BB370008BB37000858
:1000C000BB370008BB370008BB370008BB37000848
:1000D000BB370008BB370008BB370008BB37000838
:1000E000BB370008BB370008BB370008BB37000828
:1000F000BB370008BB370008BB370008BB37000818
:10010000BB370008BB370008BB370008BB37000807
:10011000BB370008A5330008BB370008BB37000811
:10012000BB370008BB370008BB370008BB370008E7
:1001300000F002F800F03AF80AA090E8000C8244BF
:100140008344AAF10107DA4501D100F02FF8AFF29C
:10015000090EBAE80F0013F0010F18BFFB1A43F0A5
:1001600001031847CC420000EC420000103A24BFC3
:1001700078C878C1FAD8520724BF30C830C144BF0C
:1001800004680C607047000000230024002500264E
:10019000103A28BF78C1FBD8520728BF30C148BFEA
:1001A0000B6070471FB51FBD10B510BD04F00DF9F1
:1001B0001146FFF7F7FF00F009F804F02BF903B43C
:1001C000FFF7F2FF03BC03F093F80000092003F0EF
:1001D00040F8482002F09CFF114803F09CF800F022
:1001E0001FF940F2FF3200210A2003F0E6F840F246
:1001F000FF3200210C2003F0E0F80FE04FF47A709A
:1002000002F0C6FF00F032F94FF4FA7002F0C0FFBE
:1002100000F0F6F902F0DAF800BFFEE7EEE70000C2
:1002200020A10700704700BFFEE700BFFEE700BF48
:10023000FEE700BFFEE77047704770477047000059
:100240000CB50020019000906C48006840F48030AC
:100250006A49086000BF6948006800F400300090F7
:100260000198401C0190009818B90198B0F5A06F52
:10027000F1D16248006800F4003010B10120009014
:1002800001E0002000900098012843D15C480068FC
:1002900040F010005A4908600846006820F003004A
:1002A00008600846006840F0020008605348406853
:1002B000524948600846406848600846406840F433
:1002C000806048600846406820F47C10486008461A
:1002D000406840F4E81048600846006840F08070CC
:1002E000086000BF4548006800F000700028F9D0A1
:1002F0004248406820F00300404948600846406892
:1003000040F00200486000BF3C48406800F00C002C
:100310000828F9D10CBD10B5FFF792FF10BD10B53C
:100320003648006840F001003449086008464068DB
:10033000344908403149486008460068324908405D
:100340002E4908600846006820F4802008600846AE
:10035000406820F4FE0048604FF41F008860FFF7FB
:10036000DAFF4FF000602949086010BD10B5002188
:1003700000200022214B5B6803F00C0121B104290D
:1003800006D0082928D107E0214B224C236027E022
:100390001F4B204C236023E0184B5B6803F4701064
:1003A000164B5B6803F48032022303EB904022B9C2
:1003B000194B4343174C23600DE0104B5B6803F46B
:1003C000003323B1144B4343124C236003E0104B22
:1003D0004343104C236003E00D4B0E4C236000BFE1
:1003E00000BF064B5B68C3F303130C4CE15C094B85
:1003F0001B68CB40074C236010BD0000001002407A
:10040000002002400000FFF8FFFFF6FE08ED00E0CC
:1004100000127A000000002000093D0004000020C6
:1004200008B50121482003F065FD2020ADF800004B
:1004300010208DF8030003208DF80200694609485A
:1004400003F09CFA2021074803F045FB2020ADF87B
:1004500000006946044803F091FA2021024803F0A5
:100460003AFB08BD000C01400018014010B54FF4E4
:10047000967240F2C711012003F0F0F84FF4967223
:10048000DF21022003F0EAF84FF4967240F2C12116
:10049000032003F0E3F84FF4967240F23121042078
:1004A00003F0DCF84FF4967240F2E511052003F0FA
:1004B000D5F84FF4967240F2E511062003F0CEF81D
:1004C0004FF4967240F2F111072003F0C7F84FF491
:1004D00096724FF45671082003F0C0F84FF49672EC
:1004E0004FF4E971092003F0B9F84FF496724FF414
:1004F000FA710A2003F0B2F803F00AF910BD10B542
:100500004FF4967240F21511062002F0B4FF4FF43A
:10051000FA7002F03DFE4FF496724FF4F871062027
:1005200002F0A9FF4FF4FA7002F032FE10BD10B5D0
:100530004FF496724FF4FD71012003F08FF84FF4E1
:10054000FA7240F27D21022003F088F803F0E0F80F
:100550004FF42F7002F01CFE4FF4FA7240F2E721C4
:10056000012003F07BF8C82240F2B721022003F0FB
:1005700075F803F0CDF84FF4FA7002F009FE4FF46D
:10058000FA72911D012003F069F8C82240F27D2122
:10059000022003F063F803F0BBF84FF4FA7002F0A6
:1005A000F7FD4FF4FA7240F2E721012003F056F80C
:1005B000C82240F27D21022003F050F803F0A8F891
:1005C0004FF4FA7002F0E4FD4FF4967240F2C71156
:1005D000012003F043F84FF4FA72DF21022003F008
:1005E0003DF803F095F84FF47A7002F0D1FD4FF426
:1005F0007A7002F0CDFD4FF4967002F0C9FD10BD87
:1006000010B54FF4C8724FF4F571012003F026F8CD
:100610004FF4E172F721022003F020F84FF49672B4
:1006200040F28A21032003F019F84FF4AF724FF41F
:100630000A71042003F012F84FF4167240F253319D
:10064000052003F00BF84FF4FA72F021062003F0B6
:1006500005F803F05DF84FF4487002F099FD4FF48F
:1006600096724FF4C871022002F0F8FF4FF49672B0
:100670004FF4F471032002F0F1FF4FF49672FD2164
:10068000062002F0EBFF03F043F84FF4FA7002F09B
:100690007FFD4FF4967240F29321012002F0DEFFBD
:1006A0004FF4967240F2B711022002F0D7FF4FF4D8
:1006B00096724FF4E771032002F0D0FF4FF4967268
:1006C00040F28311042002F0C9FF4FF496724FF4F8
:1006D000A071052002F0C2FF4FF49672AA210620F5
:1006E00002F0BCFF03F014F84FF4487002F050FD24
:1006F0004FF47A7002F04CFD4FF4FA72D2210820C8
:1007000002F0ACFF03F004F84FF47A7002F040FD01
:10071000C82002F03DFDC8224FF4F371052002F01D
:100720009DFF4FF4967240F24711092002F096FFA8
:1007300002F0EEFF4FF47A7002F02AFD4FF4AF7230
:1007400040F2E511072002F089FF4FF496724FF452
:100750000571082002F082FF4FF496724FF4E971A0
:10076000092002F07BFF4FF496724FF44D710A207E
:1007700002F074FF02F0CCFF4FF47A7002F008FD33
:100780004FF4967240F2E511062002F067FF02F086
:10079000BFFF4FF47A7002F0FBFC4FF4967240F208
:1007A000F111072002F05AFF4FF496724FF4567180
:1007B000082002F053FF4FF496724FF4FA710A20AA
:1007C00002F04CFF02F0A4FF4FF47A7002F0E0FC5C
:1007D0004FF4167002F0DCFCC82240F21E310620F5
:1007E00002F03CFF02F094FF4FF4487002F0D0FC9E
:1007F0004FF4967240F29321012002F02FFF4FF444
:10080000967240F2B711022002F028FF4FF4967260
:100810004FF4E771032002F021FF4FF4967240F28B
:100820008311042002F01AFF4B224FF4237105209C
:1008300002F014FF02F06CFF4FF47A7002F0A8FC93
:100840004FF4FA7002F0A4FC4FF4967240F22E219D
:10085000012002F003FFC8224FF4CE71022002F003
:10086000FDFEC8224FF4F671032002F0F7FE4FF4AC
:10087000967240F2E511042002F0F0FE4FF49672F9
:100880007B21052002F0EAFE02F042FF4FF47A706D
:1008900002F07EFC4FF4FA7002F07AFC4FF496728C
:1008A00040F21F21012002F0D9FE4FF49672A821D8
:1008B000022002F0D3FE4FF496724FF432710320FF
:1008C00002F0CCFE4FF4967240F20E21042002F0AA
:1008D000C5FE4FF49672AA21052002F0BFFE4FF428
:1008E000967240F21331062002F0B8FE02F010FFBB
:1008F0004FF47A7002F04CFC4FF4967240F2C7113C
:10090000012002F0ABFE4FF49672DF21022002F0CC
:10091000A5FE4FF4967240F2C121032002F09EFE24
:100920004FF4967240F23121042002F097FE4FF40A
:10093000967240F2E511052002F090FEC82240F2C6
:10094000E511062002F08AFE02F0E2FE4FF47A7012
:1009500002F01EFC4FF47A7002F01AFC4FF47A7029
:1009600002F016FC10BD10B54FF4967240F2C9119A
:10097000012002F073FE4FF49672E021022002F093
:100980006DFE4FF4967240F2C121032002F066FE24
:100990004FF4AF7240F22E21042002F05FFE4FF4BC
:1009A0009672A321052002F059FE4FF4967240F290
:1009B000D221062002F052FE02F0AAFE4FF47A7015
:1009C00002F0E6FB4FF4967002F0E2FB4FF49672F1
:1009D00040F2AF11022002F041FE4FF496724FF444
:1009E000FF71032002F03AFE4FF496729D2105201C
:1009F00002F034FE4FF496724FF43171062002F08B
:100A00002DFE02F085FE4FF47A7002F0C1FB4FF428
:100A1000967240F29321012002F020FE4FF496726C
:100A200040F2B711022002F019FE4FF496724FF413
:100A3000E771032002F012FE4FF4967240F2831128
:100A4000042002F00BFE4FF496724FF41D71052046
:100A500002F004FE4FF4967240F21731062002F0C5
:100A6000FDFD02F055FE4FF47A7002F091FB4FF459
:100A70007A7002F08DFB4FF4FA72D221082002F056
:100A8000EDFD02F045FE4FF47A7002F081FB4FF469
:100A9000967002F07DFB4FF4967240F247110920E8
:100AA00002F0DCFD96224FF4F371052002F0D6FD32
:100AB00002F02EFE4FF47A7002F06AFB4FF4AF7230
:100AC00040F2E511072002F0C9FD4FF496724FF491
:100AD0000571082002F0C2FD4FF496724FF4E971DF
:100AE000092002F0BBFD4FF496724FF44D710A20BD
:100AF00002F0B4FD02F00CFE4FF47A7002F048FBF5
:100B00004FF4967240F2E511062002F0A7FD02F0C4
:100B1000FFFD4FF47A7002F03BFB4FF4967240F207
:100B2000F111072002F09AFD4FF496724FF45671BE
:100B3000082002F093FD4FF496724FF4E9710920FA
:100B400002F08CFD4FF496724FF4FA710A2002F015
:100B500085FD02F0DDFD4FF47A7002F019FB4FF4D1
:100B6000167002F015FBC822A821062002F076FDBF
:100B700002F0CEFD4FF47A7002F00AFB4B224FF4E4
:100B80009F71052002F06AFD02F0C2FD4FF47A70F9
:100B900002F0FEFA4FF4967240F21F21012002F09B
:100BA0005DFD4FF496724FF4CC71022002F056FDB9
:100BB0004FF4967240F2E911032002F04FFD4FF41A
:100BC000967240F20E21042002F048FD4FF4967216
:100BD00040F29B21052002F041FD02F099FD4FF407
:100BE000487002F0D5FA4FF49672A821022002F064
:100BF00035FD4FF496724FF43271032002F02EFD52
:100C00004FF496724FF44871052002F027FD4FF41F
:100C10009672B721062002F021FD4FF4967240F241
:100C2000EF11072002F01AFD02F072FD4FF47A7006
:100C300002F0AEFA4FF4967240F2C711012002F0B2
:100C40000DFD4FF49672DF21022002F007FD4FF4F4
:100C5000967240F2C121032002F000FD4FF496721B
:100C600040F23121042002F0F9FC4FF4967240F278
:100C7000E511052002F0F2FC4FF4967240F2E51106
:100C8000062002F0EBFC4FF4967240F2EF110720C1
:100C900002F0E4FC02F03CFD4FF47A7002F078FAC6
:100CA0004FF47A7002F074FA4FF47A7002F070FA2E
:100CB00010BD10B54FF4C8724FF4F571012002F069
:100CC000CDFC4FF4E172F721022002F0C7FC4FF493
:100CD000967240F28A21032002F0C0FC4FF4AF72FA
:100CE0004FF40A71042002F0B9FC4FF4167240F27E
:100CF0005331052002F0B2FC4FF4FA72F0210620C5
:100D000002F0ACFC02F004FD4FF47A7002F040FAFD
:100D1000C82002F03DFA4FF4967240F26F110120A4
:100D200002F09CFCFA22A921022002F097FCFA2290
:100D300040F2BB21032002F091FC4FF496724FF475
:100D4000FF71042002F08AFC4FF4967240F2CD212C
:100D5000052002F083FC4FF4967240F2AF1106209A
:100D600002F07CFC4FF496724FF4F871072002F009
:100D700075FC4FF496724FF45671082002F06EFC29
:100D80004FF4967240F2D911092002F067FC4FF43B
:100D9000967240F2DD110A2002F060FC02F0B8FC0D
:100DA0004FF47A7002F0F4F9C82002F0F1F94FF430
:100DB0009672FE21032002F051FC4FF4FA7240F2C9
:100DC0000D11042002F04AFC02F0A2FC4FF47A70EC
:100DD00002F0DEF94FF4167002F0DAF94FF4C8723F
:100DE000B721012002F03AFCC82240F2171102207C
:100DF00002F034FC02F08CFC4FF4167002F0C8F9DB
:100E00004FF4C87240F26F11012002F027FCC82293
:100E1000A921022002F022FC02F07AFC4FF41670A5
:100E200002F0B6F94FF4C872B721012002F016FCA7
:100E3000C82240F21711022002F010FC02F068FCF8
:100E40004FF4167002F0A4F94FF4C87240F26F111B
:100E5000012002F003FCC822A921022002F0FEFBBF
:100E600002F056FC4FF4167002F092F94FF4FA7249
:100E700040F2BB21032002F0F1FB4FF4AF724FF4BC
:100E80000471042002F0EAFB02F042FC4FF47A7095
:100E900002F07EF94FF4967240F2F111012002F057
:100EA000DDFBFA22EA21022002F0D8FB4FF4967211
:100EB0004FF42471032002F0D1FBFA224FF40971A0
:100EC000042002F0CBFB4FF4C87240F23E31052003
:100ED00002F0C4FB4FF4C8729521062002F0BEFB5D
:100EE0004FF4C87240F2DD11072002F0B7FB4FF457
:100EF000E17240F24131082002F0B0FB4FF4C872B9
:100F00004FF4EA71092002F0A9FB4FF4C87240F2D5
:100F1000DD110A2002F0A2FB02F0FAFB4FF47A7016
:100F200002F036F94FF496724FF4E471012002F0AA
:100F300095FB4FF49672D821022002F08FFB4FF4FC
:100F400096724FF43071032002F088FB4FF49672D2
:100F500040F23121042002F081FB4FF4AF7240F2E5
:100F6000E911052002F07AFB4FF4AF7240F2E7116D
:100F7000062002F073FB02F0CBFB4FF47A7002F014
:100F800007F94FF47A7002F003F94FF4967002F00B
:100F9000FFF810BD10B54FF496724FF4F5710120B3
:100FA00002F05CFB4FF49672F721022002F056FB30
:100FB0004FF4967240F28A21032002F04FFB4FF467
:100FC00096724FF40A71042002F048FB4FF4167237
:100FD00040F25331052002F041FB4FF4FA72F02148
:100FE000062002F03BFB02F093FB4FF47A7002F014
:100FF000CFF8C82002F0CCF84FF487724FF4F371A9
:10100000012002F02BFB4FF48772D221022002F064
:1010100025FB4FF4AF7240F2E121032002F01EFBEA
:101020004FF4AF7240F2B121042002F017FB4FF4ED
:10103000967240F2CF21052002F010FB4FF4967219
:1010400040F2ED11062002F009FB4FF4967240F2D7
:10105000E711072002F002FB4FF4967240F2513183
:10106000082002F0FBFA4FF496724FF4E971092060
:1010700002F0F4FA4FF4967240F2DD110A2002F009
:10108000EDFA02F045FB4FF47A7002F081F8C820C7
:1010900002F07EF8FA2240F24731012002F0DEFA37
:1010A000FA224FF42471022002F0D8FA02F030FB49
:1010B0004FF47A7002F06CF84FF4167002F068F892
:1010C000C82240F28221032002F0C8FA4FF4C8720D
:1010D00040F25B31042002F0C1FA02F019FB4FF438
:1010E000167002F055F8C82240F2E121032002F008
:1010F000B5FA4FF4C87240F2B121042002F0AEFA02
:1011000002F006FB4FF4167002F042F8C82240F2DB
:101110008221032002F0A2FA4FF4C87240F25B3140
:10112000042002F09BFA02F0F3FA4FF4167002F07A
:101130002FF8C82240F2E121032002F08FFA4FF489
:10114000C87240F2B121042002F088FA02F0E0FAFD
:101150004FF4167002F01CF84FF496724FF4F371CE
:10116000012002F07BFA4FF49672D421022002F0A3
:1011700075FA4FF4AF7240F2E121032002F06EFAEB
:101180004FF4AF7240F2B121042002F067FA4FF43D
:10119000967240F2CF21052002F060FA4FF4967269
:1011A00040F2ED11062002F059FA4FF4967240F227
:1011B000E711072002F052FA4FF4967240F25131D3
:1011C000082002F04BFA4FF496724FF4E9710920AF
:1011D00002F044FA4FF4967240F2DD110A2002F058
:1011E0003DFA02F095FA4FF47A7001F0D1FFC82071
:1011F00001F0CEFF4FF4967240F2C711012002F0C9
:101200002DFA4FF48772DF21022002F027FA4FF403
:10121000967240F2B221032002F020FA4FF4967247
:1012200040F23121042002F019FA4FF496724FF483
:101230004871052002F012FA4FF49672B721062089
:1012400002F00CFA02F064FA4FF47A7001F0A0FF99
:10125000C82001F09DFF4FF4967240F2C7110120A3
:1012600002F0FCF94FF49672DF21022002F0F6F949
:101270004FF4967240F2B721032002F0EFF94FF4D9
:10128000967240F23121042002F0E8F94FF4967290
:1012900040F2E511052002F0E1F94FF4967240F2B8
:1012A000E511062002F0DAF902F032FA4FF47A7012
:1012B00001F06EFF4FF47A7001F06AFF4FF47A701C
:1012C00001F066FF10BD10B54FF4C8724FF4F57110
:1012D000012002F0C3F94FF4E172F721022002F07D
:1012E000BDF94FF4967240F28A21032002F0B6F95C
:1012F0004FF4AF724FF40A71042002F0AFF94FF4CB
:10130000167240F25331052002F0A8F94FF4FA7238
:10131000F021062002F0A2F902F0FAF94FF47A70F7
:1013200001F036FFC82001F033FF4FF4967240F20F
:10133000D511012002F092F94FF496729F210220FC
:1013400002F08CF94FF4967240F2CB21032002F0A8
:1013500085F94FF4967240F24721042002F07EF99D
:101360004FF4967240F2BE21052002F077F94FF457
:10137000FA7240F2DB11062002F070F902F0C8F9AF
:101380004FF47A7001F004FFC82001F001FF4FF420
:10139000C872EC21012002F061F94FF4C8724FF4D9
:1013A000BF71022002F05AF94FF4C8724FF4FA717B
:1013B000032002F053F94FF4C87240F23531042093
:1013C00002F04CF94FF4FA724FF43C71052002F030
:1013D00045F902F09DF94FF42F7001F0D9FE4FF45A
:1013E000967240F2D511012002F038F94FF496724E
:1013F0009F21022002F032F94FF4967240F2CB2185
:10140000032002F02BF94FF4967240F2472104209A
:1014100002F024F94FF4967240F2BE21052002F04A
:101420001DF94FF4967240F2DB11062002F016F916
:1014300002F06EF94FF42F7001F0AAFE4FF4C8725B
:10144000EC21012002F00AF94FF4C8724FF4BF7189
:10145000022002F003F94FF4C8724FF4FA7103202E
:1014600002F0FCF84FF4C87240F23531042002F06B
:10147000F5F84FF4FA724FF43C71052002F0EEF8E3
:1014800002F046F94FF42F7001F082FE4FF496728D
:1014900040F2D511012002F0E1F84FF496729F213D
:1014A000022002F0DBF84FF4967240F2CB210320C9
:1014B00002F0D4F84FF4967240F24721042002F073
:1014C000CDF84FF4967240F2BE21052002F0C6F826
:1014D0004FF4967240F2DB11062002F0BFF802F0E2
:1014E00017F94FF4487001F053FEC8224FF4F5711C
:1014F000012002F0B3F8C822A821022002F0AEF8C1
:10150000C8224FF43271032002F0A8F8C8224FF429
:101510000A71042002F0A2F84FF496724FF4487159
:10152000052002F09BF84FF4C872B721062002F0A4
:1015300095F802F0EDF84FF4487001F029FE4FF4F1
:10154000967240F2C711012002F088F84FF49672AB
:10155000DF21022002F082F84FF4967240F2C1219E
:10156000032002F07BF84FF4967240F23121042000
:1015700002F074F84FF4967240F2E511052002F083
:101580006DF84FF4967240F2E511062002F066F80D
:1015900002F0BEF84FF47A7001F0FAFD4FF47A7061
:1015A00001F0F6FD4FF47A7001F0F2FD10BD10B5B8
:1015B0004FF4967240F2F121012002F04FF84FF4FF
:1015C000C87240F29721022002F048F84FF4AF723F
:1015D0004FF4DB71032002F041F84FF4AF7240F298
:1015E0002F21042002F03AF84FF4967240F2E511F0
:1015F000052002F033F8642240F2E711062002F0E1
:101600002DF8C82240F25B21072002F027F8C822FB
:101610004FF46571082002F021F8962240F2E311A0
:10162000092002F01BF8C8224FF402710A2002F0D0
:1016300015F802F06DF84FF47A7001F0A9FDB422AC
:1016400040F24A21082002F009F8462240F2F9113E
:10165000072002F003F802F05BF84FF47A7001F013
:1016600097FD4FF4487001F093FD4FF4E17240F2A2
:101670004D31012001F0F2FF4FF4967240F2A921A2
:10168000022001F0EBFFC82240F20F11032001F00D
:10169000E5FF4FF4C872B321042001F0DFFF4FF4DF
:1016A00096724FF4F371072001F0D8FF4FF4967251
:1016B00040F28111082001F0D1FF02F029F84FF427
:1016C0007A7001F065FD4FF4967240F2B621022067
:1016D00001F0C4FF4FF4967240F21111032001F0A3
:1016E000BDFF4FF49672B621042001F0B7FF4FF40E
:1016F000967240F2A911092001F0B0FF4FF42F7249
:1017000040F2A2310A2001F0A9FF4FF48C724FF48D
:10171000C571072001F0A2FF4FF496724FF4C87113
:10172000082001F09BFF01F0F3FF4FF47A7001F005
:101730002FFD4FF48C724FF4F071012001F08EFFF9
:101740004FF48C724FF4D771022001F087FF4FF4F1
:10175000967240F2F111032001F080FF4FF496726F
:1017600040F23A21042001F079FF4FF4967240F2E2
:10177000E511072001F072FFC82240F2462108203F
:1017800001F06CFF4FF4967240F2DF11092001F076
:1017900065FF4FF4967240F201310A2001F05EFFBE
:1017A00001F0B6FF4FF4AF6001F0F2FC4FF4967217
:1017B00040F2C711012001F051FFC822DF210220B1
:1017C00001F04CFF4FF4167240F2C121032001F0EA
:1017D00045FF4FF4967240F23121042001F03EFFA4
:1017E0004FF4967240F2F111072001F037FF4FF4E9
:1017F000C8724FF45671082001F030FF642240F2A5
:10180000DF11092001F02AFF78224FF4FA710A2033
:1018100001F024FF01F07CFF4FF4FA7001F0B8FCF6
:101820004FF4AF724FF4FA710A2001F017FF01F084
:101830006FFF4FF4487001F0ABFC4FF47A7001F089
:10184000A7FC4FF47A7001F0A3FC4FF47A7001F01A
:101850009FFC10BD10B54FF4967240F21B21012081
:1018600001F0FCFE4FF4C87240F29F11022001F01B
:10187000F5FE4FF4AF7240F20F11032001F0EEFEBF
:101880004FF4AF72F021042001F0E8FE4FF496729D
:101890004FF4EF71072001F0E1FE64224FF4517123
:1018A000082001F0DBFE962240F28711092001F0AA
:1018B000D5FE4FF4967240F2C1110A2001F0CEFE1F
:1018C00001F026FF4FF47A7001F062FC82224FF49F
:1018D00039710A2001F0C2FE01F01AFF4FF448707E
:1018E00001F056FC502240F2A511092001F0B6FE8D
:1018F0004FF4487001F04CFC4FF496724FF446716F
:10190000012001F0ABFE4FF4967240F29E210220BE
:1019100001F0A4FE4FF4967240F21511032001F07D
:101920009DFE4FF49672D621042001F097FE4FF4ED
:10193000967240F2FD11092001F090FE4FF496726C
:101940004FF475710A2001F089FE01F0E1FE4FF4B9
:101950007A7001F01DFC4FF4967240F203210720CB
:1019600001F07CFE4FF42F724FF4C771082001F094
:1019700075FE4FF4AF7240F29221092001F06EFE25
:1019800001F0C6FE4FF47A7001F002FC4FF496723B
:1019900040F2B511022001F061FE4FF4967240F260
:1019A000F711032001F05AFE4FF496724FF40071C4
:1019B000042001F053FE4FF4967240F2F11107201B
:1019C00001F04CFE4FF4967240F22E21082001F0F7
:1019D00045FE4FF4967240F21321092001F03EFEBD
:1019E0004FF4AF7240F22A310A2001F037FE01F0C5
:1019F0008FFE4FF4617001F0CBFB4FF4967240F212
:101A0000C711012001F02AFE4FF41672DF210220D7
:101A100001F024FEC82240F2C121032001F01EFE85
:101A20004FF4967240F23121042001F017FE4FF47A
:101A3000967240F2E511052001F010FE4FF4967207
:101A400040F2E511062001F009FE4FF48C7240F2DD
:101A5000F111072001F002FE8C224FF4567108208C
:101A600001F0FCFD4FF4AF724FF4E971092001F071
:101A7000F5FD4FF448724FF4F5710A2001F0EEFDC8
:101A800001F046FE4FF47A7001F082FB4FF47A7059
:101A900001F07EFB4FF47A7001F07AFB10BD10B5B7
:101AA0004FF4967240F21B21012001F0D7FD4FF454
:101AB000C87240F29F11022001F0D0FD4FF4AF72C6
:101AC00040F20F11032001F0C9FD4FF4AF72F02175
:101AD000042001F0C3FD4FF496724FF4EF7107201C
:101AE00001F0BCFD64224FF45171082001F0B6FDF5
:101AF000962240F28711092001F0B0FD4FF4967252
:101B000040F2C1110A2001F0A9FD01F001FE4FF4DD
:101B10007A7001F03DFB82224FF439710A2001F006
:101B20009DFD502240F2C311092001F097FD01F004
:101B3000EFFD4FF47A7001F02BFB4FF4487001F089
:101B400027FB4FF496724FF44671012001F086FD99
:101B50004FF4967240F29E21022001F07FFD4FF477
:101B6000967240F21511032001F078FD4FF4967241
:101B7000D621042001F072FD4FF4967240F2FD115F
:101B8000092001F06BFD4FF496724FF475710A2035
:101B900001F064FD01F0BCFD4FF47A7001F0F8FA39
:101BA0004FF4967240F20321072001F057FD4FF4E5
:101BB0002F724FF4C771082001F050FD4FF4AF723F
:101BC00040F29221092001F049FD01F0A1FD4FF4FE
:101BD0007A7001F0DDFA01F09BFD4FF47A7001F0AC
:101BE000D7FA4FF47A7001F0D3FA4FF47A7001F01B
:101BF000CFFA10BD10B54FF4C8724FF4F571012043
:101C000001F02CFD4FF4E172F721022001F026FDD6
:101C10004FF4967240F28A21032001F01FFD4FF429
:101C2000AF724FF40A71042001F018FD4FF41672E0
:101C300040F25331052001F011FD4FF4FA72F0210A
:101C4000062001F00BFD01F063FD4FF4487001F038
:101C50009FFA4FF496724FF4C871022001F0FEFC17
:101C60004FF496724FF4F471032001F0F7FC4FF437
:101C70009672FD21062001F0F1FC01F049FD4FF4C0
:101C8000FA7001F085FA4FF4967240F29321012028
:101C900001F0E4FC4FF4967240F2B711022001F01B
:101CA000DDFC4FF496724FF4E771032001F0D6FC8F
:101CB0004FF4967240F28311042001F0CFFC4FF4F0
:101CC00096724FF4A071052001F0C8FC4FF4967293
:101CD000AA21062001F0C2FC01F01AFD4FF4487061
:101CE00001F056FA4FF47A7001F052FA4FF4FA729A
:101CF000D221082001F0B2FC01F00AFD4FF47A7005
:101D000001F046FAC82001F043FAC8224FF4F371FB
:101D1000052001F0A3FC4FF4967240F24711092010
:101D200001F09CFC01F0F4FC4FF47A7001F030FA01
:101D30004FF4AF7240F2E511072001F08FFC4FF431
:101D400096724FF40571082001F088FC4FF49672EA
:101D50004FF4E971092001F081FC4FF496724FF4C1
:101D60004D710A2001F07AFC01F0D2FC4FF47A7038
:101D700001F00EFA4FF4967240F2E511062001F0E0
:101D80006DFC01F0C5FC4FF47A7001F001FA4FF4DC
:101D9000967240F2F111072001F060FC4FF4967248
:101DA0004FF45671082001F059FC4FF496724FF42D
:101DB000FA710A2001F052FC01F0AAFC4FF47A708B
:101DC00001F0E6F94FF4167001F0E2F94FF4AF724A
:101DD00040F20121012001F041FC4FF4AF7240F2CA
:101DE0007721022001F03AFC4FF4AF7240F2231148
:101DF000032001F033FC4FF4AF724FF40271042062
:101E000001F02CFC01F084FC4FF47A7001F0C0F971
:101E10004FF47A7001F0BCF9FA2240F2053101204A
:101E200001F01CFCFA224FF4BD71022001F016FCF7
:101E3000FA224FF4FF71032001F010FCFA224FF454
:101E40009171042001F00AFC01F062FC4FF47A70F9
:101E500001F09EF9C82001F09BF9C822A8210620B4
:101E600001F0FCFB01F054FC4FF47A7001F090F9A2
:101E70004B224FF49F71052001F0F0FB01F048FC6C
:101E80004FF47A7001F084F94FF4967240F21F21FA
:101E9000012001F0E3FB4FF496724FF4CC71022065
:101EA00001F0DCFB4FF4967240F2E911032001F0DF
:101EB000D5FB4FF4967240F20E21042001F0CEFBC8
:101EC0004FF4967240F29B21052001F0C7FB01F010
:101ED0001FFC4FF4487001F05BF94FF49672A82193
:101EE000022001F0BBFB4FF496724FF432710320D5
:101EF00001F0B4FB4FF496724FF44871052001F0E5
:101F0000ADFB4FF49672B721062001F0A7FB4FF40A
:101F1000967240F2EF11072001F0A0FB01F0F8FBF0
:101F20004FF47A7001F034F94FF4967240F2C71111
:101F3000012001F093FB4FF49672DF21022001F0A3
:101F40008DFB4FF4967240F2C121032001F086FB15
:101F50004FF4967240F23121042001F07FFB4FF4E0
:101F6000967240F2E511052001F078FB4FF496726D
:101F700040F2E511062001F071FB4FF4967240F239
:101F8000EF11072001F06AFB01F0C2FB4FF47A70F9
:101F900001F0FEF84FF47A7001F0FAF84FF47A701D
:101FA00001F0F6F810BD10B54FF4C8724FF4F5719A
:101FB000012001F053FB4FF4E172F721022001F000
:101FC0004DFB4FF4967240F28A21032001F046FB4C
:101FD0004FF4AF724FF40A71042001F03FFB4FF44D
:101FE000167240F25331052001F038FB4FF4FA72BB
:101FF000F021062001F032FB01F08AFB4FF448701B
:1020000001F0C6F84FF496724FF4C871022001F047
:1020100025FB4FF496724FF4F471032001F01EFB80
:102020004FF49672FD21062001F018FB01F070FBC1
:102030004FF4FA7001F0ACF84FF4967240F293212D
:10204000012001F00BFB4FF4967240F2B711022011
:1020500001F004FB4FF496724FF4E771032001F096
:10206000FDFA4FF4967240F28311042001F0F6FA63
:102070004FF496724FF4A071052001F0EFFA4FF47F
:102080009672AA21062001F0E9FA01F041FB4FF413
:10209000487001F07DF84FF47A7001F079F84FF450
:1020A000FA72D221082001F0D9FA01F031FB4FF485
:1020B0007A7001F06DF8C82001F06AF8C8224FF478
:1020C000F371052001F0CAFA4FF4967240F24711FD
:1020D000092001F0C3FA01F01BFB4FF47A7001F004
:1020E00057F84FF4AF7240F2E511072001F0B6FA4D
:1020F0004FF496724FF40571082001F0AFFA4FF4D7
:1021000096724FF44D710A2001F0A8FA01F000FB1D
:102110004FF47A7001F03CF84FF4967240F2E511FA
:10212000062001F09BFA01F0F3FA4FF47A7001F007
:102130002FF84FF4967240F2F111072001F08EFA59
:102140004FF496724FF45671082001F087FA4FF45D
:1021500096724FF4E971092001F080FA4FF49672FB
:102160004FF4FA710A2001F079FA01F0D1FA4FF434
:102170007A7001F00DF84FF4167001F009F84FF481
:10218000AF7240F20121012001F068FA4FF4AF7202
:1021900040F27721022001F061FA4FF4AF7240F271
:1021A0002311032001F05AFA4FF4AF724FF4027179
:1021B000042001F053FA01F0ABFA4FF47A7000F00A
:1021C000E7FF4FF47A7000F0E3FF4FF4AF724FF483
:1021D0000671082001F042FA4FF4AF724FF44D71CE
:1021E0000A2001F03BFA01F093FA4FF47A7000F004
:1021F000CFFF4FF4FA7000F0CBFF4FF4967240F22D
:10220000F111072001F02AFA4FF496724FF456713B
:10221000082001F023FA4FF496724FF4E971092077
:1022200001F01CFA4FF496724FF4FA710A2001F093
:1022300015FA01F06DFA4FF47A7000F0A9FFFA2256
:1022400040F20531012001F009FAFA224FF4BD7184
:10225000022001F003FAFA224FF4FF71032001F08B
:10226000FDF9FA224FF49171042001F0F7F901F021
:102270004FFA4FF47A7000F08BFFC82000F088FF0F
:10228000C822A821062001F0E9F901F041FA4FF433
:102290007A7000F07DFF4B224FF49F71052001F012
:1022A000DDF901F035FA4FF47A7000F071FF4FF468
:1022B000967240F21F21012001F0D0F94FF496727E
:1022C0004FF4CC71022001F0C9F94FF4967240F23C
:1022D000E911032001F0C2F94FF4967240F20E2189
:1022E000042001F0BBF94FF4967240F29B210520C7
:1022F00001F0B4F901F00CFA4FF4487000F048FF17
:102300004FF49672A821022001F0A8F94FF49672BA
:102310004FF43271032001F0A1F94FF496724FF49B
:102320004871052001F09AF94FF49672B721062002
:1023300001F094F94FF4967240F2EF11072001F08A
:102340008DF901F0E5F94FF47A7000F021FF4FF4B8
:10235000967240F2C711012001F080F94FF4967295
:10236000DF21022001F07AF94FF4967240F2C12188
:10237000032001F073F94FF4967240F231210420EA
:1023800001F06CF94FF4967240F2E511052001F06E
:1023900065F94FF4967240F2E511062001F05EF9FE
:1023A0004FF4967240F2EF11072001F057F901F057
:1023B000AFF94FF47A7000F0EBFE4FF47A7000F052
:1023C000E7FE4FF47A7000F0E3FE10BD10B54FF455
:1023D000967240F2F121012001F040F94FF4C872E9
:1023E00040F29721022001F039F94FF4AF724FF417
:1023F000DB71032001F032F94FF4AF7240F22F216C
:10240000042001F02BF94FF4967240F2E5110520FB
:1024100001F024F9642240F2E711062001F01EF9D0
:10242000C82240F25B21072001F018F9C8224FF4BE
:102430006571082001F012F9962240F2E31109209B
:1024400001F00CF9C82240F216210A2001F006F929
:1024500001F05EF94FF47A7000F09AFE962240F295
:102460004A21082001F0FAF8322240F2F91107203F
:1024700001F0F4F801F04CF94FF47A7000F088FEA6
:102480004FF4487000F084FE4FF4967240F22E2113
:10249000012001F0E3F84FF4967240F20721022088
:1024A00001F0DCF84FF49672511D032001F0D6F8CC
:1024B0004FF496724FF48671042001F0CFF84FF478
:1024C00096724FF4CD71082001F0C8F801F020F9A0
:1024D0004FF47A7000F05CFE4FF49672D121032025
:1024E00001F0BCF84FF4AF72F021042001F0B6F80F
:1024F000FA224FF4C871072001F0B0F84FF4967239
:102500004FF45D710A2001F0A9F801F001F94FF4D0
:102510002F7000F03DFEC82240F2F111072001F0BB
:102520009DF8C8224FF45671082001F097F801F089
:10253000EFF84FF4967000F02BFEC82240F2C7115E
:10254000012001F08BF8C822FA21022001F086F860
:10255000C82240F2F111072001F080F8C8224FF4A0
:102560005671082001F07AF8C8224FF4E971092069
:1025700001F074F8C8224FF4FA710A2001F06EF8E5
:1025800001F0C6F84FF47A7000F002FE4FF47A7052
:1025900000F0FEFDC8224FF4A271022001F05EF8A7
:1025A000C82240F2D321082001F058F8C82240F296
:1025B00062210A2001F052F801F0AAF84FF47A7073
:1025C00000F0E6FDC822DF21022001F047F8C82212
:1025D0004FF45671082001F041F8C8224FF4FA7107
:1025E0000A2001F03BF801F093F84FF47A7000F004
:1025F000CFFDC8224FF4A271022001F02FF8C822AB
:1026000040F2D321082001F029F8C82240F26121CC
:102610000A2001F023F801F07BF84FF47A7000F003
:10262000B7FDC822DF21022001F018F8C8224FF4BC
:102630005671082001F012F8C8224FF4FA710A20EE
:1026400001F00CF801F064F84FF47A7000F0A0FD8E
:10265000C82240F27F21022001F000F8C822EC21BC
:10266000032000F0FBFF1E224FF4AB71042000F0AA
:10267000F5FFC82240F2F311072000F0EFFFC82257
:1026800040F28D11082000F0E9FF01F041F84FF40D
:102690007A7000F07DFD4FF47A7000F079FD4FF410
:1026A000FA7000F075FD4FF47A7000F071FD4FF490
:1026B0007A7000F06DFD4FF47A7000F069FD10BD86
:1026C00010B54FF496724FF4E471012000F0C6FF8C
:1026D0004FF4967240F2C121022000F0BFFF4FF488
:1026E000967240F24D11032000F0B8FF4FF496723D
:1026F00040F22221072000F0B1FF4FF4967240F221
:102700008531082000F0AAFF4FF4967240F20F21A5
:10271000092000F0A3FF4FF4967240F211210A2025
:1027200000F09CFF00F0F4FF4FF47A7000F030FDF1
:10273000A0224FF41671072000F090FFA0224FF462
:102740006571082000F08AFF4FF47A7000F020FDD8
:10275000C82000F01DFD50224FF4E571092000F063
:102760007DFFA02240F2FA310A2000F077FF00F04E
:10277000CFFF4FF47A7000F00BFD4FF47A7000F049
:1027800007FDFA2240F25F21012000F067FFFA22E4
:1027900040F29F21042000F061FFC8224FF4E57150
:1027A000092000F05BFF00F0B3FF4FF4487000F029
:1027B000EFFCFA2240F28B11012000F04FFF4FF4A2
:1027C000AF7240F22B11042000F048FFC82240F203
:1027D0008221092000F042FF00F09AFF4FF4487078
:1027E00000F0D6FCFA2240F25F21012000F036FF13
:1027F000FA2240F29F21042000F030FFC8224FF45B
:10280000E571092000F02AFF00F082FF4FF44870C4
:1028100000F0BEFCFA2240F28B11012000F01EFFF6
:102820004FF4AF7240F22B11042000F017FFC822C2
:1028300040F28221092000F011FF00F069FF4FF4FF
:102840007A7000F0A5FC4FF4C87000F0A1FCFA22E9
:102850004FF4E271012000F001FFFA22DB21022097
:1028600000F0FCFEFA2240F2C521032000F0F6FE43
:10287000FA224FF40171042000F0F0FEC8224FF458
:10288000EA71092000F0EAFEC8224FF4FA710A202A
:1028900000F0E4FE00F03CFF4FF47A7000F078FCAA
:1028A0004FF4487000F074FCC8224FF4F97107200F
:1028B00000F0D4FEC82240F25A31082000F0CEFECB
:1028C00000F026FF4FF47A7000F062FCFA2240F22A
:1028D000E511052000F0C2FEFA2240F2E7110620C1
:1028E00000F0BCFE00F014FF4FF47A7000F050FCD2
:1028F0004FF496724FF4FF71012000F0AFFE4FF4D9
:1029000096724FF4D671022000F0A8FE4FF4967232
:1029100040F2FD11032000F0A1FE4FF4967240F248
:102920002121042000F09AFE4FF4967240F2093102
:10293000052000F093FEC822D621062000F08EFE6E
:102940004FF496724FF4EE71072000F087FE642278
:1029500040F20E31082000F081FE4FF4967240F2F2
:102960008111092000F07AFE4FF496724FF4D7716E
:102970000A2000F073FE00F0CBFE4FF47A7000F0F6
:1029800007FC9622F021082000F068FE4FF49672B2
:102990004FF4FA71072000F061FE00F0B9FE4FF429
:1029A0007A7000F0F5FB4FF47A7000F0F1FB4FF411
:1029B0007A7000F0EDFB4FF496724FF4AD71012088
:1029C00000F04CFE4FF4967240F23E21022000F0DF
:1029D00045FE4FF496724FF49B71032000F03EFECB
:1029E0004FF4967240F2EB21042000F037FE00F025
:1029F0008FFE4FF42F7000F0CBFB4FF496724FF424
:102A00002F71012000F02AFE4FF4967240F20B1154
:102A1000022000F023FE4FF4967240F2A221032020
:102A200000F01CFE4FF49672DA21042000F016FE2E
:102A300000F06EFE4FF47A7000F0AAFB4FF496722D
:102A40004FF4AD71012000F009FE4FF4967240F290
:102A50003E21022000F002FE4FF496724FF49B716B
:102A6000032000F0FBFD4FF4967240F2EB210420AE
:102A700000F0F4FD00F04CFE4FF47A7000F088FB9B
:102A80004FF496724FF42F71012000F0E7FD4FF4E0
:102A9000967240F20B11022000F0E0FD4FF49672A6
:102AA00040F2A221032000F0D9FD4FF49672DA2102
:102AB000042000F0D3FD00F02BFE4FF42F7000F047
:102AC00067FB4FF496724FF4FF71012000F0C6FDD2
:102AD0004FF496724FF4D671022000F0BFFD4FF410
:102AE000967240F2FD11032000F0B8FD4FF496728B
:102AF00040F22121042000F0B1FD00F009FE4FF466
:102B00007A7000F045FB962240F2BE21022000F0D0
:102B1000A5FD9622FE21032000F0A0FD4FF4967241
:102B200040F23E31052000F099FDC82240F221110B
:102B3000062000F093FDC8229F21082000F08EFDA2
:102B400000F0E6FD4FF47A7000F022FBC82000F0A0
:102B50001FFB4FF496724FF41171012000F07EFDBF
:102B60004FF496724FF4C071042000F077FD00F02E
:102B7000CFFD4FF47A7000F00BFB4FF4967000F02D
:102B800007FB4FF496724FF4FF71012000F066FDD1
:102B90004FF496724FF4D671022000F05FFD4FF4AF
:102BA000967240F2FD11032000F058FD4FF496722A
:102BB00040F22121042000F051FD00F0A9FD4FF466
:102BC0007A7000F0E5FA4FF4967240F2EB110720AC
:102BD00000F044FDC82240F22931082000F03EFDFB
:102BE0004FF496724FF4C271092000F037FD4FF494
:102BF00096724FF4D7710A2000F030FD00F088FD86
:102C00004FF47A7000F0C4FA4FF47A7000F0C0FA12
:102C10004FF47A7000F0BCFA4FF4967240F2E5116E
:102C2000052000F01BFD4FF4967240F2E5110620DE
:102C300000F014FD4FF4967240F2F111072000F0FD
:102C40000DFD4FF496724FF45671082000F006FD0A
:102C50004FF496724FF4E971092000F0FFFC4FF435
:102C600096724FF4FA710A2000F0F8FC00F050FD63
:102C70004FF4487000F08CFA4FF4967240F2C7118E
:102C8000012000F0EBFC4FF49672DF21022000F0EF
:102C9000E5FC4FF4967240F2C121032000F0DEFC07
:102CA0004FF4967240F23121042000F0D7FC00F07E
:102CB0002FFD4FF47A7000F06BFA4FF47A7000F049
:102CC00067FA10BD10B564224FF4E171092000F0DD
:102CD000C5FC00F01DFD4FF4FA7000F059FA4FF4F6
:102CE00096724FF42F71012000F0B8FC4FF49672E9
:102CF0004FF42A71022000F0B1FC4FF496724FF4A9
:102D00000071032000F0AAFC4FF496724FF400719A
:102D1000042000F0A3FCC8224FF4B971072000F092
:102D20009DFCC8224FF4B971092000F097FC00F017
:102D3000EFFC41F2883000F02BFA4FF42F7240F292
:102D4000C711012000F08AFC4FF42F72DF2102200E
:102D500000F084FC4FF461724FF49671072000F08C
:102D60007DFC00F0D5FC4FF47A7000F011FA4FF4BE
:102D70002F721146082000F071FC4FF42F724FF4AF
:102D8000E171072000F06AFC00F0C2FC4FF4FA6029
:102D900000F0FEF94FF496724FF44371082000F0F2
:102DA0005DFC4FF4967251000A2000F057FC00F0D1
:102DB000AFFC4FF47A7000F0EBF996224FF45671A5
:102DC000082000F04BFC4FF4967240F2F1110720FE
:102DD00000F044FC4FF4967240F226210A2000F0E5
:102DE0003DFC4FF4967240F22621092000F036FC9B
:102DF00000F08EFC4FF47A7000F0CAF964224FF4B0
:102E0000FA710A2000F02AFC64224FF4E1710920D3
:102E100000F024FC00F07CFC4FF47A7000F0B8F96C
:102E20004FF496724FF42F71012000F017FC4FF40D
:102E300096724FF42A71022000F010FC4FF4967243
:102E40004FF40071032000F009FC4FF496724FF428
:102E50000071042000F002FCC8224FF4B971072071
:102E600000F0FCFBC8224FF4B971092000F0F6FB1A
:102E700000F04EFC41F2883000F08AF94FF42F72D6
:102E800040F2C711012000F0E9FB4FF42F72DF215F
:102E9000022000F0E3FB4FF461724FF496710720BB
:102EA00000F0DCFB00F034FC4FF47A7000F070F9B5
:102EB0004FF42F721146082000F0D0FB4FF42F7210
:102EC0004FF4E171072000F0C9FB00F021FC4FF442
:102ED000FA6000F05DF94FF496724FF443710820E8
:102EE00000F0BCFB4FF4967251000A2000F0B6FBD4
:102EF00000F00EFC4FF47A7000F04AF996224FF47D
:102F00005671082000F0AAFB4FF4967240F2F111BE
:102F1000072000F0A3FB4FF4967240F226210A200E
:102F200000F09CFB4FF4967240F22621092000F03D
:102F300095FB00F0EDFB4FF47A7000F029F9FDF7F6
:102F400095FA4FF4965000F023F9FEF7A8FD10BD56
:102F500010B54FF4C8724FF4F571012000F07EFBFC
:102F60004FF4E172F721022000F078FB4FF49672E3
:102F700040F28A21032000F071FB4FF4AF724FF44E
:102F80000A71042000F06AFB4FF4167240F25331CC
:102F9000052000F063FB4FF4FA72F021062000F0E8
:102FA0005DFB00F0B5FB4FF47A7000F0F1F8C8203B
:102FB00000F0EEF84FF4967240F20531012000F077
:102FC0004DFB4FF496724FF4BD71022000F046FBAA
:102FD0004FF496724FF4FF71032000F03FFB4FF463
:102FE00096724FF49171042000F038FB4FF4967202
:102FF0004FF4A071052000F031FB4FF49672AA2126
:10300000062000F02BFB00F083FB4FF4487000F02B
:10301000BFF84FF47A7000F0BBF84FF4FA72D22187
:10302000082000F01BFB00F073FB4FF47A7000F0F7
:10303000AFF8C82000F0ACF84FF496724FF4F57179
:10304000032000F00BFB4FF496724FF49B710420A9
:1030500000F004FB00F05CFBC82000F099F84FF48E
:1030600048725110092000F0F9FA962240F203212B
:10307000052000F0F3FA00F04BFB4FF47A7000F0FB
:1030800087F84FF4967240F21E21082000F0E6FA0D
:103090004FF496724FF4E971092000F0DFFA4FF413
:1030A000A5724FF44D710A2000F0D8FA00F030FB01
:1030B0004FF4487000F06CF84FF496724FF456716C
:1030C000082000F0CBFA4FF496724FF4EB71062013
:1030D00000F0C4FA4FF4967240F2F111072000F0AC
:1030E000BDFA4FF496724FF4E971092000F0B6FA78
:1030F000FA2251000A2000F0B1FA00F009FB4FF467
:103100007A7000F045F8C82000F042F810BD0000C9
:103110004FF0E021096921F004014FF0E022116134
:10312000C21700EB5272C2F3C7022B4B1A7019463A
:10313000097801EB4102C2EBC1114FF6FF7202EABE
:10314000C101264A118070470146234A12784A433A
:103150004FF0E0235A6100229A611A46126942F048
:1031600001021A6100BF4FF0E022106900F0010275
:103170001AB100F48032002AF5D04FF0E022126933
:1031800022F001024FF0E0231A6100229A61704799
:103190000146124A12884A434FF0E0235A61002246
:1031A0009A611A46126942F001021A6100BF4FF09B
:1031B000E022106900F001021AB100F48032002A06
:1031C000F5D04FF0E022126922F001024FF0E02327
:1031D0001A6100229A617047140000201600002036
:1031E00010B54FF4A06000F0FBFA10BD3A4A0A4057
:1031F00002433A4B1A60704700B500203849086115
:10320000C8601420486100208861C86108460068D1
:1032100040F00100086008464068324908403049E3
:10322000486008460068304908402D490860084653
:10323000006820F4802008600846406820F4FE0002
:1032400048600020886000214FF00060FFF7CEFF4B
:1032500000BD30B504460025FFF7CEFF20480068CA
:1032600040F480301E49086000BF1D480068400CD3
:103270000028FAD04FF4806019494860A01EC4B2FB
:103280000846406840EA844048600846406840F488
:10329000803048601548006840F0320013490860EB
:1032A0000F48006840F080700D49086000BF0C486E
:1032B0000068400E0028FAD00948406840F002003B
:1032C0000749486005E006484068C0F3870505F0F7
:1032D0000305022DF7D130BD80FFFF1F08ED00E090
:1032E000001002400000FFF8FFFFF6FE0020024041
:1032F000014600BF704770B504460D4600BF40212F
:10330000FE4801F005F80028F9D0E1B2FB4800F0D2
:1033100091FF204670BD10B586B004460121080516
:1033200000F0F5FD0121102000F0E4FD0121202036
:1033300000F0E0FD4FF48050ADF8140003208DF84C
:10334000160018208DF8170005A9ED4800F016FBAF
:103350004FF48050ADF8140010208DF817000320B2
:103360008DF8160005A9E74800F008FB4FF48051DE
:10337000E44800F0B0FB01940020ADF80800ADF87F
:103380000A00ADF80C00ADF810000C20ADF80E00EE
:1033900001A9DA4800F055FE0121D84800F0DDFE11
:1033A00006B010BD7047D549888000BFD349098851
:1033B00001F040010029F9D070472DE9FC5F064675
:1033C0000C4615460027B846B946BA46BB4600200B
:1033D00001900090B5F5806F02DB40F2FF3700E00E
:1033E0002F46B4F5806F02DB40F2FF3800E0A046C4
:1033F0004FEA272907F0FF0A4FEA282B08F0FF00C1
:103400000190FF20FFF7CFFFFF20FFF7CCFF3046F2
:10341000FFF7C9FF0720FFF7C6FF0320FFF7C3FF31
:103420000620FFF7C0FF0198FFF7BDFF5846FFF7E2
:10343000BAFF5046FFF7B7FF4846FFF7B4FF06F163
:10344000100001990844584450444844C0B20090C8
:103450000098C043C0B200900098FFF7A4FF00BFDF
:10346000A648008800F040000028F9D00220FFF7AD
:103470008FFEBDE8FC9F2DE9FC5F06460C46154615
:103480000027B846B946BA46BB46002001900090D6
:10349000B5F5806F02DB40F2FF3700E02F46B4F550
:1034A000806F02DB40F2FF3800E0A0464FEA272998
:1034B00007F0FF0A4FEA282B08F0FF000190FF20D9
:1034C000FFF771FFFF20FFF76EFF3046FFF76BFF3E
:1034D0000720FFF768FF0320FFF765FF1E20FFF7B7
:1034E00062FF0198FFF75FFF5846FFF75CFF504609
:1034F000FFF759FF4846FFF756FF06F128000199EC
:103500000844584450444844C0B200900098C04316
:10351000C0B200900098FFF746FF00BF77480088D0
:1035200000F040000028F9D00220FFF731FEBDE88E
:10353000FC9F2DE9F04F8BB081460C4615461E4688
:10354000DDE914784FF0000AD34600200A90099074
:1035500008900790069005900490039002900190C7
:103560000090A346AA460597CDF818804FEA2A2076
:103570000A900AF0FF0009904FEA2B2008900BF008
:10358000FF000790DDF818804FEA28200490DDF84E
:10359000188008F0FF000390059F38120290059FE5
:1035A000F8B20190FF20FFF7FEFEFF20FFF7FBFEC1
:1035B000FE20FFF7F8FE0E20FFF7F5FE8320FFF751
:1035C000F2FE1E20FFF7EFFE0420FFF7ECFE484658
:1035D000FFF7E9FE0798FFF7E6FE0898FFF7E3FE1E
:1035E0000998FFF7E0FE0A98FFF7DDFE3046FFF787
:1035F000DAFE0198FFF7D7FE0298FFF7D4FE039892
:10360000FFF7D1FE0498FFF7CEFE09F2B110811941
:103610000798014408980144099801440A98014414
:103620000198014402980144039801440498084415
:10363000C0B200900098C043C0B200900098FFF75D
:10364000B2FE00BF2D48008800F040000028F9D0ED
:103650000220FFF79DFD0BB0BDE8F08F2DE9FC5F68
:1036600006460C4615460027B846B946BA46BB463C
:103670000020019000902F46A0464FEA272907F02E
:10368000FF0A4FEA282B08F0FF000190FF20FFF708
:103690008AFEFF20FFF787FE3046FFF784FE0720F3
:1036A000FFF781FE0420FFF77EFE1E20FFF77BFE62
:1036B0000198FFF778FE5846FFF775FE5046FFF772
:1036C00072FE4846FFF76FFE06F129000199084493
:1036D000584450444844C0B200900098C043C0B21F
:1036E00000900098FFF75FFE00BF0448008800F0DC
:1036F00040000028F9D0022006E000000050004001
:103700000010014000140140FFF742FDBDE8FC9F9E
:1037100010B50024FF20FFF746FEFF20FFF743FE11
:10372000FE20FFF740FE0220FFF73DFE0520FFF7D9
:103730003AFE0524E043C4B22046FFF734FE00BF42
:103740001648008800F040000028F9D00220FFF75A
:103750001FFD10BD70B504460025FF20FFF723FEB6
:10376000FF20FFF720FE2046FFF71DFE0220FFF797
:103770001AFE0120FFF717FEE01CC5B2E843C5B2F0
:103780002846FFF710FE00BF0448008800F0400004
:103790000028F9D00220FFF7FBFC70BD005000406C
:1037A0000948804709480047FEE7FEE7FEE7FEE7D5
:1037B000FEE7FEE7FEE7FEE7FEE7FEE70448054911
:1037C000054A064B704700001F030008310100083E
:1037D000900000209006002090020020900200201F
:1037E00031490143314A1160704770B5002100230F
:1037F0000F22C47804B32D4C246804F4E064C4F5AB
:10380000E064210AC1F10403CA40447804FA03F1D8
:103810008478144021430901254C0678A155047889
:1038200004F01F050124AC4005786D11AD0005F1D1
:10383000E025C5F8004109E0047804F01F050124E3
:10384000AC401C4D0678761145F8264070BD1A4AEA
:103850000A400243154B1B1F1A60704739B1134AC7
:10386000121D12680243114B1B1D1A6006E00F4A1D
:10387000121D126882430D4B1B1D1A6070470428ED
:1038800008D14FF0E021096941F004014FF0E02236
:10389000116107E04FF0E021096921F004014FF0C8
:1038A000E0221161704700000000FA050CED00E015
:1038B00000E400E080E100E080FFFF1F10B5044657
:1038C000CC48844208D10121042000F02DFB0021C6
:1038D000042000F029FB46E0C748844208D10121BA
:1038E000082000F021FB0021082000F01DFB3AE039
:1038F000C248844208D10121102000F015FB0021AC
:10390000102000F011FB2EE0BD48844208D10121B7
:10391000202000F009FB0021202000F005FB22E020
:10392000B848844208D10121402000F0FDFA00216E
:10393000402000F0F9FA16E0B348844208D1012192
:10394000802000F0F1FA0021802000F0EDFA0AE07A
:10395000AE48844207D10121801500F0E5FA00212C
:10396000A01500F0E1FA10BD10B50121084600F0E5
:10397000DBFA0021012000F0D7FA10BD2DE9F0415B
:10398000024600250026002000230024002791F88D
:1039900003C00CF00F0591F803C00CF0100CBCF143
:1039A000000F03D091F802C04CEA050591F800C061
:1039B000BCF1000F31D0146800202BE04FF0010C57
:1039C0000CFA00F3B1F800C00CEA03069E4220D1C5
:1039D00083004FF00F0C0CFA03F7BC4305FA03FC0D
:1039E0004CEA040491F803C0BCF1280F06D14FF053
:1039F000010C0CFA00FCC2F814C00AE091F803C0F4
:103A0000BCF1480F05D14FF0010C0CFA00FCC2F8D4
:103A100010C0401C0828D1D31460B1F800C0BCF11C
:103A2000FF0F34DD546800202EE000F1080C4FF049
:103A3000010808FA0CF3B1F800C00CEA03069E4234
:103A400021D183004FF00F0C0CFA03F7BC4305FAA9
:103A500003FC4CEA040491F803C0BCF1280F05D123
:103A600000F1080C08FA0CF8C2F8148091F803C0B1
:103A7000BCF1480F07D100F1080C4FF0010808FA1B
:103A80000CF8C2F81080401C0828CED35460BDE862
:103A9000F0814FF6FF710180022181700421C17015
:103AA00070470246002093680B400BB1012000E0F4
:103AB000002070470146886880B2704702460020A7
:103AC000D3680B400BB1012000E000207047014695
:103AD000C86880B2704701617047416170470AB1A0
:103AE000016100E041617047C16070474FF480326E
:103AF0000A438261816182618269826970470246FC
:103B00000020434B18684FF68073184040EA0210BB
:103B100008433F4B186070473E49C8617047F0B595
:103B20000A46002300240021002500F00046B6F1DB
:103B3000004F02D1364EF16901E0354E7168C0F395
:103B4000034583B200F44016B6F5401F08D121F0BA
:103B500070612F4E766826F070662D4F7E6012E001
:103B600000F48016B6F5801F06D1032606FA05F488
:103B7000A14341F0706106E0460D360103FA06F6F6
:103B8000B14341F0706122B1460D360103FA06F6E9
:103B9000314300F00046B6F1004F02D11C4EF161F6
:103BA00001E01B4E7160F0BD30B500228B071C0F89
:103BB0000F2303FA04F2164B08338C1053F8243009
:103BC0009343134C08348D1044F8253023468C1051
:103BD00053F824308C07240F00FA04F423430C4CD0
:103BE00008348D1044F8253030BD0A49DC310860B6
:103BF0007047000000080140000C01400010014027
:103C00000014014000180140001C01400020014048
:103C10000000014000002042DF48006840F0010041
:103C2000DD49086008464068DC490840DA494860D8
:103C300008460068DA490840D74908600846006825
:103C400020F4802008600846406820F4FE004860A8
:103C50004FF41F0088607047CF49096821F4803114
:103C6000CD4A11601146096821F480211160B0F538
:103C7000803F03D0B0F5802F0ED106E0C649096819
:103C800041F48031C44A116007E0C349096841F436
:103C9000A021C14A116000E000BF00BF704710B50D
:103CA00001460022002300204A11012A02D1BA4C09
:103CB000236806E0022A02D1B74C236A01E0B64C21
:103CC000636A01F01F02012494401C400CB10120E2
:103CD00000E0002010BD38B5002000900024002531
:103CE00000BF3120FFF7DBFF05460098401C009025
:103CF0000098B0F5A06F01D0002DF2D03120FFF771
:103D0000CEFF08B1012400E00024204638BD014662
:103D10000020A14A106820F0F80040EAC1001060BD
:103D20007047A04908607047024600209A4B5868C7
:103D300020F47C1042EA01031843974B5860704707
:103D400098490866704701460020934A506820F061
:103D500003000843506070478F48406800F00C0033
:103D60007047014600208C4A506820F0F00008435C
:103D70005060704701460020874A506820F4E06098
:103D800008435060704701460020834A506820F481
:103D9000605040EAC1005060704729B17E4A527AB3
:103DA00002437D4B5A7204E07B4A527A82437A4B3B
:103DB0005A7270477B49D83108607047014600202D
:103DC000754A506820F44040084350607047002115
:103DD000714A20321170704A82F82010012802D0F6
:103DE00004280AD104E001216B4A2032117005E059
:103DF0000521694A2032117000E000BF00BF704702
:103E00006949086070476449096A0143624A11625E
:103E10007047654944390860704730B50021002279
:103E2000002400235C4D6D6805F00C0121B10429CC
:103E300005D0082923D105E05C4D056022E05B4DEB
:103E400005601FE0544D6D6805F47012524D6D68A9
:103E500005F48034022505EB92421CB9544D5543BC
:103E600005600BE04C4D6D6805F400351DB1504DFB
:103E70005543056002E04D4D5543056002E04B4D52
:103E8000056000BF00BF444D6D6805F0F0010909F1
:103E9000484D6B5C0568DD4045603F4D6D6805F43D
:103EA000E061090A434D6B5C4568DD4085603A4D31
:103EB0006D6805F46051C90A3E4D6B5C4568DD4094
:103EC000C560354D6D6805F44041890B3A4D6B5C1A
:103ED000C568B5FBF3F5056130BD29B12E4A5269BD
:103EE00002432D4B5A6104E02B4A526982432A4B0C
:103EF0005A61704729B1284A92690243264B9A6158
:103F000004E0254A92698243234B9A61704729B1A4
:103F1000214AD2690243204BDA6104E01E4AD26989
:103F200082431D4BDA61704729B11B4AD2680243B4
:103F3000194BDA6004E0184AD2688243164BDA6003
:103F4000704729B1144A12690243134B1A6104E005
:103F5000114A12698243104B1A6170471249403965
:103F6000086070470F49C86470470B49C8717047B3
:103F70000948406A40F0807007494862704701462E
:103F80000020054A92680A400AB1012000E00020A2
:103F90007047014988727047001002400000FFF826
:103FA000FFFFF6FE000042428004424200127A0007
:103FB00000093D00180000202800002010B504462C
:103FC000FB48844209D101218803FFF7ADFF00219E
:103FD0004FF48040FFF7A8FF32E0F648844209D151
:103FE00001214804FFF7ADFF00214FF40030FFF737
:103FF000A8FF25E0F048844209D101218804FFF799
:10400000A0FF00214FF48020FFF79BFF18E0EB4852
:10401000844209D10121C804FFF793FF00214FF426
:104020000020FFF78EFF0BE0E548844208D1012114
:104030000805FFF786FF00214FF48010FFF781FF8E
:1040400010BD2DE9F04786B005460E460024A24675
:1040500000BFA1460027B08900B100BF2F462C8ABF
:104060004CF6FF700440F08804432C82AC894EF675
:10407000F3100440B0883189084371890843044330
:10408000AC81AC8A4FF6FF400440B0890443AC8257
:1040900001A8FFF7C2FEC648874202D1DDF810A092
:1040A00001E0DDF80CA0A88900F4004040B10AEB63
:1040B000CA0000EB0A1031684900B0FBF1F807E0D4
:1040C0000AEBCA0000EB0A1031688900B0FBF1F876
:1040D0006420B8FBF0F004012009642101FB108981
:1040E000A88900F4004040B1322000EBC900B0FBC9
:1040F000F1F000F00700044308E0322000EB091063
:104100006421B0FBF1F000F00F0004432C8106B0F5
:10411000BDE8F0874FF41651016000218180C18015
:1041200001810C21418100218181704710B5024637
:104130000020108A4FF2FF0318400B884C8823435D
:104140008C882343CC8823431843108210BD002160
:10415000018041808180C180704721B1828942F411
:104160000052828104E082894DF6FF731A408281F9
:104170007047F0B50346002400260025002040F6D5
:104180006A17B94200D100BF1846C1F3421401F0CA
:104190001F06012707FA06F5012C01D10C3004E0B7
:1041A000022C01D1103000E014301AB107682F43FF
:1041B000076002E00768AF430760F0BD1AB1838A69
:1041C0000B43838202E0838A8B4383827047028A97
:1041D0004FF6F0731A400282028A0A430282704745
:1041E00082894FF2FF731A40828182890A43828159
:1041F000704721B1828942F00202828104E0828903
:104200004FF6FD731A4082817047028A4FF6DF73C2
:104210001A400282028A0A430282704721B1028A4E
:1042200042F48042028204E0028A4BF6FF731A4095
:1042300002827047C1F30802828070470146888875
:10424000C0F308007047818941F001018181704706
:10425000028BD2B20283028B42EA012202837047B0
:10426000028B02F47F420283028B0A43028370476F
:1042700021B1828A42F02002828204E0828A4FF6D3
:10428000DF731A408282704721B1828A42F01002A5
:10429000828204E0828A4FF6EF731A40828270476E
:1042A00021B1828A42F00802828204E0828A4FF6BB
:1042B000F7731A408282704721B1828942F400422A
:1042C000828103E08289C2F30E028281704721B1AC
:1042D000828A42F40062828204E0828A4FF2FF7393
:1042E0001A4082827047828A4FF6FB731A4082829C
:1042F000828A0A438282704721B1828A42F0020296
:10430000828204E0828A4FF6FD731A4082827047EF
:1043100002460020B1F5007F00D100BF13880B409A
:104320000BB1012000E00020704701F40072B2F5EB
:10433000007F00D100BFCA430280704770B50246BB
:10434000002400230025002040F66A16B14200D167
:1043500000BFC1F3421501F01F03012606FA03F363
:10436000012D02D19689334006E0022D02D1168A32
:10437000334001E0968A33400C12012606FA04F419
:104380001688344013B10CB1012000E0002070BD4C
:1043900010B50022002340F66A14A14200D100BFEC
:1043A0000A1201249440A3B2DC43048010BD000033
:1043B000003801400044004000480040004C0040EC
:1043C00000500040704770477047754600F02CF869
:1043D000AE4605006946534620F00700854618B0F2
:1043E00020B5FFF7EBF9BDE820404FF000064FF095
:1043F00000074FF000084FF0000B21F00701AC461A
:10440000ACE8C009ACE8C009ACE8C009ACE8C00938
:104410008D46704710B50446AFF300802046BDE8D6
:104420001040FBF7CCBE0000004870472C00002075
:1044300050440008000000202C0000006C0100081F
:104440007C4400082C00002064060000880100085D
:1044500000A24A0400000000000000000102030462
:104460000607080900000000000000000102030424
:0C44700001020304060708090204060804
:0400000508000131BD
:00000001FF
